:10000000E0200020E51D0000E11D0000E11D0000D2
:1000100000000000000000000000000000000000E0
:10002000000000000000000000000000E11D0000D2
:100030000000000000000000E11D0000E11D0000C4
:10004000E11D0000E11D0000E11D0000E11D0000B8
:10005000E11D0000E11D0000E11D0000E11D0000A8
:10006000E11D0000191500002915000039150000D8
:10007000491500005915000069150000E11D000038
:10008000E11D0000E11D00000D0D00001D0D000030
:100090002D0D00000000000000000000E11D000028
:1000A000E11D0000E11D0000E11D0000E11D000058
:1000B0000000000010B5064C2378002B07D1054B3B
:1000C000002B02D0044800E000BF0123237010BDC4
:1000D000100000200000000000230000084B10B5B5
:1000E000002B03D00749084800E000BF0748036819
:1000F000002B00D110BD064B002BFBD09847F9E731
:100100000000000014000020002300000023000075
:100110000000000030B585B004000023039305689B
:100120002F4B98472B79002B56D101332B712D4B38
:1001300098479F2201AB1A706279D10900230029E8
:1001400004D15309DB0128498C4663441F21114027
:1001500001228A405A61012201A92068234B984755
:100160000023032203A92068214DA8476279D10901
:100170000023002904D15309DB011B498C46634449
:100180001F21114001228A409A61002322681371C5
:100190002379092B15D89B00164AD3589F46164B36
:1001A00012E0164B10E0164B0EE0164B0CE0164B0F
:1001B0000AE0164B08E0164B06E0164B04E0164B1F
:1001C00002E0002300E0154B039A9A4202D014206B
:1001D00005B030BD0020FBE7024B98470520F7E74C
:1001E00079150000B9150000004400410D1200000F
:1001F00039110000B42100001F4300001F4401001A
:100200001F4502001F4501001F4602001F46030054
:100210001F8600001F4701001F4800001F650000E7
:10022000F0B585B004000E0001921F005A18037942
:10023000092B15D89B003249CB589F468023DB02FF
:1002400012E080231B030FE080235B030CE080237C
:100250009B0309E08023DB0306E080231B0403E00B
:10026000002301E080235B0217209A4201D905B0E8
:10027000F0BD2568234B98472B79002B3CD10133E7
:100280002B71214B98470B2302AA1370D670330AA7
:100290009370360C56706279D1090023002904D17D
:1002A0005309DB0119498C4663441F211140012287
:1002B0008A405A61052202A92068154B9847002FF1
:1002C00013D16279D1090023002904D15309DB013C
:1002D0000E498C4663441F21114001228A409A61D5
:1002E000236800221A710020C1E700233A00019917
:1002F0002068084DA847E4E7034B98470520B6E778
:10030000DC21000079150000B9150000004400410F
:100310000D12000039110000F0B5DE4657464E467A
:100320004546E0B585B005000E0001921F005A1841
:100330000379092B15D89B00AE49CB589F468023E3
:10034000DB0212E080231B030FE080235B030CE041
:1003500080239B0309E08023DB0306E080231B044A
:1003600003E0002301E080235B0217209A4206D9B4
:1003700005B03CBC90469946A246AB46F0BD2C6801
:100380009D4B98472379002B00D02EE10133237138
:100390009A4B9847062302AA13706A79D109002361
:1003A000002904D15309DB0195498C4663441F2180
:1003B000114001228A405A61012202A92868914B0A
:1003C00098476A79D1090023002904D15309DB0138
:1003D0008B498C4663441F21114001228A409A6157
:1003E000FF22324080235B009B1A1A1C9BB2BB4247
:1003F00000D93A1C93B29A46022302AA1370D6700F
:10040000330A9370330C53706A79D10900230029A1
:1004100004D15309DB017A498C4663441F21114002
:1004200001228A405A61042202A92868754B984724
:100430005346002B45D16A79D1090023002904D104
:100440005309DB016E498C4663441F211140012290
:100450008A409A612B68196801220B7E1342FCD0F6
:100460006A79D1090023002904D15309DB016449C9
:100470008C4663441F21114001228A405A612B6837
:100480001B681A7ED20701D505229A622868026885
:100490000421137E0B42FCD0137E00245B0709D598
:1004A000538B5B0701D5042353838379012B0ED033
:1004B000946AE4B20121002398460420B4462E0039
:1004C00010E05246019928684E4B9847B3E7936A6B
:1004D000DB05DC0DEEE7AB79012B1AD0946AE4B2B0
:1004E00021421AD033681A68137E0B42FCD0137E67
:1004F0000B4201D04346936235682A68137E03425B
:10050000FCD0137E0342EBD0538B0342E3D05083E5
:10051000E1E7946AE405E40DE2E7350066466A79AE
:10052000D1090023002904D15309DB0134498C4649
:1005300063441F21114001228A409A611020A306C2
:100540004FD45346FF1ABBB21900019A91460020BE
:10055000002B46D01F239B4601242A4B9846534626
:1005600001938A4658E01A0049462868254B984767
:10057000A4E0906AC005C00DE1E0BB79012B1AD060
:10058000906AC0B204421AD02B681A68137E2342C4
:10059000FCD0137E234201D0002393622F683A6877
:1005A000137E0B42FCD0137E0B42EBD0538B0B42DD
:1005B000E3D05183E1E7906AC005C00DE2E76B79B3
:1005C000D9090022002904D15A09D2010C498C46CC
:1005D000624459460B40210099409161830613D52E
:1005E00010202B6800221A71C2E6044B98470520A0
:1005F000BEE6C0460822000079150000B9150000CB
:10060000004400410D1200005346019A9B1A9BB210
:100610009A46002B00D194E002AB06221A706B7947
:10062000D9090022002904D15A09D20146498C4631
:10063000624459460B40210099405161220002A9B1
:100640002868C0476B79D9090022002904D15A09CA
:10065000D2013D498C46624459460B4021009940E5
:100660009161019A94466644E144574680235B00B9
:100670009A4501D9354B1F88BBB20193022302AAC8
:100680001370D670330A9370330C53706B79D90999
:100690000022002904D15A09D2012B498C46624418
:1006A00059460B40210099405161042202A9286853
:1006B000274B9847019B002B00D054E76B79D90951
:1006C0000022002904D15A09D2011F498C466244F4
:1006D00059460B402100994091612B681A68137E9E
:1006E0002342FCD06B79D9090022002904D15A0990
:1006F000D20115498C46624459460B40210099406D
:1007000051612B681B681A7E224201D005229A6231
:100710002B689C461A680421137E0B42FCD0137E82
:1007200000205B070BD5538B5B0701D50423538354
:1007300063469B79012B00D11BE7906AC0B204216C
:1007400022E700204DE7C04600440041042200009B
:100750000D120000F0B583B004000E0015000379FF
:10076000092B00D9F2E09B007B4AD3589F46802397
:10077000DB0210E080231B030DE080235B030AE013
:1007800080239B0307E08023DB0304E080231B041A
:1007900001E080235B021720B34201D803B0F0BD13
:1007A00027686E4B98473B79002B00D0D0E001338F
:1007B0003B716B4B984706236A4613706279D109E7
:1007C0000023002904D15309DB0166498C466344A8
:1007D0001F21114001228A405A6101226946206886
:1007E000614B98476279D1090023002904D153094C
:1007F000DB015C498C4663441F21114001228A4081
:100800009A61012D06D0002D63D0D823022D02D08D
:10081000002300E052236A461370D670330A9370A7
:10082000360C56706279D1090023002904D153098E
:10083000DB014C498C4663441F21114001228A4050
:100840005A61042269462068474B98476279D1096A
:100850000023002904D15309DB0142498C4663443B
:100860001F21114001228A409A61236819680122E0
:100870000B7E1342FCD06279D1090023002904D1F8
:100880005309DB0137498C4663441F211140012283
:100890008A405A6123681B681A7ED20701D5052257
:1008A0009A62206802680421137E0B42FCD0137EFA
:1008B00000255B0709D5538B5B0701D504235383C0
:1008C0008379012B07D0956AEDB20121002704201E
:1008D0000CE020239FE7956AED05ED0DF5E7B37970
:1008E000012B19D0956AEDB2294219D023681A68F4
:1008F000137E0B42FCD0137E0B4200D09762266819
:100900003268137E0342FCD0137E0342ECD0538B3B
:100910000342E4D05083E2E7956AED05ED0DE3E78D
:100920006279D1090023002904D15309DB010D4963
:100930008C4663441F21114001228A409A61A80617
:10094000C00F0001236800221A7127E7172025E74E
:10095000034B9847052021E730220000791500005D
:10096000B9150000004400410D12000070B582B0BE
:1009700004000D000668354B98473379002B60D191
:1009800001333371324B984706236A4613706279FC
:10099000D1090023002904D15309DB012D498C46DC
:1009A00063441F21114001228A405A610122694695
:1009B0002068294B98476279D1090023002904D186
:1009C0005309DB0123498C4663441F211140012256
:1009D0008A409A613C236A1E95416D422B406A46CB
:1009E000D37101236A4613706279D109002300296B
:1009F00004D15309DB0117498C4663441F21114080
:100A000001228A405A61012269462068124DA84796
:100A100001226B46D91D2068A8476279D1090023BD
:100A2000002904D15309DB010A498C4663441F2184
:100A3000114001228A409A61236800221A71002025
:100A400002E0034B9847052002B070BD7915000005
:100A5000B9150000004400410D120000F0B583B04C
:100A600004000E0015000379092B00D97FE09B00DC
:100A7000424AD3589F468023DB0210E080231B03A9
:100A80000DE080235B030AE080239B0307E08023C3
:100A9000DB0304E080231B0401E080235B021720BA
:100AA000B34201D803B0F0BD2768354B98473B7976
:100AB000002B5ED101333B71324B984706236A46C7
:100AC00013706279D1090023002904D15309DB0195
:100AD0002D498C4663441F21114001228A405A61EE
:100AE000012269462068294B98476279D109002381
:100AF000002904D15309DB0123498C4663441F219B
:100B0000114001228A409A613623002D00D103331F
:100B10006A461370D670330A9370360C5670627939
:100B2000D1090023002904D15309DB0116498C4661
:100B300063441F21114001228A405A610422694600
:100B40002068124B98476279D1090023002904D10B
:100B50005309DB010C498C4663441F2111400122DB
:100B60008A409A61236800221A7100209AE71720B0
:100B700098E7044B9847052094E7C04658220000A8
:100B800079150000B9150000004400410D12000065
:100B900030B583B0040005681C4B98472B79002BB7
:100BA0002ED101332B711A4B9847B9236A46137023
:100BB0006279D1090023002904D15309DB011549C9
:100BC0008C4663441F21114001228A405A61012250
:100BD00069462068104B98476279D10900230029A3
:100BE00004D15309DB010B498C4663441F2111409A
:100BF00001228A409A61236800221A71002002E0D3
:100C0000034B9847052003B030BDC046791500005E
:100C1000B9150000004400410D12000030B583B04A
:100C2000040005681C4B98472B79002B2ED101330B
:100C30002B711A4B9847AB236A4613706279D1091E
:100C40000023002904D15309DB0115498C46634474
:100C50001F21114001228A405A6101226946206801
:100C6000104B98476279D1090023002904D1530918
:100C7000DB010B498C4663441F21114001228A404D
:100C80009A61236800221A71002002E0034B984702
:100C9000052003B030BDC04679150000B91500002D
:100CA000004400410D12000070B58000164BC4587E
:100CB00023689D7B227E637E13401D40EB0706D494
:100CC000AB070BD4EB0610D4AB0615D470BD2000D7
:100CD000A3689847012322689373F1E72000E36833
:100CE0009847022322689373ECE720002369984712
:100CF000102322689373E7E720006369984723680D
:100D000020229A73E2E7C0467400002010B500204C
:100D1000014B984710BDC046A90C000010B501203A
:100D2000014B984710BDC046A90C000010B5022029
:100D3000014B984710BDC046A90C000010B54908EA
:100D400040230024814202D2180010BD1C00091A61
:100D5000631C9BB28842F9D94023FF2CF4D814803D
:100D60000023F1E710B582B004000E4B1B78002B76
:100D700007D0002905D10B4B5B78834210D01D2092
:100D80000CE001A90C701320074B98471320074B68
:100D90009847044B5C7001221A70002002B010BD0D
:100DA0000020FBE72C000020891C0000FD1B000038
:100DB000404B984231D00AD93F4B98424DD03F4BDF
:100DC00098425AD03E4B984237D0002070473D4B56
:100DD00098420CD03C4B9842F7D1012917D00029FA
:100DE0005DD0022915D0032915D00020EEE7012996
:100DF00007D0002951D0022905D0032905D00020B1
:100E0000E4E73248E2E73248E0E73248DEE73248DA
:100E1000DCE73248DAE73248D8E7012907D0002971
:100E20003FD0022905D0032905D00020CEE72D4868
:100E3000CCE72D48CAE72D48C8E7012907D000298B
:100E400031D0022905D0032905D00020BEE728486B
:100E5000BCE72848BAE72848B8E7012907D00029A5
:100E600023D0022905D0032905D00020AEE723486E
:100E7000ACE72348AAE72348A8E7012907D00029BF
:100E800015D0022905D0032905D000209EE71E4871
:100E90009CE71E489AE71E4898E71E4896E70320FD
:100EA00094E71D4892E71D4890E71D488EE71D48CE
:100EB0008CE7C0460010004200180042001C0042AF
:100EC0000014004200080042000C0042030005002C
:100ED00003000600030007000300010003001E00DA
:100EE00003001F000300090003000A0003000B00B9
:100EF00003001100030012000300130003000D00A3
:100F000003000E0003000F00030017000300180089
:100F10000300190003000400030008000300100090
:100F200003000C000300160030B587B00B4B6A4677
:100F300032CB32C232CB32C2009B83420BD0012370
:100F40009A0069465258824206D00133062BF7D1E7
:100F5000002007B030BD0023D8B2FAE7802200009D
:100F6000F0B58BB005000C00160029600B681C2042
:100F70009B0701D50BB0F0BD0B681738DB07F9D420
:100F80000800604B9847604A116A871C0123BB40E8
:100F90000B43136209A92427F35D0B701430C3B20D
:100FA00001931800594B98470198594B9847F05DA9
:100FB0000021584B98473378012B38D02B000C3345
:100FC00029002831002204C38B42FCD10023EB62AC
:100FD000AB620024AB862B863633EC540133EC54E1
:100FE0000133EC54353B6B722C712868454B9847A4
:100FF00007004949494B9847BF00494BFD502F68AE
:1010000004AB80221A705C707F3A9A70DC7033787F
:10101000002B02D1002204AB9A70B36A0593F36AE5
:101020000693336B0793736B089300240BE02368DC
:101030000C2213432360C1E738003A4B98470AE07B
:101040000134042C10D0E1B2A30002AA0C20121823
:10105000D0580028F0D0431CF2D004A90870000C2E
:10106000C0B2314B9847EBE733786B71337CAB718F
:10107000B37CEB71337D2B72002202ABDA803378C4
:10108000012B28D07368B2681343F2681343317C94
:10109000727C002A03D1254A9278920701D58022DA
:1010A0001343B27C002A02D0802292021143F27CC8
:1010B000002A02D0802292001143327D002A02D001
:1010C0008022920111433A6813433B607B680B43D3
:1010D0007B6000204EE728680A4B98471430C0B266
:1010E000134B9847010002AB9A1DB069114B98470A
:1010F00003001720002B00D03CE702AB06331B781F
:101100003B73BFE7290F000000040040891C00006A
:10111000FD1B0000650D0000D9120000AD14000099
:1011200084000020B10D0000811D0000002000415E
:10113000A51C00003D0D0000F0B5D646474680B521
:1011400083B03824055D333C052D02D01234002ACB
:1011500005D1200003B00CBC90469A46F0BDC4797E
:10116000002C44D11C34F4E705682C7E3C42FCD0B2
:101170002C7E3C421AD04446AC6217E08479012CA4
:1011800026D0AD6AECB2A446019C002C3AD1751C65
:10119000ADB264468C558479012C1ED02E00013AE4
:1011A00092B252451FD04479012CDDD005682C7EC7
:1011B0001C42FCD02C7E1C4217D06C8BA446002411
:1011C000019464461C42D9D06B831E240194D5E758
:1011D000AC6AE405E40DA446D6E70236B6B264462E
:1011E000240A4C55DBE7019CB3E71024B1E7013A30
:1011F00092B200260127DB05DB0D98460423024C42
:10120000A246D0E7019CA4E7FFFF0000F0B5DE4650
:1012100057464E464546E0B583B08A463823C45CFF
:10122000333B052C02D01233002A4BD1180003B0F7
:101230003CBC90469946A246AB46F0BD0237BFB2D1
:1012400041465346595C09025B460B4318E08379DB
:10125000012B2AD0936A013EB6B2664527D00268B8
:10126000137E2342FCD07B1C9BB298465346DB5D29
:101270009B4681790129E1D06946CB80CB884746DE
:10128000117E214202D0DB05DB0D9362C379002B76
:10129000E1D00268137E2B42FCD0137E2B42DAD0C1
:1012A000538B2B42D3D05583D1E7936AD3E742794E
:1012B0000023012ABAD1016801320B7E1342FCD00F
:1012C0000023B3E7013A96B2002701240425014B1D
:1012D0009C46C4E7FFFF0000F8B58000704BC4587F
:1012E00026683723E75C3622A25C1740337EB57D43
:1012F0001D40EB0702D56379012B1ED06B0711D57A
:10130000738B5B075AD5637A012B08D01E223823D2
:10131000E254353B6372023333753B074AD4B36AF8
:1013200004237383AB0703D56379012B00D197E0C6
:101330006DB2002D00DAA9E0F8BD637A002B22D04F
:10134000637A002BDAD02168E26A1378DBB2501C92
:10135000E062A079012827D09BB2DB05DB0D8B6210
:10136000A38E013B9BB2A386A38E9BB2002BC5D15B
:1013700001333375637A012BC0D1E379002BBDD1E2
:101380000233B375BAE7474B1B88B362638E013BE8
:101390009BB26386638E9BB2002B01D10133337500
:1013A0006379012BCCD0A9E75078000203430232C5
:1013B000E262D2E72000A3699847B0E7637A012B85
:1013C00028D023689B6ADB05DB0DDAB2A16A0A70BC
:1013D000A26A511CA162A179012934D0238E013B5C
:1013E0009BB22386238E9BB2002B00D09AE700226B
:1013F0003833E254343B3375637A022B29D0637A55
:10140000002B00D08EE7BB0700D48BE720002369B8
:10141000984787E723689B6A638E013B9BB263868C
:10142000638E9BB2002B00D07CE70433337500221F
:101430003433E254353B6372FB0700D472E720007B
:10144000E36898476EE71B0A5370A36A0133A362EF
:10145000C4E77B0700D465E720006369984761E72C
:10146000637A012B00D063E7E379002B00D05FE7BC
:10147000023333750133637200223533E254FB07C4
:1014800000D455E72000E368984751E7802333757F
:1014900033767B0600D44FE7636A200098474BE71A
:1014A000840000208000002070470000F0B50A4B47
:1014B0001B78002B0CD1094F094E0A4D0024DE5138
:1014C0005A1914600433182BF9D10122024B1A70F7
:1014D0008000024BC150F0BD2E00002030000020E3
:1014E000A91400008400002000B583B009236A46D7
:1014F000137001335370013393700133D370013390
:10150000137101335371034B98476B46185603B060
:1015100000BDC046290F000010B5024B1B6800201B
:10152000984710BD3000002010B5024B5B680120C9
:10153000984710BD3000002010B5024B9B68022078
:10154000984710BD3000002010B5024BDB68032027
:10155000984710BD3000002010B5024B1B690420D5
:10156000984710BD3000002010B5024B5B69052084
:10157000984710BD300000200C4B1B68002B06D193
:10158000EFF31083002B07D00022094B1A70074A93
:10159000136801331360704772B6BFF35F8F002288
:1015A000044B1A700132024B1A70F0E74800002019
:1015B0004C00002000000020084B1A68013A1A6015
:1015C0001B68002B09D1064B1B78002B05D001228C
:1015D000044B1A70BFF35F8F62B67047480000205B
:1015E0004C00002000000020F0B583B001AC0125C4
:1015F00065700027A770257021001720064EB047A0
:1016000080221204054B9A612770657021003720F3
:10161000B04703B0F0BDC0462116000000440041B1
:1016200000B583B001AB80221A700A785A704A78EC
:101630009A708A78DA701900014B984703B000BDA0
:10164000811D000010B5082803D880001B4B1B58D3
:101650009F46002030E01A4B18692DE0194B1B6A99
:101660009B059B0F1848D84026E0154B586923E08E
:10167000134B1B6800209B071ED512491022CB6814
:101680001A42FCD00E4B1B685B0701D40F4813E0D5
:1016900000200F4B98470A4B9B681B041B0C5843B8
:1016A0000AE05023074AD35C00205B0704D5044BB3
:1016B000D86801E08020000210BDC04698220000DA
:1016C000500000200008004000127A00006CDC028C
:1016D000A51C000070B50C490B6A04788578407829
:1016E0000122104080014026B34303432A40D20127
:1016F0008020834313430322224012020348034005
:1017000013430B6270BDC04600080040FFFCFFFFA2
:10171000F0B5DE4657464E464546E0B50100264B3D
:101720009B469B8A457800784242424191468878A0
:10173000CA7894460A7990464E7B0F7B8C7B8A68E8
:101740001E494A6101214A46920091460422934370
:101750004A46134342460A40D20090460822934329
:101760004246134362460A401201944610229343B4
:1017700062461343084040012022934303430F4035
:10178000BF01402083433B430E40F601403083437A
:101790003343793805402D02094803402B4321404B
:1017A0000903084803400B435A4693823CBC9046C9
:1017B0009946A246AB46F0BD00080040500000200C
:1017C000FFF8FFFFFFEFFFFF10B5037A9B061B0C2E
:1017D00042899205920D134318494B608379C2796F
:1017E000134342888488224313434278D20113432F
:1017F0000B600378042B11D0202B0ED1037B9B06AA
:10180000028A1343C28912040D490A4013430B4A4A
:10181000936011680B4B0B43136010BD037B9B0659
:10182000028A1343C289120405490A401343034A3A
:101830009360136804210B431360EEE7500000200F
:101840000000FF0324040000082803D88000254B73
:101850001B589F46172044E0234A136A02210B437A
:10186000136200203DE0204A936902210B439361FB
:10187000002036E01C4A138A02210B431382002009
:101880002FE0194A938A02210B439382002028E01B
:1018900016490B68022213430B60134B9A841900FC
:1018A0000E32CB681A42FCD0104A91680E4BD962B6
:1018B00052689A6200229A8419001032CB681A4248
:1018C000FCD00A4B1B689BB2074A9384002008E0B7
:1018D000054944228B5C022003438B54002000E026
:1018E00000207047BC22000000080040500000208B
:1018F000F0B58FB0C222D200474B9A60474A536876
:101900001E218B431A390B435360022201AB1A701C
:101910000024434DE0B201A9A8470134252CF9D198
:101920000AA8002303708370802212028260C370B1
:101930000122027103738373023242704373394B85
:1019400098470520384B984733490222CB681A4202
:10195000FCD0314A938A80210B43938205AB00214E
:101960000022598099809A71DA713F3159813B394F
:1019700019705A702D4B1B689B0E3F2B4AD005A83F
:1019800003722B4B0382072303733833C381294B24
:10199000984704A800254570012686700570264BDF
:1019A00098470620204FB847244B984701AC029631
:1019B0006570257265720523237021000120204B7C
:1019C000984701201F4B9847267021000020144B98
:1019D000984700201C4B98470720B8470E49D02253
:1019E000CB681340D02BFBD1184A002313725372DB
:1019F0009372D37201A901224A604B700B724B7231
:101A000007330B7000200E4B984700200D4B984772
:101A10000FB0F0BD203BB2E700080040004000419D
:101A2000891C000011170000491800002460800084
:101A3000B9050000C9170000D5160000511A0000B2
:101A4000751A00002D1B0000FD1B00000004004063
:101A5000064A936908210B4393610122044B1A70D3
:101A600019000B781342FCD17047C04600040040B7
:101A7000000C004070B5060004000D782D020543EF
:101A80004B78002B02D08023DB021D434B7A002BC6
:101A900002D080231B031D434868012810D9431E30
:101AA000184234D1022830D90223002201325B00CF
:101AB0009842FBD812023243140080235B031D437B
:101AC0000B7A002B02D080239B031D43134A5378CB
:101AD0005BB2002BFBDB124B9847124B1E700F4A78
:101AE00053785BB2002BFBDB0C4B9C601A005378E5
:101AF0005BB2002BFBDB094A5368802149020B4093
:101B00001D435560084B984770BD0022D2E7040280
:101B1000344380239B021D43D2E7C046000C0040A3
:101B200079150000080C0040B915000010B504003C
:101B30000B4A53785BB2002BFBDB0A4B98470A4BEE
:101B40001C70074A53785BB2002BFBDB044A5168D8
:101B500080235B020B435360044B984710BDC04683
:101B6000000C004079150000040C0040B91500007D
:101B700070B504001A4A53785BB2002BFBDB194B9B
:101B80009847194B1C70164A53785BB2002BFBDB4D
:101B9000134E7068C004C00E144B98470500124BDA
:101BA0001C707668F602F60F114B1C700C4A5378C5
:101BB0005BB2002BFBDB0A4B9C682402240C0D4B10
:101BC0009847002E07D1012C07D9210028000A4B85
:101BD0009847050001E00134E540280070BDC0468B
:101BE000000C004079150000040C00404516000070
:101BF000080C0040B91500004520000010B5040095
:101C0000064B9847064B1C70064A53888021C90131
:101C10000B435380044B984710BDC0467915000014
:101C2000020C0040000C0040B915000010B5040083
:101C30000F4B98470F4B1C700F4A53881B05180F0A
:101C400053880E490B40538053880D490B405380F5
:101C500011008022D2014B881342FCD106494A88E8
:101C600003020648024013434B80064B984710BDC1
:101C700079150000020C0040000C0040FFF0FFFF4F
:101C8000FFBFFFFFB915000010B50C782402044314
:101C9000024B9847A4B2024B5C8010BD2D1C000083
:101CA000000C004010B50400064B9847064B1C7012
:101CB000064B5C882405240F054B98472000054BF4
:101CC000984710BD79150000020C0040000C004040
:101CD000B9150000711B000030B5D378002B35D149
:101CE0001378802B29D01B06802464022343547868
:101CF0000225AC4306D19478002C20D18024A40284
:101D0000234341605478013C012C1CD90D042D0C57
:101D1000A024E4052C431C4384620D0CD02424062B
:101D20002C431C438462D478002C22D15B031CD545
:101D30009378012B1ED0416117E00023D7E7C02420
:101D4000E4022343DDE70D4C2340DFE741600C0450
:101D5000240CA023DB05234383620C0CD0231B0639
:101D600023438362D378002B03D15378013B012BAB
:101D700002D930BD8161F8E78160FAE7FFFFFBFF20
:101D800010B50A00C1090023002904D14309DB0171
:101D900005498C4663441F242040012181401800DE
:101DA000024B984710BDC04600440041D91C0000BA
:101DB0007047000010B5054B9847054B9847054BF9
:101DC0009847054B9847054B984710BDF118000000
:101DD000E9150000B11D0000B11D0000B11D00009B
:101DE000FEE70000F8B52A4A2A4B9A4211D01A00A1
:101DF000294B9A420DD2294A03339B1A9B0801337F
:101E00009B000022234822498C58845004329A4275
:101E1000FAD1234A234B9A420AD2D34321495B1871
:101E200003218B4304339B18002102C29342FCD14F
:101E30001D4AFF211D4B8B439360FD3990235B00AE
:101E40001B4AD1501B4AD3780325AB4302242343BA
:101E5000D370D3780C27BB4308263343D370164B7B
:101E6000987B30229043202210439873997BB9438A
:101E7000314399739A7BAA4322439A730F4A53685A
:101E800080210B4353600E4B98470E4B9847FEE75B
:101E900000230000000000201000002004000020AB
:101EA00010000020E000002000ED00E00000000035
:101EB00000700041005000410048004100400041D6
:101EC0005D210000C91E000070B590B0434B9847DB
:101ED00002AC0125257000230393049323746374DB
:101EE000A574E57423752422A354183A002108A888
:101EF0003B4B98473B4BA36180235B02E3603A4B2B
:101F0000A3623A4BE3623A4B23633A4B63633A4E24
:101F100022003A4930003A4B984734682000394B48
:101F200098471F2318408540374B1D603368DA6996
:101F3000002AFCD12368023213432360334C04236C
:101F40002371033363712C4B236001A901234B7070
:101F500000228A700B7007202D4B984763795A092D
:101F6000D8090021002802D1D2012A4951181F2284
:101F70001A40012393408B61244C2000264B984744
:101F80002000264B984780256D0200222900200062
:101F9000234B9847002229002000224B98470A2310
:101FA000214A29002000214EB0470A23204A290057
:101FB0002000204DA847012120001F4B98472000FA
:101FC0001E4B98471E4880231B04124900E08B617A
:101FD000026A1A42FBD14B61FAE7C046B51D000008
:101FE000A5210000C0D40100020010000200110071
:101FF0000200120002001300A4000020000C0042A6
:10200000610F0000E914000000E100E09C000020E6
:1020100021160000004400411D0C000015010000C5
:102020005D0A0000550700000400002019030000AD
:1020300068000020210200006D090000910B0000E3
:1020400080440041002243088B4274D303098B4231
:102050005FD3030A8B4244D3030B8B4228D3030C78
:102060008B420DD3FF22090212BA030C8B4202D31A
:102070001212090265D0030B8B4219D300E0090A42
:10208000C30B8B4201D3CB03C01A5241830B8B424B
:1020900001D38B03C01A5241430B8B4201D34B0334
:1020A000C01A5241030B8B4201D30B03C01A524199
:1020B000C30A8B4201D3CB02C01A5241830A8B421E
:1020C00001D38B02C01A5241430A8B4201D34B0207
:1020D000C01A5241030A8B4201D30B02C01A52416B
:1020E000CDD2C3098B4201D3CB01C01A524183091F
:1020F0008B4201D38B01C01A524143098B4201D359
:102100004B01C01A524103098B4201D30B01C01A83
:102110005241C3088B4201D3CB00C01A52418308FD
:102120008B4201D38B00C01A524143088B4201D32A
:102130004B00C01A5241411A00D20146524110468A
:102140007047FFE701B5002000F006F802BDC04669
:102150000029F7D076E770477047C04670B5002673
:102160000C4D0D4C641BA410A64209D1002600F0B2
:10217000B7F80A4D0A4C641BA410A64205D170BDE5
:10218000B300EB5898470136EEE7B300EB58984799
:102190000136F2E7EC220000EC220000EC22000005
:1021A000F022000003008218934200D1704719709A
:1021B0000133F9E7C60100009E010000A201000002
:1021C000A6010000AA010000AE010000B20100005B
:1021D000B6010000BA010000BE0100006402000068
:1021E0003C020000420200004802000048020000D9
:1021F0004E0200004E0200004E0200005402000099
:102200005A02000000010000660300003E030000C7
:10221000440300004A0300004A030000500300008A
:102220005003000050030000560300005C03000050
:10223000920700006E070000740700007A07000094
:102240007A07000080070000800700008007000078
:10225000860700008C0700009A0A0000760A00003A
:102260007C0A0000820A0000820A0000880A00003E
:10227000880A0000880A00008E0A0000940A000004
:1022800000080042000C004200100042001400420E
:1022900000180042001C00425616000052160000B2
:1022A00052160000B4160000B41600006A160000B2
:1022B0005C16000070160000A216000074180000E2
:1022C0005418000054180000E018000066180000C0
:1022D000821800005818000090180000D018000064
:1022E000F8B5C046F8BC08BC9E467047DD0000004B
:1022F000F8B5C046F8BC08BC9E467047B500000063
:10230000010000000001020304050607080900009F
:0400000300001DE5F7
:00000001FF
