:1000000038210020A52700009D2800009D28000021
:1000100000000000000000000000000000000000E0
:100020000000000000000000000000009D2800000B
:1000300000000000000000009D2800009D28000036
:100040009D2800009D2800009D2800009D2800009C
:100050009D2800009D2800009D2800009D2800008C
:100060009D280000F50D00000D0E0000250E00007B
:100070003D0E0000550E00006D0E00009D28000092
:100080009D2800009D2800009D2800009D2800005C
:100090009D28000000000000000000009D280000D6
:1000A0009D2800009D2800009D2800009D2800003C
:1000B0000000000010B5064C2378002B07D1054B3B
:1000C000002B02D0044800E000BF0123237010BDC4
:1000D000700000200000000080460000084B10B5B2
:1000E000002B03D00749084800E000BF0748036819
:1000F000002B00D110BD064B002BFBD09847F9E731
:1001000000000000740000208046000080460000CF
:100110000000000080B500AFC046BD4680BD0000B5
:1001200080B582B000AF78607B68002B0CD0084BA4
:100130007A685A60064B00229A60C046044B1A68DF
:1001400080235B021340F9D0C046BD4602B080BD9B
:1001500010E000E080B500AF00200F4B9847020090
:100160000E4B1A600D4B18680D4BFA229100984700
:1001700003001A00094B1A60084B1868084BFA2252
:100180009100984703001A00064B1A60064B05229F
:100190001A60C046BD4680BD592300000000002003
:1001A0001D3100000400002010E000E080B582B0A6
:1001B00000AF786004E0074B1B681800064B9847B7
:1001C0007B685A1E7A60002BF5D1C046BD4602B04E
:1001D00080BDC046000000202101000080B582B033
:1001E00000AF104B1B68002B12D1EFF310837B6024
:1001F0007B68002B09D172B6BFF35F8F0A4B0022D8
:100200001A700A4B01221A7002E0084B00221A7081
:10021000044B1B685A1C034B1A60C046BD4602B013
:1002200080BDC0468C000020080000209000002007
:1002300080B500AF0B4B1B685A1E0A4B1A60094B66
:100240001B68002B0AD1084B1B78DBB2002B05D0B2
:10025000064B01221A70BFF35F8F62B6C046BD46DF
:1002600080BDC0468C0000209000002008000020C7
:1002700080B582B000AF074B7B607B681B7DDBB233
:100280001A00012313405A1E9341DBB21800BD46E9
:1002900002B080BD0040004180B582B000AF0200D6
:1002A0003960FB1D1A70FB1D1B78012B0AD0022B35
:1002B0000FD0002B14D10E4B0D4A91693A680A43B6
:1002C0009A610FE00A4B0A4AD1693A680A43DA6137
:1002D00008E0074B064A116A3A680A431A6201E0CD
:1002E000172300E000231800BD4602B080BDC046C1
:1002F0000004004080B584B000AF7860314BFB60F3
:1003000004210120304B9847FB681B8B9BB22022B5
:10031000FF3213439AB2FB681A832C4B98470300B1
:100320001A0001235340DBB2002B01D0052345E026
:100330007B681B781B021A00C0239B001A407B6855
:100340005B78DB011900FF230B401A437B689B7825
:100350005B0019001E230B401A437B68DB789B046B
:1003600019008023DB020B401A437B681B791B04B6
:100370001900C0239B020B401A43FB685A60FB68BC
:100380009B685B035B0FDBB21A00082393409AB2B1
:100390000F4B1A80FB689B689AB20D4B5A807B68A2
:1003A0005A780B4B1A71FB681B8B9BB21A00802387
:1003B0005B00134001D0102300E000231800BD466D
:1003C00004B080BD004000419902000071020000AD
:1003D0009400002080B586B000AFB9607A600F232A
:1003E000FB18021C1A70384B1B881A00364B5B88AE
:1003F0005A43BB689A4209D2BB68344A934203D934
:10040000BB68334A934201D9182358E0314B7B61D2
:100410007B695B683B613B698022D2021A437B693E
:100420005A607B691B8B9BB22022FF3213439AB226
:100430007B691A83284B984703001A000123534015
:10044000DBB2002B01D0052339E00F23FB181B780A
:10045000452B1AD89A00214BD3181B689F467B69FD
:100460001B8B9BB21A0080235B00134001D010232A
:1004700025E0BB689B085A007B69DA6108E0BB682D
:100480009B085A007B69DA6102E0172317E0C04637
:100490000F23FB181B789BB2114A13439AB27B6956
:1004A0001A80C0460C4B984703001A0001235340A2
:1004B000DBB2002BF6D17B693A695A600023180041
:1004C000BD4606B080BDC04694000020FF3F8000BE
:1004D000006080000040004171020000A043000065
:1004E00000A5FFFF80B588B000AFF860B960BB1D04
:1004F0001A804C4B1B881A004A4B5B885A43FB6896
:100500009A4201D2182389E0464B1B88013B1A000E
:10051000FB68134001D0182380E0424B1B88BA1DB2
:1005200012889A4201D9172378E03F4B7B613F4BF9
:10053000984703001A0001235340DBB2002B01D07F
:1005400005236BE07B693A4A1A80C046374B9847CF
:1005500003001A0001235340DBB2002BF6D17B6964
:100560001B8B9BB22022FF3213439AB27B691A8302
:10057000FB685B08FB611A23FB1800221A8032E03B
:100580001A23FB181B88BA68D3181A781823FB188B
:100590001A801A23FB181A88BB1D1B88013B9A423C
:1005A00011DA1A23FB181B880133BA68D3181B7899
:1005B0001B021AB21823FB1800215B5E13431AB208
:1005C0001823FB181A80FB695A1CFA615B001A0099
:1005D0001823FB181B8813801A23FB181A22BA1839
:1005E000128802321A801A23FA18BB1D12881B883F
:1005F0009A42C5D30B4B1B7901225340DBB2002B2F
:100600000BD0BB1D1B883F2B07D8FB6800221900AD
:100610000420084B9847030000E000231800BD4663
:1006200008B080BD9400002000400041710200002D
:1006300044A5FFFFD503000080B584B000AF78600B
:10064000204B1B881A001F4B5B885A437B689A42D9
:1006500001D2182332E01B4B1B889B00013B1A0080
:100660007B68134001D0182328E0174BFB60174B21
:10067000984703001A0001235340DBB2002B01D03E
:1006800005231BE0FB681B8B9BB22022FF32134328
:100690009AB2FB681A837B689B085A00FB68DA6190
:1006A000FB680B4A1A80C046084B984703001A00A3
:1006B00001235340DBB2002BF6D100231800BD46C6
:1006C00004B080BD94000020004000417102000091
:1006D00002A5FFFF80B582B000AF78607B68802202
:1006E0001A707B6800225A707B6801229A707B68BE
:1006F0000022DA70C046BD4602B080BD80B584B02D
:1007000000AF02003960FB1D1A700C23FB181800A3
:10071000104B98470C23FB1880221A703B681A78FC
:100720000C23FB185A703B685A780C23FB189A70FC
:100730003B689A780C23FB18DA700C23FA18FB1D1F
:100740001B7811001800044B9847C046BD4604B002
:1007500080BDC046D50600001D27000080B582B0D0
:1007600000AF78607B6800221A70C046BD4602B0B8
:1007700080BDF0B58DB000AFB860F9603A607B60C5
:10078000002300243B627C6200230024BB61FC61E7
:100790003F23FB6253E0FB6A203B002B04DB01227A
:1007A0009A4013007B610BE0FB6A2022D31A0122DE
:1007B000DA4013000021FA6A91400A0013437B617A
:1007C0000122FB6A9A4013003B61BB69FC69DB189C
:1007D0006441BB61FC61BB683A691A401500FB6863
:1007E0007A691A4016002B00334307D0BB690122F7
:1007F0001343BB61FB6900221343FB617A68FB6909
:100800009A4219D87A68FB699A4203D13A68BB695F
:100810009A4211D8B969FA693B687C68C91AA24141
:100820000B001400BB61FC613A6A3B6913433B62F5
:100830007A6A7B6913437B62FB6A013BFB62FB6A5A
:10084000002BA8DA3B6A7C6A18002100BD460DB077
:10085000F0BD80B586B000AFF860B9607A6016234D
:10086000FB1800221A80BB683B61BB685A08FB6812
:100870009A4201D2402326E0BB685B083B610AE054
:100880003A69FB68D31A3B611623FB181A881623B2
:10089000FB1801321A803A69FB689A42F0D216239B
:1008A000FB181622BA181288013A1A801623FB1870
:1008B0001B88FF2B01D9402305E07B681622BA185C
:1008C00012881A8000231800BD4606B080BD0000C3
:1008D000F0B5A1B000AFF864B9647A644322BA18E5
:1008E0001370002300243B677C6700230024BB6651
:1008F000FC6600230024BB67FC6700237B6658234B
:1009000040229446BC4463441A78FB6C5A43BB6C47
:100910009A4201D94023B3E04323FB181B78002BF4
:100920003DD1582340229446BC4463441B78DBB23B
:100930003B6100237B61FB6CBB600023FB60524C7E
:10094000BA68FB6838697969A04703000C001B008E
:10095000FB650023BB65BB6C3B6000237B60B86D0F
:10096000F96D3A687B68494CA04703000C003B676F
:100970007C67002101223B6F7C6FC91AA2410B00EA
:100980001400BB66FC66BB6E1B0CFA6E16041E439D
:10099000BB6E1D043300BB670023FB676AE0432383
:1009A000FB181B78012B65D1FB6C3B6300237B6339
:1009B000582340229446BC4463441B78DBB2BB629C
:1009C0000023FB62304CBA6AFB6A386B796BA04734
:1009D00003000C00BB65FC65BB6C3B6200237B62C3
:1009E000BB6DFC6D1A002300386A796A274CA0475A
:1009F00003000C007B667A6E80239B019A4201D92A
:100A000040233DE0BB6CBB610023FB61B969FA691F
:100A10000B005B0F1000C000F863F86B1843F8631D
:100A20000B00DB00BB63BB6DFC6D1A002300B86BD1
:100A3000F96B164CA04703000C00BB65FC65BB6D51
:100A4000FC6DD9B27B6EDBB2DB00DAB2172340203B
:100A50008446BC4463448A1A1A7017234022944681
:100A6000BC4463441B785B031A007B6E1343BB6773
:100A70000023FB67BB6FFC6F9AB27B6C1A8000236C
:100A80001800BD4621B0F0BD3532000073070000EC
:100A900080B584B000AF0200FB1D1A70BB1D0A1C9C
:100AA0001A701A4B1B7801225340DBB2002B03D182
:100AB000BB1D1B78002B1BD00C23FB181800144BFC
:100AC00098470C23FB18FA1D12781A700C23FB1898
:100AD000190013200F4B984713200F4B98470B4BCF
:100AE000FA1D12785A70094B01221A70002308E08F
:100AF000064B5B78FA1D12789A4201D1002300E080
:100B00001D231800BD4604B080BDC0469C000020D7
:100B10005D070000312400007524000080B582B01C
:100B200000AF78600A00FB1C1A707B684D4A934244
:100B30003FD04C4A934206D84B4A93420FD04B4A7F
:100B4000934221D089E04A4A934200D15BE0494A6E
:100B5000934200D16CE0484A93423FD07DE0FB1CB9
:100B60001B78012B0AD002DC002B05D075E0022B8C
:100B700006D0032B06D070E0404B6FE0404B6DE099
:100B8000404B6BE0404B69E0FB1C1B78012B0AD00B
:100B900002DC002B05D060E0022B06D0032B06D030
:100BA0005BE003235AE0394B58E0394B56E0394BB0
:100BB00054E0FB1C1B78012B0AD002DC002B05D073
:100BC0004BE0022B06D0032B06D046E0324B45E02B
:100BD000324B43E0324B41E0324B3FE0FB1C1B7891
:100BE000012B0AD002DC002B05D036E0022B06D008
:100BF000032B06D031E02C4B30E02C4B2EE02C4B5D
:100C00002CE02C4B2AE0FB1C1B78012B0AD002DCC9
:100C1000002B05D021E0022B06D0032B06D01CE0D0
:100C2000254B1BE0254B19E0254B17E0254B15E024
:100C3000FB1C1B78012B0AD002DC002B05D00CE03A
:100C4000022B06D0032B06D007E01F4B06E01F4BFC
:100C500004E01F4B02E01F4B00E000231800BD46DC
:100C600002B080BD0010004200080042000C0042AB
:100C700000180042001C004200140042030004005F
:100C80000300050003000600030007000300010045
:100C900003001E0003001F000300080003000900FA
:100CA00003000A0003000B00030010000300110002
:100CB000030012000300130003000C0003000D00EA
:100CC00003000E0003000F000300160003001700CE
:100CD000030018000300190090B58BB000AF7860D6
:100CE0000C23FB180F4A13CA13C313CA13C30023E0
:100CF0007B620EE00C23FB187A6A9200D3581A002C
:100D00007B689A4202D17B6ADBB206E07B6A0133E0
:100D10007B627B6A052BEDD900231800BD460BB022
:100D200090BDC046B844000080B582B000AF02005C
:100D3000FB1D1A70C046BD4602B080BD80B584B0B0
:100D400000AF02003960FB1D1A70134B1B780122A3
:100D50005340DBB2002B15D00023FB600CE00F4B9F
:100D6000FA6892000E49D1500E4BFA6892000021A9
:100D7000D150FB680133FB60FB68052BEFD9064BB4
:100D800001221A70FB1D1A78044B92003968D15069
:100D9000C046BD4604B080BD9E000020A0000020DB
:100DA000290D0000DC00002090B585B000AF786010
:100DB0000823FA180C4B1000190006231A000B4BDD
:100DC00098470F23FC187B681800094B98470300CD
:100DD00023700F23FB181B780822BA18D35C5BB270
:100DE0001800BD4605B090BDD0440000D1320000CF
:100DF000D90C000080B500AF034B1B68002098475A
:100E0000C046BD4680BDC046A000002080B500AFF2
:100E1000034B5B6801209847C046BD4680BDC04675
:100E2000A000002080B500AF034B9B6802209847CC
:100E3000C046BD4680BDC046A000002080B500AFC2
:100E4000034BDB6803209847C046BD4680BDC046C3
:100E5000A000002080B500AF034B1B690420984719
:100E6000C046BD4680BDC046A000002080B500AF92
:100E7000034B5B6905209847C046BD4680BDC04610
:100E8000A000002080B582B000AF78607B680022AF
:100E90001A70C046BD4602B080BD000080B582B069
:100EA00000AF02003960FB1D1A70FB1D1B78012B7F
:100EB0000AD0022B0FD0002B14D10E4B0D4A916992
:100EC0003A680A439A610FE00A4B0A4AD1693A68C4
:100ED0000A43DA6108E0074B064A116A3A680A4396
:100EE0001A6201E0172300E000231800BD4602B09B
:100EF00080BDC0460004004080B582B000AF78607D
:100F00007B6880221A707B6800225A707B680122FD
:100F10009A707B680022DA70C046BD4602B080BD80
:100F200080B500AF054B9B78DBB21A00022313405B
:100F30005A1E9341DBB21800BD4680BD002000411F
:100F400080B584B000AF78607B681B68FB60FB688D
:100F5000DB695A1E9341DBB21800BD4604B080BD68
:100F600080B582B000AF7860C0467B681800044B43
:100F70009847031EF9D1C046BD4602B080BDC046A9
:100F8000410F0000B0B58CB002AF786039607B686B
:100F90001B68BB617B681B681800AB4B984703005C
:100FA0007B617B6914333B6100237B6200233B62DE
:100FB0000A23FB1800221A801F23FB1800221A7034
:100FC0001E23FB1810221A703B681B8A8022D20154
:100FD00093421CD08022D201934206DC002B0DD01C
:100FE00080229201934224D035E0C022D201934264
:100FF00028D080221202934212D02CE01F23FB182B
:1010000000221A701E23FB1810221A7023E01F23DF
:10101000FB1800221A701E23FB1808221A701AE00F
:101020001F23FB1800221A701E23FB1803221A70BC
:1010300011E01F23FB1801221A701E23FB18102237
:101040001A7008E01F23FB1801221A701E23FB18D8
:1010500008221A70C0463B681A683B68DB681A436E
:101060003B685B6913433A68128A13433A68127EFD
:10107000120213433A682621525C520713437B62E3
:101080001D23FB1800221A703B685B68FB60FB683D
:10109000002B1ED08022520593424FD13B6827225D
:1010A0009B5C01225340DBB2002B46D03B681D6A9B
:1010B0003B69DBB21800654B984701001D23FC1803
:1010C0000A23FB181A002800614B9847030023707D
:1010D00033E03B6827229B5C002B14D03B68186AE6
:1010E0003B68996A1D23FC181F23FB181D780A23EF
:1010F000FA181E23FB181B7800932B00554DA847A8
:10110000030023701AE03B681D6A3B69DBB21800DC
:101110004E4B98471D23FC181F23FB1819780A23F0
:10112000FA181E23FB181B7800930B0001002800FF
:10113000484DA8470300237000E0C0461D23FB185C
:101140001B78002B03D01D23FB181B7877E03B682E
:101150005B7E002B03D03B689A7EBB699A737B68E9
:1011600018003D4B98470A23FB181A88BB699A81DF
:101170007A6AFB6813437B623B6827229B5C0122EF
:101180005340DBB2002B03D07B6A042213437B6203
:101190003B685B7E9A023B681B7F5B021A433B689D
:1011A0005B7F1B021A433B6824215B5C5B041A4390
:1011B0003B6825215B5C1B0413433B623B689B7AC5
:1011C0001A003B6A13433B623B68DB7A1A003B6AB6
:1011D00013433B623B681B89FF2B0BD07B6A802249
:1011E000520413437B623B681B891A003B6A13431A
:1011F0003B6208E03B68DB7E002B04D07B6A8022E8
:10120000D20413437B623B682C229B5C002B03D1EE
:10121000124B9847031E03D07B6A802213437B62E4
:101220007B6818000C4B9847BB693A6A5A607B6828
:101230001800094B9847BB697A6A1A6000231800A6
:10124000BD460AB0B0BDC046D90C0000552500000F
:1012500053080000D1080000610F0000210F0000BA
:1012600090B593B000AFF860B9607A603B23FB188B
:1012700000221A70FB68BA681A60FB681B687B63FF
:10128000FB681B681800864B984703003B633B6B69
:101290000233FB623B6B1433BB627B6B1B68012226
:1012A000134001D00523F6E07B6B1B68022213403C
:1012B00001D01C23EFE00122FB6A9A4013001900C1
:1012C0000220784B98472423FB181800764B984748
:1012D0007B682D229A5C2423FB181A70BB6ADBB250
:1012E0002422BA1811001800704B9847BB6ADBB271
:1012F00018006F4B98477B682D229B5C00211800DB
:101300006C4B98477B68DA7AFB685A717B682422B9
:101310009A5CFB689A717B6825229A5CFB68DA719B
:101320007B68DA7EFB681A727B681A7FFB685A72E8
:101330003B23FC187A68FB68110018005E4B984745
:10134000030023703B23FB181B78002B03D03B23A7
:10135000FB181B789FE02023FB181800574B984779
:101360002023FB1800225A702023FB1800229A70B9
:101370007B681A6B1023FB181A607B685A6B10236A
:10138000FB185A607B689A6B1023FB189A607B6885
:10139000DA6B1023FB18DA604723FB1800221A705F
:1013A0002CE04723FB181A781023FB189200D3581F
:1013B0003B643B6C002B09D14723FB181A78BB68B0
:1013C000110018003E4B984703003B643B6C01330F
:1013D0000DD03B6CDAB22023FB181A703B6C1B0C4F
:1013E000DBB22022BA1811001800364B9847472369
:1013F000FB181A784723FB1801321A704723FB1891
:101400001B78032BCDD90023FB630AE0FA68FB6B42
:1014100002339B00D318043300221A60FB6B0133A4
:10142000FB63FB6B052BF1D9FB6800229A62FB681A
:1014300000225A62FB680022DA85FB6800229A8546
:10144000FB68302200219954FB6831220021995415
:10145000FB68322200219954FB6833220021995401
:10146000FB681B682722BC1818000D4B9847030027
:101470002370154A2723FB181B7811001800134B03
:1014800098472723FB181A78114B9200F968D1501E
:101490003B23FB181B781800BD4613B090BDC04617
:1014A000D90C00009D0E0000850E000031240000C4
:1014B00075240000910A0000850F0000F90E00005D
:1014C0001D0B00001D270000691600003D0D0000E7
:1014D000DC00002080B584B000AF78600A00BB1C3F
:1014E0001A807B681B68FB607B68DB7901225340B4
:1014F000DBB2002B01D01C2317E07B68DB8D9BB295
:10150000002B01D0052310E07B681800094B984799
:10151000FB68BA1C12881A85C046FB681B7EDBB2CA
:101520001A0002231340F8D000231800BD4604B06F
:1015300080BDC046610F000080B584B000AF786008
:1015400039607B681B68FB607B689B790122534094
:10155000DBB2002B01D01C235EE07B689B8D9BB22D
:10156000002B01D0052357E0FB681B7EDBB21A007D
:101570000423134001D105234EE07B681800284B5B
:101580009847FB685B8B9BB2DAB20B23FB183F21B9
:101590000A401A700B23FB181B78002B36D00B2344
:1015A000FB181B780222134004D0FB6802225A83E6
:1015B0001A2331E00B23FB181B780422134004D0BC
:1015C000FB6804225A831E2326E00B23FB181B789A
:1015D0000122134004D0FB6801225A8313231BE02D
:1015E0000B23FB181B781022134004D0FB68102239
:1015F0005A83422310E00B23FB181B782022134050
:1016000004D0FB6820225A83412305E0FB681B8D30
:101610009AB23B681A8000231800BD4604B080BD12
:10162000610F000080B584B000AF78607B681B68F4
:10163000FB60FB68DB695A1E9341DBB21800BD46B4
:1016400004B080BD80B582B000AF7860C0467B68D2
:101650001800044B9847031EF9D1C046BD4602B09E
:1016600080BDC0462516000080B588B000AF0200DE
:10167000FB1D1A70FB1D1A78A34B9200D358BB6157
:10168000BB691B687B61BB691800A04B98477B69ED
:101690001B7EDAB21223FB181A807B699B7DDBB2BA
:1016A0009AB21223FB181221791809880A401A806D
:1016B000BB6930229B5CBA693121525C1340DAB2BB
:1016C0001023FB181A801223FB181B8801221340D9
:1016D00044D0BB69DB8D9BB2002B3CD0BB699B6ABD
:1016E0001B78DAB21C23FB181A80BB699B6A5A1C50
:1016F000BB699A62BB695B79012B13D1BB699B6A99
:101700001B78DBB21B021AB21C23FB1800215B5EA4
:1017100013431AB21C23FB181A80BB699B6A5A1C1C
:10172000BB699A621C23FB181B88DB05DB0D9AB290
:101730007B691A85BB69DB8D9BB2013B9BB2BA69A1
:10174000191CD185002B09D17B6901221A757B698F
:1017500002229A7502E07B6901221A751223FB1896
:101760001B880222134011D07B6902221A75BB69C3
:101770003322002199541023FB181B8801221340A7
:1017800004D0BB69DB68BA69100098471223FB18C4
:101790001B880422134000D1BDE0BB699B8D9BB226
:1017A000002B00D1B4E07B695B8B9BB2DAB21F23C4
:1017B000FB183F210A401A701F23FB181B780822D0
:1017C000134007D01F23FB181F22BA1812780821D4
:1017D0008A431A701F23FB181B78002B50D01F233D
:1017E000FB181B780222134007D0BB6932221A2152
:1017F00099547B6902225A8336E01F23FB181B7819
:101800000422134007D0BB6932221E2199547B6900
:1018100004225A8328E01F23FB181B78012213405F
:1018200007D0BB693222132199547B6901225A8364
:101830001AE01F23FB181B781022134007D0BB6946
:101840003222422199547B6910225A830CE01F23D3
:10185000FB181B782022134006D0BB69322241219D
:1018600099547B6920225A831023FB181B88042279
:10187000134050D0BB695B69BA69100098474AE0D1
:101880007B691B8D9AB20E23FB18D205D20D1A80EC
:10189000BB695B6A0E22BA181288D2B21A70BB6991
:1018A0005B6A5A1CBB695A62BB695B79012B0DD11B
:1018B000BB695B6A0E22BA181288120A92B2D2B2BF
:1018C0001A70BB695B6A5A1CBB695A62BB699B8D03
:1018D0009BB2013B9BB2BA69191C9185002B1AD1AE
:1018E0007B6904221A75BB693222002199541023A6
:1018F000FB181B88022213400DD0BB691B69BA6913
:101900001000984707E0C046DC00002045160000A4
:101910007B6904221A751223FB181B8810221340BE
:1019200010D07B6910221A757B6910221A76102359
:10193000FB181B881022134004D0BB69DB69BA690D
:10194000100098471223FB181B882022134010D048
:101950007B6920221A757B6920221A761023FB18D6
:101960001B880822134004D0BB699B69BA69100028
:1019700098471223FB181B880822134010D07B695C
:1019800008221A757B6908221A761023FB181B8817
:101990002022134004D0BB691B6ABA691000984723
:1019A000C046BD4608B080BD80B582B000AF78604B
:1019B0007B6801225A607B6800225A707B6806228D
:1019C0001A707B6800221A727B6800225A72C04625
:1019D000BD4602B080BD80B582B000AF78607B6844
:1019E00000221A70C046BD4602B080BD80B582B0EC
:1019F00000AF78607B6803221A707B6800225A70FF
:101A00007B6801229A70C046BD4602B080BD0000CE
:101A100080B582B000AF0200FB1D1A70034AFB1DA7
:101A20001B781372C046BD4602B080BD0004004062
:101A300080B582B000AF0200FB1D1A70BB1D0A1CEE
:101A40001A70FB1D1B78012B08D0022B0BD0002B2A
:101A50000ED10B4ABB1D1B7853720BE0084ABB1D0D
:101A60001B78937206E0064ABB1D1B78D37201E017
:101A7000172300E000231800BD4602B080BDC04619
:101A80000004004080B582B000AF78607B6801221E
:101A90001A707B6800225A707B6800229A707B68FB
:101AA0000022DA707B6800221A717B680A4A9A6009
:101AB0007B6880221202DA607B6801221A827B68CE
:101AC00000221A757B680022DA747B6800229A74FF
:101AD000C046BD4602B080BD006CDC0280B582B05D
:101AE00000AF0200FB1D1A70084AFB1D1B780F2176
:101AF0000B40D9B253680F20014049001E20834398
:101B00000B435360C046BD4602B080BD004000415B
:101B100080B500AFC046044BDB6810221340FAD0FA
:101B2000C046BD4680BDC0460008004080B500AF3D
:101B30000C4B02229A840C4B98470A4A0B4B9B6829
:101B4000D362084A094B5B689362064B00229A8471
:101B5000054B9847034A054B1B689BB29384C046CC
:101B6000BD4680BD00080040111B0000B8000020E9
:101B700080B582B000AF0200FB1D1A70FB1D1B7800
:101B8000082B40D89A00224BD3181B689F46214B44
:101B90001B6939E0204B1B6A9B059B0FDBB21A00C7
:101BA0001E4BD34030E080231B022DE080231B021C
:101BB0002AE0184B5B6927E0164B1B680222134092
:101BC00001D1002320E0164B9847124B1B680422DA
:101BD000134009D00020134B984702000D4B9B681F
:101BE0001B041B0C53430FE00F4B0DE00A4A50231C
:101BF000D35CDBB21A000423134001D1002303E0BD
:101C0000044BDB6800E000231800BD4602B080BD35
:101C1000D8440000B80000200008004000127A00FC
:101C2000111B000055250000006CDC0280B584B05B
:101C300000AF78601A4B1B6AFB607B681B781A1C2C
:101C400003231340DAB20D23FB1803210A401000CE
:101C50001A7803218A43111C021C0A431A707B68FC
:101C60009A780C23FB18D0011A787F210A40111CA6
:101C7000021C0A431A707B685A780C23FB18012156
:101C80000A4090011A7840218A43111C021C0A4321
:101C90001A70034BFA681A62C046BD4604B080BD94
:101CA0000008004080B586B000AF78607B68DB68D4
:101CB0007B617B681B7D012B0AD17B681B8A01330A
:101CC0005B001A00364B11007869984703007B616E
:101CD0007B689B681A01324B7969100098470300B2
:101CE0003B613B69DAB20F23FB180F210A401A70DF
:101CF0003B691B09013B3B612A497B681B78DB017F
:101D0000DAB27B685B789B01DBB21343DAB244231F
:101D1000CA54244B0F22BA18127812041100F02270
:101D2000120311403A691205120D0A439A641D4BC1
:101D30007A68128A120411001B4A11407A6892785C
:101D4000120311437A68D27C12021000E022D20002
:101D5000024011437A68127D1201100030220240C5
:101D600011437A68D278D20011437A6812799200CE
:101D700011437A68927C1000032202400A43DA641D
:101D80003B6901331A010F23FB181B78D3187A69BA
:101D900053431A09054BDA60C046BD4606B080BD04
:101DA0001D310000000800400000FF07B8000020BF
:101DB00080B582B000AF0200FB1D1A70FB1D1B78BE
:101DC000082B3BD89A00214BD3181B689F46204B09
:101DD0001F4A126A02210A431A62002331E01C4B97
:101DE0001B4A926902210A439A6129E0184A184B5A
:101DF0001B8A9BB202210B439BB2138220E0144A40
:101E0000134B9B8A9BB202210B439BB2938217E038
:101E1000104B1B6802221A430E4B1A600E4B984758
:101E20000EE00B4A0A494423CB5CDBB202210B4390
:101E3000D9B24423D15403E0002302E0172300E089
:101E400000231800BD4602B080BDC046FC4400001F
:101E500000080040B80000202D1B000080B584B0B1
:101E600000AF0200FB1D1A700023FB60FB1D1B78F6
:101E7000082B21D89A00184BD3181B689F460823BB
:101E8000FB601BE00423FB6018E00123FB6015E00E
:101E90000223FB6012E01023FB600FE00F4A502387
:101EA000D35CDBB21A0003231340033B5A42534175
:101EB000DBB20CE001230AE0002308E0074BDB68FB
:101EC000FA681A40FB68D31A5A425341DBB2180031
:101ED000BD4604B080BDC04620450000000800405B
:101EE00080B582B000AF3B0002221A7000237B60F5
:101EF00009E07B68DBB23A0011001800054B9847F7
:101F00007B6801337B607B68242BF2D9C046BD46D9
:101F100002B080BD3124000080B5A6B000AF654B93
:101F2000C222D2009A600120634B9847634B9847C6
:101F30009423FB181800624B98479423FB18002247
:101F40001A709423FB1801229A709423FB18002224
:101F50005A709423FB1818005A4B984706205A4B86
:101F600098475A4B98476023FB181800584B9847DE
:101F70006023FB1806221A706023FB1808225A609F
:101F80006023FB1800221A726023FB1800225A7289
:101F90006023FB18190001204E4B984701204E4B3F
:101FA00098479023FB1818004C4B98479023FB1838
:101FB00001221A709023FB1819000120484B984702
:101FC0000120484B98477823FB181800464B984748
:101FD0007823FB1800221A707823FB1800225A700D
:101FE0007823FB1800229A707823FB180022DA70FD
:101FF0007823FB1800221A717823FB1800229A74A8
:102000007823FB180022DA747823FB1802221A7551
:102010007823FB18354ADA607823FB1801221A82EC
:102020007823FB18324A9A607823FB181800314B4A
:1020300098470820244B9847C04608202E4B9847C5
:1020400003001A0001235340DBB2002BF5D11949DC
:1020500044228B5C8020404203438B540020274B5A
:10206000984700210020264B984700210120244B4F
:10207000984700210220224B98473B001800144B40
:1020800098473B0006221A703B0001225A603B0031
:1020900000221A723B0000225A723B0019000020F5
:1020A0000C4B984700200C4B9847C046BD4626B0C5
:1020B00080BDC04600080040DD1A0000E11E00009F
:1020C000ED1900002D1C0000B11D0000A921000029
:1020D000A9190000D9210000FD220000D719000035
:1020E0003124000075240000851A000040420F00D2
:1020F000006CDC02A51C00005D1E0000111A00002F
:10210000311A000080B582B000AF02003960FB1DBB
:102110001A70FB1D1B78012B0AD0022B0FD0002B4D
:1021200014D10E4B0D4A91693A680A439A610FE047
:102130000A4B0A4AD1693A680A43DA6108E0074B58
:10214000064A116A3A680A431A6201E0172300E05E
:1021500000231800BD4602B080BDC0460004004008
:1021600080B500AF024B9847C046BD4680BDC04613
:10217000DD01000080B500AF024B9847C046BD4668
:1021800080BDC0463102000080B500AF054B5B78D2
:10219000DBB25BB2002B01DA012300E00023180060
:1021A000BD4680BD000C004080B500AF0821002076
:1021B000074B9847074B01221A70C046054B1B7806
:1021C000DBB21A0001231340F8D1C046BD4680BDE2
:1021D00005210000000C004080B586B000AF020071
:1021E0003960FB1D1A70FB1D1B787B61FB1D1B7882
:1021F0003B613B681B781B021A007B6913437B61C0
:102200003B685B78002B04D07B698022D2021343A9
:102210007B613B685B7A002B04D07B6980221203D0
:1022200013437B613B685B68012B2CD93B685A6880
:102230003B685B68013B13401AD10023FB6002231B
:10224000BB6005E0FB680133FB60BB685B00BB6003
:102250003B685A68BB689A42F4D8FB681B023A692B
:1022600013433B617B698022520313437B610AE085
:102270003B685B681B023A6913433B617B698022C0
:10228000920213437B613B681B7A002B04D07B696D
:102290008022920313437B61C046134B9847031E71
:1022A000FBD1124B9847124AFB1D1B781370C04696
:1022B0000D4B9847031EFBD10E4B3A699A60C046FE
:1022C000094B9847031EFBD10A4B0A4A51688022EA
:1022D000520211407A690A435A60074B9847C04638
:1022E000BD4606B080BDC0468921000061210000C6
:1022F000080C0040000C00407521000080B582B041
:1023000000AF0200FB1D1A70C0460E4B9847031E1B
:10231000FBD10D4B98470D4AFB1D1B781370C0462F
:10232000084B9847031EFBD1094B094A526880218C
:1023300049020A435A60074B9847C046BD4602B05F
:1023400080BDC0468921000061210000040C0040CE
:10235000000C00407521000080B586B000AF02007F
:10236000FB1D1A70C0462A4B9847031EFBD1294B10
:102370009847294AFB1D1B781370C046244B984789
:10238000031EFBD1254B5B68DB04DB0EDBB21800C0
:10239000234B984703007B611F4AFB1D1B7813707A
:1023A0001E4B5B68DB02DB0FDAB21323FB181A70DB
:1023B0001C4AFB1D1B781370C046154B9847031E23
:1023C000FBD1164B9B681B021B0C9BB2FB60164B90
:1023D00098471323FB181B78002B09D1FB68012BAE
:1023E00006D9124BF9687869984703007B610AE0C7
:1023F0001323FB181B78002B05D0FB6801337A6987
:10240000DA4013007B617B691800BD4606B080BDD1
:102410008921000061210000040C0040000C0040F4
:10242000711B0000080C0040752100001D310000E8
:1024300080B584B000AF02003960FB1D1A70FB1D2F
:102440001B78FB603B681B781B021A00FB68134378
:10245000FB60FB1D1B781800044B9847044BFA687F
:1024600092B25A80C046BD4604B080BDBD24000073
:10247000000C004080B582B000AF0200FB1D1A7056
:102480000A4B98470A4AFB1D1B7813700949094BF0
:102490005B889BB28022D20113439BB24B80064BD8
:1024A0009847C046BD4602B080BDC04661210000CD
:1024B000020C0040000C00407521000080B584B083
:1024C00000AF0200FB1D1A701C4B98471C4AFB1DF5
:1024D0001B7813701B4B5B881B051B0FDBB2FB606B
:1024E000184A538818490B405380164A154B5B888D
:1024F0009BB216490B409BB25380C046114B5B8880
:102500009BB21A008023DB011340F7D10D4AFB6810
:10251000DBB2191C0F230B40D9B25388081C0F21C2
:102520000140080208490B40191C031C0B4353804F
:10253000074B9847C046BD4604B080BD61210000EE
:10254000020C0040000C0040FFF0FFFFFFBFFFFF48
:102550007521000080B584B000AF0200FB1D1A7029
:102560000D4B98470D4AFB1D1B7813700C4B5B8875
:102570001B051B0FDAB20F23FB181A70094B984783
:102580000F23FB181B781800074B9847030018000F
:10259000BD4604B080BDC04661210000020C004071
:1025A000000C0040752100005923000080B584B064
:1025B00000AF0200FB1D1A700F23FB18FA1D1278E2
:1025C000D2091A700E23FB18FA1D127852091A70DC
:1025D0000D4BBB600F23FB181B78002B0FD10F2373
:1025E000FB181B789B0010229446BC446344083BB4
:1025F0001A680E23FB181B78DB01D31800E00023B8
:102600001800BD4604B080BD0044004180B588B0CC
:1026100000AFF860B9607A600023FB617B68DB780B
:1026200001225340DBB2002B35D07B681B78802B16
:102630000BD0FB69802252021343FB617B681B783D
:102640001B061A00FB691343FB617B685B78002B58
:1026500003D07B685B78022B10D1FB698022920249
:102660001343FB617B689B78002B04D0FB698022BD
:10267000D2021343FB61FB68BA685A607B685B78DF
:10268000012B03D07B685B78022B07D1FB69224AC0
:102690001340FB6102E0FB68BA685A60BB681B0428
:1026A0001B0CBB61BB681B0C7B61BA69FB691343E4
:1026B000A022D2051A43FB689A627A69FB69134328
:1026C000D02212061A43FB689A627B68DB780122EB
:1026D0005340DBB2002B1AD0FA698023DB0213408F
:1026E0000AD07B689B78012B03D1FB68BA689A619A
:1026F00002E0FB68BA685A617B685B78012B03D003
:102700007B685B78022B02D1FB68BA689A60C0468E
:10271000BD4608B080BDC046FFFFFBFF80B584B05A
:1027200000AF02003960FB1D1A70FB1D1B781800FA
:102730000A4B98470300FB60FB1D1B781F221340C8
:1027400001229A401300BB603A68B968FB68180020
:10275000034B9847C046BD4604B080BDAD25000080
:102760000D26000080B500AFC046BD4680BD00000C
:1027700080B500AF064B9847064B9847064B9847E5
:10278000064B9847064B9847C046BD4680BDC0469D
:10279000191F0000150100006527000065270000D3
:1027A0006527000080B582B000AF2F4B7B602F4BB8
:1027B0003B607A683B689A420CD007E03B681A1D80
:1027C0003A607A68111D796012681A603A68284B7D
:1027D0009A42F3D3274B3B6004E03B681A1D3A60F2
:1027E00000221A603A68244B9A42F6D3234B7B604E
:1027F000234B7A68FF218A439A60224A90235B0028
:102800000221D150204AD37803218B43191C022383
:102810000B43D3701C4AD3780C218B43191C08231B
:102820000B43D370194A937B30218B43191C20230F
:102830000B439373154A937B0C218B43191C08237C
:102840000B439373114A937B03218B43191C02237F
:102850000B4393730E4A536880210B4353600D4B17
:1028600098470D4B9847FEE7804600000000002087
:1028700070000020700000203801002000000000DF
:1028800000ED00E0007000410050004100480041B0
:102890000040004189320000A12F000080B500AF48
:1028A000FEE7000080B586B000AFF860B9607A60DE
:1028B00000237B61FB68002B12D001235B4213E0F5
:1028C0000B4B1A680B4B1B68B96818009047BB6824
:1028D0000133BB607B6901337B617B68013B7B60BB
:1028E0007B68002BECDC7B691800BD4606B080BD20
:1028F000F4000020FC00002080B586B000AFF86036
:10290000B9607A6000237B61FB68012B1DD0FB68F6
:10291000022B1AD0FB68032B17D001235B4218E06F
:102920000E4B1A680E4B1868BB68591CB9601B78AF
:1029300019009047031E02DA01235B4209E07B691C
:1029400001337B617B68013B7B607B68002BE7D1B7
:102950007B691800BD4606B080BDC046F800002067
:10296000FC00002080B584B000AF78600A4B1B6883
:10297000002B02D1084B094A1A60074B1B68FB6009
:10298000054B1A687B68D218034B1A60FB68180065
:10299000BD4604B080BDC046D000002038210020D4
:1029A00080B582B000AF786001235B421800BD465D
:1029B00002B080BD80B582B000AF786039603B68FE
:1029C000802292015A6000231800BD4602B080BDEB
:1029D00080B582B000AF786001231800BD4602B018
:1029E00080BD80B584B000AFF860B9607A60002324
:1029F0001800BD4604B080BD80B582B000AF7860DD
:102A00007B6800221A707B6801225A70084B5B6851
:102A1000DB061B0FDBB21A007B689A707B68002212
:102A2000DA707B6800221A71C046BD4602B080BDD4
:102A30000040004180B584B000AF0200FB1D1A7059
:102A40000F23FB18FA1D1278D2091A700E23FB18F7
:102A5000FA1D127852091A700D4BBB600F23FB1838
:102A60001B78002B0FD10F23FB181B789B00102223
:102A70009446BC446344083B1A680E23FB181B7839
:102A8000DB01D31800E000231800BD4604B080BD70
:102A90000044004180B582B000AF0200FB1D1A70F7
:102AA000FB1D1B781800034B984703001800BD4618
:102AB00002B080BD352A000080B582B000AF7860DA
:102AC0007B6800221A707B6801225A707B680022A2
:102AD0009A70C046BD4602B080BD000080B584B08B
:102AE00000AF0200FB1D1A70FB1D1B7818000B4B7A
:102AF00098470300FB60FB1D1B781F221340012237
:102B00009A401300BB60FB681B6ABA6813405A1EE8
:102B10009341DBB21800BD4604B080BD952A000089
:102B200080B500AF044B01221A70BFF35F8F62B60D
:102B3000C046BD4680BDC0460800002080B582B0BA
:102B400000AF0200FB1D1A70064BFA1D127811002F
:102B50001F220A40012191400A001A60C046BD466A
:102B600002B080BD00E100E080B584B000AF7860C5
:102B70007B681B68FB60FB68DB695A1E9341DBB214
:102B80001800BD4604B080BD80B582B000AF78604B
:102B9000C0467B681800044B9847031EF9D1C04615
:102BA000BD4602B080BDC046692B000080B582B032
:102BB00000AF78607B688022D2051A607B680022B3
:102BC0005A607B68FF221A817B6800229A727B68B8
:102BD0000022DA727B68962292011A627B682422B4
:102BE000012199547B682522012199547B68262272
:102BF000002199547B682722002199547B68002288
:102C00009A627B6888225203DA607B682C2200215A
:102C100099547B682D22002199547B6800221A6305
:102C20007B6800225A637B6800229A637B680022DB
:102C3000DA637B6800225A617B6800221A827B6813
:102C40000022DA767B6800221A767B6800221A77E7
:102C50007B6800225A767B6813229A767B68002272
:102C60005A77C046BD4602B080BD000080B584B032
:102C700000AF78607B681B68FB607B681B6818008E
:102C8000094B984703001800084B98477B681800C9
:102C9000074B9847FB681B6802221A43FB681A60BF
:102CA000C046BD4604B080BDA90D00003D2B00000C
:102CB000892B000080B584B000AFF860B9607A60FD
:102CC0007A68B968FB681800054B9847031E01D164
:102CD000012300E000231800BD4604B080BDC046BB
:102CE0006112000080B582B000AF78600A00FB1C62
:102CF0001A70C046FB1C1B789AB27B681100180042
:102D0000044B9847031EF5D100231800BD4602B0BE
:102D100080BDC046D514000080B584B000AF786097
:102D200039600E23FB1800221A80C0460E23FA18C1
:102D30007B6811001800074B9847031EF6D10E233D
:102D4000FB181B88DAB23B681A70C046BD4604B057
:102D500080BDC0463915000080B584B000AFF86072
:102D6000B9607A60104BFA681A60104B104A1A600A
:102D7000104B114A1A607A68B968FB6818000F4B4B
:102D800098470F4B1B689B68002118000D4B984714
:102D90000B4B1B685B68002118000A4B9847C04624
:102DA000BD4604B080BDC046FC000020F8000020F5
:102DB000E52C0000F4000020192D0000B52C0000C7
:102DC0000C000020FD33000080B590B000AF3B0048
:102DD0001800134B98473B00C4229203DA603B0073
:102DE000012252421A633B00012252425A633B00C5
:102DF0000C4A9A633B000C4ADA633B00E122520220
:102E00001A623A0009490A4B18000A4B9847084BC6
:102E10001800094B9847C046BD4610B080BDC0465B
:102E2000AD2B000003002A0003002B000018004215
:102E300000010020592D00006D2C000080B586B0E7
:102E400000AF7860FE23DB017B610C23FA187B69FD
:102E50001000190007231A00074B98477A680C23C3
:102E6000FB181000190007231A00034B98477868D5
:102E7000BD4606B080BDC046D132000090B595B0C9
:102E800000AF3B00186059603B001A780C23FB1818
:102E90001A703B005A780C23FB185A703B009A7842
:102EA0000C23FB189A703B00DA780C23FB18DA70BD
:102EB0003B001A790C23FB181A713B005A790C233A
:102EC000FB185A713B009A790C23FB189A714F2317
:102ED000FC18FE23DB0118000E4B984703002370FB
:102EE0004F23FB181B78052BF1D04F23FC180C2324
:102EF000F918FE23DB0140221800074B9847030016
:102F000023704F23FB181B78052BEED0C046BD461F
:102F100015B090BD39060000E504000080B582B010
:102F200000AF3B00186059603B005B791A000C4B06
:102F3000110018000B4B98473B005A793B001A715F
:102F40003B0000229A713B0018685968064B98476D
:102F5000064B1800064B9847C046BD4602B080BDE0
:102F600044450000F53200007D2E00006C45000055
:102F7000E933000080B582B000AF3B001800064B7B
:102F800098473B0000225A703B001800034B9847BB
:102F9000C046BD4602B080BDF9290000F502000020
:102FA00080B586B000AF484B9847484B9847484B90
:102FB0009847484B9847484B98470C23FB181800F4
:102FC000464B98470C23FB1800221A700C23FB1861
:102FD00019003720424B9847424B1800424B984704
:102FE0003B1D1800414B98473B1D1B78002B1DD102
:102FF0003F4B18003C4B98473B1D01221A703B1D6C
:1030000002225A703B1D03229A703B1D0422DA7083
:103010003B1D01221A713B1D02225A713B1D0022E9
:103020009A713B1D18685968324B98471623FB1854
:1030300000221A801523FB1800221A700EE0372098
:103040002D4B984703001A0001235340DBB2002B9D
:1030500004D01523FB1801221A7009E01623FB186F
:103060001B881622BA18591C1180244A9342E6D9AB
:103070001523FB181B78002B15D13B1D9B79002BCA
:1030800004D03B1D186859681D4B98471D4B802282
:1030900012029A601C4B1B683B611C4B1800124BC0
:1030A00098473B6998471A4B18001A4B9847FA23E0
:1030B0005B001800184B98471523FB181522BA1807
:1030C00012781A70D4E7C04671270000212B000047
:1030D00055010000C92D0000752F0000B92A00001D
:1030E000FD06000080450000E93300003D2E000091
:1030F0008C4500007D2E0000DD2A0000E703000063
:103100001D2F000000ED00E004800000B04500002D
:10311000C0450000F5320000AD0100000022430868
:103120008B4274D303098B425FD3030A8B4244D38F
:10313000030B8B4228D3030C8B420DD3FF220902D1
:1031400012BA030C8B4202D31212090265D0030B90
:103150008B4219D300E0090AC30B8B4201D3CB0386
:10316000C01A5241830B8B4201D38B03C01A5241C8
:10317000430B8B4201D34B03C01A5241030B8B42CA
:1031800001D30B03C01A5241C30A8B4201D3CB02B5
:10319000C01A5241830A8B4201D38B02C01A52419A
:1031A000430A8B4201D34B02C01A5241030A8B429D
:1031B00001D30B02C01A5241CDD2C3098B4201D3B5
:1031C000CB01C01A524183098B4201D38B01C01A33
:1031D000524143098B4201D34B01C01A52410309AA
:1031E0008B4201D30B01C01A5241C3088B4201D359
:1031F000CB00C01A524183088B4201D38B00C01A06
:10320000524143088B4201D34B00C01A5241411A2C
:1032100000D20146524110467047FFE701B5002039
:1032200000F006F802BDC0460029F7D076E77047E7
:103230007047C046F0B5CE46474615042D0C2E000B
:1032400080B50704140C3F0C9946030C7E435D4384
:10325000674363437F19340CE4199C46A54203D9A4
:1032600080235B029846C4444B4651434343360493
:10327000360C250C24046544A4195918491920005A
:103280000CBC90469946F0BD70B500260C4D0D4C17
:10329000641BA410A64209D1002601F0E1F90A4DF1
:1032A0000A4C641BA410A64205D170BDB300EB58B4
:1032B00098470136EEE7B300EB5898470136F2E73E
:1032C0006C4600006C4600006C4600007046000032
:1032D000002310B59A4200D110BDCC5CC454013318
:1032E000F8E703008218934200D170471970013348
:1032F000F9E700000FB40B4B13B51C68002C05D088
:10330000A369002B02D1200000F0F2FA05AB049A69
:10331000A1682000019300F0C1FC16BC08BC04B0F9
:103320001847C0460C00002070B505000E000028AC
:1033300004D08369002B01D100F0DAFAAB69AC68E4
:10334000002B02D1280000F0D3FA244B9C420FD16D
:103350006C68A3891B0702D52369002B20D12100AB
:10336000280000F057F900281AD00120404270BD13
:103370001B4B9C4201D1AC68EBE71A4B9C42E8D155
:10338000EC68E6E7013B0136A360002B04DAA26992
:10339000934216DB0A2914D023685A1C2260197044
:1033A0003178A3680029EDD1013BA360002B0FDA2F
:1033B00022000A31280000F0D7F8431CD5D00A209B
:1033C000D5E72200280000F0CFF8431CE8D1CCE775
:1033D0000A2023685A1C22601870C8E7EC450000D8
:1033E0000C460000CC45000010B5034B01001868E6
:1033F000FFF79AFF10BDC0460C0000204A424A4128
:10340000802310B55200DB0000F002F810BD000070
:10341000F0B51D004F4B85B01E6804000F000092F0
:10342000002E05D0B369002B02D1300000F060FA05
:10343000494B9C4250D17468009B022B05D0012B54
:1034400000D984E0002D00DA81E02100300000F096
:10345000E1F9616B002908D023004433994202D07E
:10346000300000F04BFB002363630023A361636023
:10347000A3891B0603D52169300000F03FFBA38917
:10348000364A1340A381009B022B5AD003AB02AAF9
:103490002100300000F0C2FAA3891843A081002D5A
:1034A00024D1029D280000F01FFB0195071E42D188
:1034B000029B0193AB4239D1012040420223A289F1
:1034C0001343A3810023A3602300473323602361B8
:1034D0000123636105B0F0BD214B9C4201D1B4686A
:1034E000AAE7204B9C42A7D1F468A5E7002FD9D0CA
:1034F000B369002B02D1300000F0FAF9009B012BD8
:1035000003D1A389009A1A43A2810820A3892760C6
:1035100027616561184018D00120184000239842A7
:1035200011D06D42A360A5611800D3E7019800F0A7
:10353000DBFA071EC0D08023A289019D1343A3811B
:10354000D6E70020BAE7A560C4E7A060C2E7012083
:103550004042BFE70C000020EC4500005CF3FFFF99
:103560000C460000CC450000F8B505000E00140024
:10357000002804D08369002B01D100F0B9F9224B57
:103580009C422DD16C68A369A360A3891B0731D528
:103590002369002B2ED023682269F7B2981A636939
:1035A000F6B2984205DB2100280000F033F900282C
:1035B00026D1A3680130013BA36023685A1C226016
:1035C0001F706369984204D0A389DB071AD50A2EBD
:1035D00018D12100280000F01DF9002812D00FE0BA
:1035E0000A4B9C4201D1AC68CDE7094B9C42CAD141
:1035F000EC68C8E72100280000F00CF80028CAD0C9
:10360000012676423000F8BDEC4500000C46000073
:10361000CC450000364B70B51D6806000C00002D2F
:1036200005D0AB69002B02D1280000F061F9314BC5
:103630009C420FD16C680C23E25E93B219072DD423
:10364000D90611D409230120336037331343A381F2
:10365000404270BD284B9C4201D1AC68EBE7274B40
:103660009C42E8D1EC68E6E75B0713D5616B002963
:1036700008D023004433994202D0300000F03EFAD3
:10368000002363632422A3899343A38100236360FF
:10369000236923600823A2891343A3812369002B94
:1036A0000BD1A0218022A389890092000B40934274
:1036B00003D02100300000F0D9F90123A289134082
:1036C00011D00023A36063695B42A36100202369DA
:1036D0008342BED10C23E25E1306BAD540231343C6
:1036E000A3810138B5E7920700D46369A360EDE7D1
:1036F0000C000020EC4500000C460000CC4500000A
:10370000F7B58A8905000C00130760D44B68002BBD
:1037100004DC0B6C002B01DC0020FEBDE76A002FEF
:10372000FAD000232E682B6080235B011A4034D02E
:10373000606DA3895B0706D56368C01A636B002BB5
:1037400001D0236CC01A0200216A00232800E76A16
:10375000B847A189431C06D12B681D2B31D82C4AB0
:10376000DA40D3072DD50023636023692360CB049F
:1037700005D5431C02D12B68002B00D16065616B1D
:103780002E600029C8D023004433994202D028007B
:1037900000F0B4F900206063BFE70123216A28002C
:1037A000B847431CC5D12B68002BC2D01D2B01D0BC
:1037B000162B01D12E60AFE74023A2891343A381CA
:1037C000ABE740230B430120A3814042A5E70F69EB
:1037D000002FA1D00B680F60DB1B01930023920721
:1037E00000D14B69A360019B002B00DC94E7019B97
:1037F0003A00216A2800A66AB047002803DC40236B
:10380000A2891343DFE7019B3F181B1A0193EAE7E4
:10381000010040200B6970B505000C00002B01D1A0
:10382000002070BD002804D08369002B01D100F076
:103830005FF80B4B9C4209D16C680C22A35E002BF5
:10384000EED021002800FFF75BFFEAE7054B9C4222
:1038500001D1AC68F1E7044B9C42EED1EC68ECE797
:10386000EC4500000C460000CC45000010B50249B4
:1038700000F0B2F810BDC04615380000002310B5A6
:10388000040003604360836081814366C2810361F9
:1038900043618361190008225C30FFF722FD054B6C
:1038A00024626362044BA362044BE362044B236310
:1038B00010BDC046094200003142000069420000CC
:1038C0009542000070B568254A1E55430E00290038
:1038D000743100F05DF9041E08D000212A00016057
:1038E00046600C30A0606832FFF7FBFC200070BD22
:1038F000836913B50400002B28D18364C364036576
:10390000134B144A1B6882620193984201D1012330
:103910008361200000F020F86060200000F01CF8B7
:10392000A060200000F018F80022E0600421606828
:10393000FFF7A4FF01220921A068FFF79FFF0222E1
:103940001221E068FFF79AFF0123A36113BDC0466F
:10395000C84500006D380000F8B51E4B07001E6812
:10396000B369002B02D13000FFF7C2FF4836B468BC
:103970007368013B04D53368002B07D03668F6E73F
:103980000C22A55E002D0DD06834F2E7042138002A
:10399000FFF798FF30600028F0D10C2304003B6053
:1039A0002000F8BD012320005B42E3810233A381A4
:1039B00065662560A560656025616561A561082271
:1039C00029005C30FFF78DFC6563A563A564E564A1
:1039D000E6E7C046C8450000F7B50400070000262A
:1039E00001914834002C01D13000FEBD6368A56808
:1039F0000093009B013B009301D52468F2E7AB895B
:103A0000012B08D90E22AB5E013304D02900380007
:103A1000019B984706436835EBE7000070B50E0040
:103A20001D000E23C95E90B01400002907DA0023A0
:103A30002B60B3891B0611D48023DB000FE001AAA1
:103A400000F054FC0028F2DBF022029B120213402B
:103A5000054A9B185A4253412B60EDE74023002052
:103A6000236010B070BDC04600E0FFFFF7B502262E
:103A70008B8905000C00334206D0230047332360B6
:103A8000236101236361F7BD01AB6A46FFF7C6FFFF
:103A900000990700280000F07BF8002806D10C22CE
:103AA000A35E9A05EFD41E43A681E6E70D4BAB62F9
:103AB0008023A28920601343A381009B206163615E
:103AC000019B002B0AD00E23E15E280000F020FCB1
:103AD000002803D00123A2891343A381A08938437E
:103AE000A081D0E76D38000010B5034B01001868C5
:103AF00000F04EF810BDC0460C00002070B5050067
:103B0000002910D00C1F2368002B00DAE4182800CD
:103B100000F02FFC1D4A1368002B05D16360146070
:103B2000280000F027FC70BDA34209D92168601865
:103B30008342F3D118685B6841182160EEE71300F7
:103B40005A68002A01D0A242F9D919685818A0422F
:103B50000BD120680918581819608242E0D110680A
:103B60005268411819605A60DAE7A04202D90C2362
:103B70002B60D5E721686018824203D11068526833
:103B80004118216062605C60CAE7C046D400002032
:103B9000032370B5CD1C9D43083506000C2D1ED2A5
:103BA0000C25A9421DD8300000F0E3FB254A14681B
:103BB0002100002919D1244C2368002B03D13000A7
:103BC00000F010FB20602900300000F00BFB431CCC
:103BD0002CD10C233000336000F0CCFB03E0002D2F
:103BE000DFDA0C233360002070BD0B685B1B1AD436
:103BF0000B2B03D90B60CC18256003E08C420ED14F
:103C000063681360300000F0B5FB200007220B3022
:103C1000231D9043C31AE7D05A42E250E4E74B68B1
:103C200063600C00EEE70C004968C2E70323C41C84
:103C30009C43A042E0D0211A300000F0D3FA431C8C
:103C4000DAD1C6E7D4000020D8000020936810B570
:103C5000013B9360002B05DA9469A34208DBCBB2E9
:103C60000A2B05D01368581C10601970C8B210BD1B
:103C7000FFF77AFCFBE7F8B506000F001400D51833
:103C8000AC4201D1002007E021783A003000FFF774
:103C9000DDFF0134431CF3D1F8BD0000F0B59FB047
:103CA00006000F0014000593002804D08369002B40
:103CB00001D1FFF71DFE7F4B9F425CD17768BB8926
:103CC0001B0762D53B69002B5FD0002306AD6B61FB
:103CD00020336B761033AB760294029C2378002B52
:103CE0005DD1029BE31A04930DD0049B029A390024
:103CF0003000FFF7C0FF431C00D1CCE06A69049B91
:103D0000944663446B612378002B00D1C3E0012209
:103D1000002352426A6002A95432521801342B60C7
:103D2000EB60AB601370AB6521780522624800F050
:103D300015FB631C9C46002835D12968CB0604D5A9
:103D4000532302AA20309B1818700B0704D5532365
:103D50002B2002AA9B18187023782A2B2CD0002025
:103D60000A21099B2278303A092A00D86BE0002802
:103D70002AD0099328E0514B9F4201D1B7689EE7B2
:103D80004F4B9F429BD1F76899E739003000FFF70E
:103D900041FC002899D0012040421FB0F0BD252BE6
:103DA0009FD001349AE7444B2968C01A012383400D
:103DB0000B432B606446B7E7059B181D1B680590F5
:103DC000002B3ADB0993644623782E2B0BD16378C2
:103DD000621C2A2B3FD1059B02341A1D1B680592D9
:103DE000002B35DB079321780322364800F0B6FA22
:103DF000002807D0334B2A68C01A4023834013435E
:103E00002B6001342178631C06222F480293297607
:103E100000F0A4FA002844D02C4B002B2FD12968A5
:103E2000059B0722C90528D59B18934308330593A2
:103E30006B69039A9B186B614FE75B42EB6002234F
:103E40000B432B60BFE74B4301349B18012089E7EC
:103E500001235B42C6E7002314000A201A006B60AE
:103E600021783039092903D9002BBCD00792BAE751
:103E70004243013452180123F2E70733D5E705AB7B
:103E800000933A00124B2900300000E000BF03907D
:103E9000039B0133CCD1BB895B0600D57BE70B9834
:103EA0007BE705AB00933A00094B2900300000F096
:103EB0007FF8ECE7EC4500002C4600000C460000C3
:103EC000CC450000324600003646000000000000ED
:103ED000773C0000F7B5150001938A680B690090E4
:103EE0000C00934200DA130022002B604332127858
:103EF000002A01D001332B6023689B0602D52B6872
:103F000002332B60062723681F4027D0230043334A
:103F10001B785A1E93412268920630D422000199E0
:103F200043320098089EB047431C25D006232068E2
:103F30002A68E16803400025042B03D18D1AEB4366
:103F4000DB171D40A3682269934201DD9B1AED181F
:103F50000027BD4220D1002010E00137E3682A6825
:103F60009B1A9F42D2DA220001231932019900984C
:103F7000089EB047431CF0D101204042FEBD3020D6
:103F8000E1184331087021005A1C45310978A21804
:103F9000433202331170C1E7220001231A32019922
:103FA0000098089EB047431CE6D00137D1E70000D7
:103FB000F0B58BB006920A00433207930590049245
:103FC0000A7E0C00109B6E2A00D18FE017D8632A5E
:103FD0002CD008D8002A00D199E0582A54D02600C5
:103FE0004236327029E0642A01D0692AF7D121686B
:103FF0001A68080623D5111D1960156825E0732A73
:1040000000D188E008D86F2A29D0702AE7D1202271
:1040100009680A43226003E0752A20D0782ADED19D
:1040200022007821453211706C4A30E00E001A6887
:104030004236111D196013683370012379E0490677
:10404000D9D5111D19600023D55E002D03DA2D236B
:10405000049A6D421370624B0A2703932FE0206885
:104060001968050603D5081D18600D6805E04006AF
:10407000F9D50D68081D1860ADB2594B0827039398
:104080006F2A18D00A2716E045310A70544A039265
:104090001A682168101D18601568080622D5CB071C
:1040A00002D52023194321601027002D03D120239E
:1040B00022689A4322602300002243331A70636807
:1040C000A360002B5CDB0422216891432160002D5A
:1040D00058D1049E002B64D02600039B42361B78E7
:1040E00033705EE04806DAD5ADB2D8E709681A68E1
:1040F000080605D5111D1960136862691A6006E08B
:104100004906F7D5111D19601368A28A1A80002389
:10411000049E236154E01A68111D1960166800217D
:104120006268300000F01AF9002801D0801B60603E
:10413000636823610023049A137041E0236932000D
:1041400006990598079DA847431C43D0236800257E
:104150009B070FD4099BE06898423DDA18003BE0CA
:1041600022000123193206990598079EB047431C87
:1041700030D00135E368099A9B1A9D42F0DBE9E7EC
:10418000002DA9D0049E28003900FFF74DF8039BAD
:10419000013E5B5C280033703900FEF7BFFF051E4F
:1041A000F1D1082F09D12368DB0706D5636822699E
:1041B000934202DC3023013E3370049B9B1B23613E
:1041C000079B09AA00932100069B0598FFF782FE32
:1041D000431CB3D1012040420BB0F0BD4E4600005D
:1041E0003D460000002370B5064C05000800236022
:1041F000FEF7B8FB431C03D12368002B00D02B60D3
:1042000070BDC0463401002070B50C000E25495F1A
:1042100000F0B2F8002803DB636D1B18636570BD06
:10422000A389024A1340A381F9E7C046FFEFFFFFCD
:10423000F8B51F008B8905000C001600DB0505D5BD
:104240000E23C95E0022022300F074F8A389054AF8
:1042500028001340A38132000E23E15E3B0000F0F2
:104260001FF8F8BDFFEFFFFF70B50C000E25495F8A
:1042700000F060F8A389421C03D1054A1340A381D2
:1042800070BD802252011343A3816065F8E7C046E8
:10429000FFEFFFFF10B50E23C95E00F015F810BD4B
:1042A00070B50500080011000022064C22601A00BB
:1042B000FEF722FB431C03D12368002B00D02B60A8
:1042C00070BDC04634010020002370B5064C0500C7
:1042D00008002360FEF764FB431C03D12368002B16
:1042E00000D02B6070BDC04634010020002370B5A3
:1042F000064C0500080011002360FEF75BFB431C21
:1043000003D12368002B00D02B6070BD3401002046
:10431000002370B5064C050008002360FEF758FB2B
:10432000431C03D12368002B00D02B6070BDC04616
:104330003401002070B50500080011000022064C71
:1043400022601A00FEF74DFB431C03D12368002BAB
:1043500000D02B6070BDC04634010020C9B2821865
:10436000904201D10020704703788B42FBD001308E
:10437000F6E770477047000070B5050008001100AF
:104380000022064C22601A00FEF78CFA431C03D16F
:104390002368002B00D02B6070BDC0463401002084
:1043A0008A0400008A0400007E0400008A040000E1
:1043B0007E0400005E0400005E0400008A04000029
:1043C0008A0400008A0400008A0400008A040000B5
:1043D0008A0400008A0400008A0400008A040000A5
:1043E0008A0400008A0400008A0400008A04000095
:1043F0008A0400008A0400008A0400008A04000085
:104400008A0400008A0400008A0400008A04000074
:104410008A0400008A0400008A0400008A04000064
:104420008A0400008A0400008A0400008A04000054
:104430008A0400008A0400008A0400008A04000044
:104440008A0400008A0400008A0400008A04000034
:104450008A0400008A0400008A0400008A04000024
:104460008A0400008A0400008A0400008A04000014
:104470008A0400008A0400008A0400008A04000004
:104480008A0400008A0400008A0400008A040000F4
:104490008A0400008A0400008A0400008A040000E4
:1044A0007E0400007E0400008E0400008E040000E4
:1044B0008E0400008E04000000080042000C004240
:1044C000001000420014004200180042001C00428C
:1044D000090A0B0C0D0E00008E1B0000061C0000CC
:1044E000061C0000AC1B0000A61B0000B21B000055
:1044F000941B0000B81B0000EC1B0000EC1D00002A
:104500003C1E00003C1E0000381E0000DE1D0000A6
:10451000FE1D0000CE1D0000101E0000221E000027
:104520008A1E0000B81E0000B81E0000B41E000065
:10453000841E0000901E00007E1E0000961E0000DB
:104540009C1E0000557067726164696E6720666921
:10455000726D776172652066726F6D206C6F63613A
:1045600074696F6E2025642E0A0000005570677212
:1045700061646520636F6D706C6574650000000098
:10458000496E697420646F6E652E0000496E766115
:104590006C696420465720737461742C20777269AB
:1045A00074696E672064656661756C740000000054
:1045B0005374617274696E6720617070000000004E
:1045C000696E20626F6F7400100000200000000010
:1045D00000000000000000000000000000000000DB
:1045E00000000000000000000000000000000000CB
:1045F00000000000000000000000000000000000BB
:1046000000000000000000000000000000000000AA
:10461000000000000000000000000000000000009A
:10462000000000000000000000000000232D302BDF
:104630002000686C4C0065666745464700303132A3
:1046400033343536373839414243444546003031FA
:104650003233343536373839616263646566000059
:10466000F8B5C046F8BC08BC9E467047DD000000A7
:10467000F8B5C046F8BC08BC9E467047B5000000BF
:10468000401F000008000000010000001000002092
:1046900000000000EC4500000C460000CC45000086
:1046A000000000000000000000000000000000000A
:1046B00000000000000000000000000000000000FA
:1046C00000000000000000000000000000000000EA
:1046D00000000000000000000000000000000000DA
:1046E00000000000000000000000000000000000CA
:04000003000027A52D
:00000001FF
