S029000073616D6432315F78706C61696E65645F70726F5F73657269616C5F6272696467652E73726563E4
S1130000602E0020A1620000256300006D620000E4
S113001000000000000000000000000000000000DC
S11300200000000000000000000000002563000044
S113003000000000000000002563000025630000AC
S1130040256300002563000025630000256300008C
S1130050E9500000256300002563000025630000CB
S1130060256300008D4F0000A54F0000BD4F000028
S1130070D54F0000ED4F0000055000002541000061
S1130080394100004D410000DD410000F141000014
S113009005420000194200002D42000025630000C3
S11300A0256300002563000025630000256300002C
S11300B010B5064C2378002B07D1054B002B02D03A
S11300C0044800E000BF0123237010BDAC080020E9
S11300D00000000050E10000084B10B5002B03D0D5
S11300E00749084800E000BF07480368002B00D117
S11300F010BD064B002BFBD09847F9E70000000029
S1130100B008002050E1000050E1000000000000B1
S113011080B584B000AF0200FB1D1A700F23FB18DA
S1130120FA1D1278D2091A700E23FB18FA1D1278E0
S113013052091A700D4BBB600F23FB181B78002B60
S11301400FD10F23FB181B789B0010229446BC444C
S11301506344083B1A680E23FB181B78DB01D31891
S113016000E000231800BD4604B080BD00440041F7
S113017080B582B000AF0200FB1D1A70064BFA1D59
S1130180127811001F220A40012191400A001A60CE
S1130190C046BD4602B080BD00E100E080B582B03B
S11301A000AF0200FB1D1A70074AFB1D1B781900E3
S11301B01F230B40012199400B0019008023D150CB
S11301C0C046BD4602B080BD00E100E080B582B00B
S11301D000AF78607B6800221A607B6800225A6056
S11301E07B6801221A727B6801225A727B680022A2
S11301F09A727B680222DA72C046BD4602B080BDA4
S113020080B582B000AF0200FB1D1A70FB1D1B7885
S11302101800034B984703001800BD4602B080BD88
S11302201101000080B584B000AF0200FB1D1A70FC
S1130230FB1D1B7818000B4B98470300FB60FB1D4C
S11302401B781F22134001229A401300BB60FB68F5
S11302501B6ABA6813405A1E9341DBB21800BD46AC
S113026004B080BD0102000080B584B000AF7860A6
S11302707B681B68FB60FB68DB695A1E9341DBB239
S11302801800BD4604B080BD80B582B000AF786070
S1130290C0467B681800044B9847031EF9D1C0463A
S11302A0BD4602B080BDC0466902000080B582B080
S11302B000AF78607B688022D2051A607B680022D8
S11302C05A607B68FF221A817B6800229A727B68DD
S11302D00022DA727B68962292011A627B682422D9
S11302E0012199547B682522012199547B68262297
S11302F0002199547B682722002199547B680022AD
S11303009A627B6888225203DA607B682C2200217F
S113031099547B682D22002199547B6800221A632A
S11303207B6800225A637B6800229A637B68002200
S1130330DA637B6800225A617B6800221A827B6838
S11303400022DA767B6800221A767B6800221A770C
S11303507B6800225A767B6813229A767B68002297
S11303605A77C046BD4602B080BDC04680B584B051
S113037000AF78607B681B68FB607B681B681800B3
S1130380094B984703001800084B98477B681800EE
S1130390074B9847FB681B6802221A43FB681A60E4
S11303A0C046BD4604B080BD414F0000710100004D
S11303B08902000080B584B000AF78607B681B6858
S11303C0FB607B681B6818000A4B98470300180001
S11303D0094B98477B681800084B9847FB681B68D3
S11303E0022293431A00FB681A60C046BD4604B05B
S11303F080BDC046414F00009D01000089020000FD
S113040080B582B000AF78600A00FB1C1A707B686C
S113041031229B5C5AB2FB1C1B78012199400B00D2
S11304205BB213435BB2D9B27B6831229954C046A4
S1130430BD4602B080BDC04680B584B000AFF86050
S1130440B9607A607A68B968FB681800054B984708
S1130450031E01D1012300E000231800BD4604B0AF
S113046080BDC0466547000080B582B000AF7860AB
S11304700A00FB1C1A70FB1C1B789AB27B681100E3
S11304801800034B984703001800BD4602B080BD16
S1130490913C000080B584B000AF786039600E23D1
S11304A0FA187B6811001800054B98470E23FB18B7
S11304B01B88DAB23B681A70C046BD4604B080BDE2
S11304C0D93C000080B584B000AFF860B9607A60B0
S11304D0104BFA681A60104B104A1A60104B114AFC
S11304E01A607A68B968FB6818000F4B98470F4B7D
S11304F01B689B68002118000D4B98470B4B1B6829
S11305005B68002118000A4B9847C046BD4604B0FA
S113051080BDC046400E00203C0E0020690400004F
S1130520380E00209504000039040000380400202F
S1130530CD6E000080B582B000AF7860144B1B789C
S1130540002B16D0134B1B88012B07D1124B1A68B2
S11305507B6811001800114B984707E00E4B19688F
S11305600C4B1A887B6818000D4B9847084B0022E7
S11305701A700C4B1B78002B06D00B4B1A780B4BC4
S11305801A70084B00221A70C046BD4602B080BDE6
S1130590360D0020340D0020380D0020D93C000019
S11305A0653D0000420D0020410D0020400D00205B
S11305B080B582B000AF78600C4B01221A707B6862
S11305C05A6A0B4B1B885B42D2180A4B1A600A4BBF
S11305D01B78002B06D0094B1A78094B1A70064B6E
S11305E000221A70C046BD4602B080BD210D002015
S11305F0340D00203C0D0020420D0020410D002050
S1130600400D002080B586B000AFF860B960BB1D16
S11306101A801723FB1800221A70BB1D1B88DAB23C
S11306201623FB18013A1A702BE01723FB181B78CA
S1130630BA68D2181523FB1812781A701723FB18FE
S11306401B78BA68D3181622BA181278B9688A18AF
S113065012781A701623FB181B78BA68D31815225F
S1130660BA1812781A701723FB181A781723FB1874
S113067001321A701623FB181A781623FB18013A54
S11306801A701723FA181623FB1812781B789A424B
S1130690CBD3BB1D1A88B968FB681800024B984776
S11306A0C046BD4606B080BD0D3D000080B584B097
S11306B000AF78600A00FB1C1A700F23FB1800229D
S11306C01A70D84B1B78042B00D90FE29A00D64B32
S11306D0D3181B689F46FB1C1B78002B3AD1D34BC5
S11306E01B88012B36D1D24B1B681B78122B1AD1D5
S11306F0CC4B01221A70CF4BFF221A80CE4BCD4A2D
S11307001A60CA4B01221A80CC4B01221A70CC4BBE
S11307105B221A70CA4B1B789AB27B6811001800CE
S1130720C84B98472EE0C44BC24A1A60BF4B012203
S11307301A80C24B01221A70BD4B1B681A78C04B39
S11307401A70BF4B1B789AB27B6811001800BD4B1E
S1130750984717E0B74BFF221A80B74BB54A1A6087
S1130760B24B01221A80B54B01221A70B44BEA2213
S11307701A70B34B1B789AB27B6811001800B14B06
S11307809847BAE1B9E1FB1C1B78002B00D0B1E11A
S1130790A74B1B681B78A52B12D1A64BBB60A14BA2
S11307A002221A70BB680433FF221A709F4B012285
S11307B01A80A54A7B6811001800A44B984799E158
S11307C09B4B1B681B78122B17D19D4B5B221A7015
S11307D0984BFF221A80984B964A1A60934B012239
S11307E01A80964B01221A70954B1B789AB27B683B
S11307F011001800934B98477CE1954B1B78002B14
S113080017D18F4B5A221A708A4BFF221A808A4BB7
S1130810884A1A60854B01221A80884B01221A707B
S1130820874B1B789AB27B6811001800854B984758
S113083060E17E4B01221A807E4A7B681100180019
S1130840824B984756E1FB1C1B78002B11D1754B4A
S113085003221A70764B1A687E4B1A60734B0B2274
S11308601A807B68596A7B680B2218007A4B984778
S113087043E16C4B01221A706F4B6E4A1A606F4B46
S113088001221A70694B01221A806D4BEA221A70F8
S11308906B4B1B789AB27B6811001800694B984720
S11308A02BE1FB1C1B78002B00D08CE00E23FB18E3
S11308B000221A7014E0674B1A680E23FB181B7889
S11308C0D31819780F23FB180F22BA1812784A404C
S11308D01A700E23FB181A780E23FB1801321A70B3
S11308E00E23FB181B780B2BE5D90F23FB181B7861
S11308F0002B1AD04B4B01221A704E4BFF221A8048
S11309004D4B4C4A1A60494B01221A804B4B012231
S11309101A704B4B5A221A70494B1B789AB27B6857
S113092011001800474B9847E6E04A4B19684B4BB7
S11309300C2218004A4B9847484B1B68FF2213406F
S1130940032B1ED1374B04221A70444B1B681B0C1B
S11309509AB2444B1A80394B01221A70364B424AE0
S11309601A60404B1A88314B1A80354BAC221A70EE
S1130970334B1B789AB27B6811001800314B9847AF
S1130980BAE0364B1B68FF221340012B06D1374BCC
S113099001221A70234B05221A70ADE0334B012259
S11309A01A70334B01221A70324B05221A70244BF1
S11309B0AC221A70224B1B789AB27B681100180083
S11309C0204B984798E0FB1C1B78022B00D093E047
S11309D0144B01221A70184B164A1A60174B012245
S11309E01A70124B01221A80154BEA221A70144B0A
S11309F01B789AB27B6811001800124B98477BE071
S1130A00FB1C1B78002B37D1084B1A88154B1B880D
S1130A109A4231D1154B01221A70024B05221A70E9
S1130A206BE0C046400D002058D40000340D002077
S1130A303C0D002000090020380D0020360D002058
S1130A40100D0020913C000004090020D93C000056
S1130A50430D0020240D0020653D0000280D0020DA
S1130A60096D0000440D002010090020200D002015
S1130A70420D0020410D0020FB1C1B78022B1AD1D3
S1130A80204B01221A70204BEA221A701F4BFF22BE
S1130A901A801F4B01221A801E4B1C4A1A601E4BDF
S1130AA001221A70184B1B789AB27B681100180047
S1130AB01A4B984721E0134B01221A70124B5A2209
S1130AC01A70124BFF221A80114B01221A80114B0B
S1130AD00E4A1A60104B01221A700B4B1B789AB203
S1130AE07B68110018000D4B984706E0054B012266
S1130AF01A7002E0C04600E0C046C046BD4604B0DD
S1130B0080BDC046400D0020100D002000090020CB
S1130B10340D0020380D0020360D0020913C0000DB
S1130B2080B592B000AF78600823FB181800254BFD
S1130B3098470823FB18C0229203DA600823FB18A5
S1130B40012252421A630823FB18012252425A63BB
S1130B500823FB181C4A9A630823FB181B4ADA6310
S1130B600823FB187A681A620823FA181849194BE3
S1130B701800194B98471949164B01221800184BB5
S1130B8098471849134B00221800154B9847114BEE
S1130B9001211800144B98470E4B00211800124BEA
S1130BA098470C4B1800114B9847114B01221A809F
S1130BB0104A084B110018000F4B9847C046BD4619
S1130BC012B080BDAD020000020016000300150043
S1130BD000140042C8080020C5040000B10500004C
S1130BE0493C000035050000010400006D030000CD
S1130BF0340D002000090020D93C000090B583B0DA
S1130C0000AFFC1D884B984703002370FB1D1B7825
S1130C105BB2002B00D1FBE0B6235A008349844B1E
S1130C201800844B9847844B1800844B98470D2038
S1130C30834B984705235B42F2E0824B1B78002BE1
S1130C4007D0804B00221A707F4B002118007F4B85
S1130C5098477F4B1B78002B07D07D4B00221A70DE
S1130C60794B02211800794B98477A4B1B78002B5B
S1130C7000D1CDE0784B1B78052B00D0C8E0774B32
S1130C801B68FF2213400A2B00D9BDE09A00744B65
S1130C90D3181B689F46714B5B681800714B9847CB
S1130CA003003B603B68DAB26F4B1A703B681B0A67
S1130CB0DAB26D4B5A703B681B0CDAB26A4B9A700D
S1130CC03B681B0EDAB2684BDA70684B684A1A60EC
S1130CD0684B01221A80684B01221A705E4B012274
S1130CE01A706149584B04221800644B98478CE0F1
S1130CF05A4B5A68594B9B6819001000604B98472F
S1130D005A4B5B4A1A605B4B01221A805A4B0122F0
S1130D101A70554BAC221A704F4B01221A70524B69
S1130D201B789AB2484B11001800564B98476CE058
S1130D304A4B5868494B1B681A0C534B1900534BC8
S1130D4098474A4B4A4A1A604A4B01221A804A4B36
S1130D5001221A70404B01221A70404B1B681B0C75
S1130D609AB24949384B1800494B98474DE03B4BE0
S1130D7058683A4B1B681A0C434B1900454B98476B
S1130D803A4B3B4A1A603B4B01221A803A4B0122F0
S1130D901A70354BAC221A702F4B01221A70324B49
S1130DA01B789AB2284B11001800364B98472CE058
S1130DB0294B01221A70384B01221A70224B180059
S1130DC0364B9847254B9B681800354B98471CE0D9
S1130DD02920344B984703001A00234B1A70234BE5
S1130DE0234A1A60234B01221A80234B01221A70D2
S1130DF0194B01221A701C4B1B789AB2124B11002A
S1130E001800204B984700E0C046124B00221A708D
S1130E10254B1B78002B00D10FE7FB1D1B785BB221
S1130E201800BD4603B090BDAD170000DCD400002F
S1130E306CD40000116E000080D40000B96E000074
S1130E40356E0000210D0020C8080020AD0600000A
S1130E50220D0020200D0020400D0020280D002030
S1130E60B0D40000A9190000100D0020380D002096
S1130E7000090020340D0020360D00200506000076
S1130E80ED190000913C0000100900203D1A0000FB
S1130E900D3D0000351B0000430D0020B50300008C
S1130EA0210B000025020000460D002090B585B0FE
S1130EB000AF0F23FB1800221A70124B9847E1234E
S1130EC05B021800104B9847104B98473B001800E2
S1130ED00F4B98473B0024221A603B0000225A60C3
S1130EE03B0001221A723B000222DA723B00190015
S1130EF00420084B98470F23FC18074B984703001E
S1130F002370E1E775620000210B000079100000F6
S1130F10CD010000B1310000FD0B000080B584B0AC
S1130F2000AF0200FB1D1A700F23FB18FA1D127884
S1130F30D2091A700E23FB18FA1D127852091A707E
S1130F400D4BBB600F23FB181B78002B0FD10F2315
S1130F50FB181B789B0010229446BC446344083B56
S1130F601A680E23FB181B78DB01D31800E000235A
S1130F701800BD4604B080BD0044004180B500AFF8
S1130F80044B01221A70BFF35F8F62B6C046BD46A0
S1130F9080BDC0460C00002080B582B000AF0200C6
S1130FA0FB1D1A70FB1D1B781800034B98470300A8
S1130FB01800BD4602B080BD1D0F000080B582B090
S1130FC000AF78607B6800221A707B6801225A7037
S1130FD07B6800229A70C046BD4602B080BDC04600
S1130FE080B584B000AF0200FB1D1A70BB1D0A1C43
S1130FF01A70FB1D1B7818000D4B98470300FB600B
S1131000FB1D1B781F22134001229A401300BB6072
S1131010BB1D1B78002B03D0FB68BA689A6102E001
S1131020FB68BA685A61C046BD4604B080BDC0467C
S1131030990F000080B582B000AF3B1D18000C4B27
S113104098473B1D01221A703B1D19002620094BAD
S113105098473B1D19002520064B98473B1D190056
S11310602720044B9847C046BD4602B080BDC04609
S1131070BD0F00005953000080B500AF074B00229C
S11310801A60074B9847074B9847074B9847074BFD
S1131090984700231800BD4680BDC046480D002077
S11310A035100000892E0000B11000007D0F0000F3
S11310B080B500AF002125200C4B98470021262045
S11310C00A4B984764200A4B984701212520074B77
S11310D098470A20064B984701212620034B98473E
S11310E06420034B9847C046BD4680BDE10F000015
S11310F0F510000080B582B000AF786002E00120F6
S1131100054B98477B685A1E7A60002BF7D1C0467E
S1131110BD4602B080BDC046E12E000080B584B05B
S113112000AF0200FB1D1A700F23FB18FA1D127882
S1131130D2091A700E23FB18FA1D127852091A707C
S11311400D4BBB600F23FB181B78002B0FD10F2313
S1131150FB181B789B0010229446BC446344083B54
S11311601A680E23FB181B78DB01D31800E0002358
S11311701800BD4604B080BD0044004180B582B073
S113118000AF0200FB1D1A70FB1D1B781800034BF7
S1131190984703001800BD4602B080BD1D11000031
S11311A080B582B000AF78607B6800221A707B68DB
S11311B001225A707B6800229A70C046BD4602B074
S11311C080BDC04680B584B000AF0200FB1D1A701C
S11311D0BB1D0A1C1A70FB1D1B7818000D4B984789
S11311E00300FB60FB1D1B781F22134001229A4061
S11311F01300BB60BB1D1B78002B03D0FB68BA68CF
S11312009A6102E0FB68BA685A61C046BD4604B000
S113121080BDC0467D11000080B584B000AF786009
S11312207B681B68FB60FB68DB695A1E9341DBB279
S11312301800BD4604B080BD80B582B000AF7860B0
S11312407B6801221A707B6800225A607B68002246
S11312509A607B68C0229203DA607B6800221A7469
S11312607B6800225A747B6801229A747B6801228D
S1131270DA747B6800221A757B6824220021995451
S11312807B6818330C22002118000A4B98477B68AE
S1131290094A9A617B6800229A627B680022DA62BA
S11312A07B6800221A637B6800225A63C046BD46ED
S11312B002B080BD856D0000A086010080B582B0BB
S11312C000AF78607B680A221A707B6800225A702B
S11312D07B6800229A70C046BD4602B080BDC046FD
S11312E080B584B000AF786039603B681A787B6859
S11312F01A703B685A787B685A703B689A787B68A6
S11313009A700C23FB1818000B4B98470C23FB18FE
S113131001221A707B681B780C22BA18110018007D
S1131320064B98477B681B7801211800044B9847AB
S1131330C046BD4604B080BDA11100005953000051
S1131340C511000080B584B000AF78607B681B686D
S1131350FB60C0467B681800064B9847031EF9D112
S1131360FB681B6802221A43FB681A60C046BD462C
S113137004B080BD1912000080B584B000AF78605D
S11313807B681B68FB60FB681B7EDBB21A000223D0
S113139013405A1E9341DBB21800BD4604B080BD11
S11313A080B584B000AF78607B681B68FB60FB6825
S11313B01B7EDBB21A00012313405A1E9341DBB299
S11313C01800BD4604B080BD80B584B000AF78601D
S11313D07B681B68FB60FB681B7EDBB21A0004237E
S11313E013405A1E9341DBB21800BD4604B080BDC1
S11313F080B584B000AF78600A00BB1C1A807B689B
S11314001B68FB607B6818000A4B984703001A00AE
S113141001235340DBB2002B01D0052306E0BB1CA3
S11314201B88DB05DA0DFB689A6200231800BD46B1
S113143004B080BDA113000080B584B000AF786013
S113144039607B681B68BB607B6818001D4B98473C
S113145003001A0001235340DBB2002B01D01023F8
S11314602CE00F23FB1800221A70BB685B8B9BB225
S11314701A00042313400BD00F23FB181E221A70EA
S1131480BB685B8B9BB2042213439AB2BB685A833A
S11314907B689B79012B08D1BB689B6A9BB2DB05F7
S11314A0DB0D9AB23B681A8005E0BB689B6ADBB22D
S11314B09AB23B681A800F23FB181B781800BD46AC
S11314C004B080BDC913000080B586B000AFF860D9
S11314D0B960BB1D1A801323FB1800221A7017234E
S11314E0FB1800221A701623FB1800221A7014230A
S11314F0FB1800221A801023FB1800221A80FB68B4
S1131500002B07D11323FB18FB601723FB180122C0
S11315101A700DE0BB68002B07D11323FB18BB60C6
S11315201623FB1801221A7002E006235B426AE0CC
S11315303749384B01221800374B98474CE0FB6879
S11315401A781423FB181A80C046324B1800334B08
S1131550984703001A0001235340DBB2002BF4D157
S1131560C0461423FB181A882A4B110018002C4B70
S11315709847031EF5D1C046264B1800294B9847BF
S113158003001A0001235340DBB2002BF4D1C04600
S11315901023FA181F4B11001800234B9847031E01
S11315A0F6D11023FB181B88DAB2BB681A70BB1D76
S11315B01A88BB1D013A1A801623FB181B78002BCE
S11315C002D1BB680133BB601723FB181B78002BC7
S11315D002D1FB680133FB60BB1D1B88002BAED11D
S11315E0C0460C4B1800114B984703001A00012306
S11315F05340DBB2002BF4D10549064B00221800FE
S1131600054B984700231800BD4606B080BDC04670
S1131610C80D0020CC0D0020813A0000A113000069
S1131620F1130000C91300003914000079130000FD
S113163080B592B000AF78604723FB1800221A707F
S11316400823FB181800264B98470823FB1805228B
S11316501A700823FA18234B11001800224B9847DC
S11316600C23FB181800214B98470C23FB188022ED
S11316705202DA600C23FB181D4A9A620C23FB18F1
S113168001225242DA620C23FB181A4A1A630C2311
S1131690FB18194A5A630C23FB1800221A750C23F1
S11316A0FB18164A9A610C23FA181549154B1800B1
S11316B0154B9847031E02D006235B420CE0114BE6
S11316C01800124B9847124B98470120114B98472A
S11316D04723FB181B785BB21800BD4612B080BDCF
S11316E0BD120000C80D0020E112000039120000F4
S11316F0030004000300060003000700809698001E
S113170000080042CC0D00208D3900004513000074
S1131710B1100000F510000090B585B000AF0200D4
S11317203960FB1D1A700F23FB1800221A70FB1D71
S11317301B78032B0FD13B68BB60BB681868BB6880
S11317405968BB681B890F22BC181A00104B9847B4
S11317500300237013E00F23FB18FF221A701423D5
S1131760FF331A000B490C4B18000C4B98470C4BD9
S113177018000C4B98470D200B4B9847C0460F237D
S1131780FB181B785BB21800BD4605B090BDC0467F
S1131790C914000024D50000FCD40000116E000020
S11317A010D50000B96E0000356E000090B583B00E
S11317B000AFFB1D00221A70FC1D0A4B9847030062
S11317C02370FB1D1B785BB2002B02D1064B98479C
S11317D000E0C046FB1D1B785BB21800BD4603B099
S11317E090BDC046011C0000ED17000090B583B009
S11317F000AFFC1D3B00294A19001000284B9847F4
S113180003002370FB1D1B785BB2002B02D0062360
S11318105B423FE03B688022520013433B603B68DD
S1131820FC1D1E4A190010001E4B9847030023702C
S1131830FB1D1B785BB2002B02D006235B4229E020
S1131840FC1D3A00D0235B0111001800144B98478B
S113185003002370FB1D1B785BB2002B02D0062310
S11318605B4217E03B688022520213433B603A68B4
S1131870FC1DD0235B01110018000A4B984703009C
S11318802370FB1D1B785BB2002B02D006235B4246
S113189000E000231800BD4603B090BD081400000A
S11318A0C9190000ED19000080B582B000AF284BC3
S11318B01B68002B45D1264A80235B0111001800C8
S11318C0244B9847031E04D0214B00221A600023A6
S11318D039E03B1D204A190010001E4B9847031E97
S11318E004D01B4B00221A6000232CE0184B1B6809
S11318F01A4A934206D17B68012B15D0144B184A1F
S11319001A6011E0124B1B68164A93420CD17B6893
S1131910032B09D07B68042B03D10D4B124A1A60A8
S113192002E00B4B114A1A60094B1B68104A1A401B
S1131930074B1A60064B1B68A022D2021A43044BC1
S11319401A60034B1B681800BD4602B080BDC04638
S11319504C0D0020C9190000F4130000A00210006F
S1131960A1021000B0021000B1021000B202100077
S1131970FFFFF0FF90B585B000AF78600F23FB1830
S113198000221A700F23FC187B681800054B984737
S1131990030023700F23FB181B785BB21800BD46AD
S11319A005B090BD3116000080B582B000AF7860FC
S11319B07B681800034B984703001800BD4602B02B
S11319C080BDC046E12C000080B582B000AF7860D5
S11319D039603A687B6811001800034B984703008C
S11319E01800BD4602B080BD052D000080B582B050
S11319F000AF786039603A687B6811001800034BC7
S1131A00984703001800BD4602B080BD552D000064
S1131A1080B584B000AFF860B960BB1D1A80BB1DEF
S1131A201A88B968FB681800034B9847030018002C
S1131A30BD4604B080BDC046A52D000080B586B06B
S1131A4000AFF860B9607A602D4B1A881023FB1838
S1131A50083A1A8000237B611323FB1800221A70B2
S1131A601023FB181A887B689A4213D3BA687B69DF
S1131A70D1187B689AB2FB681800224B9847030080
S1131A80DAB21323FB181B78D318DAB21323FB182A
S1131A901A702DE0BA687B69D1181023FB181A88D4
S1131AA0FB681800174B98470300DAB21323FB189E
S1131AB01B78D318DAB21323FB181A701323FB18FC
S1131AC01B785BB2002B12D11023FB181B887A6899
S1131AD0D31A7B601023FB181B887A69D3187B61A7
S1131AE01023FB181B88FA68D318FB60B8E7C046BC
S1131AF01323FB181B785BB21800BD4606B080BDEB
S1131B0000000020111A000080B584B000AFF86016
S1131B10B960BB1D1A80BB1D1A88B968FB68180020
S1131B20034B984703001800BD4604B080BDC0466F
S1131B30FD2D000080B586B000AFF860B9607A6012
S1131B402D4B1A881023FB18083A1A8000237B6156
S1131B501323FB1800221A701023FB181A887B68C1
S1131B609A4213D3BA687B69D1187B689AB2FB682E
S1131B701800224B98470300DAB21323FB181B7892
S1131B80D318DAB21323FB181A702DE0BA687B69F4
S1131B90D1181023FB181A88FB681800174B9847B4
S1131BA00300DAB21323FB181B78D318DAB2132319
S1131BB0FB181A701323FB181B785BB2002B12D18D
S1131BC01023FB181B887A68D31A7B601023FB1838
S1131BD01B887A69D3187B611023FB181B88FA6869
S1131BE0D318FB60B8E7C0461323FB181B785BB21D
S1131BF01800BD4606B080BD00000020091B00008F
S1131C0090B583B000AFFB1D00221A70FC1D0020AC
S1131C10194B984703002370FB1D1B785BB2002B04
S1131C200DD01649164B78221800164B9847164BC0
S1131C301800164B98470D20154B984715E0154B87
S1131C409847154B18000F4B9847144B98470200C0
S1131C50134B110018000B4B98470D200C4B984761
S1131C60104B00211800104B9847FB1D1B785BB2EA
S1131C701800BD4603B090BD751900006CD6000075
S1131C8034D50000116E000048D50000B96E000084
S1131C90356E0000992B000064D50000A9180000DF
S1131CA070D5000000030200ED19000080B586B075
S1131CB000AF78600A00BB1C1A800C23FB180022BA
S1131CC01A600C23FB187A685A600C23FB18BA1CA0
S1131CD012881A810C23FB1819000320034B984720
S1131CE003001800BD4606B080BDC04619170000A9
S1131CF080B586B000AF78600A00BB1C1A800C2344
S1131D00FB187A681A600C23FB1800225A600C2313
S1131D10FB18BA1C12881A810C23FB181900032023
S1131D20034B984703001800BD4606B080BDC0466B
S1131D301917000080B582B000AF0200FB1D1A70B5
S1131D40BB1D0A1C1A70FB1D1B785A00BB1D1B7897
S1131D505340034AD35C1800BD4602B080BDC04660
S1131D6088D6000090B585B000AFB9607A600F23C3
S1131D70FB18021C1A700EE0BB685A1CBA601A7871
S1131D800F23FC180F23FB181B7811001800084BB5
S1131D909847030023707B685A1E7A60002BEBD1AE
S1131DA00F23FB181B781800BD4605B090BDC04634
S1131DB0351D000090B589B000AFB9607A603B6012
S1131DC00F23FB18021C1A701F23FB1805221A701C
S1131DD01E23FB1801221A701423FB180F22BA18B1
S1131DE012781A700F23FB181B78C13B0E2B00D9F5
S1131DF01BE19A00B64BD3181B689F46BB681B0CAB
S1131E00DAB21423FB185A70BB681B0ADAB2142323
S1131E10FB189A70BB68DAB21423FB18DA701F231C
S1131E20FB1805221A7005E1BB681B0ADAB21423F9
S1131E30FB185A703023FB181B78002B09D014238D
S1131E40FB185B78802252421343DAB21423FB1846
S1131E505A70BB68DAB21423FB189A701423FB1867
S1131E600022DA701F23FB1805221A70E2E0142303
S1131E70FB1800225A701423FB1800229A701423B2
S1131E80FB180022DA701F23FB1805221A70D1E018
S1131E901423FB1800225A701423FB1800229A7092
S1131EA01423FB180022DA701F23FB1805221A7072
S1131EB0C0E01423FB18FF225A701423FB18FF22DE
S1131EC09A701423FB18FF22DA701F23FB180522D3
S1131ED01A70AFE0BB681B0CDAB21423FB185A70FB
S1131EE0BB681B0ADAB21423FB189A70BB68DAB217
S1131EF01423FB18DA703B681B0ADAB21423FB18AC
S1131F001A713B68DAB21423FB185A711F23FB18A9
S1131F1007221A708EE0BB681B0CDAB21423FB187C
S1131F205A70BB681B0ADAB21423FB189A70BB6898
S1131F30DAB21423FB18DA703B681B0CDAB21423F0
S1131F40FB181A713B681B0ADAB21423FB185A7186
S1131F503B68DAB21423FB189A711F23FB1808227A
S1131F601A7067E0BB681B0ADAB21423FB185A70B4
S1131F703023FB181B78002B09D01423FB185B7843
S1131F80802252421343DAB21423FB185A70BB68FE
S1131F90DAB21423FB189A707B681B0EDAB214238E
S1131FA0FB18DA707B681B0CDAB21423FB181A7165
S1131FB07B681B0ADAB21423FB185A717B68DAB205
S1131FC01423FB189A711F23FB1808221A7031E09E
S1131FD0BB681B0CDAB21423FB185A70BB681B0ACB
S1131FE0DAB21423FB189A70BB68DAB21423FB1814
S1131FF0DA707B681B0EDAB21423FB181A717B6843
S11320001B0CDAB21423FB185A717B681B0ADAB270
S11320101423FB189A717B68DAB21423FB18DA7163
S11320201F23FB1809221A7004E01E23FB18002248
S11320301A70C0461E23FB181B785BB2002B3FD0DE
S1132040244B1B78002B15D11F23FB181B785C1E17
S11320501F23FB181B78013B1A001423FB181900DB
S11320607F201D4B98470300DB18DAB21423FB18BA
S11320701A5506E01F23FB181F22BA181278013ADA
S11320801A701F23FB181B789AB21423FB18110033
S11320901800124B9847031E12D02023FF331A0056
S11320A00F49104B1800104B9847104B1800104B59
S11320B098470D200F4B98471E23FB1800221A70D7
S11320C01E23FB181B785BB21800BD4609B090BDF7
S11320D040DC0000500D0020651D0000F11C0000D4
S11320E07CDC000088D70000116E00009CD7000043
S11320F0B96E0000356E000080B584B000AF0200F8
S1132100FB1D1A700F23FB1801221A70FB1D1B788C
S1132110CF2B07D0FB1D1B78C52B03D0FB1D1B78D1
S1132120C62B0CD10D23FB1801211800394B9847FD
S1132130031E04D00F23FB1800221A7061E00E2343
S1132140FB180A221A700D23FB1801211800314BC9
S11321509847031E12D09F235A002F492F4B180073
S11321602F4B98472F4B18002F4B98470D202F4B80
S113217098470F23FB1800221A7042E00D23FB1826
S11321801B78FA1D12789A420BD00E23FB181B7889
S11321905BB2DAB2013AD1B20E22BA181170002B36
S11321A0D1DC0E23FB180A221A700D23FB1801211F
S11321B01800184B9847031E12D0A6235A0016493C
S11321C0164B1800164B9847164B1800164B984799
S11321D00D20164B98470F23FB1800221A7010E0AD
S11321E00D23FB181B78002B0BD00E23FB181B7838
S11321F05BB2DAB2013AD1B20E22BA181170002BD6
S1132200D3DC0F23FB181B785BB21800BD4604B067
S113221080BDC046AD1C000084DC000088D70000EF
S1132220116E0000C8D70000B96E0000356E0000C2
S113223080B586B000AF786008001100BB1C021C9A
S11322401A807B1C0A1C1A701123FB1801221A70B5
S11322501423FB1800221A80BB1C1A8880239B01BC
S11322609A4205D81223FB18BA1C12881A8004E07B
S11322701223FB18802292011A801623FB180A22CB
S11322801A800B23FB18012118005E4B9847031E8C
S113229012D0B7235A005C495C4B18005C4B98473A
S11322A05C4B18005C4B98470D205C4B98471123FE
S11322B0FB1800221A7017E00B23FB181B781B096C
S11322C0DBB21A000F2313400F2B0CD01623FB187C
S11322D000229B5E9AB2013A91B21622BA1811807A
S11322E0002BCED100E0C0461123FB181B785BB253
S11322F0002B00D17CE01623FB1800229B5E002BF0
S113230017DCBD235A004049404B1800404B984706
S11323100B23FB181B781A00414B110018003C4B8F
S113232098470D203D4B98471123FB1800221A7043
S11323305FE01423FB1800229B5E7A68D2181223F4
S1132340FB181B88190010002E4B9847031E13D04E
S11323508423FF331A002C492C4B18002C4B98472C
S1132360304B18002C4B98470D202C4B98471123C9
S1132370FB1800221A703CE07B1C1B78002B1ED13A
S1132380294B1B78002B1AD10C23FB1802211800AF
S11323901C4B9847031E12D0C7235A001A491B4BE3
S11323A018001B4B9847214B18001B4B98470D20D6
S11323B01A4B98471123FB1800221A7019E01423B2
S11323C0FB181A881223FB181B88D3189AB21423FB
S11323D0FB181A801223FB181A88BB1CB91C098825
S11323E08A1A1A80BB1C1B88002B00D034E700E03B
S11323F0C0461123FB181B785BB21800BD4606B01B
S113240080BDC046AD1C000090DC000088D70000F1
S1132410116E0000FCD70000B96E0000356E00009C
S113242030D8000060D80000500D002090D8000083
S113243080B586B000AF78600A00BB1C1A801323F5
S1132440FB1801221A700C23FB1800221A80162391
S1132450FB1800221A80BB1C1A8880239B019A4215
S113246005D81423FB18BA1C12881A8004E014231C
S1132470FB18802292011A801123FB18F0221A7093
S11324801623FB1800229B5E002B0FD1BB1C1A885D
S113249080239B019A4204D81223FB1803221A704A
S11324A013E01223FB1801221A700EE0BB1C1A88D9
S11324B080239B019A4204D81223FB1803221A702A
S11324C003E01223FB1802221A701123FB181A7856
S11324D01223FB181B781343DAB21123FB181A706A
S11324E01123FB18012118003C4B9847031E13D0FD
S11324F0C023FF331A003A493A4B18003A4B984725
S11325003A4B18003A4B98470D203A4B98471323FF
S1132510FB1800221A7058E01623FB1800229B5E59
S11325207A68D2181423FB181B88190010002B4B4F
S11325309847031E12D0E4235A002949294B180056
S1132540294B98472C4B1800294B98470D20294BB1
S113255098471323FB1800221A7036E0274B1B7888
S1132560002B1AD10C23FB18022118001B4B98478F
S1132570031E12D0E9235A0019491A4B18001A4BAA
S113258098471F4B18001A4B98470D20194B984732
S11325901323FB1800221A7017E01623FB181A885D
S11325A01423FB181B88D3189AB21623FB181A801D
S11325B0BB1CB91C1422BA18098812888A1A1A80FA
S11325C0BB1C1B88002B00D045E71323FB181B788A
S11325D05BB21800BD4606B080BDC046F11C0000C9
S11325E0A0DC000088D70000116E0000C4D80000F1
S11325F0B96E0000356E0000FCD80000500D0020BC
S113260030D90000B0B586B002AF786039600D23D0
S1132610FB1801221A700F23FB18C9221A700E230B
S1132620FB1800221A707B68302B08D80F23FB1884
S1132630C3221A700E23FB1801221A7007E00F231D
S1132640FB18C9221A700E23FB1800221A700D23DE
S1132650FC183A6879680F23FB1818780E23FB18C6
S11326601B7800930423254DA847030023700D23F2
S1132670FB181B785BB2012B10D0214A2149224B55
S11326801800224B98477A68214B110018001F4B01
S113269098470D201F4B984700232AE00D23FC1870
S11326A00F23FB181B7818001B4B9847030023705B
S11326B00D23FB181B785BB2012B19D082239A00DF
S11326C01049114B1800114B98477A68134B1100AD
S11326D018000E4B98470D200E4B9847002300938B
S11326E0002300220021CF20044CA047002300E057
S11326F001231800BD4604B0B0BDC046B51D00009E
S113270002020000B0DC000088D70000116E000057
S113271068D90000356E0000F920000094D900004B
S1132720B0B588B002AFF860B960BB1D1A8017233A
S1132730FB18C7221A70BB1D1A881623FC18F968E7
S11327401723FB1818780023009313000022384D38
S1132750A847030023701623FB181B785BB2012BD8
S113276010D0344A3449354B1800354B9847FA6831
S1132770344B11001800324B98470D20324B9847C8
S1132780002350E01623FC181723FB181B781800AD
S11327902E4B9847030023701623FB181B785BB25B
S11327A0012B19D08B239A002349244B1800244B66
S11327B09847FA68264B11001800214B98470D20C2
S11327C0214B984700230093002300220021CF20AF
S11327D0174CA047002326E01623FC18BB1D1A88BB
S11327E0BB68110018001B4B984703002370162385
S11327F0FB181B785BB2012B14D0174A0E490F4B00
S113280018000F4B9847154B1800154B98470D208F
S11328100D4B984700230093002300220021CF2072
S1132820034CA04701231800BD4606B0B0BDC04606
S1132830B51D000026020000C0DC000088D700009F
S1132840116E0000CCD90000356E0000F9200000A4
S1132850FCD90000312400003D02000034DA0000FD
S1132860B96E0000B0B586B002AF786039600D2350
S1132870FB1801221A700F23FB18CA221A700E23A8
S1132880FB1800221A707B68FF2B08D80F23FB1853
S1132890C4221A700E23FB1801221A7007E00F23BA
S11328A0FB18CA221A700E23FB1800221A700D237B
S11328B0FC1879680F23FB1818780E23FB181B7873
S11328C0009304230022444DA847030023700D23E2
S11328D0FB181B785BB2012B11D097239A003F4958
S11328E03F4B18003F4B98477A683F4B1100180044
S11328F03C4B98470D203D4B9847002368E00D233F
S1132900FC180F23FB181B781800394B9847030059
S113291023700D23FB181B785BB2012B18D0354AAA
S11329202E492F4B18002F4B98477A68324B1100D1
S113293018002C4B98470D202C4B984700230093EC
S1132940002300220021CF20234CA04700233FE096
S11329500D23FC180E23FB181A780823FB180421F6
S11329601800264B9847030023700D23FB181B788F
S11329705BB2012B16D0224A1849194B1800194B87
S11329809847204B1800204B98470D20174B984729
S113299000230093002300220021CF200E4CA047E7
S11329A0002315E00823FB181B781A000823FB18E2
S11329B05B781B021A430823FB189B781B041A43F9
S11329C00823FB18DB781B061A433B681A600123B3
S11329D01800BD4604B0B0BDB51D0000D0DC000039
S11329E088D70000116E00005CDA0000356E00002C
S11329F0F92000006202000088DA000031220000A1
S1132A006A020000BCDA0000B96E0000B0B588B0FC
S1132A1002AFF860B960BB1D1A801723FB18C822E7
S1132A201A70BB1D1A881623FC18F9681723FB18A3
S1132A3018780023009313000022384DA8470300A0
S1132A4023701623FB181B785BB2012B10D0344A79
S1132A503449354B1800354B9847FA68344B11000C
S1132A601800324B98470D20324B9847002351E011
S1132A701623FC181723FB181B7818002E4B9847B5
S1132A80030023701623FB181B785BB2012B18D0AC
S1132A902A4A2449244B1800244B9847FA68284BA7
S1132AA011001800214B98470D20224B9847002312
S1132AB00093002300220021CF20184CA0470023BC
S1132AC028E01623FC18BB1D1988BB6800221800D7
S1132AD01C4B9847030023701623FB181B785BB22A
S1132AE0012B16D0184A0F490F4B18000F4B98476B
S1132AF0164B1800164B98470D200E4B9847002391
S1132B000093002300220021CF20044CA04700237F
S1132B1000E001231800BD4606B0B0BDB51D00009D
S1132B208B020000E0DC000088D70000116E00007A
S1132B30DCDA0000356E0000F9200000910200008C
S1132B400CDB0000312200009B02000044DB00008B
S1132B50B96E000080B582B000AF0C4B18000C4B6E
S1132B60984703007B607B68702293437B607B689B
S1132B70502213437B60C0467B68044A190010004E
S1132B80044B9847C046BD4602B080BD24E800000F
S1132B90E12C0000552D000080B582B000AF002369
S1132BA03B603E4B00221A703B003D4A1900100066
S1132BB03C4B9847031E27D1384B01221A70B72388
S1132BC09A003949394B1800394B9847394B18004A
S1132BD0394B98470D20394B98473B00304A190030
S1132BE01000304B9847031E0ED1354A2E492F4B07
S1132BF018002F4B9847334B18002F4B98470D2044
S1132C002E4B9847002345E0244B1B78002B25D1FD
S1132C103B680C2293433B603B68702293433B60C8
S1132C203B68502213433B603B681D4A1900100067
S1132C30254B9847031E0ED1244A1B491B4B1800F1
S1132C401B4B9847224B18001B4B98470D201B4BDE
S1132C50984700231EE0114B01221A703A1D80236D
S1132C605B01110018000F4B9847031E0FD1194A3E
S1132C700D490E4B18000E4B9847174B18000E4B7E
S1132C8098470D200D4B984706235B4202E0134BF7
S1132C90984700231800BD4602B080BD500D0020A7
S1132CA024E8000065280000ECDC000088D7000060
S1132CB0116E00006CDB0000B96E0000356E000080
S1132CC0DF020000BCDB000005260000E902000072
S1132CD0E8DB0000F30200001CDC0000552B0000C0
S1132CE080B584B000AF78600C23FA187B681100BB
S1132CF01800034B9847FB681800BD4604B080BD1C
S1132D006528000090B585B000AF786039600F2366
S1132D10FC183A687B68110018000D4B98470300B3
S1132D2023700F23FB181B785BB2012B04D10F23F4
S1132D30FB1800221A7003E00F23FB18FA221A7002
S1132D400F23FB181B785BB21800BD4605B090BD7D
S1132D506528000090B585B000AF786039600F2316
S1132D60FC183A687B68110018000D4B9847030063
S1132D7023700F23FB181B785BB2012B04D10F23A4
S1132D80FB1800221A7003E00F23FB18FA221A70B2
S1132D900F23FB181B785BB21800BD4605B090BD2D
S1132DA00526000090B587B000AFF860B960BB1D80
S1132DB01A801723FC18BB1D1A88B968FB68180011
S1132DC00D4B9847030023701723FB181B785BB245
S1132DD0012B04D11723FB1800221A7003E01723D8
S1132DE0FB18FA221A701723FB181B785BB2180021
S1132DF0BD4607B090BDC0460D2A000090B587B00F
S1132E0000AFF860B960BB1D1A801723FC18BB1D06
S1132E101A88B968FB6818000D4B984703002370A3
S1132E201723FB181B785BB2012B04D11723FB1863
S1132E3000221A7003E01723FB18FA221A701723D2
S1132E40FB181B785BB21800BD4607B090BDC046A6
S1132E502127000080B582B000AF78607B68002B2A
S1132E600CD0084B7A685A60064B00229A60C04620
S1132E70044B1A6880235B021340F9D0C046BD4658
S1132E8002B080BD10E000E080B500AF00200F4B21
S1132E90984702000E4B1A600D4B18680D4BFA222E
S1132EA09100984703001A00094B1A60084B1868F0
S1132EB0084BFA229100984703001A00064B1A6047
S1132EC0064B05221A60C046BD4680BD5D5E00000B
S1132ED004000020C56300000800002010E000E0AA
S1132EE080B582B000AF786004E0074B1B6818001F
S1132EF0064B98477B685A1E7A60002BF5D1C04672
S1132F00BD4602B080BDC04604000020552E00001E
S1132F1080B582B000AF78607B6880221A707B68CD
S1132F2000225A707B6801229A707B680022DA7052
S1132F30C046BD4602B080BD80B584B000AF02007B
S1132F40FB1D1A700F23FB18FA1D127852091A7010
S1132F500F23FB181B78002B0CD1094BBB600F23EC
S1132F60FB181B789B0010229446BC446344083B26
S1132F701B6800E000231800BD4604B080BDC046B5
S1132F800018004080B582B000AF0F4B3B600023B7
S1132F907B6011E07B689B0008229446BC44634438
S1132FA0083B1B685B78DBB25BB2002B01DA0123C0
S1132FB006E07B6801337B607B68002BEAD000234A
S1132FC01800BD4602B080BD0018004080B582B034
S1132FD000AF78607B6800221A70C046BD4602B01C
S1132FE080BDC04680B582B000AF02003960FB1DD1
S1132FF01A70FB1D1B78012B0AD0022B0FD0002B5B
S113300014D10E4B0D4A91693A680A439A610FE054
S11330100A4B0A4AD1693A680A43DA6108E0074B65
S1133020064A116A3A680A431A6201E0172300E06B
S113303000231800BD4602B080BDC0460004004015
S113304080B582B000AF0200FB1D1A70064BFA1D5A
S1133050127811001F220A40012191400A001A60CF
S1133060C046BD4602B080BD00E100E080B584B03A
S113307000AF2D4B7B60402100202C4B98473B0038
S113308018002B4B98473B0000221A703B00190094
S11330900520284B98470520274B98470023FB60C1
S11330A018E0FB689B0010229446BC4463440C3B2C
S11330B01A68FB689B0010218C46BC4463440C3B9B
S11330C01B681B78DBB201210B43DBB21370FB6876
S11330D00133FB60FB68002BE3D0C046174B9847D5
S11330E0031EFBD10B23FB1800221A700DE00B23E7
S11330F0FB181A78124B92000021D1500B23FB18B5
S11331001A780B23FB1801321A700B23FB181B7857
S11331100F2BECD904200B4B98470B4B9847C04618
S1133120BD4604B080BDC04600180040E52F000035
S1133130CD2F0000355F0000795F0000852F00006F
S1133140D80D0020413000004D31000080B582B020
S113315000AF154B3B6000237B6018E07B689B004D
S113316008229446BC446344083B1A687B689B006D
S113317008218C46BC446344083B1B681B78DBB2C3
S113318002210B43DBB213707B6801337B607B68E5
S1133190002BE3D0C046054B9847031EFBD1C04625
S11331A0BD4602B080BDC04600180040852F000017
S11331B080B586B000AF02003960FB1D1A70082389
S11331C0FB181800364B98473B685B68DAB2082353
S11331D0FB181A700823FB1800225A703B681A7AED
S11331E00823FB189A703B681B68DBB20822BA18E4
S11331F0110018002B4B9847FB1D1B7818002A4B15
S1133200984703003B61FB1D1B78072213409B007A
S1133210FB603B68DB7A7B613B689B7A002B03D0C5
S11332207B69082213437B61FB1D1B78DB08DBB23F
S11332301800FB1D1B78DB08DBB21A003B69063261
S11332409200D3580F21FA6891400A00D2431A40E1
S11332507969FB6899400B001A4311003B69821D90
S11332609200D1503B685B7A002B0AD03B695A69C3
S1133270FB1D1B78012199400B001A433B695A61DD
S11332800AE03B695B69FA1D1278012191400A004A
S1133290D2431A403B695A61C046BD4606B080BD60
S11332A0112F000019620000392F000080B582B090
S11332B000AF78607B6880221A707B6800225A70A5
S11332C07B6801229A707B680022DA70C046BD4692
S11332D002B080BD80B584B000AF0200FB1D1A703F
S11332E00F23FB18FA1D1278D2091A700E23FB184B
S11332F0FA1D127852091A700D4BBB600F23FB188C
S11333001B78002B0FD10F23FB181B789B00102276
S11333109446BC446344083B1A680E23FB181B788C
S1133320DB01D31800E000231800BD4604B080BDC3
S11333300044004180B586B000AF0200FB1D1A7046
S1133340FB1D1B781800194B984703007B61FB1D7C
S11333501B781F2213403B617A6940213B69D318D3
S11333605B181B78DBB21A000123134001D18023C0
S113337018E03B695B087A693021D3185B181B7825
S1133380DBB2FB603B690122134006D0FB681B09DA
S1133390DBB20F221340DBB204E0FB68DBB20F2286
S11333A01340DBB21800BD4606B080BDD532000024
S11333B080B582B000AF0200FB1D1A70FB1D1B78A4
S11333C01800034B984703001800BD4602B080BDA7
S11333D0D532000080B584B000AF0200FB1D1A7026
S11333E0BB1D0A1C1A70FB1D1B7818000D4B984757
S11333F00300FB60FB1D1B781F22134001229A402F
S11334001300BB60BB1D1B78002B03D0FB68BA689C
S11334109A6102E0FB68BA685A61C046BD4604B0CE
S113342080BDC046B133000080B582B000AF786083
S11334307B6800221A70C046BD4602B080BDC046FB
S113344080B582B000AF02003960FB1D1A70FB1D0D
S11334501B78012B0AD0022B0FD0002B14D10E4B5A
S11334600D4A91693A680A439A610FE00A4B0A4A85
S1133470D1693A680A43DA6108E0074B064A116ADF
S11334803A680A431A6201E0172300E00023180097
S1133490BD4602B080BDC0460004004080B584B083
S11334A000AF78607B681B68FB60FB681B7EDBB247
S11334B01A00012313405A1E9341DBB21800BD4683
S11334C004B080BD80B584B000AF78607B681B68B1
S11334D0FB60FB681B7EDBB21A00042313405A1EF8
S11334E09341DBB21800BD4604B080BD80B584B002
S11334F000AF78600A00BB1C1A807B681B68FB6005
S11335007B6818000A4B984703001A0001235340B4
S1133510DBB2002B01D0052306E0BB1C1B88DB05B6
S1133520DA0DFB689A6200231800BD4604B080BD22
S11335309D34000080B584B000AF786039607B684A
S11335401B68BB607B6818001D4B984703001A007A
S113355001235340DBB2002B01D010232CE00F23B6
S1133560FB1800221A70BB685B8B9BB21A00042301
S113357013400BD00F23FB181E221A70BB685B8B01
S11335809BB2042213439AB2BB685A837B689B792B
S1133590012B08D1BB689B6A9BB2DB05DB0D9AB299
S11335A03B681A8005E0BB689B6ADBB29AB23B6851
S11335B01A800F23FB181B781800BD4604B080BD89
S11335C0C534000090B593B000AF786039607B6873
S11335D01B687B637B681B683B631C23FB18180018
S11335E06F4B98471C23FB1800225A703B689A6A59
S11335F00C23FB181A603B68DA6A0C23FB185A6028
S11336003B681A6B0C23FB189A603B685A6B0C23BB
S1133610FB18DA604723FB1800221A702CE04723BA
S1133620FB181A780C23FB189200D3583B643B6CAC
S1133630002B09D14723FB181A783B6B11001800A3
S1133640584B984703003B643B6C01330DD03B6CF3
S1133650DAB21C23FB181A703B6C1B0CDBB21C2265
S1133660BA1811001800504B98474723FB181A78D2
S11336704723FB1801321A704723FB181B78032BCE
S1133680CDD93B681A787B685A713B681A7C7B6891
S11336909A713B689A7C7B68DA713B681A7D7B6817
S11336A01A720A23FB1800221A800023FB630023EA
S11336B0BB633B681B78012B29D17B681B6818000E
S11336C03A4B98470300FB62FB6A1433BB62BB6A44
S11336D0DBB21800364B984703007B623B689B695A
S11336E02322BC180A22BA18796A1800314B984769
S11336F0030023702323FB181B78002B01D017230E
S11337004AE00A23FB181B88DAB27B6B1A733B6806
S11337105B68FA6B1343FB633B689B68FA6B134368
S1133720FB633B68DB68FA6B1343FB633B681B7CFE
S11337301A00BB6B1343BB633B685B7C002B03D059
S1133740FB6B80221343FB633B689B7C002B04D000
S1133750BB6B802292021343BB633B68DB7C002B70
S113376004D0BB6B802292001343BB633B681B7D78
S1133770002B04D0BB6B802292011343BB637B6B91
S11337801A68FB6B1A437B6B1A607B6B5A68BB6BC2
S11337901A437B6B5A6000231800BD4613B090BDDA
S11337A0AD320000B54C000019620000854E0000E7
S11337B059600000E949000090B591B000AF78600D
S11337C039607B681B68FB627B681B68BB623B6873
S11337D09A6A1023FB181A603B68DA6A1023FB18F4
S11337E05A603B681A6B1023FB189A603B685A6B4B
S11337F01023FB18DA603F23FB1800221A7030E014
S11338003F23FB181A781023FB189200D358BB638C
S1133810BB6B002B09D13F23FB181A78BB6A11003C
S11338201800564B98470300BB63BB6B013310D0A1
S1133830BB6B1B041C0CBB6B1B0CDBB21800504B8A
S1133840984703009C4205D07B6800221A601C2321
S11338508FE0C0463F23FB181A783F23FB18013240
S11338601A703F23FB181B78032BC9D91320454B2F
S1133870984703007B6200237B6300233B633B6820
S11338801B78012B21D13B689B692322BC180E2293
S1133890BA18796A18003C4B984703002370232315
S11338A0FB181B78002B01D0172362E0FB6A1B7BFB
S11338B0DAB20E23FB181B88DBB29A4201D01C2318
S11338C057E07B6B0C2213437B633B685B687A6B2A
S11338D013437B633B689B687A6B13437B633B684E
S11338E0DB687A6B13437B633B681B7C1A003B6B7E
S11338F013433B633B685B7C002B03D07B6B8022D0
S113390013437B633B689B7C002B04D03B6B80227E
S1133910920213433B633B68DB7C002B04D03B6B7C
S11339208022920013433B633B681B7D002B04D031
S11339303B6B8022920113433B637B6B0222134354
S11339407B63FB6A1A687B6B9A420ED1FB6A5A68E6
S11339503B6B9A4209D13B681A787B685A713B6881
S11339601A7C7B689A71002303E07B6800221A604A
S11339701C231800BD4611B090BDC046B54C0000D4
S11339803533000059600000E949000080B58AB071
S113399000AFF860B9607A60FB68BA681A60FB68C7
S11339A01B687B627B6A1B680222134007D07A681B
S11339B0FB68110018002A4B984703004BE07B6A10
S11339C01B680122134001D0052344E0FB681B68F7
S11339D01800244B984703003B623B6A0233FB61A7
S11339E03B6A1433BB610122FB699A40130019003E
S11339F002201D4B98471423FB1818001B4B9847B3
S1133A007B6824229A5C1423FB181A70BB69DBB20E
S1133A101422BA1811001800154B9847BB69DBB281
S1133A201800144B98477B6824229B5C00211800E3
S1133A30114B98477B681B78012B05D17B6A1B6867
S1133A400C221A437B6A1A607A68FB68110018001A
S1133A500A4B984703001800BD460AB080BDC04613
S1133A60B9370000854E00004134000029340000BD
S1133A70355F0000795F0000294C0000C535000067
S1133A8080B586B000AFF860B960FB1D1A70FB68A2
S1133A905B79012B01D015235CE0FB681B7A0122C2
S1133AA05340DBB2002B54D0FB1D1B78002B4AD0B3
S1133AB0BB685B78002B3FD0FB681800274B984706
S1133AC003001A0001235340DBB2002B07D0BB686C
S1133AD01B7801211800224B984705233AE0BB6864
S1133AE01B78002118001E4B9847BB689B789AB23C
S1133AF0FB68110018001B4B9847FB68DB79012217
S1133B005340DBB2002B24D0C046FB681800164B90
S1133B10984703001A0001235340DBB2002BF4D171
S1133B201623FB1800221A801623FA18FB681100CA
S1133B3018000E4B98470CE0BB681B780021180056
S1133B40074B984705E0BB681B7801211800044B1C
S1133B50984700231800BD4606B080BD9D34000080
S1133B60D5330000ED340000C534000035350000C5
S1133B7080B584B000AF78607B681B68FB60FB682D
S1133B80DB695A1E9341DBB21800BD4604B080BD08
S1133B9080B582B000AF7860C0467B681800044BE3
S1133BA09847031EF9D1C046BD4602B080BDC04649
S1133BB0713B000080B586B000AFF860B960BB1DF2
S1133BC01A80FB681B687B61FB68BA1D1288DA8562
S1133BD0FB68BA689A62FB683322052199547B69B1
S1133BE001229A75C046BD4606B080BD80B586B038
S1133BF000AFF860B960BB1D1A80FB681B687B616D
S1133C00FB6800229A86FB68BA1D12889A85FB68B5
S1133C10BA685A62FB683222052199547B690422EE
S1133C209A75FB681B7A002B02D07B6920229A7557
S1133C30FB685B7A002B02D07B6908229A75C04628
S1133C40BD4606B080BDC04680B584B000AFF86004
S1133C50B960FB1D1A70FB1D1B78FA6802339B00C8
S1133C60D3180433BA681A60FB6830229B5C5AB2DA
S1133C70FB1D1B78012199400B005BB213435BB21F
S1133C80D9B2FB6830229954C046BD4604B080BD09
S1133C9080B582B000AF78600A00BB1C1A807B68D4
S1133CA0DB8D9BB2002B01D005230FE07B68DB7911
S1133CB001225340DBB2002B01D01C2306E0B91CC7
S1133CC07B6801221800034B984700231800BD4667
S1133CD002B080BDB53B000080B582B000AF786013
S1133CE039607B689B8D9BB2002B01D0052306E0D5
S1133CF039687B6801221800034B98470023180099
S1133D00BD4602B080BDC046ED3B000080B584B026
S1133D1000AFF860B960BB1D1A80BB1D1B88002B67
S1133D2001D1172317E0FB68DB8D9BB2002B01D078
S1133D30052310E0FB68DB7901225340DBB2002B42
S1133D4001D01C2307E0BB1D1A88B968FB68180062
S1133D50034B984700231800BD4604B080BDC046FD
S1133D60B53B000080B584B000AFF860B960BB1DFE
S1133D701A80BB1D1B88002B01D1172317E0FB6899
S1133D809B7901225340DBB2002B01D01C230EE0AF
S1133D90FB689B8D9BB2002B01D0052307E0BB1D64
S1133DA01A88B968FB681800034B98470023180069
S1133DB0BD4604B080BDC046ED3B000080B588B070
S1133DC000AF0200FB1D1A70FB1D1A78AD4B920068
S1133DD0D358BB61BB691B687B61BB691800AA4BE4
S1133DE098477B691B7EDAB21223FB181A807B6921
S1133DF09B7DDBB29AB21223FB1812217918098831
S1133E000A401A80BB6930229B5CBA693121525C3A
S1133E101340DAB21023FB181A801223FB181B88F4
S1133E20012213403ED0BB69DB8D9BB2002B36D000
S1133E30BB699B6A1B78DAB21E23FB181A80BB6924
S1133E409B6A5A1CBB699A62BB695B79012B0DD1D1
S1133E50BB699B6A1B78DBB29AB21E23FB18120261
S1133E601A80BB699B6A5A1CBB699A621E23FB18A1
S1133E701B88DB05DB0D9AB27B691A85BB69DB8D78
S1133E809BB2013B9BB2BA69191CD185002B09D1A5
S1133E907B6901221A757B6902229A7502E07B69AB
S1133EA001221A751223FB181B880222134011D019
S1133EB07B6902221A75BB693322002199541023AD
S1133EC0FB181B880122134004D0BB69DB68BA6964
S1133ED0100098471223FB181B880422134000D1BA
S1133EE0D7E0BB699B8D9BB2002B00D1CEE07B69F0
S1133EF05B8B9BB2DAB20F23FB183F210A401A7086
S1133F000F23FB181B78002B00D169E00F23FB184B
S1133F101B78022213400CD0BB6932221A21995417
S1133F207B695B8B9BB2022213439AB27B695A83EF
S1133F304AE00F23FB181B78042213400CD0BB6902
S1133F4032221E2199547B695B8B9BB2042213435A
S1133F509AB27B695A8337E00F23FB181B7801223E
S1133F6013400CD0BB693222132199547B695B8BBB
S1133F709BB2012213439AB27B695A8324E00F2334
S1133F80FB181B78102213400CD0BB69322242214B
S1133F9099547B695B8B9BB2102213439AB27B6961
S1133FA05A8311E00F23FB181B78202213400BD0F7
S1133FB0BB693222412199547B695B8B9BB22022DD
S1133FC013439AB27B695A831023FB181B8804227B
S1133FD013405ED0BB695B69BA691000984758E02A
S1133FE07B691B8D9AB20C23FB18D205D20D1A8063
S1133FF0BB695B6A0C22BA181288D2B21A70BB6908
S11340005B6A5A1CBB695A62BB699B8E9BB20133C3
S11340109AB2BB699A86BB695B79012B14D1BB69DF
S11340205B6A0C22BA181288120A92B2D2B21A70BF
S1134030BB695B6A5A1CBB695A62BB699B8E9BB2A3
S113404001339AB2BB699A86BB699B8D9BB2013BD3
S11340509BB2BA69191C9185002B1AD17B69042281
S11340601A75BB693222002199541023FB181B884E
S1134070022213400DD0BB691B69BA69100098472E
S113408007E0C046440E0020913B00007B690422F7
S11340901A751223FB181B881022134010D07B6959
S11340A010221A757B6910221A761023FB181B88BC
S11340B01022134004D0BB69DB69BA691000984729
S11340C01223FB181B882022134010D07B69202266
S11340D01A757B6920221A761023FB181B88082284
S11340E0134004D0BB699B69BA6910009847122336
S11340F0FB181B880822134010D07B6908221A750C
S11341007B6908221A761023FB181B88202213408F
S113411004D0BB691B6ABA6910009847C046BD4603
S113412008B080BD80B500AF0020024B9847C04660
S1134130BD4680BD6141000080B500AF0120024B47
S11341409847C046BD4680BD6141000080B500AFC0
S11341500220024B9847C046BD4680BD6141000025
S113416080B586B000AF0200FB1D1A70FB1D1A78E3
S1134170184B9200D3583B613B691B68DA6A3B6970
S11341805B6B1A403B699B6B1340FB6000237B61B4
S113419019E0114B7A699200D358FA6813400FD092
S11341A03A697B699B00D31804331B683A69100091
S11341B098473B691B68084A796989008A58DA621A
S11341C07B6901337B617B690B2BE2DDC046BD4615
S11341D006B080BD180E0020F8DC000080B500AFEA
S11341E00020024B9847C046BD4680BD41420000B6
S11341F080B500AF0120024B9847C046BD4680BD44
S11342004142000080B500AF0220024B9847C046EF
S1134210BD4680BD4142000080B500AF0320024B83
S11342209847C046BD4680BD4142000080B500AFFE
S11342300420024B9847C046BD4680BD4142000061
S113424080B584B000AF0200FB1D1A70FB1D1A7804
S1134250284B9200D358FB60FB681B689B7BDBB246
S1134260FA68127E1340DAB2FB68597E0B23FB18FE
S11342700A401A700B23FB181B780122134008D044
S1134280FB689B68FA6810009847FB681B6801226A
S11342909A730B23FB181B780222134008D0FB6887
S11342A0DB68FA6810009847FB681B6802229A735F
S11342B00B23FB181B781022134008D0FB681B69E2
S11342C0FA6810009847FB681B6810229A730B2346
S11342D0FB181B782022134008D0FB685B69FA683E
S11342E010009847FB681B6820229A73C046BD469D
S11342F004B080BD240E002080B586B000AFF86005
S1134300B9607A6000237B61FB68002B12D0012323
S11343105B4213E00B4B1A680B4B1B68B96818001F
S11343209047BB680133BB607B6901337B617B6869
S1134330013B7B607B68002BECDC7B691800BD468D
S113434006B080BD380E0020400E002080B586B037
S113435000AFF860B9607A6000237B61FB68012BD1
S11343601DD0FB68022B1AD0FB68032B17D0012346
S11343705B4218E00E4B1A680E4B1868BB68591C58
S1134380B9601B7819009047031E02DA01235B42CF
S113439009E07B6901337B617B68013B7B607B685F
S11343A0002BE7D17B691800BD4606B080BDC0462E
S11343B03C0E0020400E002080B582B000AF786033
S11343C07B6800221A70C046BD4602B080BDC0465C
S11343D080B582B000AF02003960FB1D1A70FB1D6E
S11343E01B78012B0AD0022B0FD0002B14D10E4BBB
S11343F00D4A91693A680A439A610FE00A4B0A4AE6
S1134400D1693A680A43DA6108E0074B064A116A3F
S11344103A680A431A6201E0172300E000231800F7
S1134420BD4602B080BDC0460004004080B582B0E5
S113443000AF78607B6880221A707B6800225A7013
S11344407B6801229A707B680022DA70C046BD4600
S113445002B080BD80B584B000AF78607B681B6813
S1134460FB60FB68DB695A1E9341DBB21800BD4652
S113447004B080BD80B582B000AF7860C0467B6870
S11344801800044B9847031EF9D1C046BD4602B03C
S113449080BDC04655440000B0B58CB002AF786012
S11344A039607B681B68BB617B681B681800A84B7C
S11344B0984703007B617B6914333B6100237B6273
S11344C000233B620E23FB1800221A801F23FB18D3
S11344D000221A701E23FB1810221A703B681B8AD4
S11344E08022D20193421CD08022D201934206DC66
S11344F0002B0DD080229201934224D035E0C022BB
S1134500D201934228D080221202934212D02CE08E
S11345101F23FB1800221A701E23FB1810221A7086
S113452023E01F23FB1800221A701E23FB18082205
S11345301A701AE01F23FB1800221A701E23FB189E
S113454003221A7011E01F23FB1801221A701E2384
S1134550FB1810221A7008E01F23FB1801221A709E
S11345601E23FB1808221A70C0463B681A683B6871
S1134570DB681A433B685B6913433A68128A134346
S11345803A68127E120213433A682621525C52079B
S113459013437B621D23FB1800221A703B685B687F
S11345A0002B1ED08022520593424FD13B68272214
S11345B09B5C01225340DBB2002B46D03B681D6A52
S11345C03B69DBB21800634B984701001D23FC18BC
S11345D00E23FB181A0028005F4B98470300237032
S11345E033E03B6827229B5C002B14D03B68186A9D
S11345F03B68996A1D23FC181F23FB181D780E23A2
S1134600FA181E23FB181B7800932B00534DA84760
S1134610030023701AE03B681D6A3B69DBB2180093
S11346204C4B98471D23FC181F23FB1819780E23A5
S1134630FA181E23FB181B7800930B0001002800B6
S1134640464DA8470300237000E0C0461D23FB1815
S11346501B78002B03D01D23FB181B7874E03B68E8
S11346605B7E002B03D03B689A7EBB699A737B68A0
S113467018003B4B98470E23FB181A88BB699A8194
S11346803B685B687A6A13437B623B6827229B5CC6
S113469001225340DBB2002B03D07B6A0422134374
S11346A07B623B689A7A3B68DB7A1343DBB21A007D
S11346B03B685B7E9B0213433A68127F52021343AA
S11346C03A68527F120213433A682421525C52041E
S11346D013433A682521525C120413433B623B683E
S11346E01B89FF2B0FD03B68DB7E002B04D07B6A39
S11346F0A022D20413437B623B681B891A003B6AE5
S113470013433B6208E03B68DB7E002B04D07B6AEA
S11347108022D20413437B623B682C229B5C002BD7
S113472003D07B6A802213437B627B6818000C4BA6
S11347309847BB693A6A5A607B681800084B9847E7
S1134740BB697A6A1A6000231800BD460AB0B0BD7E
S1134750854E000059600000E9490000494A000004
S11347607544000090B593B000AFF860B9607A600A
S11347703B23FB1800221A70FB68BA681A60FB68B6
S11347801B687B63FB681B681800844B9847030015
S11347903B633B6B0233FB623B6B1433BB627B6B4F
S11347A01B680122134001D00523F2E07B6B1B68D8
S11347B00222134001D01C23EBE00122FB6A9A4041
S11347C0130019000220764B98472423FB18180085
S11347D0744B98477B682D229A5C2423FB181A702B
S11347E0BB6ADBB22422BA18110018006E4B98473A
S11347F0BB6ADBB218006D4B98477B682D229B5C2B
S1134800002118006A4B98477B68DA7AFB685A7172
S11348107B6824229A5CFB689A717B6825229A5CE7
S1134820FB68DA717B68DA7EFB681A727B681A7F30
S1134830FB685A723B23FC187A68FB681100180065
S11348405C4B9847030023703B23FB181B78002B19
S113485003D03B23FB181B789BE02023FB18180094
S1134860554B98472023FB1800225A707B681A6B1B
S11348701023FB181A607B685A6B1023FB185A60CC
S11348807B689A6B1023FB189A607B68DA6B1023A1
S1134890FB18DA604723FB1800221A702CE0472328
S11348A0FB181A781023FB189200D3583B643B6C16
S11348B0002B09D14723FB181A78BB681100180094
S11348C03E4B984703003B643B6C01330DD03B6C7B
S11348D0DAB22023FB181A703B6C1B0CDBB22022CB
S11348E0BA1811001800364B98474723FB181A785A
S11348F04723FB1801321A704723FB181B78032B3C
S1134900CDD90023FB630AE0FA68FB6B02339B00FA
S1134910D318043300221A60FB6B0133FB63FB6B77
S1134920052BF1D9FB6800229A62FB6800225A62C7
S1134930FB680022DA85FB6800229A85FB68302236
S113494000219954FB68312200219954FB683222DA
S113495000219954FB68332200219954FB681B6899
S11349602722BC1818000D4B984703002370154AE2
S11349702723FB181B7811001800134B9847272393
S1134980FB181A78114B9200F968D1503B23FB189D
S11349901B781800BD4613B090BDC046854E00007C
S11349A0D1430000B9430000355F0000795F000087
S11349B0294C0000994400002D440000B54C00002F
S11349C019620000BD3D0000D54E0000440E0020D9
S11349D080B582B000AF78607B6800221A70C04650
S11349E0BD4602B080BDC04680B586B000AFF86059
S11349F0B9607A601623FB1800221A80BB685A0833
S1134A00FB689A4201D2402318E0FB685A000D4B20
S1134A101100B868984703009AB21623FB18013AAC
S1134A201A801623FB181B88FF2B01D9402305E0AD
S1134A307B681622BA1812881A8000231800BD4613
S1134A4006B080BDC5630000F0B59DB000AFF8644A
S1134A50B9647A644322BA18137000230024BB6536
S1134A60FC65002300243B657C6500230024BB66B1
S1134A70FC66482340229446BC4463441A78FB6C89
S1134A805A43BB6C9A4201D34023C3E04323FB182F
S1134A901B78002B3DD1482340229446BC446344F8
S1134AA01B78DBB2BB610023FB61FB6C3B61002321
S1134AB07B615A4C3A697B69B869F969A04703007C
S1134AC00C001B00FB600023BB60BB6C3B6000233D
S1134AD07B60534C3A687B68B868F968A047030068
S1134AE00C00BB65FC6500210122BB6DFC6DC91A7D
S1134AF0A2410B0014003B657C653B6D1B0C7A6D79
S1134B0016041E433B6D1D043300BB660023FB6685
S1134B107AE04323FB181B78012B00D074E0272391
S1134B2040229446BC44634400221A704BE0BB6CA0
S1134B303B6300237B63396B7A6B0B005B0F1000C4
S1134B40C000F863F86B1843F8630B00DB00BB6329
S1134B50FB6CBB620023FB62482340229446BC44A6
S1134B6063441B78DBB23B6200237B622B4C3A6AC2
S1134B707B6AB86AF96AA04703000C001A00230094
S1134B80274CB86BF96BA04703000C001A002723CD
S1134B9040218C46BC4463441B78D31A3B663B6E6D
S1134BA0DB083B663B6E1F4A934215D927234022FC
S1134BB09446BC4463441A78272340218C46BC4461
S1134BC0634401321A70272340229446BC44634450
S1134BD01B78072BABD900E0C0462723402294461C
S1134BE0BC4463441B78082B01D1402312E02723E3
S1134BF040229446BC4463441B785B031A003B6E1A
S1134C001343BB660023FB66BB6EFC6E9AB27B6CDF
S1134C101A8000231800BD461DB0F0BD1D650000BC
S1134C20DD640000FF1F000080B584B000AF020007
S1134C30FB1D1A70BB1D0A1C1A701A4B1B7801222B
S1134C405340DBB2002B03D1BB1D1B78002B1BD0C0
S1134C500C23FB181800144B98470C23FB18FA1D5F
S1134C6012781A700C23FB18190013200F4B984765
S1134C7013200F4B98470B4BFA1D12785A70094BAF
S1134C8001221A70002308E0064B5B78FA1D1278A3
S1134C909A4201D1002300E01D231800BD4604B050
S1134CA080BDC046540D0020D1490000355F00008E
S1134CB0795F000080B582B000AF78600A00FB1C09
S1134CC01A707B684D4A93423FD04C4A934206D8AF
S1134CD04B4A93420FD04B4A934221D089E04A4A2F
S1134CE0934200D15BE0494A934200D16CE0484AC8
S1134CF093423FD07DE0FB1C1B78012B0AD002DCE1
S1134D00002B05D075E0022B06D0032B06D070E0F3
S1134D10404B6FE0404B6DE0404B6BE0404B69E033
S1134D20FB1C1B78012B0AD002DC002B05D060E0B1
S1134D30022B06D0032B06D05BE003235AE0394B49
S1134D4058E0394B56E0394B54E0FB1C1B78012BDF
S1134D500AD002DC002B05D04BE0022B06D0032B3B
S1134D6006D046E0324B45E0324B43E0324B41E063
S1134D70324B3FE0FB1C1B78012B0AD002DC002BDA
S1134D8005D036E0022B06D0032B06D031E02C4BA5
S1134D9030E02C4B2EE02C4B2CE02C4B2AE0FB1C5F
S1134DA01B78012B0AD002DC002B05D021E0022B5A
S1134DB006D0032B06D01CE0254B1BE0254B19E045
S1134DC0254B17E0254B15E0FB1C1B78012B0AD063
S1134DD002DC002B05D00CE0022B06D0032B06D0FE
S1134DE007E01F4B06E01F4B04E01F4B02E01F4B84
S1134DF000E000231800BD4602B080BD0010004250
S1134E0000080042000C004200180042001C00424E
S1134E100014004203000400030005000300060020
S1134E20030007000300010003001E0003001F002D
S1134E30030008000300090003000A0003000B003C
S1134E40030010000300110003001200030013000C
S1134E5003000C0003000D0003000E0003000F000C
S1134E6003001600030017000300180003001900D4
S1134E7080B582B000AF0200FB1D1A70C046BD466B
S1134E8002B080BD90B58BB000AF78600C23FB18E6
S1134E900F4A13CA13C313CA13C300237B620EE061
S1134EA00C23FB187A6A9200D3581A1E7B689A4224
S1134EB002D17B6ADBB206E07B6A01337B627B6AE8
S1134EC0052BEDD900231800BD460BB090BDC0469C
S1134ED028DD000080B584B000AF02003960FB1DFE
S1134EE01A70134B1B7801225340DBB2002B15D0F0
S1134EF00023FB600CE00F4BFA6892000E49D1507E
S1134F000E4BFA6892000021D150FB680133FB601C
S1134F10FB68052BEFD9064B01221A70FB1D1A788A
S1134F20044B92003968D150C046BD4604B080BDE0
S1134F30560D0020580D0020714E0000440E002034
S1134F4090B585B000AF78600823FA180C4B1000B8
S1134F50190006231A000B4B98470F23FC187B6893
S1134F601800094B9847030023700F23FB181B7884
S1134F700822BA18D35C5BB21800BD4605B090BDD8
S1134F8040DD0000096D0000854E000080B500AFD3
S1134F90034B1B6800209847C046BD4680BDC046F1
S1134FA0580D002080B500AF034B5B680120984783
S1134FB0C046BD4680BDC046580D002080B500AF38
S1134FC0034B9B6802209847C046BD4680BDC0463F
S1134FD0580D002080B500AF034BDB6803209847D1
S1134FE0C046BD4680BDC046580D002080B500AF08
S1134FF0034B1B6904209847C046BD4680BDC0468C
S1135000580D002080B500AF034B5B69052098471D
S1135010C046BD4680BDC046580D002080B584B052
S113502000AF0200FB1D1A700F23FB18FA1D127843
S113503052091A700F23FB181B78002B0CD1094B53
S1135040BB600F23FB181B789B0010229446BC44C2
S11350506344083B1B6800E000231800BD4604B00D
S113506080BDC0460018004080B584B000AF020087
S1135070FB1D1A70FB1D1B7818000B4B984703008F
S1135080FB60FB1D1B781F22134001229A40130072
S1135090BB60FB681B69BA6813405A1E9341DBB2BC
S11350A01800BD4604B080BD1D50000080B584B01A
S11350B000AF0200FB1D1A70FB1D1B781800094B82
S11350C098470300FB60FB1D1B781F22134001223D
S11350D09A401300BB60FB68BA681A61C046BD46BB
S11350E004B080BD1D50000080B582B000AFFB1D30
S11350F000221A701DE0FB1D1B781800114B984705
S1135100031E11D0FB1D1B7818000F4B9847FB1D85
S11351101A780E4B9200D358002B05D0FB1D1A7839
S11351200A4B9200D3589847FB1D1A78FB1D013295
S11351301A70FB1D1B780F2BDDD9C046BD4602B08B
S113514080BDC04669500000AD500000D80D00205D
S113515080B582B000AF104B1B68002B12D1EFF367
S113516010837B607B68002B09D172B6BFF35F8F1D
S11351700A4B00221A700A4B01221A7002E0084BF3
S113518000221A70044B1B685A1C034B1A60C04659
S1135190BD4602B080BDC046700D00200C0000204A
S11351A0740D002080B500AF0B4B1B685A1E0A4BD0
S11351B01A60094B1B68002B0AD1084B1B78DBB221
S11351C0002B05D0064B01221A70BFF35F8F62B625
S11351D0C046BD4680BDC046700D0020740D002041
S11351E00C00002080B584B000AF0200FB1D1A70D3
S11351F00F23FB18FA1D1278D2091A700E23FB181C
S1135200FA1D127852091A700D4BBB600F23FB185C
S11352101B78002B0FD10F23FB181B789B00102247
S11352209446BC446344083B1A680E23FB181B785D
S1135230DB01D31800E000231800BD4604B080BD94
S11352400044004180B582B000AF0200FB1D1A701B
S1135250FB1D1B781800034B984703001800BD463C
S113526002B080BDE551000080B582B000AF786027
S11352707B6800221A707B6801225A707B680022C6
S11352809A70C046BD4602B080BDC04680B584B0A9
S113529000AF0200FB1D1A70BB1D0A1C1A70FB1D17
S11352A01B7818000D4B98470300FB60FB1D1B780F
S11352B01F22134001229A401300BB60BB1D1B78C0
S11352C0002B03D0FB68BA689A6102E0FB68BA68F5
S11352D05A61C046BD4604B080BDC0464552000078
S11352E080B582B000AF3B1D18000E4B98473B1DA4
S11352F001221A703B1D19003E200B4B98470121D7
S11353003E200A4B98473B1D00221A703B1D012288
S11353105A703B1D19000F20034B9847C046BD46E9
S113532002B080BD69520000595300008D52000044
S113533080B582B000AF78607B6880221A707B6889
S113534000225A707B6801229A707B680022DA700E
S1135350C046BD4602B080BD80B584B000AF020037
S11353603960FB1D1A700C23FB181800104B98476A
S11353700C23FB1880221A703B681A780C23FB1844
S11353805A703B685A780C23FB189A703B689A78D9
S11353900C23FB18DA700C23FA18FB1D1B78110080
S11353A01800044B9847C046BD4604B080BDC046B3
S11353B0315300001962000080B582B000AF7860FC
S11353C07B6801225A607B6800225A707B6806223F
S11353D01A707B6800221A727B6800225A72C046D7
S11353E0BD4602B080BDC04680B582B000AF7860D3
S11353F07B6800221A70C046BD4602B080BDC0461C
S113540080B582B000AF78607B6801225A707B68F7
S113541001229A707B680022DA707B6801221A717B
S11354207B6807221A707B6800225A71C046BD4609
S113543002B080BD80B582B000AF78607B68032283
S11354401A707B6800225A707B6801229A70C046E9
S1135450BD4602B080BDC04680B582B000AF786062
S11354607B6800221A707B6800225A807B680022C5
S11354709A807B6800229A717B680022DA717B68CB
S113548001225A707B6807221A727B683F225A8174
S11354907B6801221A737B680122DA817B68062209
S11354A01A82C046BD4602B080BDC04680B582B0F7
S11354B000AF0200FB1D1A70FB1D1B78002B08D0E7
S11354C00A4A0A4B1B78DBB204210B43DBB213708C
S11354D007E0064A054B1B78DBB204218B43DBB2A1
S11354E01370C046BD4602B080BDC04600040040F3
S11354F080B582B000AF0200FB1D1A70034AFB1D89
S11355001B781372C046BD4602B080BD0004004043
S113551080B582B000AF0200FB1D1A70BB1D0A1CCF
S11355201A70FB1D1B78012B08D0022B0BD0002B0B
S11355300ED10B4ABB1D1B7853720BE0084ABB1DEE
S11355401B78937206E0064ABB1D1B78D37201E0F8
S1135550172300E000231800BD4602B080BDC046FA
S11355600004004080B582B000AF0200FB1D1A7039
S1135570084AFB1D1B780F210B40D9B253680F203A
S1135580014049001E2083430B435360C046BD467F
S113559002B080BD0040004180B500AFC046044B5E
S11355A0DB6810221340FAD0C046BD4680BDC04619
S11355B00008004080B500AF0C4A0D4B1B689BB23D
S11355C080218B439BB293840A4B9847074A084B2C
S11355D09B68D362054A064B5B689362034A044B9B
S11355E01B689BB29384C046BD4680BD0008004042
S11355F0780D00209955000080B582B000AF0200FC
S1135600FB1D1A70FB1D1B78082B40D89A00224BF7
S1135610D3181B689F46214B1B6939E0204B1B6A3A
S11356209B059B0FDBB21A001E4BD34030E0802356
S11356301B022DE080231B022AE0184B5B6927E044
S1135640164B1B680222134001D1002320E0164BA5
S11356509847124B1B680422134009D00020134BB7
S1135660984702000D4B9B681B041B0C53430FE02F
S11356700F4B0DE00A4A5023D35CDBB21A0004231B
S1135680134001D1002303E0044BDB6800E0002356
S11356901800BD4602B080BD48DD0000780D002032
S11356A00008004000127A0099550000596000007B
S11356B0006CDC0280B584B000AF78601A4B1B6AC2
S11356C0FB607B681B781A1C03231340DAB20D239A
S11356D0FB1803210A4010001A7803218A43111C85
S11356E0021C0A431A707B689A780C23FB18D001B9
S11356F01A787F210A40111C021C0A431A707B6825
S11357005A780C23FB1801210A4090011A78402191
S11357108A43111C021C0A431A70034BFA681A626A
S1135720C046BD4604B080BD0008004080B584B0CA
S113573000AF78602F4B9B69FB607B685A780C2321
S1135740FB1801210A40D0001A7808218A43111C51
S1135750021C0A431A707B689A780C23FB180121F7
S11357600A4090001A7804218A43111C021C0A433F
S11357701A707B681B781A1C07231340DAB20D23B6
S1135780FB1807210A4010001A7807218A43111CCC
S1135790021C0A431A707B681A790C23FB18D00187
S11357A01A787F210A40111C021C0A431A707B6874
S11357B0DA780C23FB1801210A4090011A78402161
S11357C08A43111C021C0A431A707B685A790D2300
S11357D0FB1801210A4010011A7810218A43111C78
S11357E0021C0A431A70034BFA689A61C046BD460C
S11357F004B080BD0008004080B582B000AF78607E
S11358007B681B7A9B021B041A0C7B685B899B05D3
S11358109B0D1A43234B5A607B689A797B68DB792A
S11358201343DBB21A007B685B8813437A6892885F
S11358301A437B685B78DB011A431A4B1A607B6856
S11358401B78042B16D17B681B7B9B061A007B6894
S1135850DB891B041900144B0B4013437A68128A2A
S11358601A43104B9A600F4B1B687A6812781A43DC
S11358700C4B1A607B681B78202B0ED17B681B8A2B
S11358801A00084B9A60074B1B687A681278134316
S11358908022D2001A43034B1A60C046BD4602B0B0
S11358A080BDC046780D00200000FF0380B582B0A3
S11358B000AF0200FB1D1A70FB1D1B78082B3BD8A0
S11358C09A00214BD3181B689F46204B1F4A126A2B
S11358D002210A431A62002331E01C4B1B4A9269DD
S11358E002210A439A6129E0184A184B1B8A9BB289
S11358F002210B439BB2138220E0144A134B9B8A70
S11359009BB202210B439BB2938217E0104B1B689E
S113591002221A430E4B1A600E4B98470EE00B4AB4
S11359200A494423CB5CDBB202210B43D9B24423A2
S1135930D15403E0002302E0172300E00023180001
S1135940BD4602B080BDC0466CDD000000080040CA
S1135950780D0020B555000080B584B000AF02007A
S1135960FB1D1A70FB1D1B78082B21D89A00174BBE
S1135970D3181B689F460823FB601BE00423FB60CD
S113598018E00123FB6015E00223FB6012E0102302
S1135990FB600FE00E4A5023D35CDBB21A000323F2
S11359A01340033B5A425341DBB20AE0012308E0AF
S11359B0002306E0064BDB68FA6813405A1E934145
S11359C0DBB21800BD4604B080BDC04690DD0000C7
S11359D00008004080B5A4B000AF754BC222D200CD
S11359E09A600220734B9847714A734B1B689B095A
S11359F0DBB2191C7F230B40D9B293697F2001408D
S1135A0009046E4803400B4393618823FB18180074
S1135A106B4B98478823FB1807221A708823FB18BE
S1135A2001225A708823FB1801229A708823FB18DC
S1135A3001221A718823FB180022DA708823FB18CC
S1135A401800604B984704205F4B98477423FB1859
S1135A5018005E4B98477423FB1804221A707423B1
S1135A60FB1800225A707423FB1800225A807423F6
S1135A70FB180022DA717423FB1800229A71742334
S1135A80FB1800229A807423FB18B722D2001A82D2
S1135A907423FB1807221A737423FB183F22DA813C
S1135AA07423FB1818004A4B98477023FB181800FE
S1135AB0484B98477023FB1800221A707023FB1878
S1135AC001229A707023FB1801225A707023FB186C
S1135AD01800414B984706203B4B98473F4B98474B
S1135AE05823FB1818003E4B98475823FB180422F0
S1135AF01A705823FB1801225A605823FB180022FD
S1135B001A725823FB1800225A725823FB181900E2
S1135B100120344B98470120334B98470C23FB1842
S1135B201800324B98470C23FB1801221A700C23DF
S1135B30FB18190000202E4B984700202D4B984746
S1135B400720214B9847C04607202B4B984703005A
S1135B501A0001235340DBB2002BF5D10020274B60
S1135B6098470020264B984700210020254B984752
S1135B7000210120234B98473B001800184B9847FD
S1135B803B0007221A703B0001225A603B000022AE
S1135B901A723B0000225A723B0019000020114B7C
S1135BA098470020104B9847C046BD4624B080BD9E
S1135BB0000800406555000024608000FFFF80FF5E
S1135BC0015400002D570000AD5800005954000046
S1135BD0F957000035540000B5560000AD5C0000D4
S1135BE0B9530000DD5C0000015E0000E9530000D1
S1135BF0355F0000795F000059590000F15400003E
S1135C00AD5400001155000080B500AF054B5B7822
S1135C10DBB25BB2002B01DA012300E000231800A1
S1135C20BD4680BD000C004080B582B000AF0200CC
S1135C303960FB1D1A70FB1D1B78012B0AD0022B47
S1135C400FD0002B14D10E4B0D4A91693A680A43C8
S1135C509A610FE00A4B0A4AD1693A680A43DA6149
S1135C6008E0074B064A116A3A680A431A6201E0DF
S1135C70172300E000231800BD4602B080BDC046D3
S1135C800004004080B500AF024B9847C046BD46B3
S1135C9080BDC0465151000080B500AF024B98470B
S1135CA0C046BD4680BDC046A551000080B500AFCA
S1135CB008210020074B9847074B01221A70C04661
S1135CC0054B1B78DBB21A0001231340F8D1C04600
S1135CD0BD4680BD295C0000000C004080B586B044
