S023000057494E43313530305F4D5154545F434841545F4558414D504C45312E737265634A
S214008000402E0020D5E00000D1E00000D1E00000C6
S214008010000000000000000000000000000000005B
S214008020000000000000000000000000D1E000009A
S2140080300000000000000000D1E00000D1E00000D9
S214008040D1E00000D1E00000D1E00000D1E0000067
S2140080507DBE0000D1E00000D1E00000D1E00000CD
S214008060D1E00000A1C60000B1C60000C1C60000F5
S214008070D1C60000E1C60000F1C60000A1E0000085
S214008080B1E00000C1E00000D1E00000D1E0000057
S214008090D1E000000000000000000000D1E0000079
S2140080A0D1E00000D1E00000D1E00000D1E0000007
S2140080B00000000010B5064C2378002B07D1054BB6
S2140080C0002B02D0044800E000BF0123237010BD3F
S2140080D08400002000000000284A0100084B10B56C
S2140080E0002B03D00749084800E000BF0748036894
S2140080F0002B00D110BD064B002BFBD09847F9E7AC
S2140081000000000088000020284A0100284A0100DC
S2140081100000000030B585B0040000230393056816
S2140081202F4B98472B79002B55D101332B712D4BB4
S21400813098479F2201AB1A706379D909002200295B
S21400814004D15A09D20128498C4662441F210B40AB
S2140081501E3999405161012201A92068234B984796
S2140081600023032203A92068214DA8476379D90973
S2140081700022002904D15A09D2011B498C466244C8
S2140081801F210B401E39994091610023226813710C
S2140081902379092B15D89B00164AD3589F46164BB1
S2140081A012E0164B10E0164B0EE0164B0CE0164B8A
S2140081B00AE0164B08E0164B06E0164B04E0164B9A
S2140081C002E0002300E0154B039A9A4201D01420E7
S2140081D004E0002002E0034B9847052005B030BDC0
S2140081E069BD0000A9BD0000004400416DCA000042
S2140081F0CDC80000342C01001F4300001F440100BE
S2140082001F4502001F4501001F4602001F460300CF
S2140082101F8600001F4701001F4800001F65000062
S214008220F0B55F4656464D464446F0B485B0050068
S2140082300E0000921F005A180379092B15D89B00D0
S214008240CD49CB589F468023DB0212E080231B03D8
S2140082500FE080235B030CE080239B0309E0802370
S214008260DB0306E080231B0403E0002301E08023F9
S2140082705B0217209A4200D9DDE12C68BF4B984775
S2140082802379002B00D0BCE101332371BC4B984707
S214008290062302AA13706B79D9090022002904D19B
S2140082A05A09D201B7498C4662441F210B401E3939
S2140082B099405161012202A92868B34B98476B790F
S2140082C0D9090022002904D15A09D201AD498C46A9
S2140082D062441F210B401E3999409161FF233340B1
S2140082E01A0080235B009B1A1A1C9BB2BB4200D963
S2140082F03A1C93B29946022302AA1370D670330A28
S2140083009370330C53706B79D9090022002904D17D
S2140083105A09D2019B498C4662441F210B401E39E4
S21400832099405161042202A92868974B98474B460A
S214008330002B04D04A4600992868934B98476B79DF
S214008340D9090022002904D15A09D2018D498C4648
S21400835062441F210B401E39994091612B681968B1
S21400836001220B7E1342FCD06B79D909002200292A
S21400837004D15A09D20183498C4662441F210B401E
S2140083801E39994051612B681B681A7ED20701D5A9
S21400839005229A62286802680421137E0B42FCD0EC
S2140083A0137E00245B070DD5538B5B0701D5042392
S2140083B053838379012B03D1936ADB05DC0D01E03F
S2140083C0936ADCB201210023984604202B681A68C1
S2140083D0137E0B42FCD0137E0B4201D043469362C1
S2140083E02B689A461A68137E0342FCD0137E03421B
S2140083F00DD0538B034200D0508353469B79012BFC
S21400840003D1936ADB05DC0D01E0936ADCB22142FE
S214008410DCD16B79D9090022002904D15A09D2018E
S21400842058498C4662441F210B401E399940916181
S2140084301020A30600D5E0E0E7E000271F239A46B9
S2140084400124062302AA13706B79D9093A00002981
S21400845004D15A09D2014B498C46624451460B401E
S214008460210099405161220002A92868464B98478E
S2140084706B79D9093A00002904D15A09D201414939
S2140084808C46624451460B40210099409161019B05
S2140084904B440193CB44434680225200904501D979
S2140084A03A4B1B889BB29946022302AA137011000E
S2140084B0019ACA70130A8B70130C4B706B79D9092A
S2140084C03A00002904D15A09D2012E498C4662444A
S2140084D051460B40210099405161042202A92868A8
S2140084E0294B98474B46002B04D04A4659462868E5
S2140084F0254B98476B79D9093A00002904D15A09C7
S214008500D20120498C46624451460B4021009940D6
S21400851091612B681A68137E2342FCD06B79D909C7
S2140085203A00002904D15A09D20116498C46624401
S21400853051460B402100994051612B681B681A7EFA
S214008540224201D005229A622B689C461A680421B2
S214008550137E0B42FCD0137E38005B071AD5538B74
S2140085605B0701D50423538363469B79012B0FD108
S214008570906AC005C00D0DE0602C010069BD0000CA
S214008580A9BD0000004400416DCA00005C2C01003B
S214008590906AC0B204212B681A68137E2342FCD06E
S2140085A0137E234200D097622E683268137E0B42F9
S2140085B0FCD0137E0B420CD0538B0B4200D0518361
S2140085C0B379012B03D1906AC005C00D01E0906A13
S2140085D0C0B20442DFD16B79D9093A00002904D130
S2140085E05A09D20117498C46624451460B40210075
S2140085F099409161830614D510202B6800221A71C9
S21400860019E0114B9847052015E04B46FF1ABBB200
S21400861098460196009B9B4643460020002BECD0D4
S2140086200BE743464A469B1A9BB29846002B00D05F
S21400863007E70020E1E705B03CBC90469946A24615
S214008640AB46F0BD00440041A9BD0000F0B583B0C4
S21400865004000E0015000379092B00D9F0E09B00FA
S2140086607B4AD3589F468023DB0210E080231B03FF
S2140086700DE080235B030AE080239B0307E0802352
S214008680DB0304E080231B0401E080235B02172049
S214008690B34200D8D9E027686E4B98473B79002B49
S2140086A000D0CFE001333B716B4B984706236A46F8
S2140086B013706379D9090022002904D15A09D2011E
S2140086C066498C4662441F210B401E399940516111
S2140086D0012269462068624B98476379D9090022CF
S2140086E0002904D15A09D2015C498C4662441F21F4
S2140086F00B401E3999409161012D05D0002D07D001
S214008700D823022D05D001E0522302E0002300E02A
S21400871020236A461370D670330A9370360C567050
S2140087206379D9090022002904D15A09D2014B499C
S2140087308C4662441F210B401E3999405161042229
S21400874069462068464B98476379D9090022002974
S21400875004D15A09D20141498C4662441F210B407C
S2140087601E39994091612368196801220B7E1342D5
S214008770FCD06379D9090022002904D15A09D20114
S21400878036498C4662441F210B401E399940516180
S21400879023681B681A7ED20701D505229A622068D4
S2140087A002680421137E0B42FCD0137E00255B0773
S2140087B00DD5538B5B0701D5042353838379012B97
S2140087C003D1956AED05ED0D01E0956AEDB2012144
S2140087D00027042023681A68137E0B42FCD0137E01
S2140087E00B4200D0976226683268137E0342FCD0A4
S2140087F0137E03420CD0538B034200D05083B379D0
S214008800012B03D1956AED05ED0D01E0956AEDB2F9
S2140088102942DFD16379D9090022002904D15A09F7
S214008820D2010E498C4662441F210B401E399940E6
S2140088309161A806C00F0001236800221A7104E0A7
S214008840172002E0044B9847052003B0F0BDC04651
S214008850882C010069BD0000A9BD0000004400414D
S2140088606DCA000070B582B004000D000668354B76
S21400887098473379002B60D101333371324B9847D8
S21400888006236A4613706379D9090022002904D1A9
S2140088905A09D2012D498C4662441F210B401E39CD
S2140088A099405161012269462068294B98476379AF
S2140088B0D9090022002904D15A09D20123498C463D
S2140088C062441F210B401E39994091613C236A1E69
S2140088D095416D422B406A46D37101236A46137058
S2140088E06379D9090022002904D15A09D20117490F
S2140088F08C4662441F210B401E399940516101226B
S21400890069462068124DA84701226B46D91D20688B
S214008910A8476379D9090022002904D15A09D2014F
S2140089200A498C4662441F210B401E3999409161CA
S214008930236800221A71002002E0034B98470520A6
S21400894002B070BD69BD0000A9BD00000044004132
S2140089506DCA000030B583B0040005681C4B98470C
S2140089602B79002B2ED101332B711A4B9847B92344
S2140089706A4613706379D9090022002904D15A097E
S214008980D20115498C4662441F210B401E3999407E
S2140089905161012269462068104B98476379D909CE
S2140089A00022002904D15A09D2010B498C466244A0
S2140089B01F210B401E3999409161236800221A71CD
S2140089C0002002E0034B9847052003B030BDC046A8
S2140089D069BD0000A9BD0000004400416DCA00004A
S2140089E030B583B0040005681C4B98472B79002BE4
S2140089F02ED101332B711A4B9847AB236A4613705E
S214008A006379D9090022002904D15A09D2011549EF
S214008A108C4662441F210B401E3999405161012249
S214008A2069462068104B98476379D90900220029C7
S214008A3004D15A09D2010B498C4662441F210B40CF
S214008A401E3999409161236800221A71002002E0C5
S214008A50034B9847052003B030BDC04669BD0000F3
S214008A60A9BD0000004400416DCA000070B500209A
S214008A70084B98470500084CFA218900A047074B89
S214008A80186007492800A047064B18600522064BC9
S214008A901A6070BD15D8000099110100040000206E
S214008AA040420F000000002010E000E030B5084B08
S214008AB01C68084A00258021490206E0002C04D0E4
S214008AC05460956013680B42FCD00138F6D230BD76
S214008AD00400002010E000E010B5034B1B68002BDC
S214008AE000D0984710BDC046A000002070B50028F2
S214008AF006D00400034D0120A847013C002CFAD103
S214008B0070BDC046AD8A0000F8B5084C80277F05CA
S214008B1067618026360566616420054DA847A76113
S214008B206420A847A6616420A847F8BD0044004119
S214008B30ED8A000070B582B00023164A136001ACBF
S214008B4001256570A370257021001B20124EB047CA
S214008B5021001C20B04721002820B0470F4B802260
S214008B6052055A61802212055A610D4B1B681D4240
S214008B7003D00B4B1B689B0701D40A4B98470A4B44
S214008B8098470122094B1A70BFF35F8F62B6002028
S214008B9002B070BDA000002089C200000044004161
S214008BA010E000E06D8A0000098B00000A0000203B
S214008BB010B584B00E4B186001AC20000D4B9847E2
S214008BC02923019300236360013323720133E37288
S214008BD021000920084B9847002209210748084B26
S214008BE0984700210920074B984704B010BDC0469F
S214008BF0A000002069BF00007DBF0000D98A0000E9
S214008C0011BE00003DBE000010B5002804D00021B3
S214008C100920044B984703E000210920024B98479F
S214008C2010BDC0463DBE00005DBE000030B591B030
S214008C30304C0E23237000236370A37001A9012219
S214008C404A708B700A700E202B4B98472378D909F0
S214008C500022002904D15A09D20128498C466244D0
S214008C601F210B401E3908009840906102AC21700D
S214008C70002303930493C022920305922374637423
S214008C80A174E17423752422A354183A002108A87D
S214008C901B4B98471B4BA3621B4BE36201235B42B3
S214008CA023631A4B63631A4BA361220019491A48BF
S214008CB01A4B9847002819D1174D2C682000184BDE
S214008CC098471F2318401E3B8340164A13602A68A5
S214008CD0D369002BFCD12268023313432360124B66
S214008CE098470120114B9847002001E0062040429B
S214008CF011B030BD0403002089C2000000440041CA
S214008D009915010002000C0002000D0002000F0081
S214008D10001BB700001000420803002001C7000037
S214008D2075C6000000E100E0098B0000ED8A000037
S214008D30F0B55F4656464D464446F0B485B0032827
S214008D405CD10F684E680D89002202ABDA71002EE6
S214008D5002D1002F74D148E0002D49D00023984658
S214008D60002F03D10133984602ABDF1D0024002EEE
S214008D7053D1013402ABDE1D4FE03C7853461B68EE
S214008D80197E0142FCD0197E0142FCD09C62197EFD
S214008D901142FCD049468C79197E1142FCD0598B81
S214008DA00025114201D05A831E35012C03D1996A41
S214008DB0C905C90D01E0996AC9B2002DECD1317020
S214008DC0019D013DABB201935E444744002BD4D1D4
S214008DD0214B196802220B7E1342FCD000221F4949
S214008DE01D481F4B984700202FE00F2040422CE0E4
S214008DF00F20404229E00F20404226E00E22FF329C
S214008E0018491948194B984719481A4B98470D2086
S214008E10194B98470120404217E001220F490E489F
S214008E200F4B98470C4B9A46012004229946634202
S214008E3063419B4641464B425941884601959CE713
S214008E40002DD8D00023984690E705B03CBC90464D
S214008E509946A246AB46F0BD080300200403002056
S214008E607DC90000B02C0100C02C0100E1160100F5
S214008E70D42C0100011801001517010030B583B08D
S214008E8001AB00221A709A705A70134D2C6820009D
S214008E90124B98471F2318401E3B834080221049E0
S214008EA08B502A68D369002BFCD18F332375237629
S214008EB0236802229343236001A90C20094CA04793
S214008EC001A90F20A04701A90D20A04701A90E2047
S214008ED0A047002003B030BD0803002075C6000080
S214008EE000E100E089C20000002A06D082180B7854
S214008EF00370013001319042F9D17047002A04D046
S214008F008218017001309042FBD17047030002784E
S214008F10002A07D00020013080B201331A78002AD8
S214008F20F9D100E000207047024AD3780133DBB263
S214008F30D3707047440300207047C04600B583B026
S214008F4000220A4B9A700120094B984701A909484C
S214008F50094B9847002806D10221019B194301912D
S214008F600448064B984703B000BDC04644030020A3
S214008F70098C00007010000059A3000065A30000D3
S214008F8010B50C4B9B780020002B11D1094B5B7859
S214008F90002B07D1074B1B78002B03D0064B9847B6
S214008FA0002805D1034A53780133DBB25370002002
S214008FB010BDC0464403002041A00000054B5B786E
S214008FC0002B04D0034A5378013BDBB253700020D9
S214008FD07047C0464403002010B50A4B5B78002B50
S214008FE004D0084A5378013BDBB25370054B5B78DC
S214008FF00020002B05D1034B1B78002B01D0024B21
S214009000984710BD44030020DD9F000010B5054BB7
S21400901098470400282200210348044B9847200064
S21400902010BDC046818F000044030020FD8E000066
S214009030F0B55F465646C0B48BB083460C0003922C
S214009040029312AB80CB1E8814AB1D887F220A4089
S21400905009AB5A70187008225A80002F05D05A881B
S2140090609219AA1892B25A8006E009AB5A88029959
S2140090708C46624492B25A80664B9847019000280C
S21400908000D0ADE0079004AAD0800690069B5A4612
S2140090901A430692069A23021343069309AB5B888B
S2140090A0069A1B041343069306995B485B4B984746
S2140090B0041E00D0A5E000230693069A023313434D
S2140090C0069306995648554B9847041E00D098E0DC
S2140090D00022079204ABDA8006331B889BB2514A03
S2140090E0934238D8504C514B9A4606A94C48A04754
S2140090F0002830D104AB06331B889BB2F422FF3223
S214009100934211D904AB06331B889BB201329342BB
S21400911008D84748474B98474748484B98470D203C
S214009120474B98470120D047069B9B0708D407A9C2
S21400913044483D4B9847041E0DD00023079360E03B
S21400914004ABDA88013292B2DA8006331B889BB20F
S214009150344A9342C9D9079B002B3CD0079B0893FF
S21400916009A94B889BB24B8008980822364B984733
S214009170041E46D1089B08330893039B002B0BD094
S2140091800898029A1900304B9847041E39D1089B5C
S214009190029A944663440893002F0ED0089B029AC6
S2140091A0AD1AED180895089832003900264B9847F6
S2140091B0041E26D1089BF3180893079B9B00069372
S2140091C0069A02231343069306992048134B9847A2
S2140091D0041E16D112E01E4B98470320404213E0AF
S2140091E0CB2252001B491C48124B98471B48134B76
S2140091F098470D20124B9847019805E0144B984766
S21400920002E0174B984720000BB00CBC92469B46DA
S214009210F0BDC046818F00008C10000065A30000E2
S21400922078100000E703000059A30000ED8A000054
S214009230242D0100E1160100302D01000118010067
S2140092401517010000041500D9A300006C100000DB
S214009250D98F000004300100C02C0100402D010011
S214009260BD8F0000F0B54F464646C0B487B0CD4B24
S21400927098469946CC4ED9E14B46DB78013BDBB2AB
S2140092804A46D37003A9C948B047041E00D06FE110
S214009290039BDB0700D45CE10020C54B9847012305
S2140092A0039999430391C148C24B9847041E00D0C6
S2140092B06CE10122BB4B9A70039B99040F0D00D101
S2140092C038E10023059305A9BB48B74B9847041E11
S2140092D00FD0C822FF32B949B948BA4B9847BA48A6
S2140092E0BA4B98470D20BA4B98470120B04B984789
S2140092F04AE1AC4B059A5A609F6004AD04222900EF
S2140093000598B44B984704006B889BB26B80002886
S2140093100FD0D222FF32A949A948AA4B9847AE4897
S214009320AA4B98470D20AA4B98470120A04B984778
S2140093302AE104AB5B889BB29F421DD004AB5B88DE
S214009340FB1A042B18DDED2252009C499C489D4CCC
S214009350A04704A94A8892B20B78DBB249780091FC
S21400936039009E48A0470D20994B98470120904B06
S21400937098470624644207E104AB1B78012B1CD1F6
S214009380884BDB68002B0BD0864BDB6804AA507832
S214009390C0B25188059A0832083989B29847B0E0B9
S2140093A0F322520085498648864B98478C48874B5F
S2140093B098470D20864B9847A3E004AB1B78022BFA
S2140093C01CD1784B1B69002B0BD0764B1B6904AA6B
S2140093D05078C0B25188059A0832083989B2984741
S2140093E08FE0F722520075497548764B98477D48BE
S2140093F0764B98470D20764B984782E004AB1B7857
S214009400042B1CD1674B5B69002B0BD0654B5B694B
S21400941004AA5078C0B25188059A0832083989B231
S21400942098476EE0FB22520064496548654B9847B2
S2140094306D48664B98470D20654B984761E004AB36
S2140094401B78062B1BD1574B1B6A002B0BD0554B9A
S2140094501B6A04AA5078C0B25188059A08320839A7
S21400946089B298474DE0614A54495548554B98474C
S2140094705F48564B98470D20554B984741E004AB44
S2140094801B78072B1BD1474B9B69002B0BD0454BFA
S2140094909B6904AA5078C0B25188059A08320839E8
S2140094A089B298472DE0534A44494548454B98476A
S2140094B05148464B98470D20454B984721E004AB52
S2140094C01B78052B0FD1374B5B6A002B19D0354B19
S2140094D05B6A04AA5078C0B25188059A08320839E7
S2140094E089B298470DE0454A34493548354B984788
S2140094F04348364B98470D20354B98470624644220
S21400950042E0284B9B78002B3ED03E4A2B492C4805
S2140095102C4DA84704AB1978C9B25A78D2B23A484B
S214009520A8470D202A4B9847384B984700282BD041
S214009530040029E08722920020492148214B9847C1
S2140095403348224B98470D20214B9847022464420B
S2140095501CE089229200194919481A4CA047039921
S2140095602C48A0470D201A4B98470C2464420DE067
S214009570294A12491248134B98472848134B9847D4
S2140095800D20134B984701E0002C4FD0244A254964
S2140095900B480C4DA84721002348A8470D200C4B2C
S2140095A098476FE64403002059A30000701000009F
S2140095B0098C000065A30000841000001030010034
S2140095C0C02C0100E11601005C2D0100011801000D
S2140095D01517010071A30000802D0100982D0100D1
S2140095E0D82D0100F82D01001C2E0100FF010000FF
S2140095F03C2E010006020000602E01000F02000053
S214009600842E0100150200009C2E01003D8F0000F4
S214009610C82E0100DC2E01002D020000F82E0100ED
S2140096204A020000183001001C2F01004346DB7878
S214009630002B00D020E6002007B00CBC90469946D0
S214009640F0BDC046F8B514001D00002803D0002960
S21400965001D0002A12D1002D02D0274B984749E0AE
S214009660264A27492748284B98472848284B984792
S2140096700D20284B98470C2040423BE0264B9B6829
S2140096809A420FD9254A1E491E481F4DA847224B0D
S2140096909A6821002248A8470D201E4B98470C20A8
S2140096A0404227E01C4B5B68984206D386181A4A4D
S2140096B057689368FB189E420DD91A4A10491148FC
S2140096C0114B98471848124B98470D20114B984756
S2140096D00C2040420EE02200144B9847002809D187
S2140096E00D4A51689368CB189E4201D0002D01D0D8
S2140096F0014B9847F8BDC0463D8F00006B02000046
S214009700082D0100C02C0100E11601004C2F0100BD
S2140097100118010015170100440300207302000021
S2140097206C2F010079020000B42F010071A3000025
S21400973070B5041E072C1FD88300164AD3589F46C0
S214009740154B1961002024E0134BD960002020E05F
S214009750114B596100201CE00F4BD961002018E026
S2140097600D4B1962002014E00B4B9961002010E0AD
S214009770094B596200200CE0084A094909480A4D7D
S214009780A84721000948A8470D20094B98470C20F8
S214009790404270BDE82C010044030020B1020000E6
S2140097A0142D0100C02C0100E1160100F82F010065
S2140097B01517010010B5282200210648064B9847C9
S2140097C00648074B984707490320074B9847002051
S2140097D010BDC04644030020FD8E0000298F000007
S2140097E0B18B0000398F00003197000030B59FB074
S2140097F0040015002C2811D10023042203A92800F8
S214009800944CA047002800D022E1934B1B68002B05
S21400981000D11DE103A92C30984719E11B2811D16E
S2140098200023082203A928008A4CA047002800D05D
S2140098300EE1894B1B68002B00D109E103A91B3000
S214009840984705E1062811D10123302203A92800F4
S214009850804CA047002800D0FAE07F4B1B68002B06
S21400986000D1F5E003A906309847F1E00E2800D1B4
S214009870EEE0322811D10023142203A92800754CEB
S214009880A047002800D0E3E0734B1B68002B00D1F4
S214009890DEE003A932309847DAE02F2816D164229A
S2140098A0002103A86D4B98470023642203A92800D3
S2140098B0684CA047002800D0CAE0674B1B68002B06
S2140098C000D1C5E003A92F309847C1E0342822D143
S2140098D00023042203A928005E4CA047002800D0DD
S2140098E0B6E05F485F4CA0470398030CFF210B408F
S2140098F0020A0A400140000E00905B48A0470D2077
S2140099005A4B9847544B1B68002B00D1A0E000210F
S214009910342098479CE0112818D10022544B1A7026
S2140099200023043203A928004A4CA047002800D090
S2140099308EE003AB1A784F4B1A70474B1B68002B10
S21400994000D185E003A91130984781E013280FD194
S21400995000232C2203A928003E4CA047002877D1DC
S2140099603D4B1B68002B73D003A9133098476FE05C
S21400997004280FD1002304221CA92800354CA04738
S214009980002865D1344B1B68002B61D01CA904301D
S21400999098475DE065280FD1002304221CA9280003
S2140099A02C4CA047002853D12B4B1B68002B4FD0C4
S2140099B01CA9653098474BE009280FD10123642283
S2140099C003A92800234CA047002841D1224B1B683E
S2140099D0002B3DD003A90930984739E02A280FD13B
S2140099E00123042203A928001A4CA04700282FD1DF
S2140099F0194B1B68002B2BD003A92A30984727E069
S214009A00202819D10023082203A92800114CA047BA
S214009A1000281DD103AB9A8828000830012303993B
S214009A200C4CA047002813D10B4B1B68002B0FD003
S214009A3003A9203098470BE0922252000E490F48A7
S214009A40084DA84721000E48A8470D20074B984709
S214009A501FB030BD45960000A4000020FD8E00001B
S214009A60242D0100E11601005830010015170100F1
S214009A70A8000020A900002038300100C02C0100FA
S214009A8078300100F0B58FB001220F236B441A70B6
S214009A9000285ED00268314B1A600022304B1A70E4
S214009AA00F2068442F4B9847041E54D100202E4B9D
S214009AB09847041E49D12D4901202D4B984704AEE6
S214009AC030002C4B984704002B482C4DA847B37900
S214009AD072793179308C00902948A8470D20294F9B
S214009AE0B8472548A84726226A441A2169442648CA
S214009AF0A8470D20B8472048A847737A327AF179EC
S214009B002248A8470D20B8471B48A847022305222D
S214009B1013211F48A8470D20B8471748A8471D4AD5
S214009B201D491E48A8470D20B84723000D3312D103
S214009B30E822FF321A491B48104B98471A481B4B1D
S214009B4098470D200F4B984705E00020184B984784
S214009B5001E00C24644220000FB0F0BDA4000020F9
S214009B60A800002025A50000B5970000ED9700008E
S214009B703197000041A40000242D0100E1160100E9
S214009B8044310100151701006C31010088310100D5
S214009B90AC310100C4310100D0310100DC310100DC
S214009BA028300100C02C0100F4310100011801002A
S214009BB0F9A5000010B50020034B98470020034B82
S214009BC09847002010BDC0460D900000F9A5000083
S214009BD010B5014B984710BD65920000F0B54F4692
S214009BE04646C0B4A3B005900C0015001F002AAB73
S214009BF01B8899462BAB1B789846012A40D0002F2D
S214009C000DD1804A80498148814B98478148824BD4
S214009C1098470D20814B98470C204042ECE0022AE2
S214009C202ED138007E4B9847402829D13B781A0021
S214009C30303A362A13D80A3A062A10D9473B192B47
S214009C400DD97A1C3800403013781900303936297F
S214009C5005D80A39062902D9473B192B0DD8714A6F
S214009C6069496A486A4B98476F486B4B98470D207E
S214009C706A4B98470C204042BEE001328242E3D154
S214009C80631E1F2B0DD9694A5F496048604B984791
S214009C906748614B98470D20604B98470C20404220
S214009CA0AAE04B46013B9BB20D2B11D94B46FF2B2E
S214009CB00ED08D22920054495448554B98475D4823
S214009CC0554B98470D20554B98470C20404293E043
S214009CD007AE220005995A2002AB9C466044564BBC
S214009CE09847341946340023237044334A46F252C8
S214009CF043465A1E93416722B3544123F554032D1D
S214009D003BD13B78013BDBB207AA1370032B0ED97D
S214009D104A4A3D493D483E4CA04707AB197848485B
S214009D20A0470D203D4B98470C20404264E07A78CF
S214009D30511E07AB59701023110099430B290ED002
S214009D40404A31493148324CA04707AB59783E4823
S214009D50A0470D20314B98470C2040424CE0B91CE0
S214009D60162002AB9C466044334B98477B7807AA84
S214009D709446634400229A7034E0022D1AD13800CB
S214009D80274B9847431E9BB23F2B0DD92F4A1E499F
S214009D901E481F4B98472E481F4B98470D201F4BB9
S214009DA098470C20404227E0421C390007A8224B67
S214009DB0984717E0042D05D13E22390007A81E4B10
S214009DC098470FE0012D0DD0224A0F490F48104B3F
S214009DD098472148104B98470D20104B98470C2069
S214009DE0404209E000230293019300936C3307AAD4
S214009DF028210120194CA04723B00CBC9046994658
S214009E00F0BDC0461502000044300100C02C010021
S214009E10E1160100103201000118010015170100BB
S214009E200D8F000021020000243201002B020000EA
S214009E303032010044320100E98E00004B0200007F
S214009E4050320100520200006C3201006102000034
S214009E508832010071020000A43201003190000037
S214009E6030B583B006AC2488002501950094024CDA
S214009E70A04703B030BDC046DD9B00000020704701
S214009E80F0B583B080256D000543A5246401084F16
S214009E90084E29002000B8470023019301A920009E
S214009EA0B0470028F5D1019B9D42F2D103B0F0BD2A
S214009EB065A3000059A3000000B583B000230193FA
S214009EC001A91048104B9847002819D18021490055
S214009ED0019B194301910B480C4B984700280FD162
S214009EE001A9D0204001084B9847002808D18021BE
S214009EF04902019B19430191D0204001034B98472A
S214009F0003B000BD0814000059A3000065A30000BC
S214009F1010B582B0274B1C68002C46D11900802053
S214009F204001254B9847002803D00022214B1A6099
S214009F303DE001A92148204B9847002803D0002285
S214009F401C4B1A6033E01B4B1B681D4A934206D11C
S214009F50019B012B21D01B4A164B1A601DE01A4AA2
S214009F6093420CD1019B032B17D0042B03D1174A25
S214009F70104B1A6011E0164A0E4B1A600DE0154A97
S214009F8093420AD10B49EC2080030B4B98470028DC
S214009F9003D00022074B1A6009E0064A0E4B1168F0
S214009FA00B40A021C9020B431360024B1C68200023
S214009FB002B010BDAC00002059A30000F41300004E
S214009FC0A0021000A1021000B0021000B1021000A2
S214009FD0B2021000F0001000FFFFF0FF30B583B0B3
S214009FE0154C012501A91020A047002822D1019B6D
S214009FF02B42F7D101A901300F4B9847002819D101
S21400A00001998B0707D502239943019101300B4B29
S21400A010984700280ED101A90B20074B9847002827
S21400A02008D10199CB0705D50123994301910B303F
S21400A030024B984703B030BD59A3000065A300004B
S21400A040F0B583B000230193009301A90B20284BA1
S21400A0509847041E48D10199CB0706D4012319431B
S21400A0600B20244B9847041E3ED101A90120204B0B
S21400A0709847041E38D101998B0706D4022319434A
S21400A08001201C4B9847041E2ED10525184F1A4E4A
S21400A09069460F20B847041E0DD0AA225200174961
S21400A0A01748184DA847009A21001748A8470D20C2
S21400A0B0164B984718E0009B5B0713D40220B04766
S21400A0C0013D002DE4D1AF2252000C490C480D4B47
S21400A0D098470F480F4B98470D200C4B9847042481
S21400A0E0644201E00C4B9847200003B0F0BDC04628
S21400A0F059A3000065A30000ED8A00005C3401004F
S21400A100C02C0100E1160100EC3301001517010018
S21400A110043401000118010041A30000F8B507004F
S21400A1202D4D2E4C2E4E2800A047002802DB012085
S21400A130B047F8E72B48294B9847C30709D4284E61
S21400A140294C264D0120B0472000A847274B9842AF
S21400A150F8D1022F09D126492648274CA04780214E
S21400A16049032648A047002417E0032F08D12049BA
S21400A1702048214CA04700212048A04700240CE09E
S21400A180042F05D11E491D481B4B9847802404E028
S21400A1901B491A48184B984700241A4B9847000545
S21400A1A0000D194B984204D902202043174B9847BC
S21400A1B002E02000154B98471548164CA04710495A
S21400A1C01548A0470D20154B9847154906480A4BD9
S21400A1D098470020F8BDC046141000004DA30000AC
S21400A1E0ED8A0000BC0702000C000C009ED0AD10EB
S21400A1F07DD51C3CAC07020065A300008C10000057
S21400A20052135213119F00009F030000819E00000E
S21400A210242D0100E116010020340100151701006D
S21400A220612F52EF70B582B0154B0193154B00931A
S21400A230023801280CD8144B0193144B009307E006
S21400A2400220B0470198A847013C002C05D112E037
S21400A2500124644200200E4E0E4D009B9842EFD122
S21400A260009A0020074B9A4207D1002104480A4B67
S21400A2709847002001E00520404202B070BDC0466D
S21400A2808C10000036265302AC070200C3C15DD70F
S21400A290ED8A00004DA3000065A3000010B582B053
S21400A2A00023019301A9A0204001144B9847041EE7
S21400A2B00BD0134A13491448144B98471448154BAF
S21400A2C098470D20144B984714E01449019B1940F9
S21400A2D00191A0204001124B9847041E0AD0114A53
S21400A2E008490948094B984709480A4B98470D20E2
S21400A2F0094B9847200002B010BDC04659A3000085
S21400A3000502000050340100C02C0100E1160100D7
S21400A310383401000118010015170100FFFBFFFF8C
S21400A32065A300000B02000010B5014B984710BD56
S21400A3302D8C000010B5014B984710BD7D8E000097
S21400A34010B5014B984710BDE5AC000010B5014BA9
S21400A350984710BD1DAD000010B5014B984710BDC5
S21400A36031AD000010B5014B984710BD49AD000057
S21400A370F0B557464E464546E0B482B0804689461C
S21400A3801500134B1F88083FBBB201931E00040044
S21400A3909A4206D80021AAB2494420000D4B98479D
S21400A3A010E00C4B9A46371A4346E11A4944019A84
S21400A3B02000D047002805D1AD1B3919A419B54295
S21400A3C0F2D8E8E702B01CBC90469946A246F0BD1B
S21400A3D0080000208DAE0000F0B557464E464546B4
S21400A3E0E0B482B0804689461500134B1F88083FAC
S21400A3F0BBB201931E0004009A4206D80021AAB2FE
S21400A400494420000D4B984710E00C4B9A46371AEB
S21400A4104346E11A4944019A2000D047002805D156
S21400A420AD1B3919A419B542F2D8E8E702B01CBC36
S21400A43090469946A246F0BD08000020E9AF00000D
S21400A44070B584B00400002303930822002101A8FD
S21400A4502D4B9847002C45D02822002120002B4B5E
S21400A460984703A92A482B4B984700284AD10398B7
S21400A470002839D0C0239B021843082201A9264B86
S21400A480984700283ED1029B1804000C03902ED05B
S21400A490C0239B021843282221001F4B9847002800
S21400A4A030D123791902A3790F252B400B43667907
S21400A4B03601FF2216403343E6793602617A0D40B4
S21400A4C03543217A090111402A000A43002B11D096
S21400A4D0002A12D011498A4212D8114A934211D842
S21400A4E00D380FE000200DE00C2040420AE00C2062
S21400A4F0404207E00C20404204E00C20404201E0CD
S21400A5000D20404204B070BD99150100FD8E00007C
S21400A51008000C0059A3000071A3000052130000AD
S21400A5205113000070B5002805D005786B1E032B6C
S21400A53002D9012500E0012500201F4B9847041E84
S21400A5400CD02822FF321D491D481E4B98471E4836
S21400A5501E4B98470D201E4B98472BE01D48194C64
S21400A560A0471D4B984701001C48A0470D20184BDC
S21400A57098471B4B984728001A4B9847041E17D13C
S21400A5802800194B9847041E12D1A81E012811D97D
S21400A590164B9847041E0DD05622FF32074908482E
S21400A5A0084B98471248094B98470D20084B984788
S21400A5B0104B9847200070BD29A3000014350100F9
S21400A5C0C02C0100E11601006834010001180100EA
S21400A5D015170100242D0100119F0000843401008E
S21400A5E061AD00001DA1000025A20000B99E00007C
S21400A5F09434010035A3000010B51C4B9847041E88
S21400A6000CD0B62252001A491A481B4B98471B48D2
S21400A6101B4B98470D201B4B984724E000201A4BF5
S21400A6209847041E0CD07422FF3211491148124B71
S21400A63098471648124B98470D20124B984712E041
S21400A640134B9847041E0CD07A22FF32084909485B
S21400A650094B98470F480A4B98470D20094B9847D7
S21400A66001E00D4B9847200010BDC0469DA200009B
S21400A67020350100C02C0100E1160100B4340100B1
S21400A6800118010015170100B1BB0000D434010009
S21400A69035A30000F83401000DAD000000B585B00C
S21400A6A001AB019000220292198119000320024B8F
S21400A6B0984705B000BDC046318D000070B584B027
S21400A6C008AC257801AC20703F30C4B20E2C00D9FF
S21400A6D092E0A000504C2058874601AB0A0C5A70F6
S21400A6E00A0A9A70D97005218EE00B0ADBB2002D9B
S21400A6F002D101AA537004E080225242134301AAF9
S21400A700537001AB99700022DA7005217CE001AB32
S21400A71000225A709A70DA70052175E001AB0022AB
S21400A7205A709A70DA7005216EE001ABFF225A70FB
S21400A7309A70DA70052167E001AA080C5070080AC2
S21400A7409070D170190A1171537107215CE001AA4B
S21400A750080C5070080A9070D170190C1171190A03
S21400A7605171937108214FE00B0ADBB2002D02D124
S21400A77001A8437004E080204042034301A84370D0
S21400A78001AB9970110ED970110C1971110A59711B
S21400A7909A71082138E001AB080C5870080A9870C6
S21400A7A0D970110E1971110C5971110A9971DA715B
S21400A7B0092129E05B0010784340E35C01329542B2
S21400A7C0F8D15B0001AA935501E00139C9B289B2FC
S21400A7D001A8124B9847012300281AD02822FF32DE
S21400A7E00F491048104B98471048114B98470D20BA
S21400A7F0104B984700230CE000230AE04E1E01AAE7
S21400A80095197F230C4CD5E70C4B1B78002BDCD11D
S21400A810F4E7180004B070BD303501009DA60000B6
S21400A82080350100C02C0100E1160100D035010082
S21400A8300118010015170100343B0100B00000208C
S21400A84000B585B001AB0022019202901981190073
S21400A8500320024B984705B000BDC046318D00006E
S21400A860F0B583B0061ECF2E04D003003B33DBB218
S21400A870012B07D801216B46D81D244B984700238F
S21400A880002840D10B246B46DD1D204F01212800F7
S21400A890B84700280DD0B12252001D491D481E4B56
S21400A8A098471E481E4B98470D201E4B984700237E
S21400A8B029E02B78B34205D0013CE4B2002CE5D168
S21400A8C00B3400E00B246B46DD1D104E01212800E2
S21400A8D0B04700280DD0B82252000D490D480E4B47
S21400A8E098470E480E4B98470D200E4B984700236E
S21400A8F009E02B78002B05D0013CE4B2002CE5D112
S21400A900012300E00123180003B0F0BD41A80000B9
S21400A910C4350100C02C0100E1160100FC35010021
S21400A9200118010015170100F0B55F4656464D4662
S21400A9304446F0B483B08246894693460023984640
S21400A9403C4F80239B01994502D84B461EB201E03E
S21400A9508026B6010A246B46DD1C01212800B84774
S21400A96000280CD0344A35493548364B9847364887
S21400A970364B98470D20364B9847002053E02B78EF
S21400A9801B090F2B04D0013C24B2631CE5D101E067
S21400A990002C0DDC2F4A294929482A4CA0476B4633
S21400A9A0D9782D48A0470D20294B984700203AE03B
S21400A9B0B6B25046404431001E4B984700280DD092
S21400A9C0C52292001D491E481E4B984723481F4B20
S21400A9D098470D201E4B9847002024E05B46002B2E
S21400A9E016D11F4B1B78002B12D1022101A8114B48
S21400A9F0984700280CD01B4A10491148114B98471D
S21400AA001948124B98470D20114B984700200AE032
S21400AA104346F3181BB298464B469E1BB3B2994664
S21400AA20002B8ED1012003B03CBC90469946A2462E
S21400AA30AB46F0BD41A80000FF020000243B010029
S21400AA40C02C0100E116010030360100011801009B
S21400AA50151701000B030000643601009436010050
S21400AA60B00000201F030000C4360100F0B55746B2
S21400AA704E464546E0B486B003900491302802D88E
S21400AA80304B1F7801E0304B1F78FBB20593002354
S21400AA90302203998A425B41DBB29A460A252B4B49
S21400AAA09846D1464B4600930423049A039F3900E8
S21400AAB00598C047041E012C0BD0254A2549264878
S21400AAC0264EB04739002648B0470D20254B9847FC
S21400AAD011E00598244B9847041E012C2AD0E72243
S21400AAE092001C491C481D4EB04703991F48B047AA
S21400AAF00D201C4B984701201D4EB04700230093A5
S21400AB0000220021CF20114FB847CF20164B984780
S21400AB10184A10491048114FB847049B039A290059
S21400AB201548B8470D200F4B98470120B047013D08
S21400AB30002DB7D1200006B01CBC90469946A24610
S21400AB40F0BDC0466C3501006D350100BDA60000A5
S21400AB509603000098350100C02C0100E1160100A4
S21400AB60F83601001517010061A80000243701001F
S21400AB70ED8A0000AF0300005C370100F0B55F46C9
S21400AB8056464D464446F0B487B002908B46FF28A2
S21400AB9002D8414B1F7801E0404B1F78FBB203936D
S21400ABA00023FF2202998A425B41DBB29A460A25BD
S21400ABB03B4B9846D1464B46009304230022029F07
S21400ABC039000398C047041E012C0BD0354A36497D
S21400ABD03648374EB04739003648B0470D20364B1A
S21400ABE0984733E00398354B9847041E012C0BD04A
S21400ABF0334A2D492D482E4EB04702993148B0476A
S21400AC000D202D4B984721E04A46042105A82E4BDF
S21400AC109847041E012C0BD02C4A23492348244B6A
S21400AC2098472B482B4B98470D20234B98470DE011
S21400AC3005AA5378190293781B040B4311780B432B
S21400AC40D278120613435A4613601DE00120224EA6
S21400AC50B0470023009300220021CF20104FB847B2
S21400AC60CF20164B98471D4A0F491048104FB8473B
S21400AC70029A29001A48B8470D200F4B9847012022
S21400AC80B047013D002D96D1200007B03CBC904651
S21400AC909946A246AB46F0BD6E3501006F35010001
S21400ACA0BDA6000017040000143B0100C02C0100E4
S21400ACB0E1160100783701001517010061A80000B1
S21400ACC01D040000A437010029A900002404000088
S21400ACD0D837010001180100ED8A00003C0400008E
S21400ACE0F837010010B582B000230093002200213F
S21400ACF0CF20044CA047CF20034B9847002002B03B
S21400AD0010BDC046BDA6000061A800000022024B90
S21400AD101A7000207047C046B000002000B583B00F
S21400AD2001A9024B9847019803B000BD7DAB000017
S21400AD3010B5044B98470023012800D0063B1800A6
S21400AD4010BDC0467DAB000010B5044B98470023ED
S21400AD50012800D0063B180010BDC0466DAA0000B2
S21400AD6010B582B000230093354A13706946354803
S21400AD70354B984700281FD10122314B1A70334AB1
S21400AD8033493448344B98473448354B98470D2060
S21400AD90344B984769462B482B4B9847041E0BD1DB
S21400ADA0314A2B492B482C4B984730482C4B984718
S21400ADB00D202C4B98473FE0214B1B78002B19D1D8
S21400ADC07C33009999432C3B194300911D48284B2E
S21400ADD09847041E0BD1274A1D491E481E4B98470C
S21400ADE025481F4B98470D201E4B984724E001220C
S21400ADF0134B1A7001A980204001134B9847002876
S21400AE000DD11E4A12491348134B98471C48144B41
S21400AE1098470D20134B9847062464420CE0094CD3
S21400AE202000184B9847702301009943203B194394
S21400AE302000154B98470024200002B010BDC046E5
S21400AE40B000002024E800007DAB0000C70400002E
S21400AE50A8350100C02C0100E116010010380100E1
S21400AE600118010015170100CA040000603801002F
S21400AE706DAA0000D40400008C380100DE04000037
S21400AE80C03801001DAD000049AD0000F0B55F46BA
S21400AE9056464D464446F0B487B0029003911600DD
S21400AEA00A2500239B4600243E4B9846A946012EC1
S21400AEB002D101239B460136009433002200029DF6
S21400AEC02900C820C04701280BD0374A37493848E0
S21400AED0384FB84729003848B8470D20374B9847B1
S21400AEE032E0C820364B984701280BD0354A2F4908
S21400AEF02F48304FB84702993348B8470D202F4B9C
S21400AF00984721E05B46002B09D005AF22003100B0
S21400AF1038002E4B98473B78039A137004E02200C3
S21400AF2031000398294B984701280BD0284A1F491F
S21400AF301F48204B98472748274B98470D201F4B04
S21400AF40984701E0002025E00120244FB8470094F0
S21400AF50230022002100CF20124DA847CF20184BF7
S21400AF6098471F4A11491248124B9A469847330091
S21400AF70029A49461B48D0470D20104B984701209F
S21400AF80B84701235B429C46E1444B46002B8ED1DA
S21400AF900620404207B03CBC90469946A246AB46C7
S21400AFA0F0BDC046BDA600005D040000343C0100B4
S21400AFB0C02C0100E1160100E4380100151701005D
S21400AFC061A80000630400001439010029A90000EC
S21400AFD0730400004C39010001180100ED8A0000DE
S21400AFE08404000074390100F0B55F4656464D46AD
S21400AFF04446F0B489B00490884603920A27002697
S21400B000894B9A46B946039B012B01D10133039322
S21400B0100096039B3200049D2900C720D0470128D4
S21400B0200BD0824A82498348834CA0472900834834
S21400B030A0470D20824B9847C9E0C720814B984710
S21400B04001280CD0F422920079497A487A4CA0471D
S21400B05004997D48A0470D20794B9847B7E007AB89
S21400B0601E80039C370080239B019B466A46D38242
S21400B070251C5C4501D96B46DD8AADB2002F04D194
S21400B08003235C4506D9023B04E033005A46A2423D
S21400B090734102330B2004AA9446604410225242A5
S21400B0A0134303700121694B984700280CD0D42223
S21400B0B0920067495F48604B98476648664B9847DA
S21400B0C00D205F4B984759E04346D81929005F4B3F
S21400B0D0984700280BD0614A5D495648564B98471A
S21400B0E05F485D4B98470D20554B984746E05D4BB3
S21400B0F01B78002B11D1022107A8544B9847002833
S21400B1000BD0594A52494B484B4B98475748524BDD
S21400B11098470D204A4B984730E0EF193FB2641B22
S21400B120A4B2002CA4D136E03C22FF32504941485C
S21400B130414B98474F48484B98470D20404B9847FF
S21400B14036E008AB1B19053B1B78002B06D108AB75
S21400B1509C466444063C2378C32B36D0A12252007A
S21400B16043493448344CA04707A98B784A78097875
S21400B1704148A0470D20324B984719E0F82292002C
S21400B1802B492C482C4B98473C48334B98470D206E
S21400B1902B4B98471BE0334B1C78634263410324D8
S21400B1A0E41AA1B207A8364B98470028C9D0BBE7D7
S21400B1B0FA2292001E491F481F4B98472F48264BDD
S21400B1C098470D201E4B984701E0002025E00120FF
S21400B1D02C4CA0470096330032003100CF20124D91
S21400B1E0A847CF20174B9847274A11491148124DB8
S21400B1F0A847039B049A49462448A8470D20104BAD
S21400B20098470120A04701235B429C46E1444B46F9
S21400B210002B00D0F7E60620404209B03CBC904622
S21400B2209946A246AB46F0BDBDA60000CA03000084
S21400B230B4350100C02C0100E11601009039010070
S21400B2401517010061A80000C03901009DA6000086
S21400B25070350100F839010001180100590300009B
S21400B260303A0100B000002063030000643A010099
S21400B270883501009C3A0100BC3A0100EC3A010016
S21400B28041A80000ED8A0000F203000074390100B6
S21400B290F0B55F4656464D464446F0B485B001903C
S21400B2A00E0002921D000EAB1C88002C62D003011B
S21400B2B034495B58002B5DD00301CB189B889BB2AA
S21400B2C0002B57D00301CB189B7A012B52D1F48068
S21400B2D007018B46BB445B460A229046D844BA46D2
S21400B2E0009503935B469B88E31A1BB2002B04DD94
S21400B2F0039B9D88ADB2002301E025000123214A6F
S21400B300514689582A0000981F4FB847002825D173
S21400B3101C4B5246D3583360B580F3885B1BF380D2
S21400B3201A4B1B68002B05D0184B1B68320002997D
S21400B33001989847641BA4B2009B9C46AC446346A5
S21400B340009343461B78002B12D1002C12D00133F9
S21400B3500022002100200C4CA0470BE00C480D4DAD
S21400B360A84721000C48A8470D200C4B984701E041
S21400B370002CB7D105B03CBC90469946A246AB46D9
S21400B380F0BDC04670030020459600002004002053
S21400B390242D0100E1160100403C010015170100B4
S21400B3A0F0B54F464646C0B49BB00D001400412889
S21400B3B001D054281AD10023042209A92000AF4C3A
S21400B3C0A047002800D053E109AB5A7805AB1A70A5
S21400B3D0AB4B1B68002B00D14AE1A94B1B6809AA9E
S21400B3E00020105605AA0121984741E142281AD1AB
S21400B3F00023042209A92000A04CA047002800D062
S21400B40036E109AB5A7805AB1A709D4B1B68002BCA
S21400B41000D12DE19A4B1B6809AA0020105605AAF8
S21400B4200221984724E1432849D100230C2205A98C
S21400B4302000924CA047002800D019E105AB092255
S21400B4409A56002A24DB1800082159568D4C09010B
S21400B4506118C97AC9B21301E318D9720121997229
S21400B4604189083989B2198187490B8801339BB213
S21400B4700B800B889BB2002B03D10B8801339BB249
S21400B4800B80814B198889B213017E48C318D98076
S21400B49009AB1A7002229A8005AA5188D980069AAA
S21400B4A00B92774B1B68002B00D1E1E0744B1B68B6
S21400B4B005AA0820105609AA04219847D8E044286F
S21400B4C001D04B2825D10023042209A920006B4C6B
S21400B4D0A047002800D0CBE009AB0020185605AAEC
S21400B4E010705B785BB25370002B07D109AB5A889B
S21400B4F0083A92B203016349CB181A81604B1B6865
S21400B500002B00D1B4E05E4B1B6805AA05219847C6
S21400B510AEE04A2815D10023442209A92000574C42
S21400B520A047002800D0A3E0584B1B68002B00D192
S21400B5309EE0564B1B68199A0392110009A898477B
S21400B54096E0462805D0482805D006264D2803D084
S21400B5504CE0062600E009260023102205A920005C
S21400B560464FB847002800D082E005AA0C201056A7
S21400B570D3899C4603014349C91800230B73082747
S21400B580D35F98465389994609AF53887B81069BBB
S21400B5900C93CA8892B294451FD14346002B0DDD0A
S21400B5A0A8450BDA23004B44424669468A818A89BD
S21400B5B0009232003900364CA04759E009AB4246AB
S21400B5C09A80002309932E4B1B68002B50D02C4BDF
S21400B5D01B6809AA310098474AE0102D48D9012374
S21400B5E0002200210020254CA04741E0452805D038
S21400B5F0472805D007254C2803D022E0072500E081
S21400B60008250023082209A920001C4CA047002872
S21400B6102ED109AB002018569A88598805AB198098
S21400B62003011849CB18DB889BB29A4220D1144BF1
S21400B6301B68002B1CD0124B1B6805AA29009847D4
S21400B64016E0522814D10123142209A920000B4C1D
S21400B650A04700280CD10F4B0A9A1A601B68002BD3
S21400B66006D00C4B1C6809AB1A7C0B990998A047AE
S21400B6701BB00CBC90469946F0BDC04645960000EF
S21400B6802004002070030020B400002028040020BE
S21400B69091B200002404002010B50A4B1B78002B42
S21400B6A00ED1B02200210848084B984708490220CE
S21400B6B0084B98470122034B1A700022064B1A804B
S21400B6C010BDC046B200002070030020FD8E0000B2
S21400B6D0A1B3000031970000B400002010B5B022DE
S21400B6E000210748074B984700210220064B984741
S21400B6F00023064A1360064A1360064A137010BDFC
S21400B70070030020FD8E000031970000200400200A
S21400B71028040020B2000020024B1860024B19607B
S21400B7207047C0462004002028040020F0B5574685
S21400B7304E46C0B489B00592022800D094E0012994
S21400B74033D14F4C2578EFB22378DEB22078013023
S21400B75006314C4B9847C9B2217033014A4AD31878
S21400B7609B7A0625002B02D13401A41816E0444C1F
S21400B770444B9A46444B99462778FFB22378DEB26C
S21400B780207801300721D047C9B2217033014B44DD
S21400B7909B7A002B04D134013B4BE4187DB22DE09C
S21400B7A0013DEDB2002DE7D161E002295FD1374AB5
S21400B7B01578EDB214782401354BE418137801336C
S21400B7C001310B401370A37A002B0FD003222F49B0
S21400B7D02F4F03200D78EDB20C782401E4190B7876
S21400B7E0013303400B70A37A002B02D107356DB2EC
S21400B7F004E0013AD2B2002AECD138E0002D38DB62
S21400B800102200212000234B98470123A372224ACE
S21400B810138801339BB2138013889BB2002B03D18D
S21400B820138801339BB213801B4E33889BB2E38090
S21400B8301A481B4FB847328892B229001948B847B1
S21400B8400D20194B9847059BDB0712D507AA1570E4
S21400B8502123E372002302930193009304335021C3
S21400B8600220124CA04704E001256D4201E00125AC
S21400B8706D42280009B00CBC91469A46F0BDC04601
S21400B880B30000207914010070030020B1000020EE
S21400B890E0030020FD8E0000B4000020242D0100EF
S21400B8A0E1160100543C010015170100319000001C
S21400B8B070B588B0041E2FDB002930D003011D4868
S21400B8C0C3189B7A012B2DD1002A2ED02301C31832
S21400B8D0DB7A4426DB0705D52301C318DA7A05ABE5
S21400B8E05A72073605AD2C7208222800124B98476C
S21400B8F02401104B1C19E3886B81002302930193EB
S21400B90000930C332A00310002200C4CA04700287C
S21400B9100DD0092040420AE00620404207E00620FB
S21400B920404204E00620404201E00620404208B0C3
S21400B93070BDC04670030020E98E00003190000004
S21400B94030B589B00C00002833DB002934D0AF2393
S21400B950DB009A4233D803011D49CB189B7A012B92
S21400B96030D104A908704A800301194DEB18DB8812
S21400B9708B815025062800DD0C3D03011449CB18A9
S21400B980DB7A4521DB0705D50001114B1818058920
S21400B990ADB2073180231943029501920094703BA3
S21400B9A004AA02200B4CA047002300280CD00E3B14
S21400B9B00AE006235B4207E006235B4204E0062318
S21400B9C05B4201E006235B42180009B030BDC0466A
S21400B9D0700300203190000030B587B0002833DBBC
S21400B9E0002934D0002A35D004011E4D2C19A47A23
S21400B9F0012C32D10401615129198A80097B002269
S21400BA0000292CD12A1901211173D27A4531D20787
S21400BA1000D50731002B02D1013B049300E00493CC
S21400BA2004AA107100010F4B1818C388D380002396
S21400BA30029301930093083302200B4CA047002288
S21400BA4000280CD00E3A0AE00622524207E00622F0
S21400BA50524204E00622524201E006225242100000
S21400BA6007B030BD700300203190000030B587B0BD
S21400BA7004001E481E4DA84721001E48A8470D205A
S21400BA801D4B9847002C29DB23011C4AD3189B7AB0
S21400BA90012B26D105A90C702201184B9B18DA88B9
S21400BAA04A8000229A72DA80DB7A4921DB0700D5C9
S21400BAB005310023029301930093043305AA022064
S21400BAC00F4DA847051E01D009256D4224010B48DD
S21400BAD02018102200210B4B984704E006256D42E3
S21400BAE001E006256D42280007B030BD242D010078
S21400BAF0E1160100703C01001517010070030020DC
S21400BB0031900000FD8E0000F0B583B00023019355
S21400BB100026451C471D0022BD421DD028006B1E76
S21400BB201C782E2C1CD0002C1DD02300303B092B5B
S21400BB3014D89100521852001300303B1B19DAB289
S21400BB400135E9E70136042EE3D10422694601A84F
S21400BB50074B9847019809E0002007E0002005E021
S21400BB606B46F254EEE76B46F254EBE703B0F0BDDB
S21400BB70E98E000010B584B004000B4B9847C3B2A2
S21400BB80402B0CD8FF231840431C0022029201923F
S21400BB90009222004A210220044CA04701E0062021
S21400BBA0404204B010BDC0460D8F0000319000002A
S21400BBB070B582B00400294B98470005000D00259B
S21400BBC0274B984247D901A92648274B9847051E78
S21400BBD041D12649019B1940254B19430191214823
S21400BBE0244B9847002C16D000212348214CA04710
S21400BBF0AB212248A04701212148A0470021214827
S21400BC00A04781212048A047204E214C3000A04765
S21400BC100128FBD115E000211748164CA047B92192
S21400BC201648A04701211648A04700211548A047FE
S21400BC3081211548A047154E154C3000A047012815
S21400BC40FBD10A49019B194080235B0219430191ED
S21400BC500448084B9847280002B070BD119F0000AA
S21400BC609F0300001014000059A30000FF8F88F8FF
S21400BC700010110165A30000080201000C0201007B
S21400BC80140201001C020100040201001802010057
S21400BC904DA30000F0B5474680B4032304009C4340
S21400BCA0A4461368DB430C1E032C02D9404203242F
S21400BCB00440002C18D0091B6046061D0568E000ED
S21400BCC040422030C5406B40E0000CD00124254D9A
S21400BCD01C4202D05B086B4000E05B08013800287D
S21400BCE0F6D1B44600E0B44603200C00844319D0D5
S21400BCF0091BA0088046674606000124194D0CE083
S21400BD003868434020201C4202D05B086B4000E0AD
S21400BD105B0801380028F6D10437013EF0D24046D1
S21400BD2080008444002916D060460568CC00644232
S21400BD30203401204042E04028404340C9000AD059
S21400BD400120084C184202D05B08634000E05B0804
S21400BD5001390029F6D1DB431360002004BC90466D
S21400BD60F0BDC0462083B8ED0C4B1B68002B10D1ED
S21400BD70EFF31083002B09D172B6BFF35F8F00225A
S21400BD80074B1A700132074B1A7002E00022054B6F
S21400BD901A70024A1368013313607047B800002017
S21400BDA00A000020BC000020084B1A68013A1A60FE
S21400BDB01B68002B09D1064B1B78002B05D00122EF
S21400BDC0044B1A70BFF35F8F62B67047B80000204E
S21400BDD0BC0000200A000020F0B583B001AC0125AD
S21400BDE065700027A770257021001720064EB04703
S21400BDF080221204054B9A61277065702100372057
S21400BE00B04703B0F0BDC04689C200000044004100
S21400BE101723002A0DD18B00074A9B58002B03D10D
S21400BE2089008850002304E0834201D01D2300E0EF
S21400BE30002318007047C04630040020172300294E
S21400BE4007D100221F2800D8034A01238340D3606D
S21400BE50002318007047C04600180040172300292A
S21400BE6007D100221F2800D8034A0123834093608D
S21400BE70002318007047C0460018004070B5002226
S21400BE80154B1A7000231F25144E134C1F2B19D95F
S21400BE900FE0002100E012490A619B009B59002B2D
S21400BEA000D0984723780133DBB223700F2BEDD9EF
S21400BEB011E02900194001228A4000210969114237
S21400BEC0E7D1EFE72900194001228A4004490969B1
S21400BED01142E0D1E6E770BD2C04002030040020BB
S21400BEE000180040044A117802230B43137053785D
S21400BEF05BB2002BFBDB70470018004000B583B038
S21400BF00124A916940230B43936101A900230B70E9
S21400BF1005200F4B984705200E4B98470E4A117880
S21400BF2001230B43137053785BB2002BFBDB0B4BE8
S21400BF3019004031002204C39942FCD11022084B5C
S21400BF401A60084B984703B000BDC0460004004086
S21400BF502DD90000A1D800000018004030040020B1
S21400BF6000E100E0E5BE000000230360436001221C
S21400BF700272427283720233C3727047F0B583B0A6
S21400BF8005000C0001A900234B70CB7023790B70C1
S21400BF90237A8B702078144B984700201F2D00D8EA
S21400BFA01248072129408900E27AA37A002B01D0A3
S21400BFB008231A43EB089B00C3189E690F278F407F
S21400BFC0BE438A4032439A61637A002B05D04269A9
S21400BFD00123AB401343436104E043690122AA40B6
S21400BFE09343436103B0F0BD25DA0000001800401B
S21400BFF010B51E4AD16904230B43D3611C4B202283
S21400C000FF321A831A7D0523D2072CD50178090240
S21400C010C022920011404278D201FA3313401943ED
S21400C020827852001E231A400B001343C2789204F3
S21400C0308021C9020A40134302791204C0218902F2
S21400C0400A4013430A4A536093685B035B0F09492F
S21400C05008249C400C8093684B8043780B71138BAC
S21400C060DB05DB0F1B01180010BDC04600040040B6
S21400C07000400041C000002030B50400234A10886C
S21400C080538843438B4206D2182080229201204BCD
S21400C090CB18934238D81F4B5D688022D2022A43C1
S21400C0A05A602022FF321A831B7DDB0703D4194B0C
S21400C0B05D60052028E0452C15D8A300164AD35805
S21400C0C09F46144B1B8BDB0503D5124B5D6010207F
S21400C0D01AE0890849000F4BD96108E08908490031
S21400C0E00C4BD96103E00B4B5D6017200CE0A520DC
S21400C0F000020443074B1C80190001220B7D1342EB
S21400C100FCD0044B5D60002030BDC046C00000205F
S21400C11000C07FFF00400041D03C0100F8B5244B32
S21400C1201D885B886B43182483423ED36B1E1842DF
S21400C1303BD1013C954238D31E4B1B7D123CDB079E
S21400C14033D51D4C1B4B1C801D0001242B7D234228
S21400C150FCD02024FF34174B1C834608002A1FD02F
S21400C16076000023571ECD5CBB4201DBACB203E079
S21400C170CC18647824022C43348002339BB20236F7
S21400C1809A42F0D80A4B1B790024002B0DD13F2A87
S21400C1900BD8002201000420084B9847040004E056
S21400C1A0034B1B790024002BF3D02000F8BDC046BB
S21400C1B0C00000200040004144A5FFFF79C00000F9
S21400C1C070B5184B1D885B886B431824834226D3B2
S21400C1D06B1E184223D1013C954220D3124B1B7D87
S21400C1E0123CDB071BD52024FF340F4B1C83400872
S21400C1F0002A13D040000025561E2B181C88A4B217
S21400C2002B041B0CCC54B34202DACB18240A5C7005
S21400C2100235ABB29A42F0D8002400E00024200099
S21400C22070BDC046C000002000400041134B1A8875
S21400C2305B885343182183421DD39200013A104273
S21400C24019D10F4B1B7D1339DB0714D50C4B20225D
S21400C250FF321A8380084000D8610A4A1A80190003
S21400C26001220B7D1342FCD0054B198B1C23194071
S21400C270481E8141890008007047C046C000002063
S21400C2800040004102A5FFFF00B583B001AB80224D
S21400C2901A700A785A704A789A708A78DA70190092
S21400C2A0014B984703B000BD25DA0000F0B55F46A5
S21400C2B056464D464446F0B487B080460491160074
S21400C2C01F000022002300218B463F24012021006E
S21400C2D0009601975C4603944446059420246442E5
S21400C2E00C1903D40500A540A84604E02024641ACF
S21400C2F00500E540A84604008C40A14614001D0039
S21400C300A4185D4122002B00059E4F463E40B246D3
S21400C310049E47463E40B446564667463E4303D0D4
S21400C3200600264332002B00009C019D9D420ED83D
S21400C33001D194420BD8009C019D121BAB415C4678
S21400C3404D462C43A346039C45462C430394013993
S21400C350C4D2039B5846190007B03CBC9046994689
S21400C360A246AB46F0BDC04610B54908402300249F
S21400C370814201D20AE01C00091A631C9BB2884263
S21400C380F9D94023FF2C01D814800023180010BDD3
S21400C390F0B583B00F00160008AA117804004C43CD
S21400C3A04022BC4236D8002B12D1020008000021E1
S21400C3B01A4CA04701003A0000230020184CA04762
S21400C3C000220123121A8B41120C1B041A431FE091
S21400C3D00022012B1CD10A00002300210F4CA0478D
S21400C3E002000B0000920193380000210C4CA0477D
S21400C3F00500402280239B0198420BD8790FF80055
S21400C400009A019BA047EA00821AD2B252032A433E
S21400C41032800022100003B0F0BDC0468514010033
S21400C420ADC2000010B582B004000E4B1B78002B86
S21400C43001D000290DD001A90C7013200A4B984793
S21400C44013200A4B9847074B5C7001221A70002095
S21400C45006E0044B5B78834201D01D2000E00020FC
S21400C46002B010BDC80000202DD90000A1D80000E1
S21400C470444B984233D006D8434B98420DD0434B9A
S21400C48098421BD06FE0424B98424AD0414B9842AC
S21400C49058D0414B984266D132E0012906D0002997
S21400C4A063D0022906D0032906D001E03B4867E0A6
S21400C4B0002065E03A4863E03A4861E0012906D08A
S21400C4C0002954D0022906D0032906D001E03648B8
S21400C4D056E0002054E0354852E0354850E0012947
S21400C4E006D0002945D0022906D0032906D001E04F
S21400C4F0304845E0002043E02F4841E02F483FE029
S21400C500012906D0002936D0022906D0032906D0F4
S21400C51001E02B4834E0002032E02A4830E02A4888
S21400C5202EE0012906D0002927D0022906D00329AB
S21400C53006D001E0254823E0002021E024481FE043
S21400C54024481DE0012906D0002918D0022906D06B
S21400C550032906D001E0204812E0002010E01F4822
S21400C5600EE01F480CE000200AE01E4808E003200A
S21400C57006E01D4804E01D4802E01D4800E01D4896
S21400C5807047C0460010004200080042000C0042FF
S21400C59000180042001C0042001400420300050080
S21400C5A003000600030007000300010003001E004E
S21400C5B003001F000300090003000A0003000B002D
S21400C5C003001100030012000300130003000D0017
S21400C5D003000E0003000F000300170003001800FE
S21400C5E00300190003000400030008000300100005
S21400C5F003000C000300160030B587B00C4B6A46EB
S21400C60032CB32C232CB32C2009B834206D00123E9
S21400C6109A0069465258824203D100E00023D8B2FD
S21400C62003E00133062BF3D1002007B030BDC0462F
S21400C630E83D01007047C046F0B50A4B1B78002B5A
S21400C6400CD1094F094E0A4D0024DE515A191460C8
S21400C6500433182BF9D10122024B1A708000024BCA
S21400C660C150F0BDCA000020CC00002035C6000036
S21400C6707004002010B582B0040006220549684602
S21400C680054B98472000054B98476B46185602B056
S21400C69010BDC046003E01005D150100F9C5000052
S21400C6A010B5024B1B680020984710BDCC00002038
S21400C6B010B5024B5B680120984710BDCC000020E7
S21400C6C010B5024B9B680220984710BDCC00002096
S21400C6D010B5024BDB680320984710BDCC00002045
S21400C6E010B5024B1B690420984710BDCC000020F3
S21400C6F010B5024B5B690520984710BDCC000020A2
S21400C700F0B58BB005000C00160029600B681C20E5
S21400C7109B0700D5BEE00B681738DB0700D5B9E0ED
S21400C72008005D4B98475D490A6A871C0123BB4099
S21400C73013430B6209A92427F35D0B701430C3B2B0
S21400C74001931800564B98470198564B9847F05D52
S21400C7500021554B98473378012B03D122680B33C1
S21400C760134323602B000C3329002831002204C316
S21400C7709942FCD10023EB62AB620024AB862B8689
S21400C7803633EC540133EC540133EC54353B6B72C6
S21400C7902C712868404B984707004449444B9847FB
S21400C7A0B800444BC5502F6804AB80221A705C70EA
S21400C7B07F3A9A70DC703378002B02D1002204ABEB
S21400C7C09A70B36A0593F36A0693336B0793736B99
S21400C7D008930024E1B2A30005AA9858002802D1C5
S21400C7E03800354B9847431C06D002AB1872000C35
S21400C7F0C0B204A9314B98470134042CEAD13378EF
S21400C8006B71337CAB71B37CEB71337D2B72002282
S21400C81002ABDA803378012B14D128681E4B984778
S21400C8201430C0B2264B9847010002AB9A1DB0697F
S21400C830244B984703001720002B2BD102AB06335E
S21400C8401B783B737368B2681343F2681343327CF9
S21400C850717C002903D11C498978890701D580217C
S21400C8600B43B17C002902D0802189020A43F17C67
S21400C870002902D0802189000A43317D002902D098
S21400C880802189010A4339680B433B607B68134368
S21400C8907B6000200BB0F0BDF9C50000000400402E
S21400C8A02DD90000A1D8000025C4000039CB000017
S21400C8B039C600007004002071C4000025DA0000AC
S21400C8C049D9000069C3000000200041F0B5574672
S21400C8D04646C0B4070088461D0038203C5CE0B2DF
S21400C8E0052847D01720002A44D0FC790530002CB4
S21400C8F040D000231B38EC05E10D8C4604267C79DD
S21400C900012C08D13D682C7E0442FCD02C7E0442CB
S21400C91001D06146A9623D682C7E3442FCD02C7E54
S21400C920344224D0698B0024314201D06E831E34F9
S21400C930B979012903D1AD6AED05ED0D01E0AD6AC7
S21400C940EDB2002C15D15C1CA4B24146CD54B97989
S21400C950012905D102339BB22D0A41460D5500E050
S21400C9602300013A92B2002AC9D1002002E010202A
S21400C97000E020000CBC90469A46F0BD10B5447905
S21400C9801523012C6ED1047A0023002C6AD1002ACC
S21400C99058D04B78002B44D003681B7EDB0710D49E
S21400C9A00B78D9090022002904D15A09D2012E4950
S21400C9B08C4662441F210B401E3999409161052325
S21400C9C050E00B78DC090022002C04D15A09D20171
S21400C9D0254CA44662441F2423401E3C9C405461C0
S21400C9E003681A7ED20701D58A789A62C279002334
S21400C9F0002A37D102680421137E0B42FCD0117E38
S21400CA00002349072ED5538B5B0701D50423538398
S21400CA108379012B02D1936A002323E0936A0023D3
S21400CA2020E00B78D9090022002904D15A09D20146
S21400CA300D498C4662441F210B401E3999405161B6
S21400CA4000230FE00B78D9090022002904D15A09E7
S21400CA50D20105498C4662441F210B401E3999407D
S21400CA6091610023180010BD00440041F0B55F46F8
S21400CA7056464D464446F0B483B007008A463823EF
S21400CA80C05CC0B205284ED01720002A4BD042E02A
S21400CA903A68137E2342FCD0431C9BB2984653460A
S21400CAA01B5C9B46B979012904D06946CB80CB88AC
S21400CAB0404607E0023080B241465346595C0902C0
S21400CAC05B460B43117E214202D0DB05DB0D9362F1
S21400CAD0FB79002B10D03A68137E2B42FCD0137ED5
S21400CAE02B4209D0538B2B4200D05583BB79012BA8
S21400CAF001D1936A00E0936A013EB6B26645C7D19B
S21400CB007B790020012B0ED1396802220B7E13425E
S21400CB10FCD0002007E0013A96B20020012404254C
S21400CB20044B9C46B4E703B03CBC90469946A246EC
S21400CB30AB46F0BDFFFF0000F8B58000674BC45859
S21400CB4026683723E35C3622A75C1F40337EB57D1C
S21400CB501D40EB073DD56379012B3AD1637A002B54
S21400CB600FD15F4B1B88B362638E013B9BB263861B
S21400CB70638E9BB2002B01D1013333756379012B91
S21400CB8027D1637A002B24D02068E16A0B78DAB2CA
S21400CB904B1CE362A379012B01D093B204E04B78DF
S21400CBA01B0213430231E162DB05DB0D8362A38EB9
S21400CBB0013B9BB2A386A38E9BB2002B09D1013307
S21400CBC03375637A012B04D1E379002B01D102334C
S21400CBD0B3756B075FD5738B5B0712D5637A012B32
S21400CBE00BD01E223823E254353B63720233337572
S21400CBF03B0702D52000A3699847B36A04237383D2
S21400CC0049E0637A012B16D123689B6A638E013B49
S21400CC109BB26386638E9BB2002B3CD10433337584
S21400CC2000223433E254353B6372FB0733D52000D1
S21400CC30E36898472FE023689B6ADB05DB0DDAB2D2
S21400CC40A16A0A70A26A511CA162A179012904D1C5
S21400CC501B0A5370A36A0133A362238E013B9BB267
S21400CC602386238E9BB2002B15D100223833E25444
S21400CC70343B3375637A022B05D17B070BD5200036
S21400CC806369984707E0637A002B04D1BB0702D597
S21400CC90200023699847AB0714D56379012B11D17F
S21400CCA0637A012B0ED1E379002B0BD10233337557
S21400CCB00133637200223533E254FB0702D52000AD
S21400CCC0E3689847ED0907D08023337533767B06F3
S21400CCD002D5636A20009847F8BDC046700400205D
S21400CCE088040020F0B55F4656464D464446F0B4EC
S21400CCF091B005000C00160029600800BB4B984751
S21400CD0022680523D20700D567E122681733920709
S21400CD1000D562E1B6490A6A871C1B3BBB40134339
S21400CD200B620FA92D27F35D0B701430C3B202936C
S21400CD301800B04B98470298AF4B9847F05D00211B
S21400CD40AE4B9847F37A6B712423F35CAB712523C3
S21400CD50F35CEB71F37E2B72337F6B722B68994614
S21400CD601800A24B9847143000220E2306A98C46C2
S21400CD7063441A80328A02928023DB019A421AD0D8
S21400CD8004D880239B019A420BD007E1C023DB0125
S21400CD90029A9A420AD080231B029A4200D102E1EC
S21400CDA0FCE0102306930F3B079300E1082306934D
S21400CDB0073B0793FBE033680493F36803937369B8
S21400CDC09846337E9B462623F35C059373689A4603
S21400CDD0002B15D080235B059A4536D12723F35CBC
S21400CDE0002B36D1336A1F00C0B2854B984701002E
S21400CDF00E2206AB9C4662443800824B984725E0DC
S21400CE0008230693002307932723F35C002B0BD0FD
S21400CE10069B0093079B0E2206A98C466244B16AC5
S21400CE20306A794FB84711E0336A1F00C0B2744BBE
S21400CE3098470100069B0093079B0E2206A884468F
S21400CE4062443800704FB84700E00020031E00D050
S21400CE50C3E0737E002B02D0B37E4A4693732A68E3
S21400CE60029FD369002BFCD10E3306AA9446634476
S21400CE701B884A469381049B039A134342461343F6
S21400CE80524613433B435A4612021343059A57072A
S21400CE901F432723F35C002B01D104331F43717E0D
S21400CEA08902337F5B021943737F1B0219432423D5
S21400CEB0F35C5B0419432523F05C00040A0002437C
S21400CEC0B17AF37A194311433389FF2B04D08022B9
S21400CED052041743194305E0F37E002B02D080234B
S21400CEE0DB041F432C23F35C002B03D1474B9B78BA
S21400CEF09B0701D580231F432A68D369002BFCD1EA
S21400CF004B4659602A68D369002BFCD14B461F60FC
S21400CF100EAB80221A7000225A70DA709A70336B49
S21400CF200A93736B0B93B36B0C93F36B02930D9393
S21400CF3000270EAEF9B2BB000AAA9858002802D104
S21400CF402000334B9847431C05D03070000CC0B20D
S21400CF503100304B98470137042FEBD10023EB60AC
S21400CF602B616B61AB61EB612B62AB626B62002283
S21400CF70EB85AB853033EA540133EA540133EA5487
S21400CF800133EA542868194B984704002249234B7A
S21400CF909847A400224BE55000231EE0102306937A
S21400CFA00023079303E003230693002307933368C5
S21400CFB00493F368039373699846337E9B4626234F
S21400CFC0F35C059373689A46002B00D11CE7802318
S21400CFD05B059A4500D101E73BE7180011B03CBC61
S21400CFE090469946A246AB46F0BDC046F9C500003D
S21400CFF0000400402DD90000A1D8000025C4000080
S21400D00049D9000069C3000091C300000020004118
S21400D01071C4000025DA000039D1000039C60000CE
S21400D02070040020C2791C23002A0ED0C28D92B252
S21400D030173B002A09D10368DA69002AFCD1198552
S21400D04002211A7E0A42FCD0002318007047C04610
S21400D05082791C23002A30D0828D92B2173B002A98
S21400D0602BD10268107E400727D5D369002BFCD150
S21400D070538BDBB298061DD0980703D50223538343
S21400D08018331AE0580703D5042353831A3314E0E1
S21400D090D80703D50123538312330EE0D80603D5F1
S21400D0A010235383323308E09B0603D52023538393
S21400D0B0213302E0138D0B80002318007047C04612
S21400D0C0F8B504000D00160007680F4B9847A38DAF
S21400D0D09BB2002B03D00D4B9847052013E0A68586
S21400D0E00A4B9847656205223223E2542E3BBB75F5
S21400D0F0237A002B01D02023BB75637A0020002BF7
S21400D10001D00823BB75F8BD69BD0000A9BD0000AD
S21400D110931C9B00C3185960302101239340425C46
S21400D120134343547047C04610B50122014B98473D
S21400D13010BDC046C1D00000F8B58000604BC55891
S21400D1402C68E369002BFCD1237EA67D1E4030238D
S21400D150EB5C3122AF5C1F40F30722D5EB8D9BB210
S21400D160002B1CD0AA6A1378DBB2511CA96269791D
S21400D170012901D09BB204E0517809020B43023228
S21400D180AA62DB05DB0D2385EB8D013B9BB2EB85AD
S21400D190002B06D1013323750133A37501E001236B
S21400D1A02375B30709D50223237500223133EA54C9
S21400D1B0FB0702D52800EB689847730760D5AB8D50
S21400D1C09BB2002B5AD0638BDBB21A0702D43F22E5
S21400D1D0134001E037221340002B2DD09A0705D5C7
S21400D1E01A223223EA54303B63831FE05A0705D5E0
S21400D1F01E223223EA542E3B638317E0DA0705D556
S21400D20013223223EA54313B63830FE0DA0605D556
S21400D21042223223EA54223B638307E020221A424A
S21400D22004D021323223EA54123B63837B0727D58E
S21400D23028006B69984723E0238DDB05DB0DDAB207
S21400D240696A0A706A6A511C69626979012904D19F
S21400D2501B0A53706B6A01336B62AB8D013B9BB24A
S21400D260AB85002B0CD10433237500222E33EA54F1
S21400D270BB0705D528002B69984701E004232375D2
S21400D280F30607D5102323752376FB0602D5280060
S21400D290EB699847B30607D52023237523763B070B
S21400D2A002D52800AB699847330707D508232375AE
S21400D2B02376BB0602D52B6A28009847F8BDC046E1
S21400D2C07004002010B5082803D880001B4B1B589C
S21400D2D09F46002030E01A4B18692DE0194B1B6A58
S21400D2E09B059B0F1848D84026E0154B586923E04D
S21400D2F0134B1B68022018401ED012491022CB6820
S21400D3001A42FCD00E4B1B685B0714D500200F4B4F
S21400D31098470B4B9B681B041B0C58430CE0502390
S21400D320084AD35C00205B0706D5054BD86803E0A7
S21400D3308020000200E0064810BDC046083E0100FE
S21400D340E40000200008004000127A0049D90000DE
S21400D350006CDC0270B50C4C236A01788578427844
S21400D3600120024092014026B343134302002A40A4
S21400D370D2017F308343134303220A40120203493B
S21400D3800B401343236270BD00080040FFFCFFFF04
S21400D390F0B55F4656464D464446F0B483B02E4E32
S21400D3A0B38A9C46457803785A425A419146837818
S21400D3B09B46C37802799046477B027B0192847B2A
S21400D3C082682648426101204A469200914604221D
S21400D3D09246624651468A4394464A4661460A4306
S21400D3E0944642460240D200904608229146624643
S21400D3F049468A439446424661460A439446034059
S21400D4001B0110229046624641468A431343594602
S21400D41001404901202293430B43019A02409201A6
S21400D42040218B4313430740FF01802293433B4335
S21400D430793A15402D020A4F3B402B430440200307
S21400D440084C1C400443B48203B03CBC904699464A
S21400D450A246AB46F0BDC04600080040E4000020EF
S21400D460FFF8FFFFFFEFFFFF10B5037A9B061A0CCD
S21400D47043899B059B0D1343194C63608179C379DF
S21400D48019434388828813430B434278D2011343DF
S21400D49023600378042B0FD1037B9B06028A134379
S21400D4A01900C3891B040F4A13400B43A36021686D
S21400D4B004230B43236011E0202B0FD1037B9B0634
S21400D4C0028A13431900C3891B04064A13400B4300
S21400D4D0034A9360136804490B43136010BDC046AB
S21400D4E0E40000200000FF0324040000082803D8FE
S21400D4F08000254B1B589F46172044E0234A116A9C
S21400D50002230B43136200203DE0204A9169022368
S21400D5100B439361002036E01C4A118A02230B431A
S21400D520138200202FE0194A918A02230B4393822C
S21400D530002028E016490B68022213430B60134BA9
S21400D5409A8419000E32CB681A42FCD0104A9168B1
S21400D5500E4BD96252689A6200229A8419001032E1
S21400D560CB681A42FCD00A4B1B689BB2074A9384CE
S21400D570002008E005494422885C022303438B54BC
S21400D580002000E0002070472C3E0100000800400C
S21400D590E4000020F0B58FB0C222D200474B9A605C
S21400D5A047494B681E2293431A3A13434B60023A8C
S21400D5B001AB1A700024434DE0B201A9A84701341C
S21400D5C0252CF9D10AA8002303708370802212024A
S21400D5D08260C37001220271037383730232427049
S21400D5E04373394B98470520384B984733490222F6
S21400D5F0CB681A42FCD0314A918A80230B4393822F
S21400D60005AB00210022598099809A71DA713F316A
S21400D61059813B3919705A702D4B1B689B0E3F2B56
S21400D62000D1203B05A803722A4B0382072303730D
S21400D6303833C381284B984704A800254570012637
S21400D64086700570254B98470620204FB847244B18
S21400D650984701AC029665702572657205232370A3
S21400D660210001201F4B984701201F4B984726702A
S21400D67021000020134B984700201C4B984707209A
S21400D680B8470E49D022CB681340D02BFBD1184A9E
S21400D6900023137253729372D37201A901224A6057
S21400D6A04B700B724B7207330B7000200D4B984774
S21400D6B000200D4B98470FB0F0BDC0460008004054
S21400D6C0004000412DD9000091D30000EDD40000A9
S21400D6D024608000B905000069D4000055D300001E
S21400D6E0F5D6000019D70000D1D70000A1D8000059
S21400D6F000040040064A916908230B439361012207
S21400D700044B1A7019000B781342FCD17047C046C0
S21400D71000040040000C004070B5060005000C78C0
S21400D720240204434B78002B02D08023DB021C43E8
S21400D7304B7A002B02D080231B031C434868012829
S21400D74018D9431E184210D1022806D902230022F7
S21400D75001325B009842FBD800E0002212023243FE
S21400D760150080235B031C4304E005023543802339
S21400D7709B021C430B7A002B02D080239B031C4386
S21400D7800F4A53785BB2002BFBDB0E4B98470E4BD1
S21400D7901E700B4A53785BB2002BFBDB084B9D6078
S21400D7A01A0053785BB2002BFBDB054A51688023D6
S21400D7B05B020B401C435460044B984770BDC04648
S21400D7C0000C004069BD0000080C0040A9BD000028
S21400D7D010B504000B4A53785BB2002BFBDB0A4BF8
S21400D7E098470A4B1C70074A53785BB2002BFBDB4A
S21400D7F0044A5368802149020B435360044B984700
S21400D80010BDC046000C004069BD0000040C00407E
S21400D810A9BD000070B504001A4A53785BB2002B0D
S21400D820FBDB194B9847194B1C70164A53785BB2B2
S21400D830002BFBDB134E7068C004C00E144B9847D9
S21400D8400500124B1C707668F602F60F114B1C7022
S21400D8500C4A53785BB2002BFBDB0A4B9C68240215
S21400D860240C0D4B9847002E07D1012C07D9210018
S21400D87028000A4B9847050001E00134E5402800DF
S21400D88070BDC046000C004069BD0000040C00409E
S21400D890C5D20000080C0040A9BD00009911010087
S21400D8A010B50400064B9847064B1C70064A518874
S21400D8B08023DB010B435380044B984710BDC046C2
