S01C0000506C616E547361725F4150504C49434154494F4E2E7372656350
S214008000C02F002019F5000015F5000015F500003A
S214008010000000000000000000000000000000005B
S21400802000000000000000000000000015F5000041
S214008030000000000000000015F5000015F5000027
S21400804015F5000015F5000015F5000015F5000003
S21400805089D0000015F5000015F5000015F50000A4
S21400806015F500008DD800009DD80000ADD80000A2
S214008070BDD80000CDD80000DDD80000E5F4000033
S214008080F5F4000005F5000015F5000015F50000F4
S21400809015F50000000000000000000015F50000C7
S2140080A015F5000015F5000015F5000015F50000A3
S2140080B00000000010B5064C2378002B07D1054BB6
S2140080C0002B02D0044800E000BF0123237010BD3F
S2140080D0F001002000000000404A0100084B10B5E7
S2140080E0002B03D00749084800E000BF0748036894
S2140080F0002B00D110BD064B002BFBD09847F9E7AC
S21400810000000000F4010020404A0100404A01003F
S21400811000000000F8B504004120235C01252B4335
S214008120235492B2002020560023124DA847002860
S21400813016DB4123E35CDB0718D5E36E0020022B39
S21400814017D90D4F0D4E41250020B847606DB0473A
S214008150635DDB070CD5E36E022BF5D8002008E044
S2140081604122A35C01218B43A35402E0002000E0DF
S2140081700020F8BD7DCB0000DDAD0000D1920000F0
S2140081805023038000238370054A02814360C36046
S2140081900133FF330361AE3B4361024B836170479B
S2140081A0204E00008430010070B504000D00002849
S2140081B038D0002939D00B69002B39D04B68002BFA
S2140081C039D04B69512B39D9E82200211E4B9847EC
S2140081D0200050301C2229001C4B9847E36D002BD2
S2140081E008D02B89002B11D10023E366D822A35098
S2140081F0002070BD2869164B9847E065002820D0FF
S2140082004122A35C04210B43A354EAE768680023D9
S21400821022001049104DA847A0640028E4DA1C206C
S2140082204042E6E716204042E3E716204042E0E7F9
S21400823016204042DDE716204042DAE7162040428C
S214008240D7E70C204042D4E7DF170100A91701004A
S214008250811701006D8300004D920000002802D0B7
S214008260C1640020704716204042FBE7F0B585B099
S21400827004000E00C023C358002B02D0C42280582E
S21400828098472000B03018220021174B9847E36E1D
S214008290002B24D10023E3569B000025134A9D5053
S2140082A020006C306C2200210F4FB8472000D830D9
S2140082B010220021B847E566D823E5504122A35C8A
S2140082C001218B4301318B43A3540196E36C002BB1
S2140082D003D001AA02312000984705B0F0BD002067
S2140082E02056034B9847D5E7DF1701000C02002005
S2140082F0A9CC0000F0B587B000900191174C26007D
S2140083001C36174F15E0022302AA13804E33EB5A91
S2140083101A021B0A134302AA5380019B03930020F0
S2140083202856102202A90F4B984715E00434B44291
S21400833012D02568002DF9D0691C0098B84700288F
S214008340F4D1EB6E012BF1D1019B002BDBD1762112
S21400835049422800044B984707B0F0BD0C020020A5
S214008360451C0100EDCA00006D82000010B5002A11
S21400837004D03E2149421000014B984710BDC0462C
S2140083806D820000F0B5DE46574680B595B002AF68
S2140083900400EB461022B249102308203818C018F3
S2140083A0B04B9847626ED31DDB08DB006946CB1ADC
S2140083B09D4602AE002C00D1F1E14123E35CDB07D1
S2140083C000D5ECE1E36E032B04D0042B00D120E1B2
S2140083D0DD46E5E10023CC21635004316350009470
S2140083E0A14B31002C200825AC46BC4460449F4D70
S2140083F0A847C823E35C012B00D1A9E0022B00D1DB
S214008400AFE0032B00D1B5E0042B00D1BBE0052B79
S21400841000D1C1E0062B00D1C7E02500703528004A
S214008420934B9A469847020029002C2308203818B8
S214008430C018904DA8470B228F492C2308203818C7
S214008440C018A8470C228D492C2308203818C018BD
S214008450A847A36E7B601800D047020079682C23DB
S21400846008203818C018A847022285492C2308205F
S2140084703818C018A847062282492C230820381826
S214008480C018A847631C7B601800D04702007968B4
S2140084902C2308203818C018A847022278492C2315
S2140084A008203818C018A847182277492C23082017
S2140084B03818C018A847132274492C2308203818E7
S2140084C0C018A847172272492C2308203818C0184D
S2140084D0A8472300B033DB68002B7BD0B023E35CD7
S2140084E0002B6BD12300B0339B68002B72D0220088
S2140084F0B03250699847CC23E050002800DAACE050
S21400850002006449202308203818C018624B984798
S214008510102262492C2308203818C018554DA84749
S21400852020230822BA18D018514B9847020020235F
S21400853008217918C9180C3308203818C018A8471D
S21400854002224F492C2308203818C018A84741E0BB
S214008550042253492B3308203818C018454B984737
S2140085605BE705224F492A3308203818C018414BCC
S214008570984752E707224C49293308203818C01874
S2140085803C4B984749E704224849283308203818C6
S214008590C018384B984740E708224549273308203B
S2140085A03818C018334B984737E705224149263319
S2140085B008203818C0182F4B98472EE70122524241
S2140085C0CC23E2501D323C49A03B08203818C01886
S2140085D0284B9847D423E558002D0AD02800244B72
S2140085E09847020029002C2308203818C018214B71
S2140085F09847022222492C2308203818C0181D4B01
S21400860098472C230822BA18D0182C4B98470423D6
S214008610E366CC23E258002A52DB00DCF1E02300BC
S214008620B033DD68002D00D1EBE0D023E3589A424A
S21400863000DDBBE0C023E358002B02D0C422A058C4
S21400864098470223E366E36C002B00D1C0E60C22B9
S214008650BA18012120009847BAE60022E250B9E78E
S2140086606C2F0100A917010015810000E1900000A1
S214008670A31C01004D910000E02F0100EC2F01002B
S214008680FC430100FC2F01000430010020300100F3
S214008690343001006C300100011C01007030010014
S2140086A0AC2F0100B42F0100BC2F0100C42F010025
S2140086B0CC2F0100D82F01004C300100F1900000B3
S2140086C02300B033DD68002D00D19AE0D023E358B4
S2140086D0626E073A711D2000B0304069A847050059
S2140086E0C343DB171D400A2232710D21F170731946
S2140086F059719A710F232B40063205398C46BC44BB
S2140087006244D35CB370B11C0F2D0DDD711CEB17EA
S2140087100F2213405B191B111340013208208446B8
S214008720BC446244D35C7370FF2D0DDDEA17FF2353
S21400873013405B191B051B0F102208218C46BC44F6
S2140087406244D35C33703100CA1C921B2B1DD218B6
S21400875092B2002020560023304EB047002819DB86
S214008760D022A3585B19A350002D00D030E6C023BA
S214008770E358002B02D00C3AA05898470223E36631
S214008780E36C002B00D123E60C22BA18012120004E
S21400879098471DE6052149422000214B9847DD46B3
S2140087A0BD4613B00CBC92469B46F0BD2200B032CC
S2140087B05069626E3100A847002816DBCC23E558C6
S2140087C00433E358ED1A854200DD0500AAB2002006
S2140087D0205600233100114EB04700280BDBD02373
S2140087E0E25894466544E550F2E5052149422000EA
S2140087F00B4B9847ECE5052149422000084B98476B
S214008800CDE70223E366E36C002B00D1E0E50C2203
S214008810BA18012120009847DAE5C0467DCB000053
S2140088206D820000F0B5D64600B588B004000F0093
S21400883092460393002800D1D3E0C36E022B00D9E2
S214008840D3E0072281493800814B98470726002845
S21400885007D008227F4938007D4B9847464246415C
S214008860F600631CBD19029318007B4B9847020064
S21400887029000298764B984701902B78002B52D00F
S2140088802F2B52D0711C791800220132A3540D00F0
S2140088900B78002B02D001312F2BF6D1A218002323
S2140088A053706378002B00D1A3E028006A4B9847EA
S2140088B03F2800D9A1E0D423E058002801D0674B18
S2140088C098470E9B002B32D01800654B9847D42350
S2140088D0E050002800D194E04122A35C01218B43A4
S2140088E0A354002363642B782F2B24D02F227023CD
S2140088F0E2542B78002B24D1039B002B27D020009A
S214008900B03018221900574B9847C8235246E254F5
S214008910E36E012B22D0002B27D0022B3AD00B235C
S2140089205B4201938DE00022B8E70022B6E7002202
S214008930D423E250D0E72000703029004A4B9847F5
S214008940DAE7290020007130474B9847D4E720002B
S214008950B03018220021454B9847D6E7019B002BE4
S2140089606FD000212000424B98475223E25C531EF2
S2140089709A41D2B2012102203E4B9847207000282F
S21400898043DB80003C4BC450029D00212026012082
S21400899030270CE0019B002BE3D10333E366200075
S2140089A0364B98474DE0002901D012E001002A78A6
S2140089B0002A2ED001351300B343413B052BF5D9D1
S2140089C03A2A0AD02F2A0AD02E2AECD03A40302A49
S2140089D0EDD002982A4B98472FE00100E7E7010008
S2140089E0E5E716235B4201932BE010235B420193DD
S2140089F027E016235B42019323E05B235B4201934F
S214008A001FE00C235B4201931BE01C235B42019397
S214008A1017E0022304AA13804E33E35A1A021B0AF5
S214008A20134304AA53800298164B984705900020DB
S214008A302056102204A9144B98470123E36600230E
S214008A400193019808B004BC9246F0BD9030010036
S214008A50B11C010098300100A31C0100951701000D
S214008A60691C0100A9170100591C0100DF1701004D
S214008A706D82000069C900000C020020858300009A
S214008A80B1CD000045CD0000EDCA000010B50028AD
S214008A900DD0416C026E91420AD2521A92B2C36D48
S214008AA09C466144007840B20023044CA04710BDA9
S214008AB08B214942024B9847F9E7C04615CC000087
S214008AC06D82000070B50500C06D6B6C5C1A0419F1
S214008AD0002C02DC00236B6470BD2200014B98471B
S214008AE06C64F9E7BB170100F0B5CE4600B584B05C
S214008AF00700C46D624B994649E021003800614B7F
S214008B0098470026300004B004BC9146F0BDA11C76
S214008B1038005C4B9847FB6C002B0AD0E422B95A0D
S214008B20002906D0083AB858002807DB3A6E90426B
S214008B3010DC0122D823FA500126E3E701AA1180AF
S214008B40012191700021E0203950916002313800F7
S214008B509847EEE701AA1180506000219160E0205E
S214008B603950023138009847E3E720001030464B72
S214008B709847DC23F85009E00132954206D0137876
S214008B80202B2BD1F8E7213A8933FA50AC1C3F4909
S214008B902000C847051EB0D0FB6D7A6C944663442F
S214008BA09842AAD2022239492000394B9847002819
S214008BB0ADD0102237492000354B98470028D4D036
S214008BC0132235492000324B9847061E10D122004A
S214008BD013329542DAD9E37C202BCDD02022934362
S214008BE0432BD0D08621494238002C4B984789E742
S214008BF00C222B492000264B984700281DD1220026
S214008C000C329542C2D9237B202B09D020229343D5
S214008C104B2B0CD04122BB5C02218B43BB54B5E7E7
S214008C2001329542B2D01378202BEFD1F8E72132EB
S214008C30BB5C02210B43BB54A8E705221949200060
S214008C40134B98470028A1D1200009300E4B9847B7
S214008C50E423F8520022083BFA506379312B02D8FD
S214008C60E379302B05D94122BB5C02210B43BB5470
S214008C708CE74122BB5C02218B43BB5486E7C0468F
S214008C80D31C0100C58A00002D170100FC4301001B
S214008C90B11C010070300100802F01006D820000C1
S214008CA0942F0100A42F0100F0B5CE4600B586B083
S214008CB00400C56DDC23C358002B69DB026E9342AB
S214008CC02BDC0020626C93424EDCE66C002E03D058
S214008CD0E422A15A00290ED10023D822A3500C3238
S214008CE0A3524133E35C9B070FD400212000714B55
S214008CF09847002038E003AA118000219170536045
S214008D00956002312000B047E6E7DC23E158691899
S214008D102000694B9847606C26E0426C03920495ED
S214008D20E0214058844662446250934220DC00238F
S214008D30D822A3500C32A352E33A03AB1A72E36C68
S214008D40002B07D003AE3200032120009847337A69
S214008D50012B03D14123E35C9B0710D5636CE91814
S214008D602000554B9847002006B004BC9146F0BD45
S214008D70002203AB1A72E36C002BEFD0E2E74F48F9
S214008D804F4B9847002120004A4B98470020EBE7BE
S214008D90476C00239946E0260AE04123E35C9B07E4
S214008DA01BD5A91C2000444B9847636C002B73D03E
S214008DB0A359002B30DB16D1D822A3500C32A35275
S214008DC0E33A69460A7200930193E36C002BE4D001
S214008DD06A46032120009847DFE700212000354B34
S214008DE098470020C0E7BB42DFDC009301950023D4
S214008DF06A461372E36C002B02D0032120009847CA
S214008E00A359991C691820002B4B9847676CE56D91
S214008E1001235B42A351C8E70023A351002F04DDC2
S214008E202B780A2B1CD10135013FA359226E9342A1
S214008E3039DC002FB9D101225242E023E250D0E7BC
S214008E401A00613A052A18D8A2591201D318613BB4
S214008E50A3510135013F002F20D02B780A2BE2D0FA
S214008E604A46002AF5D11A00303A092AE8D8A2590B
S214008E701201D318303BA351EBE71A00413A052AFA
S214008E8005D8A2591201D318413BA351E1E73B3B59
S214008E905A425A419146DCE7002065E7E023E35852
S214008EA0226E9342C7DD8B2149422000014B984732
S214008EB097E7C0466D820000C58A00007C2F01003F
S214008EC05D1A010010B5D823C358002B03D0012B20
S214008ED004D0002001E0034B984710BD024B984792
S214008EE0FBE7C046E98A0000A98C000070B50400C4
S214008EF0436C9C46614441645823C35A002B05D1F9
S214008F00054D2000A8470028FBD170BD816C406D40
S214008F10024B9847F4E7C046C58E0000C192000099
S214008F2010B584B08000654BC458002C06D00629C6
S214008F3051D0072900D18AE0052901D004B010BD20
S214008F400123D3561A1E019315DBE36C002B03D0C6
S214008F5001AA0021200098470323E3665533E25A0E
S214008F60A16C606D564B98472000564B98472000E2
S214008F70554B9847E2E70E33D9B20E291ED88B0020
S214008F805249CB589F46022149421DE07021494272
S214008F901AE00C21494217E01621494214E00C2140
S214008FA0494211E0792149420EE0682149420BE02E
S214008FB00B21494208E01021494205E0002A07DB60
S214008FC0002101E0052149422000414B9847B5E7C2
S214008FD005214942F8E70423D15E002906DD20007A
S214008FE03C4B98472000374B9847A7E70B000E33BB
S214008FF09AB20E2A1ED89300374AD3589F460221AB
S21400900049421DE0702149421AE00C21494217E00E
S2140090101621494214E00C21494211E079214942C7
S2140090200EE0682149420BE00B21494208E010217E
S214009030494205E0002907DB002101E005214942FD
S2140090402000234B9847CDE705214942F8E7002347
S214009050D35E002B08DB20001B4B98474122A35C05
S21400906001218B43A35469E70E339AB20D2A1ED80A
S21400907093001A4AD3589F460221494219E07021AC
S214009080494216E00C21494213E01621494210E0FD
S2140090900C2149420DE0792149420AE06821494203
S2140090A007E00B21494204E01021494201E0052176
S2140090B049422000064B9847D0E7C0460C020020E5
S2140090C0959200008D8A000085830000BC2E01006A
S2140090D06D820000ED8E0000F82E0100342F010096
S2140090E002600161002242608360009BC36070479B
S2140090F010B504004268002A00D110BD0169C0689E
S214009100A368984700236360F7E7000070B5040083
S2140091100D00036842689B1A002B05DD2269636810
S214009120591C6160D55470BD014B9847F6E7C046A0
S214009130F190000070B506000C000912024DA84719
S21400914061B23000A84770BD0D910000F8B506006A
S2140091500C00002A08D08D18044F002161563000FC
S214009160B8470134A542F8D1F8BDC0460D910000BD
S214009170024A1368013313607047C0462802002075
S214009180642343800023037043707047F0B5C646DF
S21400919000B5ACB00D006E461D4B6A4692CB92C22F
S2140091A06B884365143004002B789B009959170090
S2140091B01000184B98470020174B9847174B1B7A00
S2140091C0DBB2D84080466988FA200002144B9847E4
S2140091D001004046134B984778600523FB722B78B6
S2140091E09B0099593A0020000F4B98476A7808323E
S2140091F0D2B20E4920000E4B984769780831C9B2A2
S21400920020000C4B98472CB004BC9046F0BDC046DE
S214009210A4300100E9EE000045EC00000004004028
S21400922001150100ED13010035F0000071910000FA
S21400923041F4000059F40000426902219368194283
S214009240FCD1136802210B431360704770B504000D
S2140092500578E80702D50120404270BD616029000C
S214009260022081432170A260616D1800044B98476C
S214009270E06023780122134323700020EDE7C04608
S214009280ED1301008B00591889000B5C01229343F3
S2140092900B54704770B58B005D18AD00295C022634
S2140092A0314329544419416D1000034B9847034B32
S2140092B01B68C018206170BDED1301002802002055
S2140092C08B00591889000B5C022293430B5470479D
S2140092D070B504000378DB0707D503789B0704D531
S2140092E0114B1B680269D31A00D470BD03785B0764
S2140092F0FBD40378042213430370C36882680021FA
S2140093004568A847E368002B08D0074A1268D318B8
S21400931023612378042293432370E6E7237802220E
S21400932093432370F5E7C0462802002070470000EC
S21400933030B585B004000023039305682F4B98478B
S2140093402B79002B56D101332B712D4B98479F223A
S21400935001AB1A706279D1090023002904D15309A0
S214009360DB0128498C4663441F21114001228A40B4
S2140093705A61012201A92068234B98470023032243
S21400938003A92068214DA8476279D1090023002946
S21400939004D15309DB011B498C4663441F2111404D
S2140093A001228A409A610023226813712379092BCF
S2140093B015D89B00164AD3589F46164B12E0164BFC
S2140093C010E0164B0EE0164B0CE0164B0AE0164B60
S2140093D008E0164B06E0164B04E0164B02E00023AE
S2140093E000E0154B039A9A4202D0142005B030BD17
S2140093F00020FBE7024B98470520F7E7ADCF0000BB
S214009400EDCF00000044004111DD000001DB00004C
S214009410B03001001F4300001F4401001F4502003A
S2140094201F4501001F4602001F4603001F8600005E
S2140094301F4701001F4800001F650000F0B5DE460C
S21400944057464E464546E0B585B005000E000192EB
S2140094501F005A180379092B15D89B00AE49CB5824
S2140094609F468023DB0212E080231B030FE080234D
S2140094705B030CE080239B0309E08023DB0306E00C
S21400948080231B0403E0002301E080235B021720F7
S2140094909A4206D905B03CBC90469946A246AB46D1
S2140094A0F0BD2C689D4B98472379002B00D02EE109
S2140094B0013323719A4B9847062302AA13706A79E0
S2140094C0D1090023002904D15309DB0195498C46B4
S2140094D063441F21114001228A405A61012202A9D9
S2140094E02868914B98476A79D1090023002904D14E
S2140094F05309DB018B498C4663441F21114001222E
S2140095008A409A61FF22324080235B009B1A1A1C15
S2140095109BB2BB4200D93A1C93B29A46022302AAD7
S2140095201370D670330A9370330C53706A79D1096E
S2140095300023002904D15309DB017A498C46634491
S2140095401F21114001228A405A61042202A928687C
S214009550754B98475346002B45D16A79D1090023AD
S214009560002904D15309DB016E498C4663441F2150
S214009570114001228A409A612B68196801220B7EED
S2140095801342FCD06A79D1090023002904D153097B
S214009590DB0164498C4663441F21114001228A4046
S2140095A05A612B681B681A7ED20701D505229A627B
S2140095B0286802680421137E0B42FCD0137E002428
S2140095C05B0709D5538B5B0701D504235383837947
S2140095D0012B0ED0946AE4B20121002398460420A1
S2140095E0B4462E0010E05246019928684E4B984724
S2140095F0B3E7936ADB05DC0DEEE7AB79012B1AD0F7
S214009600946AE4B221421AD033681A68137E0B4279
S214009610FCD0137E0B4201D04346936235682A681D
S214009620137E0342FCD0137E0342EBD0538B0342DF
S214009630E3D05083E1E7946AE405E40DE2E7350001
S21400964066466A79D1090023002904D15309DB0153
S21400965034498C4663441F21114001228A409A6196
S2140096601020A3064FD45346FF1ABBB21900019A26
S21400967091460020002B46D01F239B4601242A4BF0
S2140096809846534601938A4658E01A004946286889
S214009690254B9847A4E0906AC005C00DE1E0BB7971
S2140096A0012B1AD0906AC0B204421AD02B681A68EE
S2140096B0137E2342FCD0137E234201D00023936204
S2140096C02F683A68137E0B42FCD0137E0B42EBD019
S2140096D0538B0B42E3D05183E1E7906AC005C00D7F
S2140096E0E2E76B79D9090022002904D15A09D20190
S2140096F00C498C46624459460B40210099409161C2
S214009700830613D510202B6800221A71C2E6044B7C
S21400971098470520BEE6C046DC300100ADCF00000D
S214009720EDCF00000044004111DD00005346019AD1
S2140097309B1A9BB29A46002B00D194E002AB0622FD
S2140097401A706B79D9090022002904D15A09D2016E
S21400975046498C46624459460B4021009940516167
S214009760220002A92868C0476B79D909002200297F
S21400977004D15A09D2013D498C46624459460B40F1
S214009780210099409161019A94466644E144574607
S21400979080235B009A4501D9354B1F88BBB20193E5
S2140097A0022302AA1370D670330A9370330C5370D8
S2140097B06B79D9090022002904D15A09D2012B4914
S2140097C08C46624459460B40210099405161042260
S2140097D002A92868274B9847019B002B00D054E726
S2140097E06B79D9090022002904D15A09D2011F49F0
S2140097F08C46624459460B402100994091612B6883
S2140098001A68137E2342FCD06B79D90900220029FE
S21400981004D15A09D20115498C46624459460B4078
S2140098202100994051612B681B681A7E224201D0A4
S21400983005229A622B689C461A680421137E0B4206
S214009840FCD0137E00205B070BD5538B5B0701D53E
S2140098500423538363469B79012B00D11BE7906A50
S214009860C0B2042122E700204DE7C0460044004174
S214009870D830010011DD0000F0B583B004000E0002
S21400988015000379092B00D9F2E09B007B4AD358D8
S2140098909F468023DB0210E080231B030DE080231D
S2140098A05B030AE080239B0307E08023DB0304E0DE
S2140098B080231B0401E080235B021720B34201D8FB
S2140098C003B0F0BD27686E4B98473B79002B00D05D
S2140098D0D0E001333B716B4B984706236A46137002
S2140098E06279D1090023002904D15309DB016649B6
S2140098F08C4663441F21114001228A405A6101228E
S21400990069462068614B98476279D109002300298F
S21400991004D15309DB015C498C4663441F21114086
S21400992001228A409A61012D06D0002D63D0D823EB
S214009930022D02D0002300E052236A461370D67030
S214009940330A9370360C56706279D10900230029C9
S21400995004D15309DB014C498C4663441F21114056
S21400996001228A405A61042269462068474B98477C
S2140099706279D1090023002904D15309DB01424949
S2140099808C4663441F21114001228A409A61236855
S214009990196801220B7E1342FCD06279D10900239C
S2140099A0002904D15309DB0137498C4663441F2143
S2140099B0114001228A405A6123681B681A7ED2072A
S2140099C001D505229A62206802680421137E0B42A4
S2140099D0FCD0137E00255B0709D5538B5B0701D5AA
S2140099E0042353838379012B07D0956AEDB20121B6
S2140099F0002704200CE020239FE7956AED05ED0D77
S214009A00F5E7B379012B19D0956AEDB2294219D042
S214009A1023681A68137E0B42FCD0137E0B4200D0DC
S214009A20976226683268137E0342FCD0137E034298
S214009A30ECD0538B0342E4D05083E2E7956AED0501
S214009A40ED0DE3E76279D1090023002904D153091B
S214009A50DB010D498C4663441F21114001228A40D8
S214009A609A61A806C00F0001236800221A7127E732
S214009A70172025E7034B9847052021E7043101000E
S214009A80ADCF0000EDCF00000044004111DD000026
S214009A9070B582B004000D000668354B98473379E0
S214009AA0002B60D101333371324B984706236A4648
S214009AB013706279D1090023002904D15309DB0110
S214009AC02D498C4663441F21114001228A405A6169
S214009AD0012269462068294B98476279D1090023FC
S214009AE0002904D15309DB0123498C4663441F2116
S214009AF0114001228A409A613C236A1E95416D42BC
S214009B002B406A46D37101236A4613706279D109E5
S214009B100023002904D15309DB0117498C4663440E
S214009B201F21114001228A405A610122694620689D
S214009B30124DA84701226B46D91D2068A8476279B6
S214009B40D1090023002904D15309DB010A498C46B8
S214009B5063441F21114001228A409A612368002233
S214009B601A71002002E0034B9847052002B070BD32
S214009B70ADCF0000EDCF00000044004111DD000035
S214009B8030B583B0040005681C4B98472B79002B32
S214009B902ED101332B711A4B9847B9236A4613709E
S214009BA06279D1090023002904D15309DB01154944
S214009BB08C4663441F21114001228A405A610122CB
S214009BC069462068104B98476279D109002300291E
S214009BD004D15309DB010B498C4663441F21114015
S214009BE001228A409A61236800221A71002002E04E
S214009BF0034B9847052003B030BDC046ADCF0000EC
S214009C00EDCF00000044004111DD000030B583B008
S214009C10040005681C4B98472B79002B2ED1013386
S214009C202B711A4B9847AB236A4613706279D10999
S214009C300023002904D15309DB0115498C466344EF
S214009C401F21114001228A405A610122694620687C
S214009C50104B98476279D1090023002904D1530993
S214009C60DB010B498C4663441F21114001228A40C8
S214009C709A61236800221A71002002E0034B98477D
S214009C80052003B030BDC046ADCF0000EDCF0000CC
S214009C900044004111DD000070B50020084B9847D5
S214009CA00500084CFA218900A047074B18600749B1
S214009CB02800A047064B18600522064B1A6070BDA8
S214009CC045EC0000ED1301000000002040420F00AC
S214009CD00400002010E000E030B5084B1C68084A7D
S214009CE0002580214902013807D3002CFBD05460A0
S214009CF0956013680B42FCD0F5E730BD00000020ED
S214009D0010E000E010B5034B1B68002B00D098470E
S214009D1010BDC0462C02002070B5441E002804D09A
S214009D20024D0120A847013CFBD270BDD99C000023
S214009D3070B5074C0125656165616420054EB04726
S214009D40A5616420B047A5616420B04770BDC046D9
S214009D5000440041199D000070B582B00023144AEB
S214009D60136001AC01256570A370257021000020EA
S214009D70104EB04721000020B04721000020B04719
S214009D800D4B5D615D610D4B1B681D4203D00B4B97
S214009D901B689B0701D40A4B98470A4B9847012239
S214009DA0094B1A70BFF35F8F62B6002002B070BD19
S214009DB02C02002085D400000044004110E000E0A2
S214009DC0999C0000319D00000A00002010B584B068
S214009DD00D4B186001AC20000C4B984700230193F4
S214009DE06360013323720133E37221000020084BC5
S214009DF09847002200210748074B9847002100207B
S214009E00064B984704B010BD2C02002061D100001C
S214009E1075D10000059D00001DD0000049D000004F
S214009E2010B5002804D100210020044B984710BD2F
S214009E3000210020024B9847F9E7C04669D0000091
S214009E4049D0000030B591B02C4C002323706370CD
S214009E50A37001A901224A708B700A700020284B5B
S214009E6098472278D1090023002904D15309DB0141
S214009E7024498C4663441F2111400122100088406B
S214009E80986102AC227000250395049525746574CC
S214009E90A274E27425752423E5540B32002108A829
S214009EA0194B9847A562E56225636563E560174B25
S214009EB0A361220000211648164B984700281AD1A5
S214009EC0134D2C682000144B98471F2318401E3B48
S214009ED08340124A13602A68D369002BFCD123689A
S214009EE00222134323600E4B984701200D4B9847E0
S214009EF0002011B030BD06204042FAE7F8030020EB
S214009F0085D4000000440041DF170100001BB700A5
S214009F10FC030020EDD800005DD8000000E100E062
S214009F20319D0000199D0000F0B5DE4657464E46AE
S214009F304546E0B583B0032800D075E00E684D684E
S214009F400C8900226B46DA71002D27D0002C65D0D4
S214009F50002E00D177E00023984600239B4601227E
S214009F603B493C483C4B98473A4B9A4601270422CB
S214009F70994659464B4259418B46307853461B68A2
S214009F80197E3942FCD0197E3942FCD09862197E7F
S214009F901142FCD0494689798C4611E0002E3AD011
S214009FA0002C3ED00023984601339B466B46DD1DB1
S214009FB0D5E7604601280DD0986AC0B200290DD0BA
S214009FC0197E1142FCD0588B00211042F1D05A83E2
S214009FD01E31EEE7986AC005C00DEFE72870013C19
S214009FE0A4B25D44434659424B41F618002CC4D1F6
S214009FF0184B196802220B7E1342FCD0002214492B
S21400A0001448154B9847002003B03CBC9046994630
S21400A010A246AB46F0BD0F204042F5E70F20404277
S21400A020F2E70F204042EFE70E22FF320B490C48C2
S21400A0300C4B98470C480D4B98470D200C4B9847F7
S21400A04001204042E0E7012398466B46DE1D84E788
S21400A050F8030020FC0300201DDC00002C3101006A
S21400A0603C31010041190100503101005D1A010028
S21400A0707519010030B583B001AB00221A709A70D2
S21400A0805A70134D2C682000124B98471F23184017
S21400A0901E3B8340802210498B502A68D369002BD0
S21400A0A0FCD18F33237523762368022293432360E3
S21400A0B001A90020094CA04701A90020A04701A93A
S21400A0C00020A04701A90020A047002003B030BD13
S21400A0D0FC0300205DD8000000E100E085D400000D
S21400A0E0002A06D082180B780370013001319042A6
S21400A0F0F9D17047002A04D08218017001309042CE
S21400A100FBD1704703000278002A07D000200130F8
S21400A11080B201331A78002AF9D170470020FCE794
S21400A120024AD3780133DBB2D3707047380400207C
S21400A1307047000000B583B000220A4B9A700120D9
S21400A140094B984701A90948094B9847002801D0B0
S21400A15003B000BD0221019B194301910348054B42
S21400A1609847F5E738040020219E00007010000094
S21400A1707DB5000089B5000010B50C4B9B7800201B
S21400A180002B0DD1094B5B78002B03D1074B1B78B6
S21400A190002B06D1054A53780133DBB253700020FA
S21400A1A010BD034B98470028F4D0F9E73804002088
S21400A1B065B20000054B5B78002B04D0034A537849
S21400A1C0013BDBB2537000207047C04638040020C5
S21400A1D010B50B4B5B78002B04D0094A5378013B33
S21400A1E0DBB25370064B5B780020002B03D1044B88
S21400A1F01B78002B00D110BD024B9847FBE7C046EA
S21400A20038040020FDB1000010B5054B9847040047
S21400A210282200210348044B9847200010BDC04662
S21400A22079A1000038040020F5A00000F0B5DE4655
S21400A230574680B589B083468A460192009310AB94
S21400A24080CB1E8812AB1D887F220A4007AB5A704F
S21400A250187008225A80002F3DD05A889219AA18E2
S21400A26092B25A80694B9847041E00D0C1E0002382
S21400A270059302AAD3800493049B5A461A43049279
S21400A280049A53461B021343049307AB5B88049A55
S21400A2901B041343049304995D485E4B9847041EC1
S21400A2A057D100230493049B02221343049304997A
S21400A2B05948584B9847041E4BD10022059202ABD2
S21400A2C0DA8006331B889BB2544A934249D8544CD2
S21400A2D0544B9A4617E007AB5A8800998C4662445E
S21400A2E092B25A80BEE70120D047049B9B0728D530
S21400A2F002ABDA88013292B2DA8006331B889BB250
S21400A300464A93422DD804A94348A047002828D19E
S21400A31002AB06331B889BB2F422FF329342E4D989
S21400A32002AB06331B889BB201329342DBD83E4811
S21400A3303E4B98473E483F4B98470D203E4B98472C
S21400A340D1E705A93D48364B9847041E09D000239F
S21400A35005933B4B9847200009B00CBC92469B46A1
S21400A360F0BD059B002B3FD0059B069307A94B88A5
S21400A3709BB24B8006980822324B9847041EE8D1C1
S21400A380069B08330693019B002B0BD00698009A79
S21400A39019002C4B9847041EDBD1069B009A944666
S21400A3A063440693002F0ED0069B009AAD1AED1854
S21400A3B00695069832003900224B9847041EC8D1ED
S21400A3C0069BF3180693059B9B000493049B0222AE
S21400A3D01343049304991C480E4B9847041EB8D1A7
S21400A3E01A4B98470400B6E7184B98470324644274
S21400A3F0B1E7CB225200164916480C4B9847164830
S21400A4000C4B98470D200C4B9847A4E779A1000009
S21400A4108C10000089B5000078100000E7030000EB
S21400A4207DB50000199D00006C3401004119010043
S21400A430783401005D1A010075190100000415004A
S21400A440B5A10000FDB500006C100000D1A1000011
S21400A450843101003C31010088340100F0B5CE465D
S21400A460474680B587B0CF4B9846994680E0CD4B9F
S21400A470059A5A609D6004AF042239000598CA4BBD
S21400A480984704007B889BB27B80002833D104ABBE
S21400A4905B889BB29D4204D004AB5B88EB1A042B0E
S21400A4A039DC04AB1B78012B4ED004AB1B78022B97
S21400A4B078D004AB1B78042B00D190E004AB1B785B
S21400A4C0062B00D1A8E004AB1B78072B00D1BFE019
S21400A4D004AB1B78052B00D1D6E0B44AB449B54886
S21400A4E0B54B9847B548B64B98470D20B54B98479F
S21400A4F00624644216E1D222FF32AD49AD48AE4B87
S21400A5009847B148AE4B98470D20AE4B9847012070
S21400A510AE4B984706E1ED225200A549A548A64C49
S21400A520A04704A94A8892B20B78DBB2497800911A
S21400A5302900A748A0470D20A24B98470120A34B0F
S21400A540984706246442EDE0964BDB68002B1CD04F
S21400A550944BDB6804AA5078C0B25188059A08323A
S21400A560083989B298478F4B9B78002B00D09CE027
S21400A5704346DB78002B00D158E14B46DB78013BA5
S21400A580DBB24A46D370934ED7E0F3225200884996
S21400A5908848894B98479048894B98470D20894BA7
S21400A5A09847E0E77F4B1B69002B0BD07D4B1B6960
S21400A5B004AA5078C0B25188059A0832083989B280
S21400A5C09847D0E7F722520079497A487A4B98475D
S21400A5D082487B4B98470D207A4B9847C3E7714BD0
S21400A5E05B69002B0BD06F4B5B6904AA5078C0B236
S21400A5F05188059A0832083989B29847B3E7FB2292
S21400A60052006B496B486C4B984775486C4B9847A3
S21400A6100D206C4B9847A6E7624B1B6A002B0BD0AD
S21400A620604B1B6A04AA5078C0B25188059A08325B
S21400A630083989B2984796E76A4A5D495D485E4B95
S21400A640984769485E4B98470D205E4B98478AE7C7
S21400A650544B9B69002B0BD0524B9B6904AA507835
S21400A660C0B25188059A0832083989B298477AE705
S21400A6705E4A4F494F48504B98475D48504B984765
S21400A6800D20504B98476EE7464B5B6A002B00D177
S21400A69069E7444B5B6A04AA5078C0B25188059AB1
S21400A6A00832083989B298475DE7524A404941481E
S21400A6B0414CA04704AB1978C9B25A78D2B24E487A
S21400A6C0A0470D203F4B98474C4B9847041E29D176
S21400A6D04EE78722920036493648374B9847484817
S21400A6E0374B98470D20374B98470224644219E0B1
S21400A6F0892292002E492F482F4CA04703994148A3
S21400A700A0470D202F4B98470C2464420AE03E4A8F
S21400A71027492848284B98473C48294B98470D20FE
S21400A720284B98473A4A3B492248234FB8472100CE
S21400A7303948B8470D20234B984703A93748B047F8
S21400A740041EE4D1039BDB07D2D500201F4B98479D
S21400A75001230399994303913048314B9847041ECF
S21400A760E0D101220F4B9A70039B9D042D0DB0D0B3
S21400A7700023059305A92B48164B9847041E00D1C5
S21400A78075E6C822FF320A490A480B4B9847264806
S21400A7900B4B98470D200B4B984701200B4B9847C7
S21400A7A0C0E7C0463804002095B500000F02000040
S21400A7B0903101003C31010041190100EC320100EA
S21400A7C05D1A010075190100E8310100219E0000A4
S21400A7D0003201007DB50000403201006032010009
S21400A7E084320100FF010000A432010006020000CE
S21400A7F0C8320100150200000433010035A1000034
S21400A80030330100443301002D02000060330100A4
S21400A8104A020000983101008433010070100000E5
S21400A82089B5000084100000C4310100002007B084
S21400A8300CBC90469946F0BD70B514001D0000286B
S21400A84003D0002901D0002A12D1002D02D0274BB8
S21400A850984770BD264A27492748284B98472848D6
S21400A860284B98470D20284B98470C204042F0E78D
S21400A870264B9B689A421AD8244B5B68984226D38C
S21400A8808618224A536892689B189E421FD8220058
S21400A8901F4B98470028DCD11C4A536892689B18C7
S21400A8A09E4201D0002DD4D0104B9847D1E7194ACC
S21400A8B010491148114DA847144B9A6821001648B4
S21400A8C0A8470D20104B98470C204042C1E7134A7A
S21400A8D008490948094B984711480A4B98470D20E4
S21400A8E0094B98470C204042B3E7C04635A100000C
S21400A8F06B020000A83101003C3101004119010043
S21400A900B43301005D1A01007519010038040020F7
S21400A91095B5000073020000D433010079020000F0
S21400A9201C34010070B5040007281FD88300164A9F
S21400A930D3589F46154B1961002070BD134BD96044
S21400A9400020FAE7114B59610020F6E70F4BD9615A
S21400A9500020F2E70D4B19620020EEE70B4B9961E1
S21400A9600020EAE7094B59620020E6E7084A094951
S21400A97009480A4DA84721000948A8470D20094B59
S21400A98098470C204042D8E7643101003804002084
S21400A990B1020000B43101003C3101004119010050
S21400A9A0603401007519010010B528220021064800
S21400A9B0064B98470648074B984707490320074B1E
S21400A9C09847002010BDC04638040020F5A00000BF
S21400A9D021A10000CD9D000031A1000025A90000A6
S21400A9E030B59FB0040015002C282FD01B283DD072
S21400A9F006284BD00E2827D0322857D02F2865D0CF
S21400AA00342800D177E0112800D196E0132800D131
S21400AA10ACE0042800D1BBE0652800D1CAE00928D4
S21400AA2000D1D9E02A2800D1E8E0202800D1F7E0BC
S21400AA309222520089498A488A4DA84721008A48AE
S21400AA40A8470D20894B98471FB030BD002304222D
S21400AA5003A92800864CA0470028F5D1854B1B6823
S21400AA60002BF1D003A92C309847EDE700230822ED
S21400AA7003A928007E4CA0470028E5D17D4B1B6823
S21400AA80002BE1D003A91B309847DDE701233022D5
S21400AA9003A92800764CA0470028D5D1754B1B6823
S21400AAA0002BD1D003A906309847CDE70023142207
S21400AAB003A928006E4CA0470028C5D16D4B1B6823
S21400AAC0002BC1D003A932309847BDE7642200218D
S21400AAD003A8694B98470023642203A92800644C06
S21400AAE0A0470028B0D1634B1B68002BACD003A94D
S21400AAF02F309847A8E70023042203A928005C4CBF
S21400AB00A0470028A0D15D48564DA847039C230ABD
S21400AB10FF200340220C0240210E2040009058489F
S21400AB20A8470D20514B9847524B1B68002B00D16D
S21400AB308AE700213420984786E70022514B1A7096
S21400AB400023043203A92800494CA047002800D05F
S21400AB507AE703AB1A784C4B1A70464B1B68002BEF
S21400AB6000D171E703A9113098476DE700232C2226
S21400AB7003A928003E4CA047002800D064E73D4BC0
S21400AB801B68002B00D15FE703A9133098475BE7EB
S21400AB90002304221CA92800354CA047002800D01A
S21400ABA052E7344B1B68002B00D14DE71CA904303C
S21400ABB0984749E7002304221CA928002C4CA047EC
S21400ABC0002800D040E72B4B1B68002B00D13BE74A
S21400ABD01CA96530984737E70123642203A928009B
S21400ABE0234CA047002800D02EE7224B1B68002BE2
S21400ABF000D129E703A90930984725E70123042255
S21400AC0003A928001A4CA047002800D01CE7194BBF
S21400AC101B68002B00D117E703A92A30984713E7D3
S21400AC200023082203A92800114CA047002800D0C2
S21400AC300AE703AB9A8828000830012303990C4CD6
S21400AC40A047002800D0FFE60A4B1B68002B00D167
S21400AC50FAE603A920309847F6E6C046A434010079
S21400AC603C31010041190100F4340100751901005E
S21400AC7039A8000030020020F5A000006C34010066
S21400AC80D43401003502002034020020F0B58FB025
S21400AC9001220F236B441A70002861D00268324BE1
S21400ACA01A600022314B1A700F206844304B9847C8
S21400ACB0041E02D020000FB0F0BD00202D4B984798
S21400ACC0041E49D12C4901202C4B984704AE300075
S21400ACD02B4B984704002B482B4DA847B379727925
S21400ACE03179308C00902948A8470D20284FB84766
S21400ACF02448A84726226A441A2169442548A847BA
S21400AD000D20B8471F48A847737A327AF17922484F
S21400AD10A8470D20B8471B48A84702230522132141
S21400AD201E48A8470D20B8471648A8471C4A1D4984
S21400AD301D48A8470D20B84723000D33BAD1E82296
S21400AD40FF321A491A48104B98471A481A4B984728
S21400AD500D200F4B9847ADE70020184B9847A9E702
S21400AD600C246442A6E7C0463002002035020020CC
S21400AD7049B70000A9A90000E1A9000025A9000024
S21400AD8065B600006C34010041190100B0350100C1
S21400AD9075190100D8350100F43501001836010098
S21400ADA0303601003C36010048360100B034010060
S21400ADB03C310100603601005D1A01001DB800003C
S21400ADC010B50020034B98470020034B98470020FF
S21400ADD010BDC04609A200001DB8000010B5014B0A
S21400ADE0984710BD5DA40000F0B5CE46474680B536
S21400ADF0A3B005900C0015001F002AAB1B889946CF
S21400AE002BAB1B789846012A03D0002F40D0022A8D
S21400AE104CD0631E1F2B00D978E04B46013B9BB2FB
S21400AE200D2B03D94B46FF2B00D07DE007AE22004A
S21400AE3005995A2002AB9C466044784B98473419D3
S21400AE4046340023237044334A46F25243465A1E81
S21400AE5093416722B3544123F554032D00D172E089
S21400AE60022D00D1ABE0042D00D1C3E0012D00D0AF
S21400AE70C6E000230293019300936C3307AA2821AF
S21400AE800120674CA04723B00CBC90469946F0BD05
S21400AE90644A65496548664B98476648664B9847D6
S21400AEA00D20664B98470C204042ECE73800644B78
S21400AEB098474028ADD13B781A00303A362A17D842
S21400AEC00A3A062A14D9473B192B11D97A1C38009E
S21400AED04030137819003039362909D80A3906293E
S21400AEE006D9473B192B03D901328242F1D190E7AC
S21400AEF0544A4D494D484E4B984753484E4B9847F9
S21400AF000D204E4B98470C204042BCE74F4A46491E
S21400AF104648474B98474E48474B98470D20474B67
S21400AF2098470C204042AEE78D2292003E493F48AB
S21400AF303F4B98474748404B98470D203F4B984714
S21400AF400C2040429FE73B78013BDBB207AA137018
S21400AF50032B17D87A78511E07AB597010231100AF
S21400AF6099430B291DD03C4A2F493048304CA04706
S21400AF7007AB59783948A0470D20304B98470C202E
S21400AF80404280E7364A28492848294CA04707AB64
S21400AF9019783448A0470D20284B98470C2040428B
S21400AFA071E7B91C162002AB9C4660441B4B9847C1
S21400AFB07B7807AA9446634400229A7059E73800C3
S21400AFC01F4B9847431E9BB23F2B05D8421C3900A7
S21400AFD007A8124B98474CE7234A13491348144BCB
S21400AFE098472248144B98470D20144B98470C203E
S21400AFF0404248E73E22390007A8084B984738E702
S21400B0001B4A094909480A4B98471A480A4B984769
S21400B0100D200A4B98470C20404234E7E1A0000080
S21400B0202DA2000015020000C03401003C310100D2
S21400B03041190100083501005D1A0100751901006B
S21400B04005A10000210200001C3501002B020000B3
S21400B050283501003C35010052020000643501002D
S21400B0604B020000483501006102000080350100F7
S21400B070710200009C35010030B583B006AC248810
S21400B080002501950094024CA04703B030BDC04691
S21400B090E9AD000000207047F0B583B080256D0054
S21400B0A00543A5246401084F084E29002000B84730
S21400B0B00023019301A92000B0470028F5D1019B89
S21400B0C09D42F2D103B0F0BD89B500007DB5000009
S21400B0D000B583B00023019301A91148114B98478E
S21400B0E0002801D003B000BD80214900019B194310
S21400B0F001910B480C4B98470028F3D101A9D020AA
S21400B1004001084B98470028ECD180214902019B5A
S21400B11019430191D0204001034B9847E2E7C0460F
S21400B120081400007DB5000089B5000010B582B097
S21400B130284B1C68002C04D0264B1C68200002B04C
S21400B14010BD190080204001234B9847002803D0EB
S21400B1500022204B1A60F1E701A920481E4B9847B1
S21400B160002803D000221B4B1A60E7E7194B1B6828
S21400B1701B4A93420ED01B4A934212D01A4A93425D
S21400B1801CD01449194A0B681A40A023DB0213434B
S21400B1900B60D1E7019B012BF3D0154A0D4B1A60CB
S21400B1A0EFE7019B032BECD0042B03D0114A094B8D
S21400B1B01A60E6E7104A074B1A60E2E70549EC20FA
S21400B1C08003054B98470028DBD00022014B1A600D
S21400B1D0B4E7C046380200207DB50000F413000036
S21400B1E0A0021000B0021000F0001000FFFFF0FFF9
S21400B1F0A1021000B2021000B102100030B583B0F8
S21400B200164C012501A91020A04700281CD1019B3F
S21400B2102B42F7D101A90130104B9847002813D1D3
S21400B22001998B0707D502239943019101300C4BF6
S21400B2309847002808D101A90B20084B98470028FA
S21400B24002D10199CB0701D403B030BD0123994345
S21400B25001910B30024B9847F6E7C0467DB50000DB
S21400B26089B50000F0B583B000230193009301A9CF
S21400B2700B20284B9847041E30D10199CB0706D4E3
S21400B280012319430B20244B9847041E26D101A9FD
S21400B2900120204B9847041E20D101998B0720D50A
S21400B2A005251C4F1D4E69460F20B847041E20D1A9
S21400B2B0009B5B072BD40220B047013D002DF2D146
S21400B2C0AF22520016491748174B98471748184B95
S21400B2D098470D20174B984704246442200003B07B
S21400B2E0F0BD0223194301200B4B9847041ED7D00C
S21400B2F0F4E7AA2252000A490A480B4DA847009ACA
S21400B30021000D48A8470D200A4B9847E6E70B4B4F
S21400B3109847E3E77DB5000089B50000199D000059
S21400B3207C3601003C31010041190100C4360100A1
S21400B3305D1A010075190100AC36010065B5000004
S21400B340F8B507002D4D2E4C2E4E2800A04700289D
S21400B35002DB0120B047F8E72B48294B9847C30784
S21400B36009D4284E294C264D0120B0472000A84776
S21400B370274B9842F8D1022F21D0032F29D0042F33
S21400B38030D024492448254B98470024244B98471E
S21400B3900005000D234B98422AD82000224B9847E0
S21400B3A02248234CA0471B492248A0470D20224B89
S21400B3B0984722491548194B98470020F8BD204960
S21400B3C02048164CA047802149031348A047002474
S21400B3D0DCE71B491B48114CA04700210E48A0473C
S21400B3E00024D3E70B490C480C4B98478024CDE744
S21400B3F0022020430C4B9847D2E7C04614100000AA
S21400B40071B50000199D0000BC0702000C000C007E
S21400B4109ED0AD10521352138C10000089B5000058
S21400B4202DB100009F03000099B000006C340100AD
S21400B43041190100E036010075190100612F52EF35
S21400B4407DD51C3CAC07020070B582B0154B01934D
S21400B450154B00930238012811D9012464420020BC
S21400B460124E134D009B98420ED00220B047019812
S21400B470A847013C002CF5D10520404209E00D4BC1
S21400B48001930D4B0093E8E7009A074B00209A4281
S21400B49001D002B070BD00210248084B984700203A
S21400B4A0F7E7C0468C10000036265302199D0000B0
S21400B4B071B50000AC070200C3C15DD789B50000B6
S21400B4C010B582B00023019301A9A0204001144BBF
S21400B4D09847041E15D11349019B19400191A020DD
S21400B4E04001114B9847041E16D0104A10491148C7
S21400B4F0114B98471148124B98470D20114B98470F
S21400B5000AE0114A0A490B480B4B98470B480C4B6C
S21400B51098470D200B4B9847200002B010BDC04640
S21400B5207DB50000FFFBFFFF89B500000B020000A1
S21400B530883601003C3101004119010094360100B3
S21400B5405D1A0100751901000502000010B5014BD7
S21400B550984710BD459E000010B5014B984710BD9A
S21400B56075A0000010B5014B984710BD15BF000030
S21400B57010B5014B984710BD4DBF000010B5014BEC
S21400B580984710BD61BF000010B5014B984710BD2D
S21400B59079BF0000F0B5D6464F464646C0B582B0E5
S21400B5A0804689461500134B1F88083FBBB201939F
S21400B5B01E0004009A421AD90F4B9A46371A434681
S21400B5C0E11A4944019A2000D047002809D1AD1B52
S21400B5D03919A419B542F2D8AAB249442000064B3C
S21400B5E0984702B01CBC90469946A246F0BD002182
S21400B5F0F2E7C04608000020BDC00000F0B5D64601
S21400B6004F464646C0B582B0804689461500134B65
S21400B6101F88083FBBB201931E0004009A421AD945
S21400B6200F4B9A46371A4346E11A4944019A2000BE
S21400B630D047002809D1AD1B3919A419B542F2D854
S21400B640AAB249442000064B984702B01CBC90465C
S21400B6509946A246F0BD0021F2E7C0460800002049
S21400B66019C2000070B584B00400002303930822BA
S21400B670002101A82D4B9847002C44D028220021F9
S21400B68020002B4B984703A92A482B4B98470028A5
S21400B6903AD1039B002B39D0C020800218430822E1
S21400B6A001A9264B984700282ED1029B1804000CAF
S21400B6B003902ED0C0239B021843282221001F4B44
S21400B6C09847002820D121790902A2790F231A4031
S21400B6D00A4361790901FF2529400A43E1790902F5
S21400B6E0667A33400B43217A09010D402B43002A2A
S21400B6F012D0002B13D012498B4213D8114B9A420A
S21400B70002D80D3800E0002004B070BD0C20404286
S21400B710FAE70C204042F7E70C204042F4E70C2002
S21400B7204042F1E70D204042EEE7C046DF17010039
S21400B730F5A0000008000C007DB5000095B50000DF
S21400B740521300005113000070B5002837D005785A
S21400B7506B1E032B00D901250020204B9847041EA2
S21400B7602FD11F481F4CA0471F4B984701001F486A
S21400B770A0470D201E4B98471E4B984728001E4B8F
S21400B7809847041E17D128001C4B9847041E12D158
S21400B790023D012D11D91A4B9847041E0DD0562292
S21400B7A0FF32184918480F4B98471848184B9847C7
S21400B7B00D200F4B9847174B9847200070BD01256A
S21400B7C0CAE72822FF320F490F48064B984712480F
S21400B7D00F4B98470D20064B9847EEE74DB50000F7
S21400B7E06C340100411901002DB10000B037010092
S21400B7F07519010091BF000041B3000049B4000074
S21400B800D1B00000F83601003C3101007437010069
S21400B8105D1A010059B500009437010010B51C4BA5
S21400B8209847041E0BD100201A4B9847041E14D1CB
S21400B830194B9847041E1DD1184B98470BE0B622AB
S21400B840520017491748184B98471848184B9847FE
S21400B8500D20184B9847200010BD7422FF32104967
S21400B8601048114B98471448114B98470D20114B20
S21400B8709847F0E77A22FF3209490A480A4B984768
S21400B8800E480B4B98470D200A4B9847E3E7C046F7
S21400B890C1B40000EDCD000059B500003DBF00006A
S21400B8A0043701003C310100411901001437010042
S21400B8B05D1A010075190100343701005837010080
S21400B8C000B585B001AB01900022029219811900E3
S21400B8D00320024B984705B000BDC046299F0000D4
S21400B8E070B584B008AC257801AC20703F30C4B287
S21400B8F00E2C00D984E0A0004F4C2058874601ABA0
S21400B9000A0C5A700A0A9A70D97005214B4B1B789C
S21400B910002B77D00139C9B283E00B0ADBB2002DC9
S21400B92007D101AA537001AB99700022DA70052185
S21400B930ECE780225242134301AA5370F3E701ABAF
S21400B94000225A709A70DA700521DFE701AB0022F8
S21400B9505A709A70DA700521D8E701ABFF225A7048
S21400B9609A70DA700521D1E701AA080C5070080A0F
S21400B9709070D170190A117153710721C6E701AA98
S21400B980080C5070080A9070D170190C1171190AC1
S21400B990517193710821B9E70B0ADBB2002D0CD167
S21400B9A001A8437001AB9970110ED970110C197172
S21400B9B0110A59719A710821A8E780204042034372
S21400B9C001A84370EEE701AB080C5870080A98709F
S21400B9D0D970110E1971110C5971110A9971DA7119
S21400B9E0092193E72822FF3215491648164B984737
S21400B9F01648174B98470D20164B9847002317E01C
S21400BA00002315E04E1E01AA95197F23124C5B00F9
S21400BA1010784340E35C0132AA42F8D15B0001AAE9
S21400BA20935589B201A80D4B984701230028D9D118
S21400BA30180004B070BDC046C03701003C020020AC
S21400BA40003801003C31010041190100903C010022
S21400BA505D1A0100751901008C380100C1B800009C
S21400BA6000B585B001AB0022019202901981190041
S21400BA700320024B984705B000BDC046299F000032
S21400BA80F0B5C64600B582B00700CF282BD003001D
S21400BA903B33DBB2012B26D90B246B46DE1D264B2F
S21400BAA0984601213000C047051E25D13378BB4299
S21400BAB030D0013CE4B2002CF3D10B346B46DE1DD3
S21400BAC01D4F01213000B847002825D13378002BC0
S21400BAD02FD0013CE4B2002CF3D10125280002B09F
S21400BAE004BC9046F0BD01216B46D81D124B98470A
S21400BAF000250028D0D0F1E7B12252000F491048A7
S21400BB00104B98471048114B98470D20104B9847FC
S21400BB100025E3E70B24D1E7B8225200074908487E
S21400BB20084B98470848094B98470D20084B9847FC
S21400BB30D4E70125D2E7C04661BA000018380100F4
S21400BB403C31010041190100BC3C01005D1A0100B6
S21400BB5075190100F0B5DE4657464E464546E0B537
S21400BB6087B001908946029200239A4680239B0163
S21400BB709B466A46D3813B4B98462EE03A4A3B4961
S21400BB803B483C4B98473C483C4B98470D203C4B29
S21400BB9098470025280007B03CBC90469946A24628
S21400BBA0AB46F0BD002C2EDD019B53441800390037
S21400BBB02C4B9847041E33D1029B002B03D1314BEC
S21400BBC01B78002B39D05346FB181BB29A464B46BF
S21400BBD0DF1BBBB29946002B42D04F46D94501D950
S21400BBE06B46DF89BFB20A2404ABDE1C012130009D
S21400BBF0C047051EC2D133781B090F2BD2D0013C9B
S21400BC0024B2631CF2D1204A18491948194CA0479F
S21400BC1004ABD9781D48A0470D20194B9847B9E7C3
S21400BC20C522920011491248124B98471848134BE8
S21400BC3098470D20124B9847ACE7022105A8094B00
S21400BC4098470028BFD0134A08490948094B984727
S21400BC5011480A4B98470D20094B9847250099E74D
S21400BC60012597E761BA0000FF02000024380100B2
S21400BC703C31010041190100F03C01005D1A010051
S21400BC80751901003C0200200B030000243D010052
S21400BC90543D01001F030000843D0100F0B5D64668
S21400BCA04F464646C0B586B00390049130280FD85C
S21400BCB0304B1F78FBB205930023302203998A424B
S21400BCC05B41DBB29A460A252B4B9846D14633E0B9
S21400BCD02A4B1F78EEE70598294B98470400012861
S21400BCE041D0E722920027492748284EB0470399BB
S21400BCF02748B0470D20274B98470120264EB047CF
S21400BD000023009300220021CF201B4FB847CF20EE
S21400BD101B4B9847214A1B491B481C4FB847049B9E
S21400BD20039A29001E48B8470D201A4B9847012051
S21400BD30B047013D002D16D04B4600930423049ACD
S21400BD40039F39000598C04704000128C3D0154A50
S21400BD500C490D480D4EB04739001348B0470D202A
S21400BD600C4B9847C9E7200006B01CBC9046994685
S21400BD70A246F0BDFC370100E1B80000FD37010027
S21400BD8081BA0000443801003C310100411901002D
S21400BD907C3E010075190100199D0000AF030000EC
S21400BDA0B43E010096030000503E0100F0B5DE46AA
S21400BDB057464E464546E0B587B002908B46FF286C
S21400BDC00FD8414B1F78FBB203930023FF22029942
S21400BDD08A425B41DBB29A460A253C4B9846D146DE
S21400BDE031E03B4B1F78EEE703983A4B9847040048
S21400BDF001283FD0384A394939483A4EB047029967
S21400BE003948B0470D20394B98470120384EB04787
S21400BE100023009300220021CF202C4FB847CF20CC
S21400BE202C4B9847334A2D492D482E4FB847029A37
S21400BE3029003148B8470D202C4B98470120B047C1
S21400BE40013D002D37D04B46009304230022029F6D
S21400BE5039000398C04704000128C5D0274A1F4967
S21400BE601F48204EB04739002548B0470D201F4BCD
S21400BE709847CAE74A46042105A8224B984704007B
S21400BE8001280BD0204A15491548164B98471F48DD
S21400BE901F4B98470D20154B9847B6E705AA5378D1
S21400BEA01B02917809040B4311780B43D2781206D3
S21400BEB013435A461360200007B03CBC9046994690
S21400BEC0A246AB46F0BDC046FE370100E1B8000012
S21400BED0FF37010081BA00001D040000643801002D
S21400BEE03C31010041190100E43D010075190100D3
S21400BEF0199D00003C040000383E010017040000B5
S21400BF00B83D010055BB000024040000183E0100A7
S21400BF105D1A010010B582B00023009300220021B4
S21400BF20CF20044CA047CF20034B9847002002B0F8
S21400BF3010BDC046E1B8000081BA00000022024BE6
S21400BF401A7000207047C0463C02002000B583B03F
S21400BF5001A9024B9847019803B000BDADBD000093
S21400BF6010B5044B98470023012801D1180010BDD6
S21400BF70063BFBE7ADBD000010B5044B9847002319
S21400BF80012801D1180010BD063BFBE79DBC000050
S21400BF9010B582B000230093354A137069463548C1
S21400BFA0354B9847002828D0314B1B78002B0DD1F5
S21400BFB07C33009999432C3B194300912D482F4B15
S21400BFC09847041E39D00122294B1A7001A98020F7
S21400BFD04001294B984700283BD0264C2000284B90
S21400BFE09847702301009943502001432000254BB9
S21400BFF098470024200002B010BD01221C4B1A7086
S21400C000214A22492248234B98472348234B9847E6
S21400C0100D20234B984769461648174B9847041E31
S21400C020C2D1204A19491A481A4B98471E481B4B3A
S21400C03098470D201A4B9847DCE71C4A13491448CA
S21400C040144B98471A48154B98470D20144B9847A1
S21400C050D0E7184A0D490E480E4B984716480F4B26
S21400C06098470D200E4B984706246442C2E7C04608
S21400C0703C02002024E80000ADBD00009DBC00008E
S21400C0804DBF000079BF0000C704000080380100E3
S21400C0903C310100411901008C3901005D1A010094
S21400C0A075190100CA040000DC390100D404000040
S21400C0B0083A0100DE0400003C3A0100F0B5DE4616
S21400C0C057464E464546E0B587B0029003911600A7
S21400C0D00A2500239B4600243E4B9846A94637E097
S21400C0E001239B46013635E0C8203B4B9847012884
S21400C0F045D03A4A3A493B483B4FB84702993B48F5
S21400C100B8470D203A4B984701203A4FB84700945D
S21400C110230022002100CF202E4DA847CF202E4BF3
S21400C1209847354A2E492F482F4B9A469847330052
S21400C130029A49463148D0470D202D4B984701209A
S21400C140B84701235B429C46E1444B46002B38D05F
S21400C150012EC5D0009433002200029D2900C8207D
S21400C160C0470128C0D0264A1D491E481E4FB84762
S21400C17029002448B8470D201D4B9847C4E75B4666
S21400C180002B16D005AF2200310038001E4B984712
S21400C1903B78039A1370012811D01C4A10491148A5
S21400C1A0114B98471A481B4B98470D20104B984741
S21400C1B0AAE7220031000398134B9847EBE70020CC
S21400C1C001E00620404207B03CBC90469946A24695
S21400C1D0AB46F0BDE1B8000081BA00006304000081
S21400C1E0743801003C31010041190100903A010009
S21400C1F075190100199D000084040000F03A010042
S21400C2005D040000603A010055BB000073040000A6
S21400C210C83A01005D1A0100F0B5DE46474680B513
S21400C22089B004908B4603920A268027BF016B468E
S21400C230DF8235002DE0013303932DE0834A8449E5
S21400C2408448854CA04731008448A0470D20844B85
S21400C25098470120834CA04700230093002200212A
S21400C260CF20814EB047CF20804B9847804A7849F0
S21400C2707848794EB047039B049A29007D48B0471A
S21400C2800D20774B98470120A047013D002D00D197
S21400C290D5E0039B012BCED000230093039B002206
S21400C2A0049E3100C720704CA0470128C6D1C72085
S21400C2B06E4B984701280CD0F422920064496548DA
S21400C2C0654CA04704996C48A0470D20644B9847DE
S21400C2D0BFE7002207AB1A80039C0026A84635005D
S21400C2E0260021E00023B7425B4102330B2004AA5C
S21400C2F094466044102252421343037001215F4B60
S21400C300984700281DD15B46581921005B4B98477B
S21400C310002830D15A4B1B78002B39D065192DB226
S21400C320361BB6B2002E53D0341CBE4201D96B4623
S21400C330DC8AA4B2002DD5D10323BE42D6D9023B57
S21400C340D4E74546D42292004E494248424B98478D
S21400C3504D484E4B98470D20414B9847F822920087
S21400C3603B493C483C4B98474948484B98470D202A
S21400C3703B4B98476DE74546464A42493548364B5B
S21400C38098474548414B98470D20354B9847E5E779
S21400C390022107A8394B98470028BFD045463F4A98
S21400C3A038492C482C4B98473D48384B98470D2029
S21400C3B02B4B9847D2E73C22FF323A492548264B7A
S21400C3C098473948314B98470D20254B984727E02A
S21400C3D045462B4B1C78631E9C410234A1B207A82D
S21400C3E0324B98470028E6D108AB1B19053B1B7853
S21400C3F0002B06D108AB9C466444063C2378C32B2E
S21400C4001BD0A122520027491248134CA04707A967
S21400C4108B784A7809782648A0470D20104B984715
S21400C420FA2292000A490B480B4B98471848174BBC
S21400C43098470D200A4B98470BE7002001E006209E
S21400C440404209B00CBC90469B46F0BDCA030000B3
S21400C450543801003C310100411901000C3B010039
S21400C46075190100199D0000E1B8000081BA0000AE
S21400C470F2030000F03A01003C3B0100C1B80000A6
S21400C4803C02002034380100743B01005D1A0100B4
S21400C490683C010059030000AC3B01006303000048
S21400C4A0E03B010008380100183C010061BA0000BA
S21400C4B0383C0100F0B5DE4657464E464546E0B5E8
S21400C4C085B001900E0002921D000EAB1C88002C59
S21400C4D064D0030135495B58002B5FD00101334B14
S21400C4E05B189B889BB2002B58D0304B5B189B7A0E
S21400C4F0012B53D1F4802D4B9B468B445B460A227E
S21400C5009046D8448A460095039315E025000123FB
S21400C5101CE00133002200210020254CA0473DE00E
S21400C5202448254DA84721002448A8470D20244B21
S21400C530984733E0002C31D05B469B88E31A1BB249
S21400C540002BE3DD039B9D88ADB20023174A5146BE
S21400C55089582A000098164FB8470028E0D1134B98
S21400C5605246D3583360B580F3885B1BF380154B77
S21400C5701B68002B05D0134B1B68320002990198EC
S21400C5809847641BA4B2009B9C46AC446346009349
S21400C59043461B78002BCDD1002CBAD105B03CBC4D
S21400C5A090469946A246AB46F0BDC04664040020BD
S21400C5B039A800006C34010041190100D03E01008A
S21400C5C07519010014050020F0B5D6464F464646BC
S21400C5D0C0B59AB00D001400412839D0542837D081
S21400C5E0422853D043286AD0442800D1AFE04B28D5
S21400C5F000D1ACE04A2800D1CFE0462800D1E5E0E3
S21400C600482800D10EE14D2800D1DCE0452800D1B5
S21400C6102CE1472800D14DE107254C2800D126E122
S21400C62052282DD10123142209A92000A24CA0478C
S21400C630002825D1A14B0A9A1A601B68002B1FD030
S21400C6409E4B1C6809AB1A7C0B990998A04717E00B
S21400C6500023042209A92000974CA04700280FD1E8
S21400C66009AB5A7805AB1A70954B1B68002B07D0A0
S21400C670934B1B6809AA0020105605AA012198476B
S21400C6801AB01CBC90469946A246F0BD0023042270
S21400C69009A92000884CA0470028F1D109AB5A7898
S21400C6A005AB1A70864B1B68002BE9D0844B1B68C1
S21400C6B009AA0020105605AA02219847E0E70023A1
S21400C6C00C2205A920007C4CA0470028D8D105AB39
S21400C6D009229A56002A24DB180008215956794B5D
S21400C6E009015918C97AC9B214011B19D972012156
S21400C6F099724189083989B2198173490B880133C7
S21400C7009BB20B800B889BB2002B03D10B880133A6
S21400C7109BB20B806C4B198889B21001694B1B18B1
S21400C720D98009AB1A7002229A8005AA5188D9804E
S21400C730069A0B92624B1B68002BA1D0604B1B68BD
S21400C74005AA0820105609AA0421984798E700234E
S21400C750042209A92000584CA047002800D08FE7E3
S21400C76009AB0020185605AA10705B785BB25370B0
S21400C770002B07D109AB5B88083B9BB20101514AED
S21400C780521813814E4B1B68002B00D178E74C4B98
S21400C7901B6805AA0521984772E70023442209A9C9
S21400C7A02000454CA047002800D069E7474B1B688F
S21400C7B0002B00D164E7454B1B68199A03921100C1
S21400C7C009A898475CE706239A4601E006239A469E
S21400C7D00023102205A92000374FB847002800D0B4
S21400C7E04EE705AA0C201056D38907013549C9190A
S21400C7F000270F730826975FB8465789B94609AFD2
S21400C80056887E81069A0C92CA8892B293420CD0C1
S21400C810102D00D834E70123002200210020264CEA
S21400C820A0472DE709239A46D2E74346002B01DDB1
S21400C830A8450FDB09AB42469A8000230993204B9C
S21400C8401B68002B00D11BE71D4B1B6809AA51462D
S21400C850984715E723004B44424669468A818A89F1
S21400C8600092524639001A4CA04709E707250023D4
S21400C870082209A92000104CA047002800D0FFE697
S21400C88009AB002018569A88598805AB1980010113
S21400C8900C4B5B18DB889BB29A4200D0F0E6084B44
S21400C8A01B68002B00D1EBE6054B1B6805AA290088
S21400C8B09847E5E60825DAE739A8000018050020BD
S21400C8C014050020640400203E0200201C05002001
S21400C8D0B5C4000010B50A4B1B78002B00D010BD65
S21400C8E0B02200210748084B984708490220084B09
S21400C8F098470122024B1A700022064B1A80EEE778
S21400C9003D02002064040020F5A00000C9C5000018
S21400C91025A900003E02002010B5B02200210748DD
S21400C920074B984700210220064B98470023064AEB
S21400C9301360064A1360064A137010BD6404002094
S21400C940F5A0000025A90000140500201C05002005
S21400C9503D020020024B1860024B19607047C0462B
S21400C960140500201C050020F0B5D646474680B5C5
S21400C97089B00592022800D09CE001290AD002293D
S21400C98000D170E001256D42280009B00CBC90462D
S21400C9909A46F0BD494C2778FFB22678F6B2207842
S21400C9A001300631464B9847C9B221703201454BDB
S21400C9B09B189B7A0625002B18D0404E404B9A4673
S21400C9C0404B98463778FFB23478E4B2307801307E
S21400C9D00721D047C9B23170230143449B7A002B0C
S21400C9E007D0013DEDB2002DECD1CBE7354BD41886
S21400C9F002E02401334BE4187DB2002DC4DB102284
S21400CA0000212000304B98470123A3722F4A138839
S21400CA1001339BB2138013889BB2002B03D113887B
S21400CA2001339BB21380294E33889BB2E38028489B
S21400CA30284FB847328892B229002748B8470D20B9
S21400CA40264B9847059BDB079ED507AA1570212322
S21400CA50E3720023029301930093043350210220D3
S21400CA601F4CA04790E71F4B1D78EDB21C782401A1
S21400CA701D4AA4181978013103220A401A70A37AB5
S21400CA80002B14D003221749174F03200D78EDB260
S21400CA900C782401E4190B78013303400B70A37A59
S21400CAA0002B04D0013AD2B2002AEFD16AE707354C
S21400CAB06DB2A2E701256D4266E7C046400200203F
S21400CAC0CD16010064040020F5A000003E02002000
S21400CAD06C34010041190100FC3E0100751901008B
S21400CAE02DA2000041020020D404002070B588B0BA
S21400CAF0041E30DB002931D000011D4B1B189B7A29
S21400CB00012B2ED1002A2FD0194B1B18DB7A442676
S21400CB10DB0705D5164B1B18DA7A05AB5A720736B3
S21400CB2005AD2C7208222800124B98472401104BA2
S21400CB301C19E3886B8100230293019300930C3346
S21400CB402A00310002200C4CA047002801D0092002
S21400CB50404208B070BD06204042FAE70620404238
S21400CB60F7E706204042F4E706204042F1E7C046D9
S21400CB7064040020E1A000002DA2000030B589B0BA
S21400CB80002836DB002937D0AF23DB009A4236D8A0
S21400CB9004011E4B1B199B7A012B33D104AB187072
S21400CBA05A802500194C6419E4889C815025062873
S21400CBB000DD0C3D0401154B1B19DC7A4523E40708
S21400CBC005D50001114B18180589ADB24C238020FD
S21400CBD01843029501920091102304AA0100022036
S21400CBE00B4CA0470023002800D00E3B180009B0CD
S21400CBF030BD06235B42F9E706235B42F6E70623D1
S21400CC005B42F3E706235B42F0E7C046640400207D
S21400CC102DA2000030B587B0002834DB002935D0BF
S21400CC20002A36D005011E4C6419A47A012C33D193
S21400CC301B4C29516419A280217B002200291DD19A
S21400CC4001212173E27A4531D20700D50731002B46
S21400CC5017D1013B049304AA10710001104B181859
S21400CC60C388D380002302930193009308330220E5
S21400CC700C4CA0470022002800D00E3A100007B047
S21400CC8030BD0493E7E706225242F7E706225242F7
S21400CC90F4E706225242F1E706225242EEE7C04689
S21400CCA0640400202DA2000030B587B004001E48A2
S21400CCB01E4DA84721001E48A8470D201D4B98472B
S21400CCC0002C2ADB22011C4B9B189B7A012B27D1B8
S21400CCD005A90C70184B9B18DA884A8000229A72B5
S21400CCE0DA80DB7A4921DB0700D505310023029381
S21400CCF001930093043305AA0220104DA847051E91
S21400CD0001D009256D4224010B482018102200216D
S21400CD100B4B9847280007B030BD06256D42F9E753
S21400CD2006256D42F6E7C0466C3401004119010045
S21400CD30E43E010075190100640400202DA20000E5
S21400CD40F5A0000070B582B00023019300260021F4
S21400CD500278441C05300B0009E09D005B195B005F
S21400CD609B18DBB222000134A0420AD012782E2A89
S21400CD700AD0002A0CD0303AD2B2092AEDD90020C7
S21400CD8000E0002002B070BD6A46B354200002E006
S21400CD906A46B35420000136042ED9D104226946CF
S21400CDA001A8024B98470198ECE7C046E1A00000B6
S21400CDB010B584B004000B4B9847C3B2402B0DD877
S21400CDC0FF230340013300220292019200922200C8
S21400CDD04A210220044CA04704B010BD0620404261
S21400CDE0FAE7C04605A100002DA2000070B582B08B
S21400CDF004002A4B98470005000D294B0025984251
S21400CE0002D8280002B070BD01A92648264B9847D4
S21400CE10051EF6D1254B019A134025491943019169
S21400CE202048244B9847002C20D000212248214C33
S21400CE30A047AB212148A04701212148A047002157
S21400CE402048A04781212048A047204E204C300093
S21400CE50A0470128FBD1154B019A134080214902B7
S21400CE60194301910F48134B9847CAE7002112480F
S21400CE70104CA047B9211148A04701211048A047EF
S21400CE8000211048A04781210F48A0470F4E104CA4
S21400CE903000A0470128FBD1DDE7C0462DB10000D9
S21400CEA09F030000101400007DB50000FF8F88F877
S21400CEB00010110189B50000080201000C020100F3
S21400CEC0140201001C020100040201001802010005
S21400CED071B50000F0B5C64600B5032307009F43B2
S21400CEE01368DB430C00032902D9444203200440A4
S21400CEF0002C16D0091B3E1D3D68E0004042203045
S21400CF00C5406B40E00019D00124274D03E05B08C4
S21400CF100138002804D01C42F9D05B086B40F7E7C4
S21400CF20370003200C0084431ED0081B8446890863
S21400CF3088463E000D0001201B4C0BE03700F0E752
S21400CF405B080139002904D01842F9D05B08634019
S21400CF50F7E70436013D03D331684B402021F3E761
S21400CF60414689007F186146002917D03C68C800F2
S21400CF704042203001256D42C540280020404340F5
S21400CF80C9000BD00120084C03E05B0801390029DA
S21400CF9004D01842F9D05B086340F7E7DB43136020
S21400CFA0002004BC9046F0BD2083B8ED0C4B1B68F7
S21400CFB0002B06D1EFF31083002B07D00022094B7D
S21400CFC01A70074A136801331360704772B6BFF3CE
S21400CFD05F8F0022044B1A700132024B1A70F0E782
S21400CFE044020020480200200A000020084B1A686D
S21400CFF0013A1A601B68002B09D1064B1B78002BE0
S21400D00005D00122044B1A70BFF35F8F62B67047DB
S21400D01044020020480200200A0000201723002AAD
S21400D02001D0180070478B00064A9B58002B03D08F
S21400D030834205D01D23F4E7890088500023F0E7DB
S21400D0400023EEE7240500201723002901D018004E
S21400D050704700221F2800D8024A01238340D3606D
S21400D0600023F4E7001800401723002901D0180019
S21400D070704700221F2800D8024A0123834093608D
S21400D0800023F4E70018004070B50022104B1A7019
S21400D090002310491F25104E0D4C0AE00D4908E0EC
S21400D0A023780133DBB223700F2B10D800211F2BFF
S21400D0B0F4D9280018400122824008691042EFD0B7
S21400D0C00A619B009B59002BEAD09847E8E770BDA1
S21400D0D0200500200018004024050020044A13788C
S21400D0E002210B43137053785BB2002BFBDB7047B7
S21400D0F00018004000B583B0124A936940210B43E4
S21400D100936101A900230B7005200F4B984705205B
S21400D1100E4B98470E4A137801210B431370537831
S21400D1205BB2002BFBDB0B4B19004031002204C323
S21400D1309942FCD11022084B1A60084B984703B05E
S21400D14000BDC046000400405DED0000D1EC0000CC
S21400D150001800402405002000E100E0DDD00000BB
S21400D160002303604360012202724272837202331C
S21400D170C3727047F0B583B005000C0001A9002308
S21400D1804B70CB7023790B70237A8B702078154BFD
S21400D190984700201F2D00D8134807222A409200E7
S21400D1A0E77AA37A002B01D008231F43EB089B00E5
S21400D1B0C31899690F269640B14397403A000A4330
S21400D1C09A61637A002B06D143690122AA409343F1
S21400D1D0436103B0F0BD42690123AB401343436192
S21400D1E0F7E7C04655EE00000018004010B51E4A8E
S21400D1F0D36904210B43D3611C4B2022FF321A83D0
S21400D2001A7D0523D20701D4180010BD03781B022F
S21400D210C022920013404178C901FF220A401343FE
S21400D220817849001E220A401343C2789204802166
S21400D230C9020A40134302791204C02189020A4037
S21400D24013430A4A536093685B035B0F084908243C
S21400D2509C400C8093684B8043780B71138BDB05E6
S21400D260DB0F1B01D0E7C046000400400040004131
S21400D2704C02002030B50400224A108853884343ED
S21400D2808B4206D28022920118201F4BCB18934265
S21400D2900ED81E4B5D688022D2022A435A60202296
S21400D2A0FF321A831B7DDB0703D4184B5D60052015
S21400D2B030BD452C22D8A300154AD3589F46134BA1
S21400D2C01B8BDB0503D5114B5D601020F0E789084A
S21400D2D049000E4BD96103E0890849000B4BD96120
S21400D2E0A52000020443094B1C80190001220B7D77
S21400D2F01342FCD0054B5D600020D9E7034B5D6010
S21400D3001720D5E74C02002000C07FFF00400041F8
S21400D310183F0100F8B5254B1D885B886B43182421
S21400D320834201D22000F8BD6B1E1842FAD1013CA0
S21400D3309542F7D31E4B1B7D123CDB07F2D51D4CE6
S21400D3401B4B1C801D0001242B7D2342FCD0202477
S21400D350FF34174B1C83002A22D0012305009D436F
S21400D3600023571E09E0CE187678360234432C8008
S21400D37002339BB202359A4204D9CC5CBB42F2DB44
S21400D380A4B2F4E7094B1B790024002BCAD13F2A2C
S21400D390C8D8002201000420074B98470400C1E7C4
S21400D3A0024B1B790024002BF3D0BBE74C02002075
S21400D3B00040004144A5FFFF75D2000070B5184B31
S21400D3C01D885B886B431824834201D2200070BD01
S21400D3D06B1E1842FAD1013C9542F7D3114B1B7DC8
S21400D3E0123CDB07F2D52024FF340E4B1C83002AA8
S21400D3F014D0012398430023561E04E002339BB248
S21400D40002309A4208D90488A4B2CC54B342F5DA62
S21400D410CD18240A6C70F1E70024D7E70024D5E77E
S21400D4204C02002000400041134B1A885B8853438F
S21400D4301821834201D2080070479200013A104238
S21400D440F9D10E4B1B7D1339DB07F4D50B4B20228D
S21400D450FF321A8380084000D861094A1A801900F2
S21400D46001220B7D1342FCD0044B198B1C2001407B
S21400D470481E81418900DEE74C0200200040004142
S21400D48002A5FFFF00B583B001AB80221A700A78B0
S21400D4905A704A789A708A78DA701900014B984761
S21400D4A003B000BD55EE0000F0B5DE4657464E46CA
S21400D4B04546E0B587B08046049116001F0000225E
S21400D4C0002300218B463F2401202100009601976F
S21400D4D05C4603944446059413E02024641A050031
S21400D4E0E540A84614E0009C019D121BAB415C463B
S21400D4F04D462C43A346039C45462C4303940139D2
S21400D50025D3202464420C19E7D40500A540A8467C
S21400D51004008C40A14692185B4114001D00059E35
S21400D5204F463E40B446049E47463E40B246664698
S21400D53057463E4303D00600264332002B00009C8D
S21400D540019D9D42DBD8CED19442D8D8CBE7039B31
S21400D5505846190007B03CBC90469946A246AB46D2
S21400D560F0BD10B5490840230024814202D21800BD
S21400D57010BD1C00091A631C9BB28842F9D94023CF
S21400D580FF2CF4D814800023F1E70000F0B583B038
S21400D5900F00160008AA117804004C434022BC4233
S21400D5A002D9100003B0F0BD002B14D10200080011
S21400D5B00021194CA04701003A0000230020174C18
S21400D5C0A04700220123121A8B41120C1B041A4397
S21400D5D032800022E5E70022012BF9D10A00002361
S21400D5E000210D4CA04702000B000092019338006A
S21400D5F000210A4CA047050080239B014022984248
S21400D600CFD8790FF800009A019BA047EA00821A4B
S21400D610D2B252032A43DBE7D9160100A9D4000090
S21400D62010B582B004000E4B1B78002B07D00029E3
S21400D63005D10B4B5B78834210D01D200CE001A96E
S21400D6400C701320074B98471320074B9847044B42
S21400D6505C7001221A70002002B010BD0020FBE7AB
S21400D660540200205DED0000D1EC0000404B9842D3
S21400D67031D00AD93F4B98424DD03F4B98425AD0B2
S21400D6803E4B984237D0002070473D4B98420CD016
S21400D6903C4B9842F7D1012917D000295DD00229CA
S21400D6A015D0032915D00020EEE7012907D0002960
S21400D6B051D0022905D0032905D00020E4E73248DE
S21400D6C0E2E73248E0E73248DEE73248DCE7324855
S21400D6D0DAE73248D8E7012907D000293FD00229E7
S21400D6E005D0032905D00020CEE72D48CCE72D48ED
S21400D6F0CAE72D48C8E7012907D0002931D00229FA
S21400D70005D0032905D00020BEE72848BCE72848F6
S21400D710BAE72848B8E7012907D0002923D002290C
S21400D72005D0032905D00020AEE72348ACE7234800
S21400D730AAE72348A8E7012907D0002915D002291F
S21400D74005D0032905D000209EE71E489CE71E480A
S21400D7509AE71E4898E71E4896E7032094E71D4878
S21400D76092E71D4890E71D488EE71D488CE7C046A7
S21400D7700010004200180042001C00420014004244
S21400D78000080042000C00420300050003000600EB
S21400D790030007000300010003001E0003001F0033
S21400D7A00300090003000A0003000B000300110039
S21400D7B0030012000300130003000D0003000E0018
S21400D7C003000F00030017000300180003001900F1
S21400D7D003000400030008000300100003000C0010
S21400D7E00300160030B587B00B4B6A4632CB32C208
S21400D7F032CB32C2009B83420BD001239A0069468B
S21400D8005258824206D00133062BF7D1002007B0CB
S21400D81030BD0023D8B2FAE7304001007047000060
S21400D820F0B50A4B1B78002B0CD1094F094E0A4D58
S21400D8300024DE515A1914600433182BF9D1012242
S21400D840024B1A708000024BC150F0BD56020020F9
S21400D850580200201DD800006405002000B583B0E3
S21400D86009236A46137001335370013393700133F2
S21400D870D3700133137101335371034B98476B46D2
S21400D880185603B000BDC046E5D7000010B5024BE1
S21400D8901B680020984710BD5802002010B5024BA8
S21400D8A05B680120984710BD5802002010B5024B57
S21400D8B09B680220984710BD5802002010B5024B06
