:10800000602000200D890000098900000989000016
:108010000000000000000000000000000000000060
:1080200000000000000000000000000009890000BE
:10803000000000000000000009890000098900001C
:1080400009890000098900000989000009890000E8
:1080500009890000098900000989000009890000D8
:1080600009890000ED810000FD8100000D82000003
:108070001D8200002D8200003D8200000989000061
:1080800009890000098900000989000009890000A8
:1080900009890000000000000000000009890000BC
:1080A0000989000009890000098900000989000088
:1080B0000000000010B5064C2378002B07D1054BBB
:1080C000002B02D0044800E000BF0123237010BD44
:1080D0000C00002000000000288C0000084B10B5A8
:1080E000002B03D00749084800E000BF0748036899
:1080F000002B00D110BD064B002BFBD09847F9E7B1
:108100000000000010000020288C0000288C0000D7
:10811000000000007047000070B50020084B984731
:108120000500084CFA218900A047074B1860074951
:108130002800A047064B18600522064B1A6070BD48
:1081400099860000618A00000000002040420F0074
:108150000400002010E000E00C4B1B68002B06D14F
:10816000EFF31083002B07D00022094B1A70074A47
:10817000136801331360704772B6BFF35F8F00223C
:10818000044B1A700132024B1A70F0E728000020ED
:108190002C00002008000020084B1A68013A1A60E1
:1081A0001B68002B09D1064B1B78002B05D0012240
:1081B000044B1A70BFF35F8F62B67047280000202F
:1081C0002C0000200800002000B583B001AB802205
:1081D0001A700A785A704A789A708A78DA70190098
:1081E000014B984703B000BDA988000010B5024BB1
:1081F0001B680020984710BD3000002010B5024BCE
:108200005B680120984710BD3000002010B5024B7C
:108210009B680220984710BD3000002010B5024B2B
:10822000DB680320984710BD3000002010B5024BDA
:108230001B690420984710BD3000002010B5024B88
:108240005B690520984710BD3000002010B5082854
:1082500003D880001B4B1B589F46002030E01A4B70
:1082600018692DE0194B1B6A9B059B0F1848D840D5
:1082700026E0154B586923E0134B1B6800209B0731
:108280001ED512491022CB681A42FCD00E4B1B6837
:108290005B0701D40F4813E000200F4B98470A4BAF
:1082A0009B681B041B0C58430AE05023074AD35C0D
:1082B00000205B0704D5044BD86801E08020000251
:1082C00010BDC046C08B00004800002000080040E0
:1082D00000127A00006CDC02CD87000070B50C49FA
:1082E0000B6A04788578407801221040800140268E
:1082F000B34303432A40D201802083431343032224
:10830000224012020348034013430B6270BDC04673
:1083100000080040FFFCFFFFF8B50500C468037DBE
:10832000012B3BD0AB6818012100204B98470F224E
:10833000024003092E78F601697889010E43F6B2EE
:108340001B494427CE551604013B1B051B0D334327
:108350008B64AB781B03EE78F60033432E79B600BE
:108360003343AF7C03263E4033432E8A3604114FFD
:108370003E403343EE7C3602E027FF003E4033436D
:108380002E7D3601302535402B43CB640F23984397
:10839000801844432409084BDC60F8BD018A013190
:1083A00049002000014B98470400BBE7618A0000A8
:1083B000000800400000FF0748000020082803D8FC
:1083C0008000254B1B589F46172044E0234A136A20
:1083D00002210B43136200203DE0204A93690221F1
:1083E0000B439361002036E01C4A138A02210B43A1
:1083F000138200202FE0194A938A02210B439382B3
:10840000002028E016490B68022213430B60134B2F
:108410009A8419000E32CB681A42FCD0104A916837
:108420000E4BD96252689A6200229A841900103267
:10843000CB681A42FCD00A4B1B689BB2074A938454
:10844000002008E0054944228B5C022003438B5442
:10845000002000E000207047E48B0000000800408E
:108460004800002070B58CB0C222D200354B9A6013
:1084700035494B681E2293431C3A13434B6001ABB2
:108480001A700024314DE0B201A9A8470134252C0F
:10849000F9D10BA8002444700125857004702C4B81
:1084A000984706202B4EB0472B4B984701A94C709C
:1084B00006230B700C724C7202334B600120274B69
:1084C00098470120264B98470AA90D7001201F4BA1
:1084D00098470120234B984704A844708470C470C7
:1084E0000471214B83600582C47484740470022378
:1084F00003751E4BC3601E4B98470820B0471148B8
:1085000050210322435C1340032BFBD10D4944222D
:10851000885C833B03438B54164A002313725372C7
:108520009372D37201A901224A604B7005320A701E
:108530000B724B720020094B98470020084B98475C
:108540000CB070BD0008004000400041B187000041
:10855000DD820000BD830000798500009D8500005C
:108560005586000025870000006CDC0240420F00A9
:108570001983000000040040064A936908210B4358
:1085800093610122044B1A7019000B781342FCD13D
:108590007047C04600040040000C004070B5060063
:1085A00004000D782D0205434B78002B02D0802368
:1085B000DB021D434B7A002B02D080231B031D439B
:1085C0004868012810D9431E184234D1022830D9F6
:1085D0000223002201325B009842FBD81202324390
:1085E000140080235B031D430B7A002B02D08023F1
:1085F0009B031D43134A53785BB2002BFBDB124BEA
:108600009847124B1E700F4A53785BB2002BFBDB6E
:108610000C4B9C601A0053785BB2002BFBDB094AC1
:108620005368802149020B401D435560084B984711
:1086300070BD0022D2E70402344380239B021D4315
:10864000D2E7C046000C004059810000080C0040F1
:108650009981000010B504000B4A53785BB2002BDF
:10866000FBDB0A4B98470A4B1C70074A53785BB2F6
:10867000002BFBDB044A516880235B020B435360F1
:10868000044B984710BDC046000C004059810000C3
:10869000040C00409981000070B504001A4A537818
:1086A0005BB2002BFBDB194B9847194B1C70164A29
:1086B00053785BB2002BFBDB134E7068C004C00E16
:1086C000144B98470500124B1C707668F602F60FA3
:1086D000114B1C700C4A53785BB2002BFBDB0A4B2E
:1086E0009C682402240C0D4B9847002E07D1012CC6
:1086F00007D9210028000A4B9847050001E0013402
:10870000E540280070BDC046000C004059810000C3
:10871000040C00404D820000080C004099810000CC
:10872000618A000010B50400064B9847064B1C7088
:10873000064A53888021C9010B435380044B984754
:1087400010BDC04659810000020C0040000C0040E2
:108750009981000010B504000F4B98470F4B1C7017
:108760000F4A53881B05180F53880E490B4053803E
:1087700053880D490B40538011008022D2014B8851
:108780001342FCD106494A880302064802401343BB
:108790004B80064B984710BD59810000020C0040E9
:1087A000000C0040FFF0FFFFFFBFFFFF99810000BA
:1087B00010B50C7824020443024B9847A4B2024B34
:1087C0005C8010BD55870000000C004010B504000F
:1087D000064B9847064B1C70064B5C882405240FFB
:1087E000054B98472000054B984710BD5981000064
:1087F000020C0040000C00409981000099860000A6
:1088000030B5D378002B35D11378802B29D01B06B7
:1088100080246402234354780225AC4306D1947823
:10882000002C20D18024A402234341605478013CD1
:10883000012C1CD90D042D0CA024E4052C431C4351
:1088400084620D0CD02424062C431C438462D4780B
:10885000002C22D15B031CD59378012B1ED04161E3
:1088600017E00023D7E7C024E4022343DDE70D4CE3
:108870002340DFE741600C04240CA023DB052343E5
:1088800083620C0CD0231B0623438362D378002B16
:1088900003D15378013B012B02D930BD8161F8E748
:1088A0008160FAE7FFFFFBFF10B50A00C109002352
:1088B000002904D14309DB0105498C4663441F2488
:1088C0002040012181401800024B984710BDC0464E
:1088D00000440041018800007047000010B5054BBE
:1088E0009847054B9847054B9847054B9847054BCC
:1088F000984710BD6584000015810000D9880000EC
:10890000D9880000D9880000FEE70000F8B52A4A9F
:108910002A4B9A4211D01A00294B9A420DD2294A69
:1089200003339B1A9B0801339B00002223482249F2
:108930008C58845004329A42FAD1234A234B9A42EB
:108940000AD2D34321495B1803218B4304339B187C
:10895000002102C29342FCD11D4AFF211D4B8B43D3
:108960009360FD3990235B001B4AD1501B4AD3789A
:108970000325AB4302242343D370D3780C27BB4396
:1089800008263343D370164B987B30229043202225
:1089900010439873997BB943314399739A7BAA43E7
:1089A00022439A730F4A536880210B4353600E4B46
:1089B00098470E4B9847FEE7288C000000000020E7
:1089C0000C000020040000200C00002060000020AB
:1089D00000ED00E000800000007000410050004108
:1089E0000048004100400041798B0000198A0000D6
:1089F00070B582B001AC012363700026A6702370AD
:108A000021001720034DA847267021003720A847D2
:108A100002B070BDC981000010B50B4B98470B4BDD
:108A2000984701220A4B1A70BFF35F8F62B6094B59
:108A30009847094880231B04084900E08B61026ABB
:108A40001A42FBD14B61FAE7DD880000F189000092
:108A500008000020198100008044004100440041CA
:108A6000002243088B4274D303098B425FD3030A6D
:108A70008B4244D3030B8B4228D3030C8B420DD380
:108A8000FF22090212BA030C8B4202D3121209020E
:108A900065D0030B8B4219D300E0090AC30B8B424C
:108AA00001D3CB03C01A5241830B8B4201D38B03FA
:108AB000C01A5241430B8B4201D34B03C01A52419F
:108AC000030B8B4201D30B03C01A5241C30A8B42E2
:108AD00001D3CB02C01A5241830A8B4201D38B02CD
:108AE000C01A5241430A8B4201D34B02C01A524171
:108AF000030A8B4201D30B02C01A5241CDD2C309E3
:108B00008B4201D3CB01C01A524183098B4201D35E
:108B10008B01C01A524143098B4201D34B01C01A49
:108B2000524103098B4201D30B01C01A5241C308C1
:108B30008B4201D3CB00C01A524183088B4201D330
:108B40008B00C01A524143088B4201D34B00C01A1C
:108B50005241411A00D20146524110467047FFE788
:108B600001B5002000F006F802BDC0460029F7D08C
:108B700076E770477047C04670B500260C4D0D4C27
:108B8000641BA410A64209D1002600F03DF80A4D4E
:108B90000A4C641BA410A64205D170BDB300EB586B
:108BA00098470136EEE7B300EB5898470136F2E7F5
:108BB000148C0000148C0000148C0000188C000031
:108BC0005E8200005A8200005A820000BC820000CF
:108BD000BC82000072820000648200007882000083
:108BE000AA820000E8830000C8830000C883000058
:108BF00054840000DA830000F6830000CC83000078
:108C00000484000044840000F8B5C046F8BC08BCE9
:108C10009E467047DD800000F8B5C046F8BC08BC31
:088C20009E467047B58000007C
:0C8C2800401F00000800000001000000D8
:040000030000890D63
:00000001FF
