:1040000030210020715200006D5200006D520000FE
:1040100000000000000000000000000000000000A0
:104020000000000000000000000000006D520000D1
:1040300000000000000000006D5200006D52000002
:104040006D5200006D5200006D5200006D52000074
:104050006D5200006D5200006D5200006D52000064
:104060006D520000E1450000F145000001460000EE
:104070001146000021460000314600006D5200004C
:104080006D5200006D5200006D5200006D52000034
:104090006D52000000000000000000006D520000A2
:1040A0006D5200006D5200006D5200006D52000014
:1040B0000000000010B5064C2378002B07D1054BFB
:1040C000002B02D0044800E000BF0123237010BD84
:1040D000700000200000000038600000084B10B5A0
:1040E000002B03D00749084800E000BF07480368D9
:1040F000002B00D110BD064B002BFBD09847F9E7F1
:1041000000000000740000203860000038600000EB
:10411000000000007047C04670B50020084B98476B
:104120000500084CFA218900A047074B1860074991
:104130002800A047064B18600522064B1A6070BD88
:10414000FD4F0000D55500000400002040420F0044
:104150000000002010E000E00C4B1B68002B10D189
:10416000EFF31083002B09D172B6BFF35F8F0022EB
:10417000074B1A700132074B1A7002E00022054B00
:104180001A70024A13680133136070478C000020D4
:104190000800002090000020084B1A68013A1A60BD
:1041A0001B68002B09D1064B1B78002B05D0012280
:1041B000044B1A70BFF35F8F62B670478C0000200B
:1041C000900000200800002000B583B001AB8022E1
:1041D0001A700A785A704A789A708A78DA701900D8
:1041E000014B984703B000BD0D520000F0B55F468B
:1041F00056464D464446F0B487B0804604911600BA
:104200001F000022002300218B463F2401202100B3
:10421000009601975C46039444460594202464422A
:104220000C1903D40500A540A84604E02024641A14
:104230000500E540A84604008C40A14614001D007E
:10424000A4185D4122002B00059E4F463E40B24619
:10425000049E47463E40B446564667463E4303D01A
:104260000600264332002B00009C019D9D420ED883
:1042700001D194420BD8009C019D121BAB415C46BE
:104280004D462C43A346039C45462C4303940139D9
:10429000C4D2039B5846190007B03CBC90469946CF
:1042A000A246AB46F0BDC04610B5490840230024E5
:1042B000814201D20AE01C00091A631C9BB28842A9
:1042C000F9D94023FF2C01D814800023180010BD19
:1042D000F0B583B00F00160008AA117804004C4313
:1042E0004022BC4236D8002B12D102000800002127
:1042F0001A4CA04701003A0000230020184CA047A8
:1043000000220123121A8B41120C1B041A431FE0D6
:104310000022012B1CD10A00002300210F4CA047D2
:1043200002000B0000920193380000210C4CA047C2
:104330000500402280239B0198420BD8790FF8009A
:10434000009A019BA047EA00821AD2B252032A4384
:1043500032800022100003B0F0BDC046ED560000D0
:10436000ED41000010B582B004000E4B1B78002B0D
:1043700001D000290DD001A90C7013200A4B9847D9
:1043800013200A4B9847074B5C7001221A700020DB
:1043900006E0044B5B78834201D01D2000E0002042
:1043A00002B010BD9400002015510000895000009B
:1043B000444B984233D006D8434B98420DD0434BE0
:1043C00098421BD06FE0424B98424AD0414B9842F2
:1043D00058D0414B984266D132E0012906D00029DD
:1043E00063D0022906D0032906D001E03B4867E0EC
:1043F000002065E03A4863E03A4861E0012906D0D0
:10440000002954D0022906D0032906D001E03648FD
:1044100056E0002054E0354852E0354850E001298C
:1044200006D0002945D0022906D0032906D001E094
:10443000304845E0002043E02F4841E02F483FE06E
:10444000012906D0002936D0022906D0032906D03A
:1044500001E02B4834E0002032E02A4830E02A48CE
:104460002EE0012906D0002927D0022906D00329F1
:1044700006D001E0254823E0002021E024481FE089
:1044800024481DE0012906D0002918D0022906D0B1
:10449000032906D001E0204812E0002010E01F4868
:1044A0000EE01F480CE000200AE01E4808E0032050
:1044B00006E01D4804E01D4802E01D4800E01D48DC
:1044C0007047C0460010004200080042000C004245
:1044D00000180042001C00420014004203000500C6
:1044E00003000600030007000300010003001E0094
:1044F00003001F000300090003000A0003000B0073
:1045000003001100030012000300130003000D005C
:1045100003000E0003000F00030017000300180043
:10452000030019000300040003000800030010004A
:1045300003000C000300160030B587B00C4B6A4630
:1045400032CB32C232CB32C2009B834206D001232F
:104550009A0069465258824203D100E00023D8B243
:1045600003E00133062BF3D1002007B030BDC04675
:10457000485F00007047C046F0B50A4B1B78002B1F
:104580000CD1094F094E0A4D0024DE515A1914600E
:104590000433182BF9D10122024B1A708000024B10
:1045A000C150F0BD96000020980000207545000025
:1045B0000801002010B582B00400062205496846B3
:1045C000054B98472000054B98476B46185602B09C
:1045D00010BDC046605F00009157000039450000E3
:1045E00010B5024B1B680020984710BD98000020B2
:1045F00010B5024B5B680120984710BD9800002061
:1046000010B5024B9B680220984710BD980000200F
:1046100010B5024BDB680320984710BD98000020BE
:1046200010B5024B1B690420984710BD980000206C
:1046300010B5024B5B690520984710BD980000201B
:10464000F0B55F4656464D464446F0B491B005007D
:104650000C00160029600800BB4B98472268052310
:10466000D20700D567E122681733920700D562E1CF
:10467000B6490A6A871C1B3BBB4013430B620FA958
:104680002D27F35D0B701430C3B202931800B04BAA
:1046900098470298AF4B9847F05D0021AE4B984782
:1046A000F37A6B712423F35CAB712523F35CEB711C
:1046B000F37E2B72337F6B722B6899461800A24BE6
:1046C0009847143000220E2306A98C4663441A80B2
:1046D000328A02928023DB019A421AD004D88023C6
:1046E0009B019A420BD007E1C023DB01029A9A4258
:1046F0000AD080231B029A4200D102E1FCE0102381
:1047000006930F3B079300E108230693073B0793AB
:10471000FBE033680493F368039373699846337E30
:104720009B462623F35C059373689A46002B15D0AD
:1047300080235B059A4536D12723F35C002B36D1C5
:10474000336A1F00C0B2854B984701000E2206ABAA
:104750009C4662443800824B984725E00823069324
:10476000002307932723F35C002B0BD0069B0093B9
:10477000079B0E2206A98C466244B16A306A794FC3
:10478000B84711E0336A1F00C0B2744B984701006C
:10479000069B0093079B0E2206A8844662443800BD
:1047A000704FB84700E00020031E00D0C3E0737EC6
:1047B000002B02D0B37E4A4693732A68029FD369C6
:1047C000002BFCD10E3306AA944663441B884A464C
:1047D0009381049B039A1343424613435246134367
:1047E0003B435A4612021343059A57071F43272398
:1047F000F35C002B01D104331F43717E8902337FA8
:104800005B021943737F1B0219432423F35C5B048F
:1048100019432523F05C00040A000243B17AF37ABD
:10482000194311433389FF2B04D0802252041743CC
:10483000194305E0F37E002B02D08023DB041F43E5
:104840002C23F35C002B03D1474B9B789B0701D5AE
:1048500080231F432A68D369002BFCD14B46596043
:104860002A68D369002BFCD14B461F600EAB802217
:104870001A7000225A70DA709A70336B0A93736B55
:104880000B93B36B0C93F36B02930D9300270EAE57
:10489000F9B2BB000AAA9858002802D12000334B75
:1048A0009847431C05D03070000CC0B23100304B2B
:1048B00098470137042FEBD10023EB602B616B612C
:1048C000AB61EB612B62AB626B620022EB85AB8567
:1048D0003033EA540133EA540133EA540133EA54E1
:1048E0002868194B984704002249234B9847A40095
:1048F000224BE55000231EE010230693002307936C
:1049000003E0032306930023079333680493F368BB
:10491000039373699846337E9B462623F35C059385
:1049200073689A46002B00D11CE780235B059A45EB
:1049300000D101E73BE7180011B03CBC9046994616
:10494000A246AB46F0BDC046394500000004004019
:1049500015510000895000006543000031510000EE
:10496000A9420000D142000000200041B1430000F4
:104970000D5200001D4A000079450000080100208A
:10498000C2791C23002A0ED0C28D92B2173B002A96
:1049900009D10368DA69002AFCD1198502211A7E3F
:1049A0000A42FCD0002318007047C04682791C23BD
:1049B000002A30D0828D92B2173B002A2BD1026898
:1049C000107E400727D5D369002BFCD1538BDBB277
:1049D00098061DD0980703D50223538318331AE095
:1049E000580703D5042353831A3314E0D80703D59B
:1049F0000123538312330EE0D80603D510235383CB
:104A0000323308E09B0603D520235383213302E091
:104A1000138D0B80002318007047C046F8B5800046
:104A2000604BC5582C68E369002BFCD1237EA67D22
:104A30001E403023EB5C3122AF5C1F40F30722D5D0
:104A4000EB8D9BB2002B1CD0AA6A1378DBB2511CF1
:104A5000A9626979012901D09BB204E05178090269
:104A60000B430232AA62DB05DB0D2385EB8D013B94
:104A70009BB2EB85002B06D1013323750133A3755F
:104A800001E001232375B30709D502232375002212
:104A90003133EA54FB0702D52800EB6898477307C7
:104AA00060D5AB8D9BB2002B5AD0638BDBB21A075B
:104AB00002D43F22134001E037221340002B2DD0B7
:104AC0009A0705D51A223223EA54303B63831FE04C
:104AD0005A0705D51E223223EA542E3B638317E082
:104AE000DA0705D513223223EA54313B63830FE002
:104AF000DA0605D542223223EA54223B638307E0DB
:104B000020221A4204D021323223EA54123B63831A
:104B10007B0727D528006B69984723E0238DDB05A9
:104B2000DB0DDAB2696A0A706A6A511C69626979D6
:104B3000012904D11B0A53706B6A01336B62AB8D80
:104B4000013B9BB2AB85002B0CD1043323750022B3
:104B50002E33EA54BB0705D528002B69984701E09E
:104B600004232375F30607D5102323752376FB064C
:104B700002D52800EB699847B30607D52023237593
:104B800023763B0702D52800AB699847330707D542
:104B9000082323752376BB0602D52B6A2800984785
:104BA000F8BDC0460801002010B5082803D88000D1
:104BB0001B4B1B589F46002030E01A4B18692DE014
:104BC000194B1B6A9B059B0F1848D84026E0154BD4
:104BD000586923E0134B1B68022018401ED012496D
:104BE0001022CB681A42FCD00E4B1B685B0714D511
:104BF00000200F4B98470B4B9B681B041B0C584322
:104C00000CE05023084AD35C00205B0706D5054B17
:104C1000D86803E08020000200E0064810BDC046CE
:104C2000685F0000B00000200008004000127A0019
:104C300031510000006CDC0270B50C4C236A017825
:104C4000857842780120024092014026B343134305
:104C500002002A40D2017F308343134303220A40DB
:104C6000120203490B401343236270BD0008004049
:104C7000FFFCFFFFF8B50400C568037D012B06D1DA
:104C8000018A013149002800204B98470500A3689C
:104C9000180129001D4B98470F2101400009237876
:104CA000DA0163789B011343DBB2194E4422B354FB
:104CB0000A04431E1B051B0D1343B364A3781F0393
:104CC000E378DB003B43227992001343A27C032765
:104CD0003A4013431F00238A1B040E4A1A403B002C
:104CE0001343E77C3F02E022D2003A4013431F0007
:104CF000227D120130231A403B001343F36400016C
:104D000041184D432D09044BDD60F8BDD555000019
:104D1000000800400000FF07B0000020082803D86A
:104D20008000254B1B589F46172044E0234A116AF8
:104D300002230B43136200203DE0204A91690223C5
:104D40000B439361002036E01C4A118A02230B4377
:104D5000138200202FE0194A918A02230B43938289
:104D6000002028E016490B68022213430B60134B06
:104D70009A8419000E32CB681A42FCD0104A91680E
:104D80000E4BD96252689A6200229A84190010323E
:104D9000CB681A42FCD00A4B1B689BB2074A93842B
:104DA000002008E005494422885C022303438B5419
:104DB000002000E0002070478C5F000000080040E9
:104DC000B000002070B58CB0C222D200364B9A6081
:104DD00036494B681E2293431C3A13434B6001AB88
:104DE0001A700024324DE0B201A9A8470134252CE5
:104DF000F9D10BA8002444700125857004702D4B57
:104E0000984706202C4EB0472C4B984701A94C7070
:104E100006230B700C724C7202334B600120284B3E
:104E200098470120274B98470AA90D700120204B75
:104E300098470120244B984704A844708470C4709C
:104E40000471224B83600582C4748474047002234D
:104E500003751F4BC3601F4B98470820B04712488B
:104E600050210322435C1340032BFBD10E49442203
:104E70008B5C8020404203438B54174A00231372FB
:104E800053729372D37201A901224A604B700532AA
:104E90000A700B724B720020094B98470020094B97
:104EA00098470CB070BDC04600080040004000416B
:104EB00015510000394C00001D4D0000DD4E000072
:104EC000014F0000B94F000089500000006CDC0267
:104ED00040420F00754C000000040040064A9169F2
:104EE00008230B4393610122044B1A7019000B78BD
:104EF0001342FCD17047C04600040040000C004043
:104F000070B5060005000C78240204434B78002B92
:104F100002D08023DB021C434B7A002B02D080237B
:104F20001B031C434868012818D9431E184210D19E
:104F3000022806D90223002201325B009842FBD8E6
:104F400000E0002212023243150080235B031C4361
:104F500004E00502354380239B021C430B7A002B9F
:104F600002D080239B031C430F4A53785BB2002B73
:104F7000FBDB0E4B98470E4B1E700B4A53785BB20F
:104F8000002BFBDB084B9D601A0053785BB2002BB3
:104F9000FBDB054A516880235B020B401C435460D5
:104FA000044B984770BDC046000C004059410000BA
:104FB000080C00409941000010B504000B4A5378DA
:104FC0005BB2002BFBDB0A4B98470A4B1C70074A6D
:104FD00053785BB2002BFBDB044A53688021490203
:104FE0000B435360044B984710BDC046000C004073
:104FF00059410000040C00409941000070B50400C4
:105000001A4A53785BB2002BFBDB194B9847194BBC
:105010001C70164A53785BB2002BFBDB134E706892
:10502000C004C00E144B98470500124B1C707668E4
:10503000F602F60F114B1C700C4A53785BB2002B32
:10504000FBDB0A4B9C682402240C0D4B9847002E76
:1050500007D1012C07D9210028000A4B98470500E9
:1050600001E00134E540280070BDC046000C00405E
:1050700059410000040C0040A94B0000080C0040FE
:1050800099410000D555000010B50400064B984723
:10509000064B1C70064A51888023DB010B4353806A
:1050A000044B984710BDC04659410000020C004017
:1050B000000C00409941000010B504000F4B9847C8
:1050C0000F4B1C700F4B5A881205100F59880E4A4F
:1050D0000A405A8059880D4A0A405A801900802295
:1050E000D2014B881342FCD106494C880202064B80
:1050F000234013434B80064B984710BD5941000095
:10510000020C0040000C0040FFF0FFFFFFBFFFFF5C
:105110009941000010B50C7824020443024B9847D3
:10512000A4B2024B5C8010BDB9500000000C0040DE
:1051300010B50400064B9847064B1C70064B5C8864
:105140002405240F054B98472000054B984710BDB8
:1051500059410000020C0040000C00409941000041
:10516000FD4F000030B5D378002B1ED11378802B73
:1051700004D01B0680246402234300E000235478FB
:105180000225AC430AD19478002C03D18024A402D8
:10519000234302E0C024E402234341605478013CED
:1051A000012C12D8184C23400FE041600B041B0C5B
:1051B000A024E405234383620B0CD024240623435C
:1051C0008362D378002B18D01CE00C04240CA0259B
:1051D000ED052C431C4384620C0CD0252D062C437A
:1051E0001C438462D478002C0CD15B0305D59378E2
:1051F000012B01D1816100E041615378013B012B1A
:1052000000D8816030BDC046FFFFFBFF10B5030032
:105210000A00C1090020002904D15809C00105492C
:105220008C4660441F210B401E399940024B984721
:1052300010BDC04600440041655100007047C046A3
:1052400010B5054B9847054B9847054B9847054BBC
:105250009847054B984710BDC54D0000154100000B
:105260003D5200003D5200003D520000FEE7C046A6
:1052700070B52E4B2E4A9A4203D02E4B2B4A9A429F
:1052800004D32D4B2D4A9A4210D31EE02C4A294BB1
:1052900003339B1A9B0801339B00002223482449B7
:1052A0008C58845004329A42FAD1EAE7254A224BBC
:1052B00003339B1A9B0801339B0000221F480021E7
:1052C0001418216004329A42FAD11F4AFF211F4B61
:1052D0008B439360FD3990235B001D4AD1501D48DC
:1052E000C3780324A34302221343C370C3780C265C
:1052F000B34308210B43C370174B987B3025A84359
:105300000500202028439873987BB043014399738C
:10531000997BA1430A439A73104A516880230B4337
:1053200053600F4B98470F4B9847FEE70000002053
:105330003860000070000020300100207000002064
:10534000040000207400002000ED00E00040000098
:105350000070004100500041004800410040004101
:1053600045570000A1540000F0B5474680B40C003A
:10537000904600280DD1002A0EDD8F18084E094DE9
:10538000306821002B6898470134A742F8D1404685
:1053900003E00120404200E0002004BC9046F0BD44
:1053A0002801002020010020F0B5474680B40E00FF
:1053B00015000138022811D8002A12D000240C4B05
:1053C00098460C4F43461868315D3B689847002863
:1053D00009DB0134A542F5D1200006E0012040425E
:1053E00003E0002001E00120404204BC9046F0BDF3
:1053F00028010020240100200300064A1268002A28
:1054000002D10549034A1160024A1068C3181360AB
:105410007047C046C80000203021002001204042D3
:105420007047C04680239B014B6000207047C046F8
:105430000020704770B582B005000E0000226B4658
:10544000DA80064C6B46991D2800A0470028F9D148
:105450006B4606331B88337002B070BDAD49000047
:1054600070B505008CB2034E21002800B04700281B
:10547000FAD170BD8149000070B582B001AC012342
:1054800063700026A670237021001720034DA847E3
:10549000267021003720A84702B070BDC941000026
:1054A000F0B591B0384B9847384B98470124384BAA
:1054B0001C70BFF35F8F62B6364B98478023DB05C5
:1054C000009300230193FF2269460A8100228B7218
:1054D000CB72242168464454013144540131435471
:1054E000013143540A930531435401314354059328
:1054F0000382C3760276027742761323837642775D
:10550000C4239B03039301235B420C930D93224B13
:105510000E93224B0F93E1235B020893204D214B06
:105520001D60214A214B1A60214A224B1A606A46AB
:1055300021492800214B9847214F3B68986800215A
:10554000204EB0473B6858680021B0472E683000B5
:105550001D4B98471F23184084401C4B1C602B6830
:10556000DA69002AFCD132680223134333601849F8
:105570000800803080231B04026A1A4201D14B616B
:10558000FAE78B61F8E7C046415200007954000009
:10559000080000201941000003002A0003002B002E
:1055A000CC000020280100206154000024010020CC
:1055B0003554000020010020001800424146000040
:1055C0006C000020B3570000B545000000E100E08A
:1055D00000440041002243088B4274D303098B42EC
:1055E0005FD3030A8B4244D3030B8B4228D3030CB3
:1055F0008B420DD3FF22090212BA030C8B4202D355
:105600001212090265D0030B8B4219D300E0090A7C
:10561000C30B8B4201D3CB03C01A5241830B8B4285
:1056200001D38B03C01A5241430B8B4201D34B036E
:10563000C01A5241030B8B4201D30B03C01A5241D3
:10564000C30A8B4201D3CB02C01A5241830A8B4258
:1056500001D38B02C01A5241430A8B4201D34B0241
:10566000C01A5241030A8B4201D30B02C01A5241A5
:10567000CDD2C3098B4201D3CB01C01A5241830959
:105680008B4201D38B01C01A524143098B4201D393
:105690004B01C01A524103098B4201D30B01C01ABE
:1056A0005241C3088B4201D3CB00C01A5241830838
:1056B0008B4201D38B00C01A524143088B4201D365
:1056C0004B00C01A5241411A00D2014652411046C5
:1056D0007047FFE701B5002000F006F802BDC046A4
:1056E0000029F7D076E770477047C046F0B54F46BF
:1056F0004646C0B41604360C9946330005042C0CFB
:10570000070C150C63437E436F4365431C0CAD19B6
:1057100064199C46A64203D980235B0298464744FD
:105720006346250CEF191D044B464A4343432D0C99
:10573000240464199918C91920000CBC9046994694
:10574000F0BDC0460E4B70B500251E000D4CE41A8E
:10575000A410A54204D0AB00F35898470135F8E7F0
:1057600000F05AFC084B00251E00084CE41AA41057
:10577000A54204D0AB00F35898470135F8E770BD57
:105780002460000024600000246000002860000005
:10579000002310B59A4203D0CC5CC4540133F9E71E
:1057A00010BD03008218934202D019700133FAE74A
:1057B00070474A424A41802310B55200DB0000F096
:1057C00001F810BDF0B51D00514B85B01E680400F6
:1057D0000F000092002E05D0B369002B02D13000DB
:1057E00000F094F94B4B9C4201D1746808E04A4B9D
:1057F0009C4201D1B46803E0484B9C4200D1F4685C
:10580000009B022B05D0012B00D97CE0002D00DA93
:1058100079E02100300000F00BF9616B002908D01D
:1058200023004433994202D0300000F033FA0023C1
:1058300063630023A3616360A3891B0603D5216909
:10584000300000F027FAA289354B1340A381009B5A
:10585000022B21D003AB02AA2100300000F0EAF9AC
:10586000A3891843A081002D01D1029D01E0002FE2
:1058700025D1280000F004FA0195071E1AD1029BD9
:105880000193AB4202D10120404206E0019800F0B2
:10589000F7F9071E0ED1F6E700200222A389134371
:1058A000A3810023A36023004733236023610123E6
:1058B00063612AE08022A389019D1343A381B36918
:1058C000002B02D1300000F021F9009B012B03D105
:1058D000A389009A1A43A2810823A2892760134052
:1058E00027616561181E0CD001231A400023101E89
:1058F000984204D06D42A360A561180005E0A56040
:1059000003E0A36001E00120404205B0F0BDC046C5
:105910006C000020B85F0000D85F0000F85F000056
:105920005CF3FFFFF7B58A8905000C0013075AD412
:105930004B68002B02DC0B6C002B19DDE76A002F93
:1059400016D000232E682B6080235B011A4001D003
:10595000606D14E00123216A2800B847431C0ED172
:105960002B68002B0BD01D2B01D0162B02D12E60E3
:1059700000205AE04022A3891343A38155E0A38964
:105980005B0706D56368C01A636B002B01D0236CDC
:10599000C01A00230200216A2800E76AB847A389D9
:1059A000421C06D129681D293AD8204ACA40D2078C
:1059B00036D50022626022692260DB0405D5431CD3
:1059C00002D12B68002B00D16065616B2E6000292D
:1059D000CED023004433994202D0280000F05AF977
:1059E0000020606321E00F69002FC1D00B680F60B9
:1059F000DB1B01930023920700D14B69A36003E0F6
:105A0000019B3F181B1A0193019B002BB0DD019BEA
:105A10003A00216A2800A66AB0470028F0DCA38972
:105A2000402201201343A3814042FEBD01004020DB
:105A30000B6970B505000C00002B01D100201CE0A3
:105A4000002804D08369002B01D100F05FF80B4BD4
:105A50009C4201D16C6808E0094B9C4201D1AC68C2
:105A600003E0084B9C4200D1EC680C22A35E002BA3
:105A7000E4D021002800FFF755FF70BDB85F00009B
:105A8000D85F0000F85F000010B5024900F0B0F8E0
:105A900010BDC046315A0000002310B50400036059
:105AA0004360836081814366C28103614361836196
:105AB000190008225C30FFF774FE054B2462636214
:105AC000044BA362044BE362044B236310BDC04646
:105AD000F15D0000195E0000515E00007D5E000077
:105AE00070B568254B1E5D430E002900743100F02F
:105AF00017F9041E08D000212A00016046600C300E
:105B0000A0606832FFF74DFE200070BD836913B5B9
:105B10000400002B28D18364C3640365134B144A2B
:105B20001B6882620193984201D1012383612000A6
:105B300000F020F86060200000F01CF8A060200059
:105B400000F018F80022E06004216068FFF7A4FF6D
:105B500001220921A068FFF79FFF02221221E068BD
:105B6000FFF79AFF0123A36113BDC046B45F000095
:105B7000895A0000F8B51D4B06001D68AB69002B63
:105B800002D12800FFF7C2FF4835AC686B68013BC3
:105B900005D40C22A75E002F10D06834F7E72B68DD
:105BA000002B01D02D68F0E704213000FFF798FFAB
:105BB00028600028F6D10C23336016E00123200072
:105BC0005B42E3810233A38167662760A760676059
:105BD00027616761A7615C3008223900FFF7E1FDAA
:105BE00020006763A763A764E764F8BDB45F0000A3
:105BF000F7B504000700002601914834002C16D0A8
:105C00006368A5680093009B013B00930DD4AB89AA
:105C1000012B08D90E22AB5E013304D029003800D5
:105C2000019B984706436835EDE72468E6E73000B6
:105C3000FEBD000070B50E001D000E23C95E90B0C1
:105C40001400002906DA00232B60B3891B060FD548
:105C500040230FE001AA00F03DF90028F3DBF02318
:105C6000029A1B021340054A9B185A4253412B606B
:105C70008023DB000020236010B070BD00E0FFFF38
:105C800010B5034B0100186800F04AF810BDC0467B
:105C90006C00002030B500293ED004390B68002B81
:105CA00000DAC9181D4A13681400002B02D14B609A
:105CB000116031E08B420DD90A688818834203D104
:105CC00018685B6882180A604B60216024E08A4291
:105CD00003D813005A68002AF9D11D685C198C4258
:105CE0000BD10968691858181960824214D11068DC
:105CF0005268411819605A600EE08C4202D90C2398
:105D0000036009E008680C18A24203D114685268C5
:105D1000201808604A60596030BDC0460401002068
:105D2000032370B5CD1C9D43083506000C2D01D210
:105D30000C2505E0002D03DA0C230020336040E041
:105D4000A942F9D81F4B1C681A002100002913D062
:105D50000B685B1B0DD40B2B02D90B60CC181EE01B
:105D60008C4202D1636813601AE04B6863600C00D8
:105D700016E00C004968E9E7134C2368002B03D1B7
:105D8000300000F023F820602900300000F01EF8F9
:105D9000431CD1D00323C41C9C43A0420AD12560DC
:105DA000200007220B30231D9043C31A09D05A420A
:105DB000E25006E0211A300000F008F8431CEED152
:105DC000BAE770BD0401002000010020002370B577
:105DD000064C050008002360FFF70EFB431C03D1AF
:105DE0002368002B00D02B6070BDC0462C01002022
:105DF00070B50C000E25495F00F092F8002803DB17
:105E0000636D1B18636503E0A289024B1340A381F5
:105E100070BDC046FFEFFFFFF8B51F008B8905007E
:105E20000C001600DB0505D50E23C95E00220223F7
:105E300000F062F8A289054B28001340A3813200CC
:105E40000E23E15E3B0000F01FF8F8BDFFEFFFFFFF
:105E500070B50C000E25495F00F04EF8A389421C76
:105E600003D1054A1340A38104E080225201134369
:105E7000A381606570BDC046FFEFFFFF10B50E2324
:105E8000C95E00F015F810BD70B5050008001100DE
:105E90000022064C22601A00FFF786FA431C03D149
:105EA0002368002B00D02B6070BDC0462C01002061
:105EB000002370B5064C050008002360FFF7AEFA1A
:105EC000431C03D12368002B00D02B6070BDC0465B
:105ED0002C010020002370B5064C050008001100BD
:105EE0002360FFF79FFA431C03D12368002B00D0E7
:105EF0002B6070BD2C01002070B50500080011005A
:105F00000022064C22601A00FFF792FA431C03D1CC
:105F10002368002B00D02B6070BDC0462C010020F0
:105F200070B50500080011000022064C22601A001E
:105F3000FFF71AFA431C03D12368002B00D02B6013
:105F400070BDC0462C01002000080042000C004239
:105F5000001000420014004200180042001C0042E1
:105F6000090A0B0C0D0E0000BA4B0000B64B0000E6
:105F7000B64B0000144C0000144C0000CE4B000047
:105F8000C04B0000D44B0000024C0000484D000004
:105F9000284D0000284D0000B44D00003A4D00008F
:105FA000564D00002C4D0000644D0000A44D000033
:105FB000430000000C000020000000000000000072
:105FC00000000000000000000000000000000000D1
:105FD00000000000000000000000000000000000C1
:105FE00000000000000000000000000000000000B1
:105FF00000000000000000000000000000000000A1
:106000000000000000000000000000000000000090
:106010000000000000000000F8B5C046F8BC08BC55
:106020009E467047DD400000F8B5C046F8BC08BC8D
:086030009E467047B5400000D8
:1060380008000000401F00000100000000000000F0
:10604800B85F0000D85F0000F85F000000000000A3
:10605800000000000000000000000000B05F000029
:106068000000000000000000000000000000000028
:106078000000000000000000000000000000000018
:106088000000000000000000000000000000000008
:106098000000000000000000000000000C000020CC
:040000030000527136
:00000001FF
