:1000000080220020091800000119000001190000D9
:1000100000000000000000000000000000000000E0
:1000200000000000000000000000000001190000B6
:10003000000000000000000001190000011900008C
:100040000119000001190000011900000119000048
:100050000119000001190000011900000119000038
:1000600001190000E5250000FD250000152600000F
:100070002D260000452600005D2600000119000025
:100080000119000001190000011900000119000008
:10009000011900000000000000000000011900002C
:1000A00001190000011900000119000001190000E8
:1000B0000000000010B5064C2378002B07D1054B3B
:1000C000002B02D0044800E000BF0123237010BDC4
:1000D00070000020000000006C5D0000084B10B5AF
:1000E000002B03D00749084800E000BF0748036819
:1000F000002B00D110BD064B002BFBD09847F9E731
:1001000000000000740000206C5D00006C5D0000C9
:100110000000000080B500AFC046BD4680BDC046AF
:1001200080B584B000AF0200FB1D1A700F23FB18CE
:10013000FA1D1278D2091A700E23FB18FA1D1278D4
:1001400052091A700D4BBB600F23FB181B78002B54
:100150000FD10F23FB181B789B0010229446BC4440
:100160006344083B1A680E23FB181B78DB01D31885
:1001700000E000231800BD4604B080BD00440041EB
:1001800080B582B000AF0200FB1D1A70FB1D1B780A
:100190001800034B984703001800BD4602B080BD0D
:1001A0002101000080B584B000AF0200FB1D1A7071
:1001B000BB1D0A1C1A70FB1D1B7818000D4B9847BD
:1001C0000300FB60FB1D1B781F22134001229A4095
:1001D0001300BB60BB1D1B78002B03D0FB68BA6803
:1001E0009A6102E0FB68BA685A61C046BD4604B035
:1001F00080BDC0468101000080B500AF024B98472A
:10020000C046BD4680BDC0461D08000080B500AF99
:10021000024B9847C046BD4680BDC04671080000ED
:1002200080B584B000AF78600D4B98477B681B7930
:10023000DBB2002B04D00F23FB1805221A7006E056
:100240007B6801221A710F23FB1800221A70054BDC
:1002500098470F23FB181B781800BD4604B080BDDB
:10026000F90100000D02000080B582B000AF786097
:100270007B6800221A71C046BD4602B080BDC046F0
:1002800080B582B000AF0200FB1D1A70FB1D1B7809
:10029000092B18D89A000E4BD3181B689F460D4B9C
:1002A00012E00D4B10E00D4B0EE00D4B0CE00D4B32
:1002B0000AE00D4B08E00D4B06E00D4B04E00D4B42
:1002C00002E00D4B00E000231800BD4602B080BDE7
:1002D0002C5A00001F6500001F4300001F4401004E
:1002E0001F4502001F4501001F4602001F46030074
:1002F0001F8600001F4701001F48000080B582B024
:1003000000AF0200FB1D1A70FB1D1B78092B19D8CA
:100310009A000F4BD3181B689F4680235B0212E0A4
:100320008023DB020FE080231B030CE080235B03B0
:1003300009E080239B0306E08023DB0303E08023A6
:100340001B0400E000231800BD4602B080BDC0467B
:10035000545A000080B582B000AF78607B685B794A
:1003600000211800024B9847C046BD4602B080BD30
:10037000A501000080B582B000AF78607B685B7932
:1003800001211800024B9847C046BD4602B080BD0F
:10039000A501000084B0B0B584B000AF786004203F
:1003A0002024A446BC44604401604260836004236E
:1003B00020229446BC4463441A780823FB181A7020
:1003C000042320229446BC4463445B78012B1FD94C
:1003D000042320229446BC4463445B68DAB20823B9
:1003E000FB18DA70042320229446BC4463445B6803
:1003F0001B0ADAB20823FB189A70042320229446C1
:10040000BC4463445B681B0CDAB20823FB185A70C7
:100410007B6818001D4B98477B68186804232022CE
:100420009446BC4463445B789AB20F23FC180823BB
:10043000FB181900164B9847030023700423202251
:100440009446BC4463449B89002B14D07B68186895
:10045000042320229446BC44634499680423202248
:100460009446BC4463449A890F23FC180023094D29
:10047000A847030023707B681800074B9847C046C5
:10048000BD4604B0B0BC08BC04B01847550300001A
:1004900081100000C50E00007503000084B090B507
:1004A00085B000AF786004202024A446BC4460449A
:1004B000016042608360042320229446BC4463446C
:1004C0001A780823FB181A70042320229446BC448F
:1004D00063445B78012B1FD9042320229446BC443B
:1004E00063445B68DAB20823FB18DA700423202225
:1004F0009446BC4463445B681B0ADAB20823FB18C9
:100500009A70042320229446BC4463445B681B0C0D
:10051000DAB20823FB185A707B6818001D4B984705
:100520007B681868042320229446BC4463445B78AB
:100530009AB20F23FC180823FB181900164B984792
:1005400003002370042320229446BC4463449B8907
:10055000002B14D07B681868042320229446BC44E6
:1005600063449968042320229446BC4463449B89D5
:100570000F22BC181A00084B9847030023707B68B1
:100580001800064B9847C046BD4605B090BC08BC55
:1005900004B01847550300008110000075030000E7
:1005A00090B58BB002AF78600023BB607B681B689E
:1005B0001F22BC181800214B9847030023701F23EB
:1005C000FB181B78052B03D11F23FB181B7830E089
:1005D0000C23FB189F221A700C23FB1801225A705F
:1005E0000C23FB180822BA189A600C23FB1803226C
:1005F0009A810C23FB1800225A600C23FB187868A0
:100600006A46D968116019685A689B680C4CA04703
:100610007B681B6818000B4B98477B681B79180098
:10062000094B9847021EBB689A4201D1002300E0A3
:1006300014231800BD4609B090BDC0462102000039
:1006400095030000690200008102000090B58DB0A2
:1006500002AFF860B9607A601A00BB1C1A80BB1C3C
:100660001A88BB68D418FB681B791800214B98477F
:1006700003009C4201D9172337E0FB681B6827223F
:10068000BC1818001C4B9847030023702723FB1845
:100690001B78052B03D12723FB181B7825E0142397
:1006A000FB180B221A701423FB1805225A7014230E
:1006B000FB18BA685A601423FB187A689A601423EE
:1006C000FB18BA1C12889A811423FB18F8686A4632
:1006D000D968116019685A689B68084CA047FB6884
:1006E0001B681800064B984700231800BD460BB046
:1006F00090BDC046FD0200002102000095030000ED
:100700006902000090B58BB002AF78607B681B680F
:100710001F22BC1818001B4B9847030023701F238F
:10072000FB181B78052B03D11F23FB181B7824E033
:100730000C23FB18B9221A700C23FB1801225A70E3
:100740000C23FB1800229A810C23FB1800225A600C
:100750000C23FB1800229A600C23FB1878686A4669
:10076000D968116019685A689B68074CA0477B6874
:100770001B681800054B984700231800BD4609B0B8
:1007800090BDC046210200009D04000069020000E7
:1007900090B58BB002AF78607B681B681F22BC18D5
:1007A00018001B4B9847030023701F23FB181B786E
:1007B000052B03D11F23FB181B7824E00C23FB1807
:1007C000AB221A700C23FB1801225A700C23FB1861
:1007D00000229A810C23FB1800225A600C23FB187C
:1007E00000229A600C23FB1878686A46D968116069
:1007F00019685A689B68074CA0477B681B681800FB
:10080000054B984700231800BD4609B090BDC0466F
:10081000210200009D0400006902000080B582B042
:1008200000AF104B1B68002B12D1EFF310837B60DD
:100830007B68002B09D172B6BFF35F8F0A4B002291
:100840001A700A4B01221A7002E0084B00221A703B
:10085000044B1B685A1C034B1A60C046BD4602B0CD
:1008600080BDC0468C0000200000002090000020C9
:1008700080B500AF0B4B1B685A1E0A4B1A60094B20
:100880001B68002B0AD1084B1B78DBB2002B05D06C
:10089000064B01221A70BFF35F8F62B6C046BD4699
:1008A00080BDC0468C000020900000200000002089
:1008B00080B582B000AF78607B6880221A707B6858
:1008C00000225A707B6801229A707B680022DA70DD
:1008D000C046BD4602B080BD80B582B000AF786032
:1008E0007B6800221A70C046BD4602B080BDC0467B
:1008F00080B582B000AF02003960FB1D1A70FB1D8D
:100900001B78012B0AD0022B0FD0002B14D10E4BD9
:100910000D4A91693A680A439A610FE00A4B0A4A04
:10092000D1693A680A43DA6108E0074B064A116A5E
:100930003A680A431A6201E0172300E00023180016
:10094000BD4602B080BDC0460004004080B500AF87
:10095000054B9B78DBB21A00022313405A1E9341C9
:10096000DBB21800BD4680BD0020004180B584B0D8
:1009700000AF78607B681B68FB60FB681B7EDBB2A6
:100980001A00022313405A1E9341DBB21800BD46E1
:1009900004B080BD80B584B000AF78607B681B6810
:1009A000FB60FB681B7EDBB21A00012313405A1E5A
:1009B0009341DBB21800BD4604B080BD80B584B061
:1009C00000AF78607B681B68FB60FB681B7EDBB256
:1009D0001A00042313405A1E9341DBB21800BD468F
:1009E00004B080BD80B584B000AF78600A00BB1C45
:1009F0001A807B681B68FB607B6818000A4B98476D
:100A000003001A0001235340DBB2002B01D0052361
:100A100006E0BB1C1B88DB05DA0DFB689A6200232D
:100A20001800BD4604B080BD9509000080B584B0B3
:100A300000AF786039607B681B68BB607B6818001A
:100A40001B4B984703001A0001235340DBB2002BD5
:100A500001D0102327E00F23FB1800221A70BB6877
:100A60005B8B9BB21A000423134006D00F23FB18A4
:100A70001E221A70BB6804225A837B689B79012B63
:100A800008D1BB689B6A9BB2DB05DB0D9AB23B6861
:100A90001A8005E0BB689B6ADBB29AB23B681A8099
:100AA0000F23FB181B781800BD4604B080BDC0465C
:100AB000BD09000080B584B000AF78607B681B681A
:100AC000FB60FB6802221A76C046BD4604B080BDBA
:100AD00090B593B000AF786039607B681B687B632A
:100AE0007B681B683B631C23FB181800854B9847E9
:100AF0001C23FB1800225A703B681B78002B03D183
:100B00001C23FB1800229A703B689A6A0C23FB187E
:100B10001A603B68DA6A0C23FB185A603B681A6B50
:100B20000C23FB189A603B685A6B0C23FB18DA60A5
:100B30004723FB1800221A702CE04723FB181A7871
:100B40000C23FB189200D3583B643B6C002B09D15B
:100B50004723FB181A783B6B110018006A4B984723
:100B600003003B643B6C01330DD03B6CDAB21C23B9
:100B7000FB181A703B6C1B0CDBB21C22BA1811005C
:100B80001800624B98474723FB181A784723FB1835
:100B900001321A704723FB181B78032BCDD93B6811
:100BA0001A787B685A713B681A7C7B689A713B683B
:100BB0009A7C7B68DA713B681A7D7B681A720A231B
:100BC000FB1800221A800023FB630023BB633B68F1
:100BD0001B78012B29D17B681B6818004C4B984768
:100BE0000300FB62FB6A1433BB62BB6ADBB2180012
:100BF000484B984703007B623B689B692322BC18E3
:100C00000A22BA18796A1800434B984703002370E8
:100C10002323FB181B78002B01D017236DE00A2338
:100C2000FB181B88DAB27B6B1A733B681B78002BAE
:100C30001AD13B689B69FB633B689B8BBB637B6BF7
:100C40005B6A3A68927F11003A68D27F12040A43C5
:100C50001A437B6B5A623B6820229B5C002B03D0BB
:100C6000BB6B40221343BB633B685B68FA6B134367
:100C7000FB633B689B68FA6B1343FB633B68DB6871
:100C8000FA6B1343FB633B681B7C1A00BB6B13437B
:100C9000BB633B685B7C002B03D1204B9847031E52
:100CA00003D0FB6B80221343FB633B689B7C002BD0
:100CB00004D0BB6B802292021343BB633B68DB7C96
:100CC000002B04D0BB6B802292001343BB633B68B4
:100CD0001B7D002B04D0BB6B802292011343BB63AE
:100CE0007B6B1A68FB6B1A437B6B1A607B6B5A68D1
:100CF000BB6B1A437B6B5A6000231800BD4613B0D0
:100D000090BDC046B10800000D230000F93B000073
:100D1000C9240000313A0000452000004D090000C0
:100D200090B58BB000AFF860B9607A60FB68BA68C4
:100D30001A60FB681B683B623B6A1B680222134017
:100D400001D01C23A6E03B6A1B680122134001D09E
:100D500005239FE0FB681B681800504B9847030071
:100D6000FB61FB690233BB61FB6914337B610122C8
:100D7000BB699A40130019000220494B9847102381
:100D8000FB181800474B98477B6824229A5C102375
:100D9000FB181A707B69DBB21022BA181100180018
:100DA000414B98477B69DBB21800404B98477B6802
:100DB00024229B5C002118003D4B98477B681B78E0
:100DC000012B05D13B6A1B680C221A433B6A1A604F
:100DD0007B681B78002B05D13B6A1B6808221A43ED
:100DE0003B6A1A602723FB1800221A7010E02723A1
:100DF000FB181B78FA6802339B00D31804330022D7
:100E00001A602723FB181A782723FB1801321A705F
:100E10002723FB181B78062BE9D9FB680022DA622E
:100E2000FB6800229A62FB6800229A86FB68002217
:100E30001A86FB68362200219954FB68372200216C
:100E40009954FB68382200219954FB6803225A7296
:100E5000FB6800221A71FB681B681322BC1818007B
:100E60000E4B984703002370124A1323FB181B787C
:100E700011001800104B98471323FB181A780F4BDA
:100E80009200F968D1507A68FB68110018000C4B89
:100E9000984703001800BD460BB090BDC924000060
:100EA000F1080000D90800000D3900005139000098
:100EB00081220000FD1400002D250000E00100202B
:100EC000D10A000090B589B000AFF860B960190090
:100ED000BB1D1A803B1D0A1C1A80FB6838229B5CD4
:100EE000DBB2052B01D10523B8E0BB1D1B88002B0D
:100EF00001D11723B2E0FB68DB7901225340DBB25A
:100F0000002B01D01C23A9E0FB685B79002B09D1E1
:100F1000FB681800534B9847031E03D0FB6818006A
:100F2000514B98471E23FB1800221A808DE0FB6866
:100F30005B79012B12D1C046FB6818004B4B9847D8
:100F400003001A0001235340DBB2002BF4D13B1DF8
:100F50001A88FB6811001800454B9847FB685B79BD
:100F6000002B2AD10023BB6108E0FB681800414B2D
:100F70009847031E07D1BB690133BB61BB693E4A79
:100F80009342F2D900E0C046FB681800354B984701
:100F9000031E05D0FB681800334B984704235DE01F
:100FA000FB681800334B984703001A000123534095
:100FB000DBB2002B01D0122350E0C046FB681800C2
:100FC0002C4B984703001A0001235340DBB2002B3F
:100FD000F4D11423FB1800221A801723FC181423C1
:100FE000FA18FB6811001800244B9847030023707F
:100FF0001723FB181B78002B03D01723FB181B7833
:101000002CE01E23FB181B881E22BA18591C1180C5
:101010001A00BB689B181422BA181288D2B21A7030
:10102000FB689B79012B10D11E23FB181B881E2205
:10103000BA18591C11801A00BB689B181422BA18E0
:101040001288120A92B2D2B21A70BB1D1B88BA1D46
:10105000591E1180002B00D069E700231800BD46FF
:1010600009B090BD6D090000B50A000095090000A7
:10107000E5090000BD090000102700002D0A00004E
:1010800080B58AB000AFF860B960BB1D1A80FB68FC
:1010900038229B5CDBB2052B01D1052370E1BB1D1F
:1010A0001B88002B01D117236AE1FB685B79002BB9
:1010B00009D1FB681800B44B9847031E03D0FB68A6
:1010C0001800B24B98472623FB1800221A802423CD
:1010D000FB18BA1D12881A80FEE0FB685B79002BB2
:1010E0002AD100233B6208E0FB681800A84B984710
:1010F000031E07D13B6A01333B623B6AA54A934218
:10110000F2D900E0C046FB6818009F4B9847031EC9
:1011100005D0FB6818009D4B9847042330E1FB681D
:1011200018009B4B984703001A0001235340DBB281
:10113000002B01D0122323E1C046FB681800944B1A
:10114000984703001A0001235340DBB2002BF4D16F
:101150002623FB181B882622BA18591C11801A0056
:10116000BB689B181A781E23FB181A80FB689B79B2
:10117000012B15D12623FB181B882622BA18591CCF
:1011800011801A00BB689B181B781B021AB21E2321
:10119000FB1800215B5E13431AB21E23FB181A8052
:1011A0001E23FB181A88FB68110018007A4B984719
:1011B000FB68DB792422BA18242179180988118068
:1011C000002B00D188E0FB685B79002B00D069E040
:1011D0000023BB6147E0BB1D1B88002B3AD0FB6896
:1011E00018006B4B9847031E34D02623FB181B882E
:1011F0002622BA18591C11801A00BB689B181A784D
:101200001E23FB181A80FB689B79012B15D126231E
:10121000FB181B882622BA18591C11801A00BB68BB
:101220009B181B781B021AB21E23FB1800215B5E61
:1012300013431AB21E23FB181A801E23FB181A88A8
:10124000FB6811001800544B9847BB1D1A88BB1D42
:10125000013A1A80FB681800504B9847031E07D1CB
:10126000BB690133BB61BB694A4A9342B3D900E011
:10127000C046FB681800444B9847031E05D0FB6826
:101280001800424B984704237AE0FB681800434B50
:10129000984703001A0001235340DBB2002B01D012
:1012A00012236DE0C046FB6818003C4B98470300D2
:1012B0001A0001235340DBB2002BF4D11223FA1899
:1012C000FB6811001800364B98472423FB181A8836
:1012D0002423FB18013A1A80BB1D1B88BA1D591E16
:1012E0001180002B00D0F8E6FB685B79012B0BD155
:1012F000C046FB681800244B984703001A000123DE
:101300005340DBB2002BF4D1FB685B79002B36D164
:10131000FB68DB79002B32D02CE000237B6108E0F6
:10132000FB6818001D4B9847031E07D17B690133EA
:101330007B617B69174A9342F2D900E0C046FB68A3
:101340001800164B984703001A0001235340DBB2E4
:10135000002B01D0122313E01023FA18FB681100B0
:1013600018000F4B98472423FB181A882423FB18D6
:10137000013A1A802423FB181B88002BCDD10023AF
:101380001800BD460AB080BD6D090000B50A000016
:101390009509000010270000E5090000BD090000C4
:1013A0002D0A000080B584B000AF78607B681B68B0
:1013B000BB607B68DB6A1B78DAB20E23FB181A80ED
:1013C0007B68DB6A5A1C7B68DA627B689B79012B3D
:1013D00013D17B68DB6A1B78DBB21B021AB20E23C7
:1013E000FB1800215B5E13431AB20E23FB181A8010
:1013F0007B68DB6A5A1C7B68DA620E23FB181B8849
:10140000DB05DA0DBB689A627B689B8E9BB2013B61
:101410009AB27B689A86C046BD4604B080BDC0467D
:1014200080B584B000AF78607B681B68FB60084BB8
:101430001B881A00FB689A627B685B8E9BB2013B3B
:101440009AB27B685A86C046BD4604B080BDC0468D
:10145000DC01002080B584B000AF78607B681B6839
:10146000FB600A23FB1800221A80FB689A6A0A2391
:10147000FB181A807B685B8E9BB2013B9AB27B683B
:101480005A86C046BD4604B080BDC04680B584B013
:1014900000AF78607B681B68FB60FB689B6A9AB250
:1014A0000A23FB18D205D20D1A807B689B6A0A2298
:1014B000BA181288D2B21A707B689B6A5A1C7B6871
:1014C0009A627B689B79012B0DD17B689B6A0A220B
:1014D000BA181288120A92B2D2B21A707B689B6A4A
:1014E0005A1C7B689A627B681B8E9BB2013B9AB246
:1014F0007B681A86C046BD4604B080BD80B586B004
:1015000000AF0200FB1D1A70FB1D1A78B94B920048
:10151000D3587B617B691B683B617B6937229A5C8E
:101520007B693621595C0F23FB180A401A703B690E
:101530001B7EDAB20C23FB181A803B699B7DDBB261
:101540009AB20C23FB180C21791809880A401A80DA
:101550000C23FB181B880122134041D07B695B7967
:10156000012B10D17B695B7ADBB2002B0BD17B693D
:101570001800A14B98477B695B8E9BB2002B02D170
:101580003B6901221A757B695B79012B04D17B6968
:101590005B7ADBB2002B08D17B695B79002B1FD112
:1015A0007B695B7ADBB2002B1AD07B691800934B06
:1015B00098477B699B8E9BB2002B11D13B6901221E
:1015C0001A757B695B7ADBB2012B09D17B69DB7908
:1015D00001225340DBB2002B02D03B6902229A75F4
:1015E0000C23FB181B880422134000D17EE03B69CA
:1015F0005B8B9BB21A000423134022D07B695B7A79
:10160000DBB2012B14D07B6938221E2199547B69EF
:1016100003225A723B6905221A750F23FB181B78A7
:101620000822134004D07B699B697A6910009847AF
:101630003B699A6A0A23FB181A803B6904225A8381
:1016400054E07B695B7ADBB2012B1ED17B69180009
:101650006B4B98477B695B8E9BB2002B46D13B69F5
:1016600004221A757B693822002199547B69032270
:101670005A720F23FB181B780122134036D07B6966
:10168000DB687A691000984730E07B6918005D4B91
:1016900098477B691B8E9BB2002B27D17B69382230
:1016A000002199543B6904221A757B695B7ADBB28D
:1016B000022B0BD10F23FB181B780422134015D0EB
:1016C0007B695B697A69100098470FE07B695B7AF8
:1016D000DBB2002B0AD10F23FB181B780222134028
:1016E00004D07B691B697A69100098470C23FB18AA
:1016F0001B880222134046D07B695B79002B1DD1E9
:101700003B6907221A753B6902221A767B6903221C
:101710005A727B6900229A867B6900221A867B694D
:101720003822002199540F23FB181B7810221340F4
:1017300004D07B69DB697A69100098477B695B7923
:10174000012B20D17B695B7ADBB2012B1BD17B693A
:10175000DB7901225340DBB2002B14D03B6902221B
:101760001A757B6903225A727B69382200219954C9
:101770000F23FB181B780122134004D07B69DB6820
:101780007A69100098470C23FB181B880822134025
:1017900014D07B695B79002B10D13B6908221A7544
:1017A0003B6908221A760F23FB181B78202213406E
:1017B00004D07B691B6A7A69100098470C23FB18D8
:1017C0001B888022134010D03B6980221A753B6928
:1017D00080221A760F23FB181B784022134004D076
:1017E0007B695B6A7A6910009847C046BD4606B0BF
:1017F00080BDC046E001002021140000A5130000B8
:10180000551400008D14000080B582B000AF2F4B3E
:101810007B602F4B3B607A683B689A420CD007E0B4
:101820003B681A1D3A607A68111D796012681A6067
:101830003A68284B9A42F3D3274B3B6004E03B685D
:101840001A1D3A6000221A603A68244B9A42F6D375
:10185000234B7B60234B7A68FF218A439A60224A9C
:1018600090235B000221D150204AD37803218B437F
:10187000191C02230B43D3701C4AD3780C218B43D1
:10188000191C08230B43D370194A937B30218B43D7
:10189000191C20230B439373154A937B0C218B4314
:1018A000191C08230B439373114A937B03218B4329
:1018B000191C02230B4393730E4A536880210B4378
:1018C00053600D4B98470D4B9847FEE76C5D000049
:1018D0000000002070000020700000208002002026
:1018E0000000000000ED00E00070004100500041E9
:1018F00000480041004000411D490000BD46000075
:1019000080B500AFFEE7C04680B584B000AF786018
:101910000A4B1B68002B02D1084B094A1A60074B7F
:101920001B68FB60054B1A687B68D218034B1A6072
:10193000FB681800BD4604B080BDC046940000207E
:101940008022002080B582B000AF786001235B4226
:101950001800BD4602B080BD80B582B000AF78608F
:1019600039603B68802292015A6000231800BD460E
:1019700002B080BD80B582B000AF7860012318004E
:10198000BD4602B080BDC04680B584B000AFF860EF
:10199000B9607A6000231800BD4604B080BDC0461F
:1019A00080B582B000AF78607B68002B0CD0084B0C
:1019B0007A685A60064B00229A60C046044B1A6847
:1019C00080235B021340F9D0C046BD4602B080BD03
:1019D00010E000E080B500AF00200F4B98470200F8
:1019E0000E4B1A600D4B18680D4BFA229100984768
:1019F00003001A00094B1A60084B1868084BFA22BA
:101A00009100984703001A00064B1A60064B052206
:101A10001A60C046BD4680BD353800000400002075
:101A2000AD4700000800002010E000E080B582B063
:101A300000AF786004E0074B1B681800064B98471E
:101A40007B685A1E7A60002BF5D1C046BD4602B0B5
:101A500080BDC04604000020A119000080B582B0FE
:101A600000AF074B7B607B681B7DDBB21A00012354
:101A700013405A1E9341DBB21800BD4602B080BD30
:101A80000040004180B582B000AF02003960FB1D0C
:101A90001A70FB1D1B78012B0AD0022B0FD0002BD4
:101AA00014D10E4B0D4A91693A680A439A610FE0CE
:101AB0000A4B0A4AD1693A680A43DA6108E0074BDF
:101AC000064A116A3A680A431A6201E0172300E0E5
:101AD00000231800BD4602B080BDC046000400408F
:101AE00080B584B000AF78602F4BFB6004210120EB
:101AF0002E4B9847FB682022FF321A832C4B9847C5
:101B000003001A0001235340DBB2002B01D0052350
:101B100045E07B681B781B021A00C0239B001A401B
:101B20007B685B78DB011900FF230B401A437B685D
:101B30009B785B0019001E230B401A437B68DB78FF
:101B40009B0419008023DB020B401A437B681B793E
:101B50001B041900C0239B020B401A43FB685A6008
:101B6000FB689B685B035B0FDBB21A0008239340A2
:101B70009AB2104B1A80FB689B689AB20D4B5A8040
:101B80007B685A780B4B1A71FB681B8B9BB21A004F
:101B900080235B00134001D0102300E000231800D5
:101BA000BD4604B080BDC04600400041851A00001B
:101BB0005D1A00009800002080B586B000AFB960C3
:101BC0007A600F23FB18021C1A703A4B1B881A000C
:101BD000384B5B885A43BB689A4209D2BB68364A85
:101BE000934203D9BB68354A934201D918235CE07C
:101BF000334B7B617B695B683B613B698022D2022E
:101C00001A437B695A607B692022FF321A832D4B6D
:101C1000984703001A0001235340DBB2002B04D085
:101C20007B693A695A6005233FE00F23FB181B7854
:101C3000452B1DD89A00244BD3181B689F467B69FF
:101C40001B8B9BB21A0080235B00134004D07B697E
:101C50003A695A60102328E0BB689B085A007B69E8
:101C6000DA610BE0BB689B085A007B69DA6105E02A
:101C70007B693A695A60172317E0C0460F23FB18A7
:101C80001B789BB2114A13439AB27B691A80C046F3
:101C90000C4B984703001A0001235340DBB2002B82
:101CA000F6D17B693A695A6000231800BD4606B038
:101CB00080BDC04698000020FF3F8000006080008B
:101CC000004000415D1A00007C5A000000A5FFFFA3
:101CD00080B588B000AFF860B960BB1D1A804A4B70
:101CE0001B881A00484B5B885A43FB689A4201D212
:101CF000182384E0444B1B88013B1A00FB68134007
:101D000001D018237BE0404B1B88BA1D12889A42F1
:101D100001D9172373E03D4B7B613D4B984703008E
:101D20001A0001235340DBB2002B01D0052366E0EB
:101D30007B69384A1A80C046354B984703001A0021
:101D400001235340DBB2002BF6D17B692022FF3206
:101D50001A83FB685B08FB611A23FB1800221A80B8
:101D600032E01A23FB181B88BA68D3181A78182394
:101D7000FB181A801A23FB181A88BB1D1B88013B0D
:101D80009A4211DA1A23FB181B880133BA68D31858
:101D90001B781B021AB21823FB1800215B5E134349
:101DA0001AB21823FB181A80FB695A1CFA615B00EF
:101DB0001A001823FB181B8813801A23FB181A22F9
:101DC000BA18128802321A801A23FA18BB1D128818
:101DD0001B889A42C5D30C4B1B7901225340DBB2BE
:101DE000002B0BD0BB1D1B883F2B07D8FB680022A4
:101DF00019000420084B9847030000E00023180056
:101E0000BD4608B080BDC04698000020004000419B
:101E10005D1A000044A5FFFFB91B000080B584B027
:101E200000AF7860234B1B881A00224B5B885A4313
:101E30007B689A4201D2182337E01E4B1B889B0017
:101E4000013B1A007B68134001D018232DE01A4B88
:101E5000FB601A4B984703001A0001235340DBB282
:101E6000002B01D0052320E0FB682022FF321A83DB
:101E70007B689B085A00FB68DA61FB68104A1A808D
:101E8000C0460E4B984703001A0001235340DBB2B3
:101E9000002BF6D1FB681B8B9BB2DBB21A001C2314
:101EA000134001D0042300E000231800BD4604B015
:101EB00080BDC04698000020004000415D1A00002F
:101EC00002A5FFFF80B582B000AF78607B688022FA
:101ED0001A707B6800225A707B6801229A707B68B6
:101EE0000022DA70C046BD4602B080BD80B584B025
:101EF00000AF02003960FB1D1A700C23FB1818009C
:101F0000104B98470C23FB1880221A703B681A78F4
:101F10000C23FB185A703B685A780C23FB189A70F4
:101F20003B689A780C23FB18DA700C23FA18FB1D17
:101F30001B7811001800044B9847C046BD4604B0FA
:101F400080BDC046C51E0000F93B000080B582B0D0
:101F500000AF78607B6800221A70C046BD4602B0B0
:101F600080BDC046F0B58DB000AFB860F9603A6092
:101F70007B60002300243B627C6200230024BB6161
:101F8000FC613F23FB6253E0FB6A203B002B04DB38
:101F900001229A4013007B610BE0FB6A2022D31AD6
:101FA0000122DA4013000021FA6A91400A0013432B
:101FB0007B610122FB6A9A4013003B61BB69FC69AB
:101FC000DB186441BB61FC61BB683A691A401500CB
:101FD000FB687A691A4016002B00334307D0BB69AF
:101FE00001221343BB61FB6900221343FB617A6842
:101FF000FB699A4219D87A68FB699A4203D13A6818
:10200000BB699A4211D8B969FA693B687C68C91AF8
:10201000A2410B001400BB61FC613A6A3B691343A7
:102020003B627A6A7B6913437B62FB6A013BFB621A
:10203000FB6A002BA8DA3B6A7C6A18002100BD46C7
:102040000DB0F0BD80B586B000AFF860B9607A60C1
:102050001623FB1800221A80BB683B61BB685A0834
:10206000FB689A4201D2402326E0BB685B083B61D3
:102070000AE03A69FB68D31A3B611623FB181A88F9
:102080001623FB1801321A803A69FB689A42F0D293
:102090001623FB181622BA181288013A1A80162342
:1020A000FB181B88FF2B01D9402305E07B68162213
:1020B000BA1812881A8000231800BD4606B080BDE9
:1020C000F0B5A1B000AFF864B9647A644322BA18DD
:1020D0001370002300243B677C6700230024BB6649
:1020E000FC6600230024BB67FC6700237B66582343
:1020F00040229446BC4463441A78FB6C5A43BB6C40
:102100009A4201D94023B3E04323FB181B78002BEC
:102110003DD1582340229446BC4463441B78DBB233
:102120003B6100237B61FB6CBB600023FB60524C76
:10213000BA68FB6838697969A04703000C001B0086
:10214000FB650023BB65BB6C3B6000237B60B86D07
:10215000F96D3A687B68494CA04703000C003B6767
:102160007C67002101223B6F7C6FC91AA2410B00E2
:102170001400BB66FC66BB6E1B0CFA6E16041E4395
:10218000BB6E1D043300BB670023FB676AE043237B
:10219000FB181B78012B65D1FB6C3B6300237B6331
:1021A000582340229446BC4463441B78DBB2BB6294
:1021B0000023FB62304CBA6AFB6A386B796BA0472C
:1021C00003000C00BB65FC65BB6C3B6200237B62BB
:1021D000BB6DFC6D1A002300386A796A274CA04752
:1021E00003000C007B667A6E80239B019A4201D922
:1021F00040233DE0BB6CBB610023FB61B969FA6918
:102200000B005B0F1000C000F863F86B1843F86315
:102210000B00DB00BB63BB6DFC6D1A002300B86BC9
:10222000F96B164CA04703000C00BB65FC65BB6D49
:10223000FC6DD9B27B6EDBB2DB00DAB21723402033
:102240008446BC4463448A1A1A7017234022944679
:10225000BC4463441B785B031A007B6E1343BB676B
:102260000023FB67BB6FFC6F9AB27B6C1A80002364
:102270001800BD4621B0F0BDC5480000651F000034
:1022800080B584B000AF0200FB1D1A70BB1D0A1C94
:102290001A701A4B1B7801225340DBB2002B03D17A
:1022A000BB1D1B78002B1BD00C23FB181800144BF4
:1022B00098470C23FB18FA1D12781A700C23FB1890
:1022C000190013200F4B984713200F4B98470B4BC7
:1022D000FA1D12785A70094B01221A70002308E087
:1022E000064B5B78FA1D12789A4201D1002300E078
:1022F0001D231800BD4604B080BDC046A0000020CC
:102300004D1F00000D3900005139000080B582B02A
:1023100000AF78600A00FB1C1A707B684D4A93423C
:102320003FD04C4A934206D84B4A93420FD04B4A77
:10233000934221D089E04A4A934200D15BE0494A66
:10234000934200D16CE0484A93423FD07DE0FB1CB1
:102350001B78012B0AD002DC002B05D075E0022B84
:1023600006D0032B06D070E0404B6FE0404B6DE091
:10237000404B6BE0404B69E0FB1C1B78012B0AD003
:1023800002DC002B05D060E0022B06D0032B06D028
:102390005BE003235AE0394B58E0394B56E0394BA8
:1023A00054E0FB1C1B78012B0AD002DC002B05D06B
:1023B0004BE0022B06D0032B06D046E0324B45E023
:1023C000324B43E0324B41E0324B3FE0FB1C1B7889
:1023D000012B0AD002DC002B05D036E0022B06D000
:1023E000032B06D031E02C4B30E02C4B2EE02C4B55
:1023F0002CE02C4B2AE0FB1C1B78012B0AD002DCC2
:10240000002B05D021E0022B06D0032B06D01CE0C8
:10241000254B1BE0254B19E0254B17E0254B15E01C
:10242000FB1C1B78012B0AD002DC002B05D00CE032
:10243000022B06D0032B06D007E01F4B06E01F4BF4
:1024400004E01F4B02E01F4B00E000231800BD46D4
:1024500002B080BD0010004200080042000C0042A3
:1024600000180042001C0042001400420300040057
:10247000030005000300060003000700030001003D
:1024800003001E0003001F000300080003000900F2
:1024900003000A0003000B000300100003001100FA
:1024A000030012000300130003000C0003000D00E2
:1024B00003000E0003000F000300160003001700C6
:1024C000030018000300190090B58BB000AF7860CE
:1024D0000C23FB180F4A13CA13C313CA13C30023D8
:1024E0007B620EE00C23FB187A6A9200D3581A1E06
:1024F0007B689A4202D17B6ADBB206E07B6A0133D9
:102500007B627B6A052BEDD900231800BD460BB01A
:1025100090BDC046945B000080B582B000AF020061
:10252000FB1D1A70C046BD4602B080BD80B584B0A8
:1025300000AF02003960FB1D1A70134B1B7801229B
:102540005340DBB2002B15D00023FB600CE00F4B97
:10255000FA6892000E49D1500E4BFA6892000021A1
:10256000D150FB680133FB60FB68052BEFD9064BAC
:1025700001221A70FB1D1A78044B92003968D15061
:10258000C046BD4604B080BDA2000020A4000020CB
:1025900019250000E001002090B585B000AF7860FB
:1025A0000823FA180C4B1000190006231A000B4BD5
:1025B00098470F23FC187B681800094B98470300C5
:1025C00023700F23FB181B780822BA18D35C5BB268
:1025D0001800BD4605B090BDAC5B00006949000025
:1025E000C924000080B500AF034B1B68002098474A
:1025F000C046BD4680BDC046A400002080B500AFE7
:10260000034B5B6801209847C046BD4680BDC0466D
:10261000A400002080B500AF034B9B6802209847C0
:10262000C046BD4680BDC046A400002080B500AFB6
:10263000034BDB6803209847C046BD4680BDC046BB
:10264000A400002080B500AF034B1B69042098470D
:10265000C046BD4680BDC046A400002080B500AF86
:10266000034B5B6905209847C046BD4680BDC04608
:10267000A400002080B582B000AF78607B680022A3
:102680001A70C046BD4602B080BDC04680B582B05B
:1026900000AF02003960FB1D1A70FB1D1B78012B77
:1026A0000AD0022B0FD0002B14D10E4B0D4A91698A
:1026B0003A680A439A610FE00A4B0A4AD1693A68BC
:1026C0000A43DA6108E0074B064A116A3A680A438E
:1026D0001A6201E0172300E000231800BD4602B093
:1026E00080BDC0460004004080B582B000AF786075
:1026F0007B6880221A707B6800225A707B680122F6
:102700009A707B680022DA70C046BD4602B080BD78
:1027100080B500AF054B9B78DBB21A000223134053
:102720005A1E9341DBB21800BD4680BD0020004117
:1027300080B584B000AF78607B681B68FB60FB6885
:10274000DB695A1E9341DBB21800BD4604B080BD60
:1027500080B582B000AF7860C0467B681800044B3B
:102760009847031EF9D1C046BD4602B080BDC046A1
:1027700031270000B0B58CB002AF786039607B685B
:102780001B68BB617B681B681800AB4B9847030054
:102790007B617B6914333B6100237B6200233B62D6
:1027A0000A23FB1800221A801F23FB1800221A702C
:1027B0001E23FB1810221A703B681B8A8022D2014C
:1027C00093421CD08022D201934206DC002B0DD014
:1027D00080229201934224D035E0C022D20193425C
:1027E00028D080221202934212D02CE01F23FB1823
:1027F00000221A701E23FB1810221A7023E01F23D8
:10280000FB1800221A701E23FB1808221A701AE007
:102810001F23FB1800221A701E23FB1803221A70B4
:1028200011E01F23FB1801221A701E23FB1810222F
:102830001A7008E01F23FB1801221A701E23FB18D0
:1028400008221A70C0463B681A683B68DB681A4366
:102850003B685B6913433A68128A13433A68127EF5
:10286000120213433A682621525C520713437B62DB
:102870001D23FB1800221A703B685B68FB60FB6835
:10288000002B1ED08022520593424FD13B68272255
:102890009B5C01225340DBB2002B46D03B681D6A93
:1028A0003B69DBB21800654B984701001D23FC18FB
:1028B0000A23FB181A002800614B98470300237075
:1028C00033E03B6827229B5C002B14D03B68186ADE
:1028D0003B68996A1D23FC181F23FB181D780A23E7
:1028E000FA181E23FB181B7800932B00554DA847A0
:1028F000030023701AE03B681D6A3B69DBB21800D5
:102900004E4B98471D23FC181F23FB1819780A23E8
:10291000FA181E23FB181B7800930B0001002800F7
:10292000484DA8470300237000E0C0461D23FB1854
:102930001B78002B03D01D23FB181B7877E03B6826
:102940005B7E002B03D03B689A7EBB699A737B68E1
:1029500018003D4B98470A23FB181A88BB699A81D7
:102960007A6AFB6813437B623B6827229B5C0122E7
:102970005340DBB2002B03D07B6A042213437B62FB
:102980003B685B7E9A023B681B7F5B021A433B6895
:102990005B7F1B021A433B6824215B5C5B041A4388
:1029A0003B6825215B5C1B0413433B623B689B7ABD
:1029B0001A003B6A13433B623B68DB7A1A003B6AAE
:1029C00013433B623B681B89FF2B0BD07B6A802241
:1029D000520413437B623B681B891A003B6A134312
:1029E0003B6208E03B68DB7E002B04D07B6A8022E0
:1029F000D20413437B623B682C229B5C002B03D1E7
:102A0000124B9847031E03D07B6A802213437B62DC
:102A10007B6818000C4B9847BB693A6A5A607B6820
:102A20001800094B9847BB697A6A1A60002318009E
:102A3000BD460AB0B0BDC046C9240000313A00000E
:102A400045200000C1200000512700001127000090
:102A500090B593B000AFF860B9607A603B23FB1883
:102A600000221A70FB68BA681A60FB681B687B63F7
:102A7000FB681B681800864B984703003B633B6B61
:102A80000233FB623B6B1433BB627B6B1B6801221E
:102A9000134001D00523F6E07B6B1B680222134034
:102AA00001D01C23EFE00122FB6A9A4013001900B9
:102AB0000220784B98472423FB181800764B984740
:102AC0007B682D229A5C2423FB181A70BB6ADBB248
:102AD0002422BA1811001800704B9847BB6ADBB269
:102AE00018006F4B98477B682D229B5C00211800D3
:102AF0006C4B98477B68DA7AFB685A717B682422B2
:102B00009A5CFB689A717B6825229A5CFB68DA7193
:102B10007B68DA7EFB681A727B681A7FFB685A72E0
:102B20003B23FC187A68FB68110018005E4B98473D
:102B3000030023703B23FB181B78002B03D03B239F
:102B4000FB181B789FE02023FB181800574B984771
:102B50002023FB1800225A702023FB1800229A70B1
:102B60007B681A6B1023FB181A607B685A6B102362
:102B7000FB185A607B689A6B1023FB189A607B687D
:102B8000DA6B1023FB18DA604723FB1800221A7057
:102B90002CE04723FB181A781023FB189200D35817
:102BA0003B643B6C002B09D14723FB181A78BB68A8
:102BB000110018003E4B984703003B643B6C013307
:102BC0000DD03B6CDAB22023FB181A703B6C1B0C47
:102BD000DBB22022BA1811001800364B9847472361
:102BE000FB181A784723FB1801321A704723FB1889
:102BF0001B78032BCDD90023FB630AE0FA68FB6B3B
:102C000002339B00D318043300221A60FB6B01339C
:102C1000FB63FB6B052BF1D9FB6800229A62FB6812
:102C200000225A62FB680022DA85FB6800229A853E
:102C3000FB68302200219954FB683122002199540D
:102C4000FB68322200219954FB68332200219954F9
:102C5000FB681B682722BC1818000D4B984703001F
:102C60002370154A2723FB181B7811001800134BFB
:102C700098472723FB181A78114B9200F968D15016
:102C80003B23FB181B781800BD4613B090BDC0460F
:102C9000C92400008D260000752600000D390000B3
:102CA000513900008122000075270000E92600004C
:102CB0000D230000F93B0000592E00002D250000D7
:102CC000E001002080B584B000AF78600A00BB1C32
:102CD0001A807B681B68FB607B68DB7901225340AC
:102CE000DBB2002B01D01C2317E07B68DB8D9BB28D
:102CF000002B01D0052310E07B681800094B984792
:102D0000FB68BA1C12881A85C046FB681B7EDBB2C2
:102D10001A0002231340F8D000231800BD4604B067
:102D200080BDC0465127000080B584B000AF7860F8
:102D300039607B681B68FB607B689B79012253408C
:102D4000DBB2002B01D01C235EE07B689B8D9BB225
:102D5000002B01D0052357E0FB681B7EDBB21A0075
:102D60000423134001D105234EE07B681800284B53
:102D70009847FB685B8B9BB2DAB20B23FB183F21B1
:102D80000A401A700B23FB181B78002B36D00B233C
:102D9000FB181B780222134004D0FB6802225A83DE
:102DA0001A2331E00B23FB181B780422134004D0B4
:102DB000FB6804225A831E2326E00B23FB181B7892
:102DC0000122134004D0FB6801225A8313231BE025
:102DD0000B23FB181B781022134004D0FB68102231
:102DE0005A83422310E00B23FB181B782022134048
:102DF00004D0FB6820225A83412305E0FB681B8D29
:102E00009AB23B681A8000231800BD4604B080BD0A
:102E10005127000080B584B000AF78607B681B68E4
:102E2000FB60FB68DB695A1E9341DBB21800BD46AC
:102E300004B080BD80B582B000AF7860C0467B68CA
:102E40001800044B9847031EF9D1C046BD4602B096
:102E500080BDC046152E000080B588B000AF0200CE
:102E6000FB1D1A70FB1D1A78A34B9200D358BB614F
:102E7000BB691B687B61BB691800A04B98477B69E5
:102E80001B7EDAB21223FB181A807B699B7DDBB2B2
:102E90009AB21223FB181221791809880A401A8065
:102EA000BB6930229B5CBA693121525C1340DAB2B3
:102EB0001023FB181A801223FB181B8801221340D1
:102EC00044D0BB69DB8D9BB2002B3CD0BB699B6AB5
:102ED0001B78DAB21C23FB181A80BB699B6A5A1C48
:102EE000BB699A62BB695B79012B13D1BB699B6A91
:102EF0001B78DBB21B021AB21C23FB1800215B5E9D
:102F000013431AB21C23FB181A80BB699B6A5A1C14
:102F1000BB699A621C23FB181B88DB05DB0D9AB288
:102F20007B691A85BB69DB8D9BB2013B9BB2BA6999
:102F3000191CD185002B09D17B6901221A757B6987
:102F400002229A7502E07B6901221A751223FB188E
:102F50001B880222134011D07B6902221A75BB69BB
:102F60003322002199541023FB181B88012213409F
:102F700004D0BB69DB68BA69100098471223FB18BC
:102F80001B880422134000D1BDE0BB699B8D9BB21E
:102F9000002B00D1B4E07B695B8B9BB2DAB21F23BC
:102FA000FB183F210A401A701F23FB181B780822C8
:102FB000134007D01F23FB181F22BA1812780821CC
:102FC0008A431A701F23FB181B78002B50D01F2335
:102FD000FB181B780222134007D0BB6932221A214A
:102FE00099547B6902225A8336E01F23FB181B7811
:102FF0000422134007D0BB6932221E2199547B69F9
:1030000004225A8328E01F23FB181B780122134057
:1030100007D0BB693222132199547B6901225A835C
:103020001AE01F23FB181B781022134007D0BB693E
:103030003222422199547B6910225A830CE01F23CB
:10304000FB181B782022134006D0BB693222412195
:1030500099547B6920225A831023FB181B88042271
:10306000134050D0BB695B69BA69100098474AE0C9
:103070007B691B8D9AB20E23FB18D205D20D1A80E4
:10308000BB695B6A0E22BA181288D2B21A70BB6989
:103090005B6A5A1CBB695A62BB695B79012B0DD113
:1030A000BB695B6A0E22BA181288120A92B2D2B2B7
:1030B0001A70BB695B6A5A1CBB695A62BB699B8DFB
:1030C0009BB2013B9BB2BA69191C9185002B1AD1A6
:1030D0007B6904221A75BB6932220021995410239E
:1030E000FB181B88022213400DD0BB691B69BA690B
:1030F0001000984707E0C046E0010020352E000090
:103100007B6904221A751223FB181B8810221340B6
:1031100010D07B6910221A757B6910221A76102351
:10312000FB181B881022134004D0BB69DB69BA6905
:10313000100098471223FB181B882022134010D040
:103140007B6920221A757B6920221A761023FB18CE
:103150001B880822134004D0BB699B69BA69100020
:1031600098471223FB181B880822134010D07B6954
:1031700008221A757B6908221A761023FB181B880F
:103180002022134004D0BB691B6ABA69100098471B
:10319000C046BD4608B080BD80B582B000AF786043
:1031A0007B6801225A607B6800225A707B68062285
:1031B0001A707B6800221A727B6800225A72C0461D
:1031C000BD4602B080BDC04680B582B000AF786019
:1031D0007B6803221A707B6800225A707B68012288
:1031E0009A70C046BD4602B080BDC04680B582B070
:1031F00000AF0200FB1D1A70034AFB1D1B781372FF
:10320000C046BD4602B080BD0004004080B582B01B
:1032100000AF0200FB1D1A70BB1D0A1C1A70FB1DBB
:103220001B78012B08D0022B0BD0002B0ED10B4AA0
:10323000BB1D1B7853720BE0084ABB1D1B789372B1
:1032400006E0064ABB1D1B78D37201E0172300E09D
:1032500000231800BD4602B080BDC04600040040F7
:1032600080B582B000AF0200FB1D1A70084AFB1D3A
:103270001B780F210B40D9B253680F200140490041
:103280001E2083430B435360C046BD4602B080BD41
:103290000040004180B500AFC046044BDB681022FF
:1032A0001340FAD0C046BD4680BDC046000800406D
:1032B00080B500AF0C4B02229A840C4B98470A4A07
:1032C0000B4B9B68D362084A094B5B689362064BC1
:1032D00000229A84054B9847034A054B1B689BB212
:1032E0009384C046BD4680BD000800409532000072
:1032F000BC00002080B582B000AF0200FB1D1A7038
:10330000FB1D1B78082B40D89A00224BD3181B6852
:103310009F46214B1B6939E0204B1B6A9B059B0F85
:10332000DBB21A001E4BD34030E080231B022DE09D
:1033300080231B022AE0184B5B6927E0164B1B68B1
:103340000222134001D1002320E0164B9847124B74
:103350001B680422134009D00020134B9847020039
:103360000D4B9B681B041B0C53430FE00F4B0DE0F0
:103370000A4A5023D35CDBB21A000423134001D164
:10338000002303E0044BDB6800E000231800BD4687
:1033900002B080BDB45B0000BC000020000800400B
:1033A00000127A0095320000313A0000006CDC0215
:1033B00080B584B000AF78601A4B1B6AFB607B68F5
:1033C0001B781A1C03231340DAB20D23FB180321C8
:1033D0000A4010001A7803218A43111C021C0A4378
:1033E0001A707B689A780C23FB18D0011A787F2119
:1033F0000A40111C021C0A431A707B685A780C237D
:10340000FB1801210A4090011A7840218A43111CBF
:10341000021C0A431A70034BFA681A62C046BD4682
:1034200004B080BD0008004080B582B000AF02004B
:10343000FB1D1A70FB1D1B78082B3BD89A00214BF3
:10344000D3181B689F46204B1F4A126A02210A4369
:103450001A62002331E01C4B1B4A926902210A4385
:103460009A6129E0184A184B1B8A9BB202210B4330
:103470009BB2138220E0144A134B9B8A9BB2022119
:103480000B439BB2938217E0104B1B6802221A4336
:103490000E4B1A600E4B98470EE00B4A0A49442324
:1034A000CB5CDBB202210B43D9B24423D15403E0FD
:1034B000002302E0172300E000231800BD4602B0FD
:1034C00080BDC046D85B000000080040BC00002062
:1034D000B132000080B582B000AF3B0001221A700B
:1034E00000237B6009E07B68DBB23A001100180022
:1034F000054B98477B6801337B607B68242BF2D9AE
:10350000C046BD4602B080BD0D39000080B5A0B0F8
:1035100000AF274BC222D2009A600020254B98476B
:10352000254B98477C23FB181800244B98477C2395
:10353000FB1800221A707C23FB1801229A707C234E
:10354000FB1800225A707C23FB1818001C4B98476C
:1035500006201C4B98471C4B984700201B4B984754
:10356000002100201A4B984700210120184B984752
:1035700000210220164B98473B1D1800154B984719
:103580003B1D06221A703B1D01225A603B1D002282
:103590001A723B1D00225A723B1D190000200E4B6F
:1035A000984700200D4B9847C046BD4620B080BDCF
:1035B0000008004061320000D5340000C93100002D
:1035C000B13300002934000085360000ED310000E1
:1035D0000D32000099310000B5360000D9370000E7
:1035E00080B582B000AF02003960FB1D1A70FB1D70
:1035F0001B78012B0AD0022B0FD0002B14D10E4BBD
:103600000D4A91693A680A439A610FE00A4B0A4AE7
:10361000D1693A680A43DA6108E0074B064A116A41
:103620003A680A431A6201E0172300E000231800F9
:10363000BD4602B080BDC0460004004080B500AF6A
:10364000024B9847C046BD4680BDC0461D080000DD
:1036500080B500AF024B9847C046BD4680BDC0460E
:103660007108000080B500AF054B5B78DBB25BB240
:10367000002B01DA012300E000231800BD4680BDC5
:10368000000C004080B500AF08210020074B984790
:10369000074B01221A70C046054B1B78DBB21A009B
:1036A00001231340F8D1C046BD4680BDE13500007E
:1036B000000C004080B586B000AF02003960FB1DF1
:1036C0001A70FB1D1B787B61FB1D1B783B613B68FF
:1036D0001B781B021A007B6913437B613B685B7894
:1036E000002B04D07B698022D20213437B613B68AC
:1036F0005B7A002B04D07B698022120313437B6129
:103700003B685B68012B2CD93B685A683B685B6857
:10371000013B13401AD10023FB600223BB6005E08C
:10372000FB680133FB60BB685B00BB603B685A68A9
:10373000BB689A42F4D8FB681B023A6913433B61A9
:103740007B698022520313437B610AE03B685B681C
:103750001B023A6913433B617B6980229202134347
:103760007B613B681B7A002B04D07B69802292032B
:1037700013437B61C046134B9847031EFBD1124B8A
:103780009847124AFB1D1B781370C0460D4B984793
:10379000031EFBD10E4B3A699A60C046094B98470D
:1037A000031EFBD10A4B0A4A516880225202114083
:1037B0007A690A435A60074B9847C046BD4606B02F
:1037C00080BDC046653600003D360000080C004054
:1037D000000C00405136000080B582B000AF0200FE
:1037E000FB1D1A70C0460E4B9847031EFBD10D4BB4
:1037F00098470D4AFB1D1B781370C046084B98472D
:10380000031EFBD1094B094A5268802149020A4331
:103810005A60074B9847C046BD4602B080BDC046BF
:10382000653600003D360000040C0040000C0040EE
:103830005136000080B586B000AF0200FB1D1A7043
:10384000C0462A4B9847031EFBD1294B9847294A6B
:10385000FB1D1B781370C046244B9847031EFBD1F9
:10386000254B5B68DB04DB0EDBB21800234B98476B
:1038700003007B611F4AFB1D1B7813701E4B5B68A6
:10388000DB02DB0FDAB21323FB181A701C4AFB1D94
:103890001B781370C046154B9847031EFBD1164B7F
:1038A0009B681B021B0C9BB2FB60164B98471323B3
:1038B000FB181B78002B09D1FB68012B06D9124B92
:1038C000F9687869984703007B610AE01323FB18C5
:1038D0001B78002B05D0FB6801337A69DA401300AE
:1038E0007B617B691800BD4606B080BD653600006F
:1038F0003D360000040C0040000C0040F532000092
:10390000080C004051360000AD47000080B584B07F
:1039100000AF02003960FB1D1A70FB1D1B78FB60B5
:103920003B681B781B021A00FB681343FB60FB1DFE
:103930001B781800044B9847044BFA6892B25A80DF
:10394000C046BD4604B080BD99390000000C00405F
:1039500080B582B000AF0200FB1D1A700A4B984779
:103960000A4AFB1D1B7813700949094B5B889BB2FF
:103970008022D20113439BB24B80064B9847C0462E
:10398000BD4602B080BDC0463D360000020C00407E
:10399000000C00405136000080B584B000AF02003A
:1039A000FB1D1A701C4B98471C4AFB1D1B7813709B
:1039B0001B4B5B881B051B0FDBB2FB60184A53884F
:1039C00018490B405380164A154B5B889BB2164929
:1039D0000B409BB25380C046114B5B889BB21A00D0
:1039E0008023DB011340F7D10D4AFB68DBB2191CC1
:1039F0000F230B40D9B25388081C0F210140080245
:103A000008490B40191C031C0B435380074B984774
:103A1000C046BD4604B080BD3D360000020C0040EB
:103A2000000C0040FFF0FFFFFFBFFFFF513600001A
:103A300080B584B000AF0200FB1D1A700D4B984793
:103A40000D4AFB1D1B7813700C4B5B881B051B0F6D
:103A5000DAB20F23FB181A70094B98470F23FB1893
:103A60001B781800074B984703001800BD4604B0A8
:103A700080BDC0463D360000020C0040000C0040F6
:103A8000513600003538000080B584B000AF020028
:103A9000FB1D1A700F23FB18FA1D1278D2091A7039
:103AA0000E23FB18FA1D127852091A700D4BBB60D9
:103AB0000F23FB181B78002B0FD10F23FB181B784B
:103AC0009B0010229446BC446344083B1A680E23B2
:103AD000FB181B78DB01D31800E000231800BD465B
:103AE00004B080BD0044004180B588B000AFF860EC
:103AF000B9607A600023FB617B68DB780122534068
:103B0000DBB2002B35D07B681B78802B0BD0FB6998
:103B1000802252021343FB617B681B781B061A004C
:103B2000FB691343FB617B685B78002B03D07B68E8
:103B30005B78022B10D1FB69802292021343FB6158
:103B40007B689B78002B04D0FB698022D202134350
:103B5000FB61FB68BA685A607B685B78012B03D015
:103B60007B685B78022B07D1FB69224A1340FB611B
:103B700002E0FB68BA685A60BB681B041B0CBB619F
:103B8000BB681B0C7B61BA69FB691343A022D20599
:103B90001A43FB689A627A69FB691343D0221206C2
:103BA0001A43FB689A627B68DB7801225340DBB2E0
:103BB000002B1AD0FA698023DB0213400AD07B68FD
:103BC0009B78012B03D1FB68BA689A6102E0FB681D
:103BD000BA685A617B685B78012B03D07B685B789D
:103BE000022B02D1FB68BA689A60C046BD4608B095
:103BF00080BDC046FFFFFBFF80B584B000AF020070
:103C00003960FB1D1A70FB1D1B7818000A4B984782
:103C10000300FB60FB1D1B781F22134001229A400A
:103C20001300BB603A68B968FB681800034B9847FB
:103C3000C046BD4604B080BD893A0000E93A0000A4
:103C400080B500AFC046BD4680BDC04680B500AF60
:103C5000064B9847064B9847064B9847064B9847A4
:103C6000064B9847C046BD4680BDC0460D35000096
:103C700015010000413C0000413C0000413C0000B7
:103C800080B586B000AFF860B9607A6000237B61D0
:103C9000FB68002B12D001235B4213E00B4B1A6828
:103CA0000B4B1B68B96818009047BB680133BB60B9
:103CB0007B6901337B617B68013B7B607B68002B08
:103CC000ECDC7B691800BD4606B080BDF801002021
:103CD0000002002080B586B000AFF860B9607A605D
:103CE00000237B61FB68012B1DD0FB68022B1AD0DF
:103CF000FB68032B17D001235B4218E00E4B1A68B8
:103D00000E4B1868BB68591CB9601B7819009047A6
:103D1000031E02DA01235B4209E07B6901337B6108
:103D20007B68013B7B607B68002BE7D17B691800D7
:103D3000BD4606B080BDC046FC0100200002002048
:103D400080B500AFBFF34F8F024B034ADA60BFF379
:103D50004F8FFEE700ED00E00400FA0580B584B067
:103D600000AF0200FB1D1A700F23FB18FA1D12781A
:103D7000D2091A700E23FB18FA1D127852091A7014
:103D80000D4BBB600F23FB181B78002B0FD10F23AB
:103D9000FB181B789B0010229446BC446344083BEC
:103DA0001A680E23FB181B78DB01D31800E00023F0
:103DB0001800BD4604B080BD0044004180B582B00B
:103DC00000AF0200FB1D1A70FB1D1B781800034B8F
:103DD000984703001800BD4602B080BD5D3D00005D
:103DE00080B582B000AF78607B6800221A707B6873
:103DF00001225A707B6800229A70C046BD4602B00C
:103E000080BDC04680B584B000AF0200FB1D1A70B3
:103E1000FB1D1B7818000B4B98470300FB60FB1D34
:103E20001B781F22134001229A401300BB60FB68DD
:103E30001B6ABA6813405A1E9341DBB21800BD4694
:103E400004B080BDBD3D000080B584B000AF02006D
:103E5000FB1D1A70BB1D0A1C1A70FB1D1B78180075
:103E60000D4B98470300FB60FB1D1B781F2213407E
:103E700001229A401300BB60BB1D1B78002B03D0AE
:103E8000FB68BA689A6102E0FB68BA685A61C0468A
:103E9000BD4604B080BDC046BD3D000080B500AF4A
:103EA000024B9847C046BD4680BDC046413D00001C
:103EB00080B500AF044B01221A70BFF35F8F62B66A
:103EC000C046BD4680BDC0460000002080B582B01F
:103ED00000AF0200FB1D1A70064BFA1D127811008C
:103EE0001F220A40012191400A001A60C046BD46C7
:103EF00002B080BD00E100E080B584B000AF786022
:103F00007B681B68FB60FB68DB695A1E9341DBB270
:103F10001800BD4604B080BD80B582B000AF7860A7
:103F20007B6801221A707B6800225A607B6800223D
:103F30009A607B68C0229203DA607B6800221A7460
:103F40007B6800225A747B6801229A747B68012284
:103F5000DA747B6800221A757B6824220021995448
:103F60007B6818330C22002118000A4B98477B68A5
:103F7000094A9A617B6800229A627B680022DA62B1
:103F80007B6800221A637B6800225A63C046BD46E4
:103F900002B080BD7B490000A086010080B584B0DE
:103FA00000AF78607B681B68FB607B681B6818004B
:103FB0000B4B9847030018000A4B9847C0467B6894
:103FC0001800094B9847031EF9D1FB681B680222B1
:103FD0001A43FB681A60C046BD4604B080BDC046A7
:103FE00099250000CD3E0000F93E000080B586B066
:103FF00000AFF860B9607A607B681A78FB681A7164
:104000007B685A78FB685A71FB68BA681A60142397
:10401000FB1818000C4B98471423FB1801221A7048
:10402000FB685B791422BA1811001800074B9847F7
:10403000FB685B7901211800054B984700231800A5
:10404000BD4606B080BDC046E13D0000ED1E00004B
:10405000493E000080B582B000AF78607B680022E6
:104060001A707B6801225A70084B5B68DB061B0FD5
:10407000DBB21A007B689A707B680022DA707B687A
:1040800000221A71C046BD4602B080BD004000410A
:1040900080B584B000AF78607B681B68FB60FB680C
:1040A000DB695A1E9341DBB21800BD4604B080BDE7
:1040B00080B582B000AF7860C0467B681800044BC2
:1040C0009847031EF9D1C046BD4602B080BDC04628
:1040D0009140000080B582B000AF78607B6880229C
:1040E000D2051A607B6800225A607B68FF221A8121
:1040F0007B6800229A727B680022DA727B689622C3
:1041000092011A627B682422012199547B6825223E
:10411000012199547B682622002199547B6827222B
:10412000002199547B6800229A627B68882252039E
:10413000DA607B682C22002199547B682D220021B3
:1041400099547B6800221A637B6800225A637B685B
:1041500000229A637B680022DA637B6800225A613E
:104160007B6800221A827B680022DA767B68002254
:104170001A767B6800221A777B6800225A767B6861
:1041800013229A767B6800225A77C046BD4602B059
:1041900080BDC04680B584B000AF78607B681B6886
:1041A000FB607B681B681800094B984703001800E8
:1041B000084B98477B681800074B9847FB681B68BB
:1041C00002221A43FB681A60C046BD4604B080BD97
:1041D00099250000CD3E0000B140000080B584B0BC
:1041E00000AFF860B9607A607A68B968FB68180057
:1041F000054B9847031E01D1012300E0002318005E
:10420000BD4604B080BDC046512A000080B582B0D2
:1042100000AF78600A00FB1C1A70C046FB1C1B78BC
:104220009AB27B6811001800044B9847031EF5D121
:1042300000231800BD4602B080BDC046C52C00005A
:1042400080B584B000AF786039600E23FB1800227F
:104250001A80C0460E23FA187B6811001800074B1D
:104260009847031EF6D10E23FB181B88DAB23B6871
:104270001A70C046BD4604B080BDC046292D00005E
:1042800080B584B000AFF860B9607A60104BFA680E
:104290001A60104B104A1A60104B114A1A607A6863
:1042A000B968FB6818000F4B98470F4B1B689B6859
:1042B000002118000D4B98470B4B1B685B680021D1
:1042C00018000A4B9847C046BD4604B080BDC046A2
:1042D00000020020FC0100200D420000F801002037
:1042E00041420000DD4100006C000020994A0000BE
:1042F00080B590B000AF3B001800134B98473B00CF
:10430000C4229203DA603B00012252421A633B004E
:10431000012252425A633B000C4A9A633B000C4A0A
:10432000DA633B00E12252021A623A0009490A4B61
:1043300018000A4B9847084B1800094B9847C0468D
:10434000BD4610B080BDC046D540000003002A0025
:1043500003002B00001800420402002081420000EC
:104360009541000080B590B000AF3B1D1800194B7F
:1043700098473B1D184A9A613B1D80225202DA6021
:104380003B1D164A9A623B1D154ADA623B1D154ACF
:104390001A633B1D144A5A633A1D1449144B180002
:1043A000144B9847124B1800134B98473C23FB18AB
:1043B00004221A703C23FB1807225A703C23FA1877
:1043C0000B490E4B18000E4B9847C046BD4610B027
:1043D00080BDC046193F0000C0D40100020010009B
:1043E000020011000200120002001300000C004243
:1043F00040020020210D00009D3F000038020020F7
:10440000ED3F000080B582B000AF7860FE23DB0195
:104410007A681000190007231A00034B9847786840
:10442000BD4602B080BDC0466949000090B595B058
:1044300000AF3B00186059600C23FB1818004023A4
:104440001A000021234B98473B001A780C23FB18D5
:104450001A703B005A780C23FB185A703B009A786C
:104460000C23FB189A703B00DA780C23FB18DA70E7
:104470003B001A790C23FB181A713B005A790C2364
:10448000FB185A713B009A790C23FB189A714F2341
:10449000FC18FE23DB0118000F4B98470300237024
:1044A0004F23FB181B78052BF1D04F23FC180C234E
:1044B000F918FE23DB0140221800084B984703003F
:1044C00023704F23FB181B78052BEED0C046BD464A
:1044D00015B090BD7B4900001D1E0000D11C0000DE
:1044E00090B587B000AF3B00186059603B005B7926
:1044F0001A003F4B110018003E4B98473B005B7978
:104500009B04FB603C4B18003C4B98473A4B18000F
:104510003B4B9847031E04D03A4B18003A4B984740
:1045200062E000237B6141E07B69802212029446B5
:1045300063440B22BC181800344B984703002370C7
:104540000B23FB181B78052BEED000233B6120E0EA
:10455000FA687B69D3183A69920199182C4A26485F
:1045600040232C4CA0477B6980221202944663446E
:104570000B22BC18264940221800274B98470300FD
:1045800023700B23FB181B78052BECD03B69013300
:104590003B613B69032BDBDD7B690133FF337B61CF
:1045A0007A691E4B11001800124B98477B698022D4
:1045B0001202944663441A4A9342B5D90E4B18002E
:1045C000184B98473B005A793B001A713B00002278
:1045D0009A713B0018685968134B9847134B1800A1
:1045E000094B9847124B9847BD4607B090BDC0464F
:1045F000FC5B00008D49000038020020910700009C
:10460000A1050000205C0000854A00001D1E00007E
:10461000D40000204D060000D11C0000505C0000BA
:104620003F9C0000050700002D440000605C000076
:104630009D3E000080B582B000AF3B001800064BE5
:1046400098473B0000225A703B001800034B9847E4
:10465000C046BD4602B080BD55400000E11A0000D2
:1046600080B582B000AF3B1D1800074B98473B1D3B
:1046700000221A703B1D19003720044B9847C04692
:10468000BD4602B080BDC046E13D0000ED1E000009
:1046900080B500AF054B9847054B9847054B9847A9
:1046A000054B9847C046BD4680BDC046D5190000A1
:1046B000F1420000354600006543000080B586B039
:1046C00000AF2C4B98472C4B98472C4B98472C4BC2
:1046D0003B611623FB1800221A801523FB180022C9
:1046E0001A7010E03720274B984703001A00012367
:1046F0005340DBB2002B06D01523FB1801221A70A1
:10470000214B984709E01623FB181B881622BA187C
:10471000591C11801D4A9342E4D91523FB181B78BC
:10472000002B17D13B1D1800194B98473B1D9B7957
:10473000002B06D0144B98473B1D18685968154B41
:104740009847154B802212029A60144B1B68FB603D
:10475000FB689847124B1800124B9847FA235B00EE
:104760001800114B98471523FB181522BA18127818
:104770001A70D2E74D3C0000B13E000061460000D7
:10478000007F0000053E000091460000E7030000A6
:1047900005440000E144000000ED00E0048000005A
:1047A000A85C00008D4900002D1A0000002243087B
:1047B0008B4274D303098B425FD3030A8B4244D3E9
:1047C000030B8B4228D3030C8B420DD3FF2209022B
:1047D00012BA030C8B4202D31212090265D0030BEA
:1047E0008B4219D300E0090AC30B8B4201D3CB03E0
:1047F000C01A5241830B8B4201D38B03C01A524122
:10480000430B8B4201D34B03C01A5241030B8B4223
:1048100001D30B03C01A5241C30A8B4201D3CB020E
:10482000C01A5241830A8B4201D38B02C01A5241F3
:10483000430A8B4201D34B02C01A5241030A8B42F6
:1048400001D30B02C01A5241CDD2C3098B4201D30E
:10485000CB01C01A524183098B4201D38B01C01A8C
:10486000524143098B4201D34B01C01A5241030903
:104870008B4201D30B01C01A5241C3088B4201D3B2
:10488000CB00C01A524183088B4201D38B00C01A5F
:10489000524143088B4201D34B00C01A5241411A86
:1048A00000D20146524110467047FFE701B5002093
:1048B00000F006F802BDC0460029F7D076E7704741
:1048C0007047C046F0B54F464646C0B41604360C95
:1048D0009946330005042C0C070C150C63437E43EA
:1048E0006F4365431C0CAD1964199C46A64203D95D
:1048F00080235B02984647446346250CEF191D044C
:104900004B464A4343432D0C240464199918C91992
:1049100020000CBC90469946F0BDC0460E4B70B5C9
:1049200000251E000D4CE41AA410A54204D0AB00D3
:10493000F35898470135F8E701F008FA084B0025CD
:104940001E00084CE41AA410A54204D0AB00F35892
:1049500098470135F8E770BD585D0000585D0000CC
:10496000585D00005C5D0000002310B59A4203D042
:10497000CC5CC4540133F9E710BD030082189342A4
:1049800002D019700133FAE7704700000FB40B4BE7
:1049900013B51C68002C05D0A369002B02D12000A0
:1049A00000F0F6FA05AB049AA1682000019300F02C
:1049B000B5FC16BC08BC04B01847C0466C0000200B
:1049C00070B505000E00002804D08369002B01D1CA
:1049D00000F0DEFAAB69AC68002B02D1280000F0D1
:1049E000D7FA254B9C4201D16C6808E0234B9C42CE
:1049F00001D1AC6803E0224B9C4200D1EC68A38952
:104A00001B0702D52369002B11D12100280000F0DB
:104A100055F900280BD0012040422BE0013B013624
:104A2000A360002B08DB23685A1C226019703178C0
:104A3000A3680029F2D10BE0A269934201DB0A29A5
:104A4000F1D12200280000F0E1F8431CEFD1E2E7A9
:104A5000013BA360002B08DA22000A31280000F095
:104A6000D5F8431CD7D00A2004E00A2023685A1C3A
:104A70002260187070BDC046B85C0000D85C0000B1
:104A8000F85C000010B5034B01001868FFF798FFB1
:104A900010BDC0466C0000204A424A41802310B538
:104AA0005200DB0000F002F810BD0000F0B51D0060
:104AB000514B85B01E6804000F000092002E05D0F7
:104AC000B369002B02D1300000F062FA4B4B9C42DC
:104AD00001D1746808E04A4B9C4201D1B46803E0FC
:104AE000484B9C4200D1F468009B022B05D0012B5F
:104AF00000D97CE0002D00DA79E02100300000F0E0
:104B0000D9F9616B002908D023004433994202D0BF
:104B1000300000F03FFB002363630023A361636068
:104B2000A3891B0603D52169300000F033FBA2895D
:104B3000354B1340A381009B022B21D003AB02AA6B
:104B40002100300000F0B8FAA3891843A081002D9D
:104B500001D1029D01E0002F25D1280000F010FBBB
:104B60000195071E1AD1029B0193AB4202D101208D
:104B7000404206E0019800F003FB071E0ED1F6E765
:104B800000200222A3891343A3810023A3602300F2
:104B9000473323602361012363612AE08022A389D4
:104BA000019D1343A381B369002B02D1300000F0B3
:104BB000EFF9009B012B03D1A389009A1A43A2812C
:104BC0000823A2892760134027616561181E0CD055
:104BD00001231A400023101E984204D06D42A360A6
:104BE000A561180005E0A56003E0A36001E00120D5
:104BF000404205B0F0BDC0466C000020B85C00002B
:104C0000D85C0000F85C00005CF3FFFFF8B505001D
:104C10000F001400002804D08369002B01D100F09C
:104C2000B7F9234B9C4201D16C6808E0214B9C42B0
:104C300001D1AC6803E0204B9C4200D1EC68A36931
:104C4000A360A3891B070AD52369002B07D023681B
:104C50002269FEB2981A636998420FDB08E02100CE
:104C6000280000F02BF80028F1D0012040421DE080
:104C70002100280000F01EF90028F6D1A3680130B9
:104C8000013BA36023685A1C22601F70636998422D
:104C900005D0A3893000DB0708D50A2E06D12100F4
:104CA000280000F007F90028DFD13000F8BDC04629
:104CB000B85C0000D85C0000F85C0000364B70B5B2
:104CC0001D6806000C00002D05D0AB69002B02D139
:104CD000280000F05DF9314B9C4201D16C6808E07E
:104CE0002F4B9C4201D1AC6803E02E4B9C4200D17B
:104CF000EC680C22A35E9AB2110723D4D10607D424
:104D000009220120326037321343A381404242E03E
:104D1000530713D5616B002908D02300443399420F
:104D200002D0300000F036FA002363632422A38906
:104D30009343A38100236360236923600822A3892E
:104D40001343A3812369002B0BD1A023A2899B00CD
:104D5000134080229200934203D02100300000F0E3
:104D6000D1F90123A289134005D00023A360636910
:104D70005B42A36103E0920700D46369A360002053
:104D80002369834207D10C22A35E1A0603D5402271
:104D90001343A381013870BD6C000020B85C000093
:104DA000D85C0000F85C0000F7B58A8905000C00AB
:104DB00013075AD44B68002B02DC0B6C002B19DD57
:104DC000E76A002F16D000232E682B6080235B013A
:104DD0001A4001D0606D14E00123216A2800B84711
:104DE000431C0ED12B68002B0BD01D2B01D0162B92
:104DF00002D12E6000205AE04022A3891343A381F0
:104E000055E0A3895B0706D56368C01A636B002B66
:104E100001D0236CC01A00230200216A2800E76A2F
:104E2000B847A389421C06D129681D293AD8204ACF
:104E3000CA40D20736D50022626022692260DB04B4
:104E400005D5431C02D12B68002B00D16065616B36
:104E50002E600029CED023004433994202D028008E
:104E600000F098F90020606321E00F69002FC1D0A5
:104E70000B680F60DB1B01930023920700D14B6985
:104E8000A36003E0019B3F181B1A0193019B002BB9
:104E9000B0DD019B3A00216A2800A66AB0470028CD
:104EA000F0DCA389402201201343A3814042FEBDD0
:104EB000010040200B6970B505000C00002B01D1EA
:104EC00000201CE0002804D08369002B01D100F0F1
:104ED0005FF80B4B9C4201D16C6808E0094B9C4287
:104EE00001D1AC6803E0084B9C4200D1EC680C2275
:104EF000A35E002BE4D021002800FFF755FF70BD12
:104F0000B85C0000D85C0000F85C000010B50249F5
:104F100000F0B0F810BDC046B54E0000002310B53B
:104F2000040003604360836081814366C281036142
:104F300043618361190008225C30FFF71EFD054BB9
:104F400024626362044BA362044BE362044B236359
:104F500010BDC04699580000C1580000F958000023
:104F60002559000070B568254B1E5D430E002900D1
:104F7000743100F055F9041E08D000212A000160A8
:104F800046600C30A0606832FFF7F7FC200070BD6F
:104F9000836913B50400002B28D18364C3640365BF
:104FA000134B144A1B6882620193984201D101237A
:104FB0008361200000F020F86060200000F01CF801
:104FC000A060200000F018F80022E0600421606872
:104FD000FFF7A4FF01220921A068FFF79FFF02222B
:104FE0001221E068FFF79AFF0123A36113BDC046B9
:104FF000B45C00000D4F0000F8B51D4B06001D68A5
:10500000AB69002B02D12800FFF7C2FF4835AC681E
:105010006B68013B05D40C22A75E002F10D06834CA
:10502000F7E72B68002B01D02D68F0E70421300052
:10503000FFF798FF28600028F6D10C23336016E0B4
:10504000012320005B42E3810233A381676627606E
:10505000A760676027616761A7615C30082239003B
:10506000FFF78BFC20006763A763A764E764F8BDC4
:10507000B45C0000F7B50400070000260191483435
:10508000002C16D06368A5680093009B013B009339
:105090000DD4AB89012B08D90E22AB5E013304D0AD
:1050A00029003800019B984706436835EDE72468DE
:1050B000E6E73000FEBD000070B50E001D000E23B7
:1050C000C95E90B01400002906DA00232B60B38972
:1050D0001B060FD540230FE001AA00F04FFC00286B
:1050E000F3DBF023029A1B021340054A9B185A4235
:1050F00053412B608023DB000020236010B070BD83
:1051000000E0FFFFF7B502268B8905000C00334253
:1051100010D101AB6A46FFF7CFFF009907002800C6
:1051200000F07EF800280CD10C22A35E9A0523D44F
:105130003343A38123004733236023610123636149
:105140001AE080220D4BAB62A38920601343A38138
:10515000009B20616361019B002B0AD00E23E15E5E
:10516000280000F01DFC002803D00122A38913436E
:10517000A381A3891F43A781F7BDC0460D4F00003F
:1051800010B5034B0100186800F04AF810BDC04686
:105190006C00002030B500293ED004390B68002B8C
:1051A00000DAC9181D4A13681400002B02D14B60A5
:1051B000116031E08B420DD90A688818834203D10F
:1051C00018685B6882180A604B60216024E08A429C
:1051D00003D813005A68002AF9D11D685C198C4263
:1051E0000BD10968691858181960824214D11068E7
:1051F0005268411819605A600EE08C4202D90C23A3
:10520000036009E008680C18A24203D114685268D0
:10521000201808604A60596030BDC046D80100209F
:10522000032370B5CD1C9D43083506000C2D01D21B
:105230000C2505E0002D03DA0C230020336040E04C
:10524000A942F9D81F4B1C681A002100002913D06D
:105250000B685B1B0DD40B2B02D90B60CC181EE026
:105260008C4202D1636813601AE04B6863600C00E3
:1052700016E00C004968E9E7134C2368002B03D1C2
:10528000300000F0F7FA20602900300000F0F2FA58
:10529000431CD1D00323C41C9C43A0420AD12560E7
:1052A000200007220B30231D9043C31A09D05A4215
:1052B000E25006E0211A300000F0DCFA431CEED187
:1052C000BAE770BDD8010020D4010020936810B562
:1052D000013B9360002B05DA9469A34208DBCBB253
:1052E0000A2B05D01368581C10601970C8B201E071
:1052F000FFF78CFC10BDF8B506000F001400D518A0
:10530000AC4208D021783A003000FFF7DFFF0134CB
:10531000431CF5D100E00020F8BD0000F0B59FB0BF
:1053200006000F0002920593002804D08369002B29
:1053300001D1FFF72DFE7F4B9F4201D1776808E036
:105340007D4B9F4201D1B76803E07C4B9F4200D167
:10535000F768BB891B070AD53B69002B07D00023E0
:1053600006AD6B6120336B761033AB763DE03900D0
:105370003000FFF7A3FC0028F1D001204042D6E026
:10538000059A111D12680591002A00DA7FE0099242
:10539000013423782E2B00D18DE021780322684838
:1053A00000F024FB002807D0654B2A68C01A402370
:1053B000834013432B6001342178631C062261482B
:1053C0000293297600F012FB002800D19DE05E4B8D
:1053D000002B00D090E00722059B0733934308334E
:1053E00005936B69039A9B186B61029C2378002BD1
:1053F00004D1029BE31A049312D003E0252BF8D0CA
:105400000134F3E7049B029A39003000FFF773FF81
:10541000431C00D186E06A69049B944663446B6137
:105420002378002B7ED00122002352426A6002A919
:105430005432521801342B60EB60AB601370AB65D3
:1054400021780522414800F0D1FA002808D03F4BCE
:105450002A68C01A0123834013432B600134EFE70D
:105460002B68DA0604D55322202102A812181170E5
:105470001A0704D553222B2102A812181170227882
:105480002A2A00D17CE7099B00200A2105E052422C
:10549000EA60022213432B607AE72278303A092A25
:1054A00004D84B4301349B180120F6E7002800D1B3
:1054B0006FE709936DE763782A2B0AD1059B0234C5
:1054C0001A1D1B680592002B01DA01235B4207932A
:1054D00063E700230A201A0001346B602178303919
:1054E000092904D84243013452180123F6E7002B5E
:1054F00000D152E7079250E705AB00933A00144BF6
:105500002900300000E000BF07E005AB00933A003F
:105510000F4B2900300000F08BF80390039B013300
:1055200000D05EE7BB895B0600D526E70B981FB06D
:10553000F0BDC046B85C0000D85C0000F85C00001C
:105540001E5D0000225D000000000000185D0000EC
:10555000F7520000F7B5170001938A680B690090B5
:105560000C00934200DA130022003B6043321278B1
:10557000002A01D001333B6023689B0602D53B68BB
:1055800002333B60062523681D401ED023004333B1
:105590001B785A1E9341226892061CD53020E118D0
:1055A0004331087021005A1C45310978A218433252
:1055B000023311700FE02200012319320199009883
:1055C000089EB047431C0ED00135E3683A689B1A29
:1055D0009D42F0DBDAE72200019943320098089DF2
:1055E000A847431C02D10120404220E00623206846
:1055F000E1683A6803400025042B03D18D1AEB4380
:10560000DB171D40A3682269934201DD9B1AED1848
:105610000027BD420AD0220001231A3201990098C6
:10562000089EB047431CDED00137F2E70020FEBDE4
:10563000F0B58BB006920A004332079305900492AE
:105640000A7E0C00109B6E2A00D1ABE011D8632AB1
:1056500022D009D8002A00D1B5E0582A00D0C5E0F0
:1056600045310A70814A4FE0642A1DD0692A1BD057
:10567000BCE0732A00D1AAE009D86F2A29D0702A89
:1056800000D0B3E0202209680A43226037E0752A7F
:105690001FD0782A33D0A9E00E001A684236111DB7
:1056A000196013683370A4E021681A68080606D4EC
:1056B000490604D5111D19600023D55E02E0111DB5
:1056C00019601568002D3BDA2D23049A6D42137082
:1056D00036E021681A68080606D4490604D515681C
:1056E000111D1960ADB202E0111D196015685F4B04
:1056F000227E039308276F2A1DD00A271BE0220071
:105700007821453211705A4A19680392081D22689F
:1057100018600D68100602D4500600D5ADB2D3074C
:1057200002D520231A4322601027002D03D1202305
:1057300022689A4322602300002243331A7002E059
:105740000A274A4B03936368A360002B09DB0422FA
:10575000216891432160002D05D1049E002B11D0BA
:105760007BE0002D79D0049E28003900FFF7A4F8D3
:10577000039B013E5B5C280033703900FFF716F88D
:10578000051EF1D1082F09D12368DB0706D5636810
:105790002269934202DC3023013E3370049B9B1B41
:1057A00023612BE009681A68080607D4490605D565
:1057B000111D19601368A28A1A8004E0111D196076
:1057C000136862691A600023049E236116E01A6858
:1057D000111D1960166800216268300000F006F99A
:1057E000002801D0801B6060636803E02600423619
:1057F0003270012323610023049A1370079B09AAC6
:1058000000932100069B0598FFF7A4FE431C02D1DC
:105810000120404227E02369320006990598079D40
:10582000A847431CF4D0236800259B070FD4099B8D
:10583000E068984217DA180015E0220001231932B7
:1058400006990598079EB047431CE1D00135E368EF
:10585000099A9B1A9D42F0DBE9E72600039B42363A
:105860001B7833708EE70BB0F0BDC046295D000099
:105870003A5D0000002370B5064C05000800236067
:10588000FCF742F8431C03D12368002B00D02B60A7
:1058900070BDC0467C02002070B50C000E25495F2B
:1058A00000F0B0F8002803DB636D1B18636503E0AC
:1058B000A289024B1340A38170BDC046FFEFFFFFDA
:1058C000F8B51F008B8905000C001600DB0505D517
:1058D0000E23C95E0022022300F074F8A289054B52
:1058E00028001340A38132000E23E15E3B0000F04C
:1058F0001FF8F8BDFFEFFFFF70B50C000E25495FE4
:1059000000F060F8A389421C03D1054A1340A3812B
:1059100004E0802252011343A381606570BDC0463C
:10592000FFEFFFFF10B50E23C95E00F015F810BDA4
:1059300070B50500080011000022064C22601A0014
:10594000FEF7C8F9431C03D12368002B00D02B605D
:1059500070BDC0467C020020002370B5064C0500D7
:1059600008002360FBF7EEFF431C03D12368002BE4
:1059700000D02B6070BDC0467C020020002370B5B3
:10598000064C0500080011002360FBF7E5FF431CEF
:1059900003D12368002B00D02B6070BD7C02002057
:1059A000002370B5064C050008002360FBF7E2FFFA
:1059B000431C03D12368002B00D02B6070BDC04670
:1059C0007C02002070B50500080011000022064C82
:1059D00022601A00FBF7D8FF431C03D12368002B79
:1059E00000D02B6070BDC0467C020020C9B2821876
:1059F000904204D003788B4202D00130F8E70020B7
:105A00007047000070B50500080011000022064C28
:105A100022601A00FEF734F9431C03D12368002BDF
:105A200000D02B6070BDC0467C0200209E020000AA
:105A3000A2020000A6020000AA020000AE020000BE
:105A4000B2020000B6020000BA020000BE0200006E
:105A5000C20200001A030000200300002603000019
:105A60002C0300002C03000032030000320300006E
:105A700032030000380300003E030000701C0000E9
:105A8000701C0000641C0000701C0000641C0000FE
:105A90003E1C00003E1C0000701C0000701C00003A
:105AA000701C0000701C0000701C0000701C0000C6
:105AB000701C0000701C0000701C0000701C0000B6
:105AC000701C0000701C0000701C0000701C0000A6
:105AD000701C0000701C0000701C0000701C000096
